{
  "_format": "hh-sol-artifact-1",
  "contractName": "FaroEnglishAuction",
  "sourceName": "contracts/EnglishAuctions/FaroEnglishAuction.sol",
  "abi": [
    {
      "inputs": [],
      "stateMutability": "nonpayable",
      "type": "constructor"
    },
    {
      "anonymous": false,
      "inputs": [
        {
          "indexed": true,
          "internalType": "uint256",
          "name": "auctionId",
          "type": "uint256"
        },
        {
          "indexed": false,
          "internalType": "uint256",
          "name": "highestBid",
          "type": "uint256"
        }
      ],
      "name": "BidPlaced",
      "type": "event"
    },
    {
      "anonymous": false,
      "inputs": [
        {
          "indexed": true,
          "internalType": "uint256",
          "name": "auctionId",
          "type": "uint256"
        }
      ],
      "name": "Cancelled",
      "type": "event"
    },
    {
      "anonymous": false,
      "inputs": [
        {
          "indexed": true,
          "internalType": "uint256",
          "name": "auctionId",
          "type": "uint256"
        }
      ],
      "name": "Created",
      "type": "event"
    },
    {
      "anonymous": false,
      "inputs": [
        {
          "indexed": true,
          "internalType": "uint256",
          "name": "auctionId",
          "type": "uint256"
        }
      ],
      "name": "Ended",
      "type": "event"
    },
    {
      "anonymous": false,
      "inputs": [
        {
          "indexed": true,
          "internalType": "address",
          "name": "previousOwner",
          "type": "address"
        },
        {
          "indexed": true,
          "internalType": "address",
          "name": "newOwner",
          "type": "address"
        }
      ],
      "name": "OwnershipTransferred",
      "type": "event"
    },
    {
      "anonymous": false,
      "inputs": [
        {
          "indexed": false,
          "internalType": "address",
          "name": "account",
          "type": "address"
        }
      ],
      "name": "Paused",
      "type": "event"
    },
    {
      "anonymous": false,
      "inputs": [
        {
          "indexed": true,
          "internalType": "uint256",
          "name": "auctionId",
          "type": "uint256"
        }
      ],
      "name": "Started",
      "type": "event"
    },
    {
      "anonymous": false,
      "inputs": [
        {
          "indexed": false,
          "internalType": "address",
          "name": "account",
          "type": "address"
        }
      ],
      "name": "Unpaused",
      "type": "event"
    },
    {
      "inputs": [
        {
          "internalType": "address",
          "name": "tokenAddr",
          "type": "address"
        },
        {
          "internalType": "uint256",
          "name": "tokenId",
          "type": "uint256"
        }
      ],
      "name": "bid",
      "outputs": [],
      "stateMutability": "payable",
      "type": "function"
    },
    {
      "inputs": [
        {
          "internalType": "address",
          "name": "tokenAddr",
          "type": "address"
        },
        {
          "internalType": "uint256",
          "name": "tokenId",
          "type": "uint256"
        }
      ],
      "name": "cancelAuction",
      "outputs": [],
      "stateMutability": "nonpayable",
      "type": "function"
    },
    {
      "inputs": [
        {
          "internalType": "address",
          "name": "tokenAddr",
          "type": "address"
        },
        {
          "internalType": "uint256",
          "name": "tokenId",
          "type": "uint256"
        },
        {
          "internalType": "uint256",
          "name": "auctDuration",
          "type": "uint256"
        },
        {
          "internalType": "uint256",
          "name": "floorPrice",
          "type": "uint256"
        },
        {
          "internalType": "uint256",
          "name": "bidIncrement",
          "type": "uint256"
        }
      ],
      "name": "createAuction",
      "outputs": [],
      "stateMutability": "nonpayable",
      "type": "function"
    },
    {
      "inputs": [
        {
          "internalType": "address",
          "name": "tokenAddr",
          "type": "address"
        },
        {
          "internalType": "uint256",
          "name": "tokenId",
          "type": "uint256"
        }
      ],
      "name": "endAuction",
      "outputs": [],
      "stateMutability": "nonpayable",
      "type": "function"
    },
    {
      "inputs": [
        {
          "internalType": "address",
          "name": "tokenAddr",
          "type": "address"
        },
        {
          "internalType": "uint256",
          "name": "tokenId",
          "type": "uint256"
        }
      ],
      "name": "getAuctionCountbyToken",
      "outputs": [
        {
          "internalType": "uint256",
          "name": "",
          "type": "uint256"
        }
      ],
      "stateMutability": "view",
      "type": "function"
    },
    {
      "inputs": [
        {
          "internalType": "uint256",
          "name": "index",
          "type": "uint256"
        }
      ],
      "name": "getAuctionRemainingTimeByIndex",
      "outputs": [
        {
          "internalType": "uint256",
          "name": "",
          "type": "uint256"
        }
      ],
      "stateMutability": "view",
      "type": "function"
    },
    {
      "inputs": [
        {
          "internalType": "uint256",
          "name": "index",
          "type": "uint256"
        }
      ],
      "name": "getAuctionbyIndex",
      "outputs": [
        {
          "components": [
            {
              "internalType": "uint256",
              "name": "auctionId",
              "type": "uint256"
            },
            {
              "internalType": "address",
              "name": "tokenOwner",
              "type": "address"
            },
            {
              "components": [
                {
                  "internalType": "address",
                  "name": "tokenAddr",
                  "type": "address"
                },
                {
                  "internalType": "uint256",
                  "name": "tokenId",
                  "type": "uint256"
                }
              ],
              "internalType": "struct FaroEnglishAuction.Token",
              "name": "token",
              "type": "tuple"
            },
            {
              "internalType": "uint256",
              "name": "startTime",
              "type": "uint256"
            },
            {
              "internalType": "uint256",
              "name": "duration",
              "type": "uint256"
            },
            {
              "internalType": "uint256",
              "name": "floorPrice",
              "type": "uint256"
            },
            {
              "internalType": "uint256",
              "name": "bidIncrement",
              "type": "uint256"
            },
            {
              "internalType": "uint256",
              "name": "highestBid",
              "type": "uint256"
            },
            {
              "internalType": "address",
              "name": "highestBidder",
              "type": "address"
            },
            {
              "internalType": "enum FaroEnglishAuction.AuctionState",
              "name": "auctionState",
              "type": "uint8"
            }
          ],
          "internalType": "struct FaroEnglishAuction.Auction",
          "name": "",
          "type": "tuple"
        }
      ],
      "stateMutability": "view",
      "type": "function"
    },
    {
      "inputs": [
        {
          "internalType": "uint256",
          "name": "auctionId",
          "type": "uint256"
        },
        {
          "internalType": "address",
          "name": "bidder",
          "type": "address"
        }
      ],
      "name": "getBidOfAddressByAuctionId",
      "outputs": [
        {
          "internalType": "uint256",
          "name": "",
          "type": "uint256"
        }
      ],
      "stateMutability": "view",
      "type": "function"
    },
    {
      "inputs": [
        {
          "internalType": "address",
          "name": "tokenAddr",
          "type": "address"
        },
        {
          "internalType": "uint256",
          "name": "tokenId",
          "type": "uint256"
        },
        {
          "internalType": "uint256",
          "name": "index",
          "type": "uint256"
        }
      ],
      "name": "getIndexFromTokenAuctions",
      "outputs": [
        {
          "internalType": "uint256",
          "name": "",
          "type": "uint256"
        }
      ],
      "stateMutability": "view",
      "type": "function"
    },
    {
      "inputs": [
        {
          "internalType": "address",
          "name": "tokenAddr",
          "type": "address"
        },
        {
          "internalType": "uint256",
          "name": "tokenId",
          "type": "uint256"
        }
      ],
      "name": "getLastAuctionByToken",
      "outputs": [
        {
          "components": [
            {
              "internalType": "uint256",
              "name": "auctionId",
              "type": "uint256"
            },
            {
              "internalType": "address",
              "name": "tokenOwner",
              "type": "address"
            },
            {
              "components": [
                {
                  "internalType": "address",
                  "name": "tokenAddr",
                  "type": "address"
                },
                {
                  "internalType": "uint256",
                  "name": "tokenId",
                  "type": "uint256"
                }
              ],
              "internalType": "struct FaroEnglishAuction.Token",
              "name": "token",
              "type": "tuple"
            },
            {
              "internalType": "uint256",
              "name": "startTime",
              "type": "uint256"
            },
            {
              "internalType": "uint256",
              "name": "duration",
              "type": "uint256"
            },
            {
              "internalType": "uint256",
              "name": "floorPrice",
              "type": "uint256"
            },
            {
              "internalType": "uint256",
              "name": "bidIncrement",
              "type": "uint256"
            },
            {
              "internalType": "uint256",
              "name": "highestBid",
              "type": "uint256"
            },
            {
              "internalType": "address",
              "name": "highestBidder",
              "type": "address"
            },
            {
              "internalType": "enum FaroEnglishAuction.AuctionState",
              "name": "auctionState",
              "type": "uint8"
            }
          ],
          "internalType": "struct FaroEnglishAuction.Auction",
          "name": "",
          "type": "tuple"
        }
      ],
      "stateMutability": "view",
      "type": "function"
    },
    {
      "inputs": [],
      "name": "getTotalAuctionCount",
      "outputs": [
        {
          "internalType": "uint256",
          "name": "",
          "type": "uint256"
        }
      ],
      "stateMutability": "view",
      "type": "function"
    },
    {
      "inputs": [
        {
          "internalType": "address",
          "name": "operator",
          "type": "address"
        },
        {
          "internalType": "address",
          "name": "from",
          "type": "address"
        },
        {
          "internalType": "uint256",
          "name": "tokenId",
          "type": "uint256"
        },
        {
          "internalType": "bytes",
          "name": "data",
          "type": "bytes"
        }
      ],
      "name": "onERC721Received",
      "outputs": [
        {
          "internalType": "bytes4",
          "name": "",
          "type": "bytes4"
        }
      ],
      "stateMutability": "nonpayable",
      "type": "function"
    },
    {
      "inputs": [],
      "name": "owner",
      "outputs": [
        {
          "internalType": "address",
          "name": "",
          "type": "address"
        }
      ],
      "stateMutability": "view",
      "type": "function"
    },
    {
      "inputs": [],
      "name": "pause",
      "outputs": [],
      "stateMutability": "nonpayable",
      "type": "function"
    },
    {
      "inputs": [],
      "name": "paused",
      "outputs": [
        {
          "internalType": "bool",
          "name": "",
          "type": "bool"
        }
      ],
      "stateMutability": "view",
      "type": "function"
    },
    {
      "inputs": [],
      "name": "renounceOwnership",
      "outputs": [],
      "stateMutability": "nonpayable",
      "type": "function"
    },
    {
      "inputs": [
        {
          "internalType": "address",
          "name": "tokenAddr",
          "type": "address"
        },
        {
          "internalType": "uint256",
          "name": "tokenId",
          "type": "uint256"
        }
      ],
      "name": "startAuction",
      "outputs": [],
      "stateMutability": "nonpayable",
      "type": "function"
    },
    {
      "inputs": [
        {
          "internalType": "address",
          "name": "newOwner",
          "type": "address"
        }
      ],
      "name": "transferOwnership",
      "outputs": [],
      "stateMutability": "nonpayable",
      "type": "function"
    },
    {
      "inputs": [],
      "name": "unpause",
      "outputs": [],
      "stateMutability": "nonpayable",
      "type": "function"
    },
    {
      "inputs": [
        {
          "internalType": "address",
          "name": "tokenAddr",
          "type": "address"
        },
        {
          "internalType": "uint256",
          "name": "tokenId",
          "type": "uint256"
        }
      ],
      "name": "withdraw",
      "outputs": [],
      "stateMutability": "nonpayable",
      "type": "function"
    },
    {
      "inputs": [
        {
          "internalType": "address",
          "name": "tokenAddr",
          "type": "address"
        },
        {
          "internalType": "uint256",
          "name": "tokenId",
          "type": "uint256"
        }
      ],
      "name": "withdrawNFT",
      "outputs": [],
      "stateMutability": "nonpayable",
      "type": "function"
    }
  ],
  "bytecode": "0x60806040523480156200001157600080fd5b5062000032620000266200005260201b60201c565b6200005a60201b60201c565b60008060146101000a81548160ff0219169083151502179055506200011e565b600033905090565b60008060009054906101000a900473ffffffffffffffffffffffffffffffffffffffff169050816000806101000a81548173ffffffffffffffffffffffffffffffffffffffff021916908373ffffffffffffffffffffffffffffffffffffffff1602179055508173ffffffffffffffffffffffffffffffffffffffff168173ffffffffffffffffffffffffffffffffffffffff167f8be0079c531659141344cd1fd0a4f28419497f9722a3daafe3b4186f6b6457e060405160405180910390a35050565b613fb6806200012e6000396000f3fe6080604052600436106101295760003560e01c8063715018a6116100ab57806388cedbc41161006f57806388cedbc4146103ce5780638da5cb5b146103f7578063961c9ae414610422578063e1b0b67d1461044b578063f2fde38b14610488578063f3fef3a3146104b157610129565b8063715018a61461030f5780637d3f05011461032657806382fdaa8b146103635780638456cb591461038e578063859b97fe146103a557610129565b806359d667a5116100f257806359d667a5146102395780635c975abb146102555780636088e93a14610280578063646ec895146102a95780636c50e4a1146102d257610129565b80627a5a0b1461012e578063150b7a021461016b578063283b6177146101a85780633f4ba83a146101e55780634685382e146101fc575b600080fd5b34801561013a57600080fd5b506101556004803603810190610150919061305b565b6104da565b6040516101629190613902565b60405180910390f35b34801561017757600080fd5b50610192600480360381019061018d9190612fdb565b610761565b60405161019f9190613687565b60405180910390f35b3480156101b457600080fd5b506101cf60048036038101906101ca9190613097565b610776565b6040516101dc919061391e565b60405180910390f35b3480156101f157600080fd5b506101fa610804565b005b34801561020857600080fd5b50610223600480360381019061021e919061315d565b61088a565b6040516102309190613902565b60405180910390f35b610253600480360381019061024e919061305b565b610ad0565b005b34801561026157600080fd5b5061026a610b21565b604051610277919061366c565b60405180910390f35b34801561028c57600080fd5b506102a760048036038101906102a2919061305b565b610b37565b005b3480156102b557600080fd5b506102d060048036038101906102cb919061305b565b610b88565b005b3480156102de57600080fd5b506102f960048036038101906102f4919061315d565b610bd9565b604051610306919061391e565b60405180910390f35b34801561031b57600080fd5b50610324610efa565b005b34801561033257600080fd5b5061034d60048036038101906103489190613186565b610f82565b60405161035a919061391e565b60405180910390f35b34801561036f57600080fd5b50610378610fdd565b604051610385919061391e565b60405180910390f35b34801561039a57600080fd5b506103a3610fe7565b005b3480156103b157600080fd5b506103cc60048036038101906103c7919061305b565b61106d565b005b3480156103da57600080fd5b506103f560048036038101906103f0919061305b565b6110be565b005b34801561040357600080fd5b5061040c61110f565b604051610419919061361a565b60405180910390f35b34801561042e57600080fd5b50610449600480360381019061044491906130e6565b611138565b005b34801561045757600080fd5b50610472600480360381019061046d919061305b565b611299565b60405161047f919061391e565b60405180910390f35b34801561049457600080fd5b506104af60048036038101906104aa9190612fb2565b6112e3565b005b3480156104bd57600080fd5b506104d860048036038101906104d3919061305b565b6113db565b005b6104e2612e51565b600060405180604001604052808573ffffffffffffffffffffffffffffffffffffffff168152602001848152509050600061051c8261142c565b509150506002818154811061055a577f4e487b7100000000000000000000000000000000000000000000000000000000600052603260045260246000fd5b90600052602060002090600a020160405180610140016040529081600082015481526020016001820160009054906101000a900473ffffffffffffffffffffffffffffffffffffffff1673ffffffffffffffffffffffffffffffffffffffff1673ffffffffffffffffffffffffffffffffffffffff168152602001600282016040518060400160405290816000820160009054906101000a900473ffffffffffffffffffffffffffffffffffffffff1673ffffffffffffffffffffffffffffffffffffffff1673ffffffffffffffffffffffffffffffffffffffff168152602001600182015481525050815260200160048201548152602001600582015481526020016006820154815260200160078201548152602001600882015481526020016009820160009054906101000a900473ffffffffffffffffffffffffffffffffffffffff1673ffffffffffffffffffffffffffffffffffffffff1673ffffffffffffffffffffffffffffffffffffffff1681526020016009820160149054906101000a900460ff16600381111561071b577f4e487b7100000000000000000000000000000000000000000000000000000000600052602160045260246000fd5b6003811115610753577f4e487b7100000000000000000000000000000000000000000000000000000000600052602160045260246000fd5b815250509250505092915050565b600063150b7a0260e01b905095945050505050565b60008060405180604001604052808673ffffffffffffffffffffffffffffffffffffffff16815260200185815250905060006107b18261142c565b925050508084815481106107ee577f4e487b7100000000000000000000000000000000000000000000000000000000600052603260045260246000fd5b9060005260206000200154925050509392505050565b61080c6114c3565b73ffffffffffffffffffffffffffffffffffffffff1661082a61110f565b73ffffffffffffffffffffffffffffffffffffffff1614610880576040517f08c379a000000000000000000000000000000000000000000000000000000000815260040161087790613802565b60405180910390fd5b6108886114cb565b565b610892612e51565b600282815481106108cc577f4e487b7100000000000000000000000000000000000000000000000000000000600052603260045260246000fd5b90600052602060002090600a020160405180610140016040529081600082015481526020016001820160009054906101000a900473ffffffffffffffffffffffffffffffffffffffff1673ffffffffffffffffffffffffffffffffffffffff1673ffffffffffffffffffffffffffffffffffffffff168152602001600282016040518060400160405290816000820160009054906101000a900473ffffffffffffffffffffffffffffffffffffffff1673ffffffffffffffffffffffffffffffffffffffff1673ffffffffffffffffffffffffffffffffffffffff168152602001600182015481525050815260200160048201548152602001600582015481526020016006820154815260200160078201548152602001600882015481526020016009820160009054906101000a900473ffffffffffffffffffffffffffffffffffffffff1673ffffffffffffffffffffffffffffffffffffffff1673ffffffffffffffffffffffffffffffffffffffff1681526020016009820160149054906101000a900460ff166003811115610a8d577f4e487b7100000000000000000000000000000000000000000000000000000000600052602160045260246000fd5b6003811115610ac5577f4e487b7100000000000000000000000000000000000000000000000000000000600052602160045260246000fd5b815250509050919050565b600060405180604001604052808473ffffffffffffffffffffffffffffffffffffffff168152602001838152509050610b07612e51565b818160400181905250610b1b81600361156c565b50505050565b60008060149054906101000a900460ff16905090565b600060405180604001604052808473ffffffffffffffffffffffffffffffffffffffff168152602001838152509050610b6e612e51565b818160400181905250610b8281600561156c565b50505050565b600060405180604001604052808473ffffffffffffffffffffffffffffffffffffffff168152602001838152509050610bbf612e51565b818160400181905250610bd381600161156c565b50505050565b60008060028381548110610c16577f4e487b7100000000000000000000000000000000000000000000000000000000600052603260045260246000fd5b90600052602060002090600a020160405180610140016040529081600082015481526020016001820160009054906101000a900473ffffffffffffffffffffffffffffffffffffffff1673ffffffffffffffffffffffffffffffffffffffff1673ffffffffffffffffffffffffffffffffffffffff168152602001600282016040518060400160405290816000820160009054906101000a900473ffffffffffffffffffffffffffffffffffffffff1673ffffffffffffffffffffffffffffffffffffffff1673ffffffffffffffffffffffffffffffffffffffff168152602001600182015481525050815260200160048201548152602001600582015481526020016006820154815260200160078201548152602001600882015481526020016009820160009054906101000a900473ffffffffffffffffffffffffffffffffffffffff1673ffffffffffffffffffffffffffffffffffffffff1673ffffffffffffffffffffffffffffffffffffffff1681526020016009820160149054906101000a900460ff166003811115610dd7577f4e487b7100000000000000000000000000000000000000000000000000000000600052602160045260246000fd5b6003811115610e0f577f4e487b7100000000000000000000000000000000000000000000000000000000600052602160045260246000fd5b81525050905060016003811115610e4f577f4e487b7100000000000000000000000000000000000000000000000000000000600052602160045260246000fd5b8161012001516003811115610e8d577f4e487b7100000000000000000000000000000000000000000000000000000000600052602160045260246000fd5b14610ecd576040517f08c379a0000000000000000000000000000000000000000000000000000000008152600401610ec490613862565b60405180910390fd5b60004282608001518360600151610ee4919061394a565b610eee91906139a0565b90508092505050919050565b610f026114c3565b73ffffffffffffffffffffffffffffffffffffffff16610f2061110f565b73ffffffffffffffffffffffffffffffffffffffff1614610f76576040517f08c379a0000000000000000000000000000000000000000000000000000000008152600401610f6d90613802565b60405180910390fd5b610f8060006122e2565b565b60006004600084815260200190815260200160002060008373ffffffffffffffffffffffffffffffffffffffff1673ffffffffffffffffffffffffffffffffffffffff16815260200190815260200160002054905092915050565b6000600154905090565b610fef6114c3565b73ffffffffffffffffffffffffffffffffffffffff1661100d61110f565b73ffffffffffffffffffffffffffffffffffffffff1614611063576040517f08c379a000000000000000000000000000000000000000000000000000000000815260040161105a90613802565b60405180910390fd5b61106b6123a6565b565b600060405180604001604052808473ffffffffffffffffffffffffffffffffffffffff1681526020018381525090506110a4612e51565b8181604001819052506110b881600261156c565b50505050565b600060405180604001604052808473ffffffffffffffffffffffffffffffffffffffff1681526020018381525090506110f5612e51565b81816040018190525061110981600661156c565b50505050565b60008060009054906101000a900473ffffffffffffffffffffffffffffffffffffffff16905090565b611140610b21565b15611180576040517f08c379a0000000000000000000000000000000000000000000000000000000008152600401611177906137a2565b60405180910390fd5b8473ffffffffffffffffffffffffffffffffffffffff166342842e0e3330876040518463ffffffff1660e01b81526004016111bd93929190613635565b600060405180830381600087803b1580156111d757600080fd5b505af11580156111eb573d6000803e3d6000fd5b50505050600060405180604001604052808773ffffffffffffffffffffffffffffffffffffffff168152602001868152509050611226612e51565b33816020019073ffffffffffffffffffffffffffffffffffffffff16908173ffffffffffffffffffffffffffffffffffffffff168152505081816040018190525084816080018181525050838160a0018181525050828160c001818152505061129081600061156c565b50505050505050565b60008060405180604001604052808573ffffffffffffffffffffffffffffffffffffffff16815260200184815250905060006112d48261142c565b50509050809250505092915050565b6112eb6114c3565b73ffffffffffffffffffffffffffffffffffffffff1661130961110f565b73ffffffffffffffffffffffffffffffffffffffff161461135f576040517f08c379a000000000000000000000000000000000000000000000000000000000815260040161135690613802565b60405180910390fd5b600073ffffffffffffffffffffffffffffffffffffffff168173ffffffffffffffffffffffffffffffffffffffff1614156113cf576040517f08c379a00000000000000000000000000000000000000000000000000000000081526004016113c690613702565b60405180910390fd5b6113d8816122e2565b50565b600060405180604001604052808473ffffffffffffffffffffffffffffffffffffffff168152602001838152509050611412612e51565b81816040018190525061142681600461156c565b50505050565b60008060008061143b85612449565b905060036000828152602001908152602001600020915081805490509350600084116114685760006114b9565b8160018561147691906139a0565b815481106114ad577f4e487b7100000000000000000000000000000000000000000000000000000000600052603260045260246000fd5b90600052602060002001545b9250509193909250565b600033905090565b6114d3610b21565b611512576040517f08c379a0000000000000000000000000000000000000000000000000000000008152600401611509906136c2565b60405180910390fd5b60008060146101000a81548160ff0219169083151502179055507f5db9ee0a495bf2e6ff9c91a7834c1ba4fdd244a5e8aa4e537bd38aeae4b073aa6115556114c3565b604051611562919061361a565b60405180910390a1565b60008260400151905060008060006115838461142c565b92509250925060006005905060008060009050600086111561172557600285815481106115d9577f4e487b7100000000000000000000000000000000000000000000000000000000600052603260045260246000fd5b90600052602060002090600a020192508260090160149054906101000a900460ff169150600190506001600381111561163b577f4e487b7100000000000000000000000000000000000000000000000000000000600052602160045260246000fd5b826003811115611674577f4e487b7100000000000000000000000000000000000000000000000000000000600052602160045260246000fd5b141561172457600083600501548460040154611690919061394a565b9050804211156117225760029250828460090160146101000a81548160ff021916908360038111156116eb577f4e487b7100000000000000000000000000000000000000000000000000000000600052602160045260246000fd5b021790555083600001547f601095663bda08ac0f932087ef2eb08e42e4bcd1927f3a8d9500f6ad2c5aef9060405160405180910390a25b505b5b6000600681111561175f577f4e487b7100000000000000000000000000000000000000000000000000000000600052602160045260246000fd5b886006811115611798577f4e487b7100000000000000000000000000000000000000000000000000000000600052602160045260246000fd5b1415611a1a576301e133808960800151106117e8576040517f08c379a00000000000000000000000000000000000000000000000000000000081526004016117df90613722565b60405180910390fd5b60015489600001818152505060028990806001815401808255809150506001900390600052602060002090600a02016000909190919091506000820151816000015560208201518160010160006101000a81548173ffffffffffffffffffffffffffffffffffffffff021916908373ffffffffffffffffffffffffffffffffffffffff16021790555060408201518160020160008201518160000160006101000a81548173ffffffffffffffffffffffffffffffffffffffff021916908373ffffffffffffffffffffffffffffffffffffffff160217905550602082015181600101555050606082015181600401556080820151816005015560a0820151816006015560c0820151816007015560e082015181600801556101008201518160090160006101000a81548173ffffffffffffffffffffffffffffffffffffffff021916908373ffffffffffffffffffffffffffffffffffffffff1602179055506101208201518160090160146101000a81548160ff02191690836003811115611999577f4e487b7100000000000000000000000000000000000000000000000000000000600052602160045260246000fd5b021790555050508389600001519080600181540180825580915050600190039060005260206000200160009091909190915055600160008154809291906119df90613a6d565b919050555088600001517f06acbfb32bcf8383f3b0a768b70ac9ec234ea0f2d3b9c77fa6a2de69b919aad160405160405180910390a26122d7565b80611a5a576040517f08c379a0000000000000000000000000000000000000000000000000000000008152600401611a51906136e2565b60405180910390fd5b600060026003811115611a96577f4e487b7100000000000000000000000000000000000000000000000000000000600052602160045260246000fd5b836003811115611acf577f4e487b7100000000000000000000000000000000000000000000000000000000600052602160045260246000fd5b1480611b4a5750600380811115611b0f577f4e487b7100000000000000000000000000000000000000000000000000000000600052602160045260246000fd5b836003811115611b48577f4e487b7100000000000000000000000000000000000000000000000000000000600052602160045260246000fd5b145b905060016006811115611b86577f4e487b7100000000000000000000000000000000000000000000000000000000600052602160045260246000fd5b896006811115611bbf577f4e487b7100000000000000000000000000000000000000000000000000000000600052602160045260246000fd5b1415611d1357611bcf8433612483565b60006003811115611c09577f4e487b7100000000000000000000000000000000000000000000000000000000600052602160045260246000fd5b836003811115611c42577f4e487b7100000000000000000000000000000000000000000000000000000000600052602160045260246000fd5b14611c82576040517f08c379a0000000000000000000000000000000000000000000000000000000008152600401611c7990613822565b60405180910390fd5b42846004018190555060018460090160146101000a81548160ff02191690836003811115611cd9577f4e487b7100000000000000000000000000000000000000000000000000000000600052602160045260246000fd5b021790555083600001547e6e0c97de781a7389d44ba8fd35d1467cabb17ed04d038d166d34ab819213f360405160405180910390a26122d5565b60026006811115611d4d577f4e487b7100000000000000000000000000000000000000000000000000000000600052602160045260246000fd5b896006811115611d86577f4e487b7100000000000000000000000000000000000000000000000000000000600052602160045260246000fd5b1415611ed257611d968433612483565b60016003811115611dd0577f4e487b7100000000000000000000000000000000000000000000000000000000600052602160045260246000fd5b836003811115611e09577f4e487b7100000000000000000000000000000000000000000000000000000000600052602160045260246000fd5b14611e49576040517f08c379a0000000000000000000000000000000000000000000000000000000008152600401611e40906138a2565b60405180910390fd5b60038460090160146101000a81548160ff02191690836003811115611e97577f4e487b7100000000000000000000000000000000000000000000000000000000600052602160045260246000fd5b021790555083600001547fc41d93b8bfbf9fd7cf5bfe271fd649ab6a6fec0ea101c23b82a2a28eca2533a960405160405180910390a26122d4565b600680811115611f0b577f4e487b7100000000000000000000000000000000000000000000000000000000600052602160045260246000fd5b896006811115611f44577f4e487b7100000000000000000000000000000000000000000000000000000000600052602160045260246000fd5b14156120025760026003811115611f84577f4e487b7100000000000000000000000000000000000000000000000000000000600052602160045260246000fd5b836003811115611fbd577f4e487b7100000000000000000000000000000000000000000000000000000000600052602160045260246000fd5b14611ffd576040517f08c379a0000000000000000000000000000000000000000000000000000000008152600401611ff4906137c2565b60405180910390fd5b6122d3565b6003600681111561203c577f4e487b7100000000000000000000000000000000000000000000000000000000600052602160045260246000fd5b896006811115612075577f4e487b7100000000000000000000000000000000000000000000000000000000600052602160045260246000fd5b1415612146576120858433612519565b600160038111156120bf577f4e487b7100000000000000000000000000000000000000000000000000000000600052602160045260246000fd5b8360038111156120f8577f4e487b7100000000000000000000000000000000000000000000000000000000600052602160045260246000fd5b14612138576040517f08c379a000000000000000000000000000000000000000000000000000000000815260040161212f906138a2565b60405180910390fd5b612141846125b0565b6122d2565b60046006811115612180577f4e487b7100000000000000000000000000000000000000000000000000000000600052602160045260246000fd5b8960068111156121b9577f4e487b7100000000000000000000000000000000000000000000000000000000600052602160045260246000fd5b141561220d57806121ff576040517f08c379a00000000000000000000000000000000000000000000000000000000081526004016121f6906137e2565b60405180910390fd5b6122088461278b565b6122d1565b60056006811115612247577f4e487b7100000000000000000000000000000000000000000000000000000000600052602160045260246000fd5b896006811115612280577f4e487b7100000000000000000000000000000000000000000000000000000000600052602160045260246000fd5b14156122d057806122c6576040517f08c379a00000000000000000000000000000000000000000000000000000000081526004016122bd906137e2565b60405180910390fd5b6122cf84612a85565b5b5b5b5b5b5b505b505050505050505050565b60008060009054906101000a900473ffffffffffffffffffffffffffffffffffffffff169050816000806101000a81548173ffffffffffffffffffffffffffffffffffffffff021916908373ffffffffffffffffffffffffffffffffffffffff1602179055508173ffffffffffffffffffffffffffffffffffffffff168173ffffffffffffffffffffffffffffffffffffffff167f8be0079c531659141344cd1fd0a4f28419497f9722a3daafe3b4186f6b6457e060405160405180910390a35050565b6123ae610b21565b156123ee576040517f08c379a00000000000000000000000000000000000000000000000000000000081526004016123e5906137a2565b60405180910390fd5b6001600060146101000a81548160ff0219169083151502179055507f62e78cea01bee320cd4e420270b5ea74000d11b0c9f74754ebdbfc544b05a2586124326114c3565b60405161243f919061361a565b60405180910390a1565b6000816000015182602001516040516020016124669291906135ee565b604051602081830303815290604052805190602001209050919050565b8073ffffffffffffffffffffffffffffffffffffffff168260010160009054906101000a900473ffffffffffffffffffffffffffffffffffffffff1673ffffffffffffffffffffffffffffffffffffffff1614612515576040517f08c379a000000000000000000000000000000000000000000000000000000000815260040161250c90613842565b60405180910390fd5b5050565b8073ffffffffffffffffffffffffffffffffffffffff168260010160009054906101000a900473ffffffffffffffffffffffffffffffffffffffff1673ffffffffffffffffffffffffffffffffffffffff1614156125ac576040517f08c379a00000000000000000000000000000000000000000000000000000000081526004016125a3906138c2565b60405180910390fd5b5050565b6000816006015490506000600460008460000154815260200190815260200160002090506000348260003373ffffffffffffffffffffffffffffffffffffffff1673ffffffffffffffffffffffffffffffffffffffff16815260200190815260200160002054612620919061394a565b9050828111612664576040517f08c379a000000000000000000000000000000000000000000000000000000000815260040161265b90613742565b60405180910390fd5b83600701548460080154612678919061394a565b8110156126ba576040517f08c379a00000000000000000000000000000000000000000000000000000000081526004016126b1906138e2565b60405180910390fd5b808260003373ffffffffffffffffffffffffffffffffffffffff1673ffffffffffffffffffffffffffffffffffffffff16815260200190815260200160002081905550338460090160006101000a81548173ffffffffffffffffffffffffffffffffffffffff021916908373ffffffffffffffffffffffffffffffffffffffff16021790555080846008018190555083600001547f0fc69407039e8ba8cdd517e2a4cae9dd19697b0a500ff37a2425c59ebc649b318260405161277d919061391e565b60405180910390a250505050565b60006004600083600001548152602001908152602001600020905060008260090160009054906101000a900473ffffffffffffffffffffffffffffffffffffffff16905060003390506002600381111561280e577f4e487b7100000000000000000000000000000000000000000000000000000000600052602160045260246000fd5b8460090160149054906101000a900460ff166003811115612858577f4e487b7100000000000000000000000000000000000000000000000000000000600052602160045260246000fd5b141561292f578360010160009054906101000a900473ffffffffffffffffffffffffffffffffffffffff1673ffffffffffffffffffffffffffffffffffffffff163373ffffffffffffffffffffffffffffffffffffffff1614156128be5781905061292e565b8173ffffffffffffffffffffffffffffffffffffffff163373ffffffffffffffffffffffffffffffffffffffff16141561292d576040517f08c379a0000000000000000000000000000000000000000000000000000000008152600401612924906136a2565b60405180910390fd5b5b5b60008360008373ffffffffffffffffffffffffffffffffffffffff1673ffffffffffffffffffffffffffffffffffffffff168152602001908152602001600020549050600081116129b5576040517f08c379a00000000000000000000000000000000000000000000000000000000081526004016129ac90613762565b60405180910390fd5b808460008473ffffffffffffffffffffffffffffffffffffffff1673ffffffffffffffffffffffffffffffffffffffff1681526020019081526020016000206000828254612a0391906139a0565b925050819055503373ffffffffffffffffffffffffffffffffffffffff166108fc829081150290604051600060405180830381858888f19350505050612a7e576040517f08c379a0000000000000000000000000000000000000000000000000000000008152600401612a7590613782565b60405180910390fd5b5050505050565b6000808260090160009054906101000a900473ffffffffffffffffffffffffffffffffffffffff16905060008360010160009054906101000a900473ffffffffffffffffffffffffffffffffffffffff16905060008460090160149054906101000a900460ff16905060026003811115612b28577f4e487b7100000000000000000000000000000000000000000000000000000000600052602160045260246000fd5b816003811115612b61577f4e487b7100000000000000000000000000000000000000000000000000000000600052602160045260246000fd5b148015612b9957508273ffffffffffffffffffffffffffffffffffffffff163373ffffffffffffffffffffffffffffffffffffffff16145b80612c83575060026003811115612bd9577f4e487b7100000000000000000000000000000000000000000000000000000000600052602160045260246000fd5b816003811115612c12577f4e487b7100000000000000000000000000000000000000000000000000000000600052602160045260246000fd5b148015612c4b5750600073ffffffffffffffffffffffffffffffffffffffff168373ffffffffffffffffffffffffffffffffffffffff16145b8015612c8257508173ffffffffffffffffffffffffffffffffffffffff163373ffffffffffffffffffffffffffffffffffffffff16145b5b80612d345750600380811115612cc2577f4e487b7100000000000000000000000000000000000000000000000000000000600052602160045260246000fd5b816003811115612cfb577f4e487b7100000000000000000000000000000000000000000000000000000000600052602160045260246000fd5b148015612d3357508173ffffffffffffffffffffffffffffffffffffffff163373ffffffffffffffffffffffffffffffffffffffff16145b5b15612d3d573393505b600073ffffffffffffffffffffffffffffffffffffffff168473ffffffffffffffffffffffffffffffffffffffff161415612dad576040517f08c379a0000000000000000000000000000000000000000000000000000000008152600401612da490613882565b60405180910390fd5b8460020160000160009054906101000a900473ffffffffffffffffffffffffffffffffffffffff1673ffffffffffffffffffffffffffffffffffffffff166342842e0e308688600201600101546040518463ffffffff1660e01b8152600401612e1893929190613635565b600060405180830381600087803b158015612e3257600080fd5b505af1158015612e46573d6000803e3d6000fd5b505050505050505050565b60405180610140016040528060008152602001600073ffffffffffffffffffffffffffffffffffffffff168152602001612e89612f0e565b81526020016000815260200160008152602001600081526020016000815260200160008152602001600073ffffffffffffffffffffffffffffffffffffffff16815260200160006003811115612f08577f4e487b7100000000000000000000000000000000000000000000000000000000600052602160045260246000fd5b81525090565b6040518060400160405280600073ffffffffffffffffffffffffffffffffffffffff168152602001600081525090565b600081359050612f4d81613f52565b92915050565b60008083601f840112612f6557600080fd5b8235905067ffffffffffffffff811115612f7e57600080fd5b602083019150836001820283011115612f9657600080fd5b9250929050565b600081359050612fac81613f69565b92915050565b600060208284031215612fc457600080fd5b6000612fd284828501612f3e565b91505092915050565b600080600080600060808688031215612ff357600080fd5b600061300188828901612f3e565b955050602061301288828901612f3e565b945050604061302388828901612f9d565b935050606086013567ffffffffffffffff81111561304057600080fd5b61304c88828901612f53565b92509250509295509295909350565b6000806040838503121561306e57600080fd5b600061307c85828601612f3e565b925050602061308d85828601612f9d565b9150509250929050565b6000806000606084860312156130ac57600080fd5b60006130ba86828701612f3e565b93505060206130cb86828701612f9d565b92505060406130dc86828701612f9d565b9150509250925092565b600080600080600060a086880312156130fe57600080fd5b600061310c88828901612f3e565b955050602061311d88828901612f9d565b945050604061312e88828901612f9d565b935050606061313f88828901612f9d565b925050608061315088828901612f9d565b9150509295509295909350565b60006020828403121561316f57600080fd5b600061317d84828501612f9d565b91505092915050565b6000806040838503121561319957600080fd5b60006131a785828601612f9d565b92505060206131b885828601612f3e565b9150509250929050565b6131cb816139d4565b82525050565b6131da816139d4565b82525050565b6131f16131ec826139d4565b613ab6565b82525050565b613200816139e6565b82525050565b61320f816139f2565b82525050565b61321e81613a5b565b82525050565b6000613231602983613939565b915061323c82613b4f565b604082019050919050565b6000613254601483613939565b915061325f82613b9e565b602082019050919050565b6000613277602a83613939565b915061328282613bc7565b604082019050919050565b600061329a602683613939565b91506132a582613c16565b604082019050919050565b60006132bd601983613939565b91506132c882613c65565b602082019050919050565b60006132e0602583613939565b91506132eb82613c8e565b604082019050919050565b6000613303601483613939565b915061330e82613cdd565b602082019050919050565b6000613326601c83613939565b915061333182613d06565b602082019050919050565b6000613349601083613939565b915061335482613d2f565b602082019050919050565b600061336c601783613939565b915061337782613d58565b602082019050919050565b600061338f602983613939565b915061339a82613d81565b604082019050919050565b60006133b2602083613939565b91506133bd82613dd0565b602082019050919050565b60006133d5601f83613939565b91506133e082613df9565b602082019050919050565b60006133f8601983613939565b915061340382613e22565b602082019050919050565b600061341b601383613939565b915061342682613e4b565b602082019050919050565b600061343e601383613939565b915061344982613e74565b602082019050919050565b6000613461601383613939565b915061346c82613e9d565b602082019050919050565b6000613484601583613939565b915061348f82613ec6565b602082019050919050565b60006134a7602183613939565b91506134b282613eef565b604082019050919050565b610160820160008201516134d460008501826135b9565b5060208201516134e760208501826131c2565b5060408201516134fa604085018261358a565b50606082015161350d60808501826135b9565b50608082015161352060a08501826135b9565b5060a082015161353360c08501826135b9565b5060c082015161354660e08501826135b9565b5060e082015161355a6101008501826135b9565b5061010082015161356f6101208501826131c2565b50610120820151613584610140850182613215565b50505050565b6040820160008201516135a060008501826131c2565b5060208201516135b360208501826135b9565b50505050565b6135c281613a51565b82525050565b6135d181613a51565b82525050565b6135e86135e382613a51565b613ada565b82525050565b60006135fa82856131e0565b60148201915061360a82846135d7565b6020820191508190509392505050565b600060208201905061362f60008301846131d1565b92915050565b600060608201905061364a60008301866131d1565b61365760208301856131d1565b61366460408301846135c8565b949350505050565b600060208201905061368160008301846131f7565b92915050565b600060208201905061369c6000830184613206565b92915050565b600060208201905081810360008301526136bb81613224565b9050919050565b600060208201905081810360008301526136db81613247565b9050919050565b600060208201905081810360008301526136fb8161326a565b9050919050565b6000602082019050818103600083015261371b8161328d565b9050919050565b6000602082019050818103600083015261373b816132b0565b9050919050565b6000602082019050818103600083015261375b816132d3565b9050919050565b6000602082019050818103600083015261377b816132f6565b9050919050565b6000602082019050818103600083015261379b81613319565b9050919050565b600060208201905081810360008301526137bb8161333c565b9050919050565b600060208201905081810360008301526137db8161335f565b9050919050565b600060208201905081810360008301526137fb81613382565b9050919050565b6000602082019050818103600083015261381b816133a5565b9050919050565b6000602082019050818103600083015261383b816133c8565b9050919050565b6000602082019050818103600083015261385b816133eb565b9050919050565b6000602082019050818103600083015261387b8161340e565b9050919050565b6000602082019050818103600083015261389b81613431565b9050919050565b600060208201905081810360008301526138bb81613454565b9050919050565b600060208201905081810360008301526138db81613477565b9050919050565b600060208201905081810360008301526138fb8161349a565b9050919050565b60006101608201905061391860008301846134bd565b92915050565b600060208201905061393360008301846135c8565b92915050565b600082825260208201905092915050565b600061395582613a51565b915061396083613a51565b9250827fffffffffffffffffffffffffffffffffffffffffffffffffffffffffffffffff0382111561399557613994613ae4565b5b828201905092915050565b60006139ab82613a51565b91506139b683613a51565b9250828210156139c9576139c8613ae4565b5b828203905092915050565b60006139df82613a31565b9050919050565b60008115159050919050565b60007fffffffff0000000000000000000000000000000000000000000000000000000082169050919050565b6000819050613a2c82613f3e565b919050565b600073ffffffffffffffffffffffffffffffffffffffff82169050919050565b6000819050919050565b6000613a6682613a1e565b9050919050565b6000613a7882613a51565b91507fffffffffffffffffffffffffffffffffffffffffffffffffffffffffffffffff821415613aab57613aaa613ae4565b5b600182019050919050565b6000613ac182613ac8565b9050919050565b6000613ad382613b42565b9050919050565b6000819050919050565b7f4e487b7100000000000000000000000000000000000000000000000000000000600052601160045260246000fd5b7f4e487b7100000000000000000000000000000000000000000000000000000000600052602160045260246000fd5b60008160601b9050919050565b7f5769746864726177616c206e6f7420616c6c6f77656420666f7220686967686560008201527f7374206269646465720000000000000000000000000000000000000000000000602082015250565b7f5061757361626c653a206e6f7420706175736564000000000000000000000000600082015250565b7f4e6f20656c696769626c652061756374696f6e2065786973747320666f72207460008201527f68697320616374696f6e00000000000000000000000000000000000000000000602082015250565b7f4f776e61626c653a206e6577206f776e657220697320746865207a65726f206160008201527f6464726573730000000000000000000000000000000000000000000000000000602082015250565b7f41756374696f6e206475726174696f6e20746f6f206c6f6e6700000000000000600082015250565b7f43616e6e6f742073656e6420626964206c657373207468616e20666c6f6f722060008201527f7072696365000000000000000000000000000000000000000000000000000000602082015250565b7f4e6f2066756e647320746f207769746864726177000000000000000000000000600082015250565b7f46756e64207472616e73666572206e6f74207375636365737366756c00000000600082015250565b7f5061757361626c653a2070617573656400000000000000000000000000000000600082015250565b7f41756374696f6e2063616e6e6f7420626520656e646564000000000000000000600082015250565b7f41756374696f6e206973207374696c6c206c697665206f7220696e206372656160008201527f7465642d73746174650000000000000000000000000000000000000000000000602082015250565b7f4f776e61626c653a2063616c6c6572206973206e6f7420746865206f776e6572600082015250565b7f41756374696f6e206973206e6f7420696e20637265617465642d737461746500600082015250565b7f43616c6c6572206973206e6f7420746f6b656e206f776e657200000000000000600082015250565b7f41756374696f6e206e6f74207374617274656400000000000000000000000000600082015250565b7f63616e6e6f74207472616e73666572204e465400000000000000000000000000600082015250565b7f41756374696f6e206973206e6f74206c69766500000000000000000000000000600082015250565b7f43616c6c657220697320746f6b656e206f776e65720000000000000000000000600082015250565b7f6d696e696d756d20626964203d2068696768657374202b20696e6372656d656e60008201527f7400000000000000000000000000000000000000000000000000000000000000602082015250565b60048110613f4f57613f4e613b13565b5b50565b613f5b816139d4565b8114613f6657600080fd5b50565b613f7281613a51565b8114613f7d57600080fd5b5056fea26469706673582212207963c8c1cf4c4fdb7923b245b7c98a67f6951a29c9884b834e6faed5923f031764736f6c63430008040033",
  "linkReferences": {},
  "deployedLinkReferences": {}
}