{
  "_format": "hh-sol-artifact-1",
  "contractName": "FaroNFT",
  "sourceName": "contracts/FaroNFTs/FaroNFT.sol",
  "abi": [
    {
      "inputs": [
        {
          "internalType": "string",
          "name": "_contentName",
          "type": "string"
        },
        {
          "internalType": "string",
          "name": "_symbol",
          "type": "string"
        },
        {
          "internalType": "string",
          "name": "_agreementUri",
          "type": "string"
        },
        {
          "internalType": "string",
          "name": "_contentID",
          "type": "string"
        }
      ],
      "stateMutability": "nonpayable",
      "type": "constructor"
    },
    {
      "anonymous": false,
      "inputs": [
        {
          "indexed": true,
          "internalType": "address",
          "name": "owner",
          "type": "address"
        },
        {
          "indexed": true,
          "internalType": "address",
          "name": "approved",
          "type": "address"
        },
        {
          "indexed": true,
          "internalType": "uint256",
          "name": "tokenId",
          "type": "uint256"
        }
      ],
      "name": "Approval",
      "type": "event"
    },
    {
      "anonymous": false,
      "inputs": [
        {
          "indexed": true,
          "internalType": "address",
          "name": "owner",
          "type": "address"
        },
        {
          "indexed": true,
          "internalType": "address",
          "name": "operator",
          "type": "address"
        },
        {
          "indexed": false,
          "internalType": "bool",
          "name": "approved",
          "type": "bool"
        }
      ],
      "name": "ApprovalForAll",
      "type": "event"
    },
    {
      "anonymous": false,
      "inputs": [
        {
          "indexed": true,
          "internalType": "address",
          "name": "from",
          "type": "address"
        },
        {
          "indexed": true,
          "internalType": "address",
          "name": "to",
          "type": "address"
        },
        {
          "indexed": true,
          "internalType": "uint256",
          "name": "tokenId",
          "type": "uint256"
        }
      ],
      "name": "Transfer",
      "type": "event"
    },
    {
      "inputs": [
        {
          "internalType": "address",
          "name": "to",
          "type": "address"
        },
        {
          "internalType": "uint256",
          "name": "tokenId",
          "type": "uint256"
        }
      ],
      "name": "approve",
      "outputs": [],
      "stateMutability": "nonpayable",
      "type": "function"
    },
    {
      "inputs": [
        {
          "internalType": "address",
          "name": "owner",
          "type": "address"
        }
      ],
      "name": "balanceOf",
      "outputs": [
        {
          "internalType": "uint256",
          "name": "",
          "type": "uint256"
        }
      ],
      "stateMutability": "view",
      "type": "function"
    },
    {
      "inputs": [],
      "name": "getAgreementURI",
      "outputs": [
        {
          "internalType": "string",
          "name": "",
          "type": "string"
        }
      ],
      "stateMutability": "view",
      "type": "function"
    },
    {
      "inputs": [
        {
          "internalType": "uint256",
          "name": "tokenId",
          "type": "uint256"
        }
      ],
      "name": "getApproved",
      "outputs": [
        {
          "internalType": "address",
          "name": "",
          "type": "address"
        }
      ],
      "stateMutability": "view",
      "type": "function"
    },
    {
      "inputs": [
        {
          "internalType": "address",
          "name": "owner",
          "type": "address"
        },
        {
          "internalType": "address",
          "name": "operator",
          "type": "address"
        }
      ],
      "name": "isApprovedForAll",
      "outputs": [
        {
          "internalType": "bool",
          "name": "",
          "type": "bool"
        }
      ],
      "stateMutability": "view",
      "type": "function"
    },
    {
      "inputs": [
        {
          "internalType": "address",
          "name": "_to",
          "type": "address"
        },
        {
          "internalType": "uint256",
          "name": "_tokenID",
          "type": "uint256"
        }
      ],
      "name": "mint",
      "outputs": [],
      "stateMutability": "nonpayable",
      "type": "function"
    },
    {
      "inputs": [],
      "name": "name",
      "outputs": [
        {
          "internalType": "string",
          "name": "",
          "type": "string"
        }
      ],
      "stateMutability": "view",
      "type": "function"
    },
    {
      "inputs": [
        {
          "internalType": "uint256",
          "name": "tokenId",
          "type": "uint256"
        }
      ],
      "name": "ownerOf",
      "outputs": [
        {
          "internalType": "address",
          "name": "",
          "type": "address"
        }
      ],
      "stateMutability": "view",
      "type": "function"
    },
    {
      "inputs": [
        {
          "internalType": "address",
          "name": "from",
          "type": "address"
        },
        {
          "internalType": "address",
          "name": "to",
          "type": "address"
        },
        {
          "internalType": "uint256",
          "name": "tokenId",
          "type": "uint256"
        }
      ],
      "name": "safeTransferFrom",
      "outputs": [],
      "stateMutability": "nonpayable",
      "type": "function"
    },
    {
      "inputs": [
        {
          "internalType": "address",
          "name": "from",
          "type": "address"
        },
        {
          "internalType": "address",
          "name": "to",
          "type": "address"
        },
        {
          "internalType": "uint256",
          "name": "tokenId",
          "type": "uint256"
        },
        {
          "internalType": "bytes",
          "name": "_data",
          "type": "bytes"
        }
      ],
      "name": "safeTransferFrom",
      "outputs": [],
      "stateMutability": "nonpayable",
      "type": "function"
    },
    {
      "inputs": [
        {
          "internalType": "address",
          "name": "operator",
          "type": "address"
        },
        {
          "internalType": "bool",
          "name": "approved",
          "type": "bool"
        }
      ],
      "name": "setApprovalForAll",
      "outputs": [],
      "stateMutability": "nonpayable",
      "type": "function"
    },
    {
      "inputs": [
        {
          "internalType": "bytes4",
          "name": "interfaceId",
          "type": "bytes4"
        }
      ],
      "name": "supportsInterface",
      "outputs": [
        {
          "internalType": "bool",
          "name": "",
          "type": "bool"
        }
      ],
      "stateMutability": "view",
      "type": "function"
    },
    {
      "inputs": [],
      "name": "symbol",
      "outputs": [
        {
          "internalType": "string",
          "name": "",
          "type": "string"
        }
      ],
      "stateMutability": "view",
      "type": "function"
    },
    {
      "inputs": [
        {
          "internalType": "uint256",
          "name": "tokenId",
          "type": "uint256"
        }
      ],
      "name": "tokenURI",
      "outputs": [
        {
          "internalType": "string",
          "name": "",
          "type": "string"
        }
      ],
      "stateMutability": "view",
      "type": "function"
    },
    {
      "inputs": [
        {
          "internalType": "address",
          "name": "from",
          "type": "address"
        },
        {
          "internalType": "address",
          "name": "to",
          "type": "address"
        },
        {
          "internalType": "uint256",
          "name": "tokenId",
          "type": "uint256"
        }
      ],
      "name": "transferFrom",
      "outputs": [],
      "stateMutability": "nonpayable",
      "type": "function"
    }
  ],
  "bytecode": "0x60806040523480156200001157600080fd5b5060405162002c5838038062002c58833981810160405281019062000037919062000212565b8383816000908051906020019062000051929190620000f0565b5080600190805190602001906200006a929190620000f0565b5050506000825111620000b4576040517f08c379a0000000000000000000000000000000000000000000000000000000008152600401620000ab9062000309565b60405180910390fd5b8160069080519060200190620000cc929190620000f0565b508060079080519060200190620000e5929190620000f0565b5050505050620004fb565b828054620000fe90620003d1565b90600052602060002090601f0160209004810192826200012257600085556200016e565b82601f106200013d57805160ff19168380011785556200016e565b828001600101855582156200016e579182015b828111156200016d57825182559160200191906001019062000150565b5b5090506200017d919062000181565b5090565b5b808211156200019c57600081600090555060010162000182565b5090565b6000620001b7620001b18462000354565b6200032b565b905082815260208101848484011115620001d057600080fd5b620001dd8482856200039b565b509392505050565b600082601f830112620001f757600080fd5b815162000209848260208601620001a0565b91505092915050565b600080600080608085870312156200022957600080fd5b600085015167ffffffffffffffff8111156200024457600080fd5b6200025287828801620001e5565b945050602085015167ffffffffffffffff8111156200027057600080fd5b6200027e87828801620001e5565b935050604085015167ffffffffffffffff8111156200029c57600080fd5b620002aa87828801620001e5565b925050606085015167ffffffffffffffff811115620002c857600080fd5b620002d687828801620001e5565b91505092959194509250565b6000620002f16028836200038a565b9150620002fe82620004ac565b604082019050919050565b600060208201905081810360008301526200032481620002e2565b9050919050565b6000620003376200034a565b905062000345828262000407565b919050565b6000604051905090565b600067ffffffffffffffff8211156200037257620003716200046c565b5b6200037d826200049b565b9050602081019050919050565b600082825260208201905092915050565b60005b83811015620003bb5780820151818401526020810190506200039e565b83811115620003cb576000848401525b50505050565b60006002820490506001821680620003ea57607f821691505b602082108114156200040157620004006200043d565b5b50919050565b62000412826200049b565b810181811067ffffffffffffffff821117156200043457620004336200046c565b5b80604052505050565b7f4e487b7100000000000000000000000000000000000000000000000000000000600052602260045260246000fd5b7f4e487b7100000000000000000000000000000000000000000000000000000000600052604160045260246000fd5b6000601f19601f8301169050919050565b7f4e65656420746f2070726f766964652074686520555249206f6620746865206160008201527f677265656d656e74000000000000000000000000000000000000000000000000602082015250565b61274d806200050b6000396000f3fe608060405234801561001057600080fd5b50600436106100f55760003560e01c806342842e0e11610097578063a22cb46511610066578063a22cb46514610284578063b88d4fde146102a0578063c87b56dd146102bc578063e985e9c5146102ec576100f5565b806342842e0e146101ea5780636352211e1461020657806370a082311461023657806395d89b4114610266576100f5565b8063095ea7b3116100d3578063095ea7b31461017857806319bf674c1461019457806323b872dd146101b257806340c10f19146101ce576100f5565b806301ffc9a7146100fa57806306fdde031461012a578063081812fc14610148575b600080fd5b610114600480360381019061010f919061194f565b61031c565b6040516101219190611d0f565b60405180910390f35b6101326103fe565b60405161013f9190611d2a565b60405180910390f35b610162600480360381019061015d91906119a1565b610490565b60405161016f9190611ca8565b60405180910390f35b610192600480360381019061018d9190611913565b610515565b005b61019c61062d565b6040516101a99190611d2a565b60405180910390f35b6101cc60048036038101906101c7919061180d565b6106bf565b005b6101e860048036038101906101e39190611913565b61071f565b005b61020460048036038101906101ff919061180d565b61072d565b005b610220600480360381019061021b91906119a1565b61074d565b60405161022d9190611ca8565b60405180910390f35b610250600480360381019061024b91906117a8565b6107ff565b60405161025d9190611f0c565b60405180910390f35b61026e6108b7565b60405161027b9190611d2a565b60405180910390f35b61029e600480360381019061029991906118d7565b610949565b005b6102ba60048036038101906102b5919061185c565b61095f565b005b6102d660048036038101906102d191906119a1565b6109c1565b6040516102e39190611d2a565b60405180910390f35b610306600480360381019061030191906117d1565b610a68565b6040516103139190611d0f565b60405180910390f35b60007f80ac58cd000000000000000000000000000000000000000000000000000000007bffffffffffffffffffffffffffffffffffffffffffffffffffffffff1916827bffffffffffffffffffffffffffffffffffffffffffffffffffffffff191614806103e757507f5b5e139f000000000000000000000000000000000000000000000000000000007bffffffffffffffffffffffffffffffffffffffffffffffffffffffff1916827bffffffffffffffffffffffffffffffffffffffffffffffffffffffff1916145b806103f757506103f682610afc565b5b9050919050565b60606000805461040d90612131565b80601f016020809104026020016040519081016040528092919081815260200182805461043990612131565b80156104865780601f1061045b57610100808354040283529160200191610486565b820191906000526020600020905b81548152906001019060200180831161046957829003601f168201915b5050505050905090565b600061049b82610b66565b6104da576040517f08c379a00000000000000000000000000000000000000000000000000000000081526004016104d190611e6c565b60405180910390fd5b6004600083815260200190815260200160002060009054906101000a900473ffffffffffffffffffffffffffffffffffffffff169050919050565b60006105208261074d565b90508073ffffffffffffffffffffffffffffffffffffffff168373ffffffffffffffffffffffffffffffffffffffff161415610591576040517f08c379a000000000000000000000000000000000000000000000000000000000815260040161058890611ecc565b60405180910390fd5b8073ffffffffffffffffffffffffffffffffffffffff166105b0610bd2565b73ffffffffffffffffffffffffffffffffffffffff1614806105df57506105de816105d9610bd2565b610a68565b5b61061e576040517f08c379a000000000000000000000000000000000000000000000000000000000815260040161061590611dec565b60405180910390fd5b6106288383610bda565b505050565b60606006805461063c90612131565b80601f016020809104026020016040519081016040528092919081815260200182805461066890612131565b80156106b55780601f1061068a576101008083540402835291602001916106b5565b820191906000526020600020905b81548152906001019060200180831161069857829003601f168201915b5050505050905090565b6106d06106ca610bd2565b82610c93565b61070f576040517f08c379a000000000000000000000000000000000000000000000000000000000815260040161070690611eec565b60405180910390fd5b61071a838383610d71565b505050565b6107298282610fcd565b5050565b6107488383836040518060200160405280600081525061095f565b505050565b6000806002600084815260200190815260200160002060009054906101000a900473ffffffffffffffffffffffffffffffffffffffff169050600073ffffffffffffffffffffffffffffffffffffffff168173ffffffffffffffffffffffffffffffffffffffff1614156107f6576040517f08c379a00000000000000000000000000000000000000000000000000000000081526004016107ed90611e2c565b60405180910390fd5b80915050919050565b60008073ffffffffffffffffffffffffffffffffffffffff168273ffffffffffffffffffffffffffffffffffffffff161415610870576040517f08c379a000000000000000000000000000000000000000000000000000000000815260040161086790611e0c565b60405180910390fd5b600360008373ffffffffffffffffffffffffffffffffffffffff1673ffffffffffffffffffffffffffffffffffffffff168152602001908152602001600020549050919050565b6060600180546108c690612131565b80601f01602080910402602001604051908101604052809291908181526020018280546108f290612131565b801561093f5780601f106109145761010080835404028352916020019161093f565b820191906000526020600020905b81548152906001019060200180831161092257829003601f168201915b5050505050905090565b61095b610954610bd2565b838361119b565b5050565b61097061096a610bd2565b83610c93565b6109af576040517f08c379a00000000000000000000000000000000000000000000000000000000081526004016109a690611eec565b60405180910390fd5b6109bb84848484611308565b50505050565b60606109cc82610b66565b610a0b576040517f08c379a0000000000000000000000000000000000000000000000000000000008152600401610a0290611eac565b60405180910390fd5b6000610a15611364565b90506000815111610a355760405180602001604052806000815250610a60565b80610a3f8461137b565b604051602001610a50929190611c84565b6040516020818303038152906040525b915050919050565b6000600560008473ffffffffffffffffffffffffffffffffffffffff1673ffffffffffffffffffffffffffffffffffffffff16815260200190815260200160002060008373ffffffffffffffffffffffffffffffffffffffff1673ffffffffffffffffffffffffffffffffffffffff16815260200190815260200160002060009054906101000a900460ff16905092915050565b60007f01ffc9a7000000000000000000000000000000000000000000000000000000007bffffffffffffffffffffffffffffffffffffffffffffffffffffffff1916827bffffffffffffffffffffffffffffffffffffffffffffffffffffffff1916149050919050565b60008073ffffffffffffffffffffffffffffffffffffffff166002600084815260200190815260200160002060009054906101000a900473ffffffffffffffffffffffffffffffffffffffff1673ffffffffffffffffffffffffffffffffffffffff1614159050919050565b600033905090565b816004600083815260200190815260200160002060006101000a81548173ffffffffffffffffffffffffffffffffffffffff021916908373ffffffffffffffffffffffffffffffffffffffff160217905550808273ffffffffffffffffffffffffffffffffffffffff16610c4d8361074d565b73ffffffffffffffffffffffffffffffffffffffff167f8c5be1e5ebec7d5bd14f71427d1e84f3dd0314c0f7b2291e5b200ac8c7c3b92560405160405180910390a45050565b6000610c9e82610b66565b610cdd576040517f08c379a0000000000000000000000000000000000000000000000000000000008152600401610cd490611dcc565b60405180910390fd5b6000610ce88361074d565b90508073ffffffffffffffffffffffffffffffffffffffff168473ffffffffffffffffffffffffffffffffffffffff161480610d5757508373ffffffffffffffffffffffffffffffffffffffff16610d3f84610490565b73ffffffffffffffffffffffffffffffffffffffff16145b80610d685750610d678185610a68565b5b91505092915050565b8273ffffffffffffffffffffffffffffffffffffffff16610d918261074d565b73ffffffffffffffffffffffffffffffffffffffff1614610de7576040517f08c379a0000000000000000000000000000000000000000000000000000000008152600401610dde90611e8c565b60405180910390fd5b600073ffffffffffffffffffffffffffffffffffffffff168273ffffffffffffffffffffffffffffffffffffffff161415610e57576040517f08c379a0000000000000000000000000000000000000000000000000000000008152600401610e4e90611d8c565b60405180910390fd5b610e62838383611528565b610e6d600082610bda565b6001600360008573ffffffffffffffffffffffffffffffffffffffff1673ffffffffffffffffffffffffffffffffffffffff1681526020019081526020016000206000828254610ebd9190612047565b925050819055506001600360008473ffffffffffffffffffffffffffffffffffffffff1673ffffffffffffffffffffffffffffffffffffffff1681526020019081526020016000206000828254610f149190611fc0565b92505081905550816002600083815260200190815260200160002060006101000a81548173ffffffffffffffffffffffffffffffffffffffff021916908373ffffffffffffffffffffffffffffffffffffffff160217905550808273ffffffffffffffffffffffffffffffffffffffff168473ffffffffffffffffffffffffffffffffffffffff167fddf252ad1be2c89b69c2b068fc378daa952ba7f163c4a11628f55a4df523b3ef60405160405180910390a4505050565b600073ffffffffffffffffffffffffffffffffffffffff168273ffffffffffffffffffffffffffffffffffffffff16141561103d576040517f08c379a000000000000000000000000000000000000000000000000000000000815260040161103490611e4c565b60405180910390fd5b61104681610b66565b15611086576040517f08c379a000000000000000000000000000000000000000000000000000000000815260040161107d90611d6c565b60405180910390fd5b61109260008383611528565b6001600360008473ffffffffffffffffffffffffffffffffffffffff1673ffffffffffffffffffffffffffffffffffffffff16815260200190815260200160002060008282546110e29190611fc0565b92505081905550816002600083815260200190815260200160002060006101000a81548173ffffffffffffffffffffffffffffffffffffffff021916908373ffffffffffffffffffffffffffffffffffffffff160217905550808273ffffffffffffffffffffffffffffffffffffffff16600073ffffffffffffffffffffffffffffffffffffffff167fddf252ad1be2c89b69c2b068fc378daa952ba7f163c4a11628f55a4df523b3ef60405160405180910390a45050565b8173ffffffffffffffffffffffffffffffffffffffff168373ffffffffffffffffffffffffffffffffffffffff16141561120a576040517f08c379a000000000000000000000000000000000000000000000000000000000815260040161120190611dac565b60405180910390fd5b80600560008573ffffffffffffffffffffffffffffffffffffffff1673ffffffffffffffffffffffffffffffffffffffff16815260200190815260200160002060008473ffffffffffffffffffffffffffffffffffffffff1673ffffffffffffffffffffffffffffffffffffffff16815260200190815260200160002060006101000a81548160ff0219169083151502179055508173ffffffffffffffffffffffffffffffffffffffff168373ffffffffffffffffffffffffffffffffffffffff167f17307eab39ab6107e8899845ad3d59bd9653f200f220920489ca2b5937696c31836040516112fb9190611d0f565b60405180910390a3505050565b611313848484610d71565b61131f8484848461152d565b61135e576040517f08c379a000000000000000000000000000000000000000000000000000000000815260040161135590611d4c565b60405180910390fd5b50505050565b606060405180602001604052806000815250905090565b606060008214156113c3576040518060400160405280600181526020017f30000000000000000000000000000000000000000000000000000000000000008152509050611523565b600082905060005b600082146113f55780806113de90612194565b915050600a826113ee9190612016565b91506113cb565b60008167ffffffffffffffff811115611437577f4e487b7100000000000000000000000000000000000000000000000000000000600052604160045260246000fd5b6040519080825280601f01601f1916602001820160405280156114695781602001600182028036833780820191505090505b5090505b6000851461151c576001826114829190612047565b9150600a8561149191906121dd565b603061149d9190611fc0565b60f81b8183815181106114d9577f4e487b7100000000000000000000000000000000000000000000000000000000600052603260045260246000fd5b60200101907effffffffffffffffffffffffffffffffffffffffffffffffffffffffffffff1916908160001a905350600a856115159190612016565b945061146d565b8093505050505b919050565b505050565b600061154e8473ffffffffffffffffffffffffffffffffffffffff166116c4565b156116b7578373ffffffffffffffffffffffffffffffffffffffff1663150b7a02611577610bd2565b8786866040518563ffffffff1660e01b81526004016115999493929190611cc3565b602060405180830381600087803b1580156115b357600080fd5b505af19250505080156115e457506040513d601f19601f820116820180604052508101906115e19190611978565b60015b611667573d8060008114611614576040519150601f19603f3d011682016040523d82523d6000602084013e611619565b606091505b5060008151141561165f576040517f08c379a000000000000000000000000000000000000000000000000000000000815260040161165690611d4c565b60405180910390fd5b805181602001fd5b63150b7a0260e01b7bffffffffffffffffffffffffffffffffffffffffffffffffffffffff1916817bffffffffffffffffffffffffffffffffffffffffffffffffffffffff1916149150506116bc565b600190505b949350505050565b600080823b905060008111915050919050565b60006116ea6116e584611f4c565b611f27565b90508281526020810184848401111561170257600080fd5b61170d8482856120ef565b509392505050565b600081359050611724816126bb565b92915050565b600081359050611739816126d2565b92915050565b60008135905061174e816126e9565b92915050565b600081519050611763816126e9565b92915050565b600082601f83011261177a57600080fd5b813561178a8482602086016116d7565b91505092915050565b6000813590506117a281612700565b92915050565b6000602082840312156117ba57600080fd5b60006117c884828501611715565b91505092915050565b600080604083850312156117e457600080fd5b60006117f285828601611715565b925050602061180385828601611715565b9150509250929050565b60008060006060848603121561182257600080fd5b600061183086828701611715565b935050602061184186828701611715565b925050604061185286828701611793565b9150509250925092565b6000806000806080858703121561187257600080fd5b600061188087828801611715565b945050602061189187828801611715565b93505060406118a287828801611793565b925050606085013567ffffffffffffffff8111156118bf57600080fd5b6118cb87828801611769565b91505092959194509250565b600080604083850312156118ea57600080fd5b60006118f885828601611715565b92505060206119098582860161172a565b9150509250929050565b6000806040838503121561192657600080fd5b600061193485828601611715565b925050602061194585828601611793565b9150509250929050565b60006020828403121561196157600080fd5b600061196f8482850161173f565b91505092915050565b60006020828403121561198a57600080fd5b600061199884828501611754565b91505092915050565b6000602082840312156119b357600080fd5b60006119c184828501611793565b91505092915050565b6119d38161207b565b82525050565b6119e28161208d565b82525050565b60006119f382611f7d565b6119fd8185611f93565b9350611a0d8185602086016120fe565b611a16816122ca565b840191505092915050565b6000611a2c82611f88565b611a368185611fa4565b9350611a468185602086016120fe565b611a4f816122ca565b840191505092915050565b6000611a6582611f88565b611a6f8185611fb5565b9350611a7f8185602086016120fe565b80840191505092915050565b6000611a98603283611fa4565b9150611aa3826122db565b604082019050919050565b6000611abb601c83611fa4565b9150611ac68261232a565b602082019050919050565b6000611ade602483611fa4565b9150611ae982612353565b604082019050919050565b6000611b01601983611fa4565b9150611b0c826123a2565b602082019050919050565b6000611b24602c83611fa4565b9150611b2f826123cb565b604082019050919050565b6000611b47603883611fa4565b9150611b528261241a565b604082019050919050565b6000611b6a602a83611fa4565b9150611b7582612469565b604082019050919050565b6000611b8d602983611fa4565b9150611b98826124b8565b604082019050919050565b6000611bb0602083611fa4565b9150611bbb82612507565b602082019050919050565b6000611bd3602c83611fa4565b9150611bde82612530565b604082019050919050565b6000611bf6602983611fa4565b9150611c018261257f565b604082019050919050565b6000611c19602f83611fa4565b9150611c24826125ce565b604082019050919050565b6000611c3c602183611fa4565b9150611c478261261d565b604082019050919050565b6000611c5f603183611fa4565b9150611c6a8261266c565b604082019050919050565b611c7e816120e5565b82525050565b6000611c908285611a5a565b9150611c9c8284611a5a565b91508190509392505050565b6000602082019050611cbd60008301846119ca565b92915050565b6000608082019050611cd860008301876119ca565b611ce560208301866119ca565b611cf26040830185611c75565b8181036060830152611d0481846119e8565b905095945050505050565b6000602082019050611d2460008301846119d9565b92915050565b60006020820190508181036000830152611d448184611a21565b905092915050565b60006020820190508181036000830152611d6581611a8b565b9050919050565b60006020820190508181036000830152611d8581611aae565b9050919050565b60006020820190508181036000830152611da581611ad1565b9050919050565b60006020820190508181036000830152611dc581611af4565b9050919050565b60006020820190508181036000830152611de581611b17565b9050919050565b60006020820190508181036000830152611e0581611b3a565b9050919050565b60006020820190508181036000830152611e2581611b5d565b9050919050565b60006020820190508181036000830152611e4581611b80565b9050919050565b60006020820190508181036000830152611e6581611ba3565b9050919050565b60006020820190508181036000830152611e8581611bc6565b9050919050565b60006020820190508181036000830152611ea581611be9565b9050919050565b60006020820190508181036000830152611ec581611c0c565b9050919050565b60006020820190508181036000830152611ee581611c2f565b9050919050565b60006020820190508181036000830152611f0581611c52565b9050919050565b6000602082019050611f216000830184611c75565b92915050565b6000611f31611f42565b9050611f3d8282612163565b919050565b6000604051905090565b600067ffffffffffffffff821115611f6757611f6661229b565b5b611f70826122ca565b9050602081019050919050565b600081519050919050565b600081519050919050565b600082825260208201905092915050565b600082825260208201905092915050565b600081905092915050565b6000611fcb826120e5565b9150611fd6836120e5565b9250827fffffffffffffffffffffffffffffffffffffffffffffffffffffffffffffffff0382111561200b5761200a61220e565b5b828201905092915050565b6000612021826120e5565b915061202c836120e5565b92508261203c5761203b61223d565b5b828204905092915050565b6000612052826120e5565b915061205d836120e5565b9250828210156120705761206f61220e565b5b828203905092915050565b6000612086826120c5565b9050919050565b60008115159050919050565b60007fffffffff0000000000000000000000000000000000000000000000000000000082169050919050565b600073ffffffffffffffffffffffffffffffffffffffff82169050919050565b6000819050919050565b82818337600083830152505050565b60005b8381101561211c578082015181840152602081019050612101565b8381111561212b576000848401525b50505050565b6000600282049050600182168061214957607f821691505b6020821081141561215d5761215c61226c565b5b50919050565b61216c826122ca565b810181811067ffffffffffffffff8211171561218b5761218a61229b565b5b80604052505050565b600061219f826120e5565b91507fffffffffffffffffffffffffffffffffffffffffffffffffffffffffffffffff8214156121d2576121d161220e565b5b600182019050919050565b60006121e8826120e5565b91506121f3836120e5565b9250826122035761220261223d565b5b828206905092915050565b7f4e487b7100000000000000000000000000000000000000000000000000000000600052601160045260246000fd5b7f4e487b7100000000000000000000000000000000000000000000000000000000600052601260045260246000fd5b7f4e487b7100000000000000000000000000000000000000000000000000000000600052602260045260246000fd5b7f4e487b7100000000000000000000000000000000000000000000000000000000600052604160045260246000fd5b6000601f19601f8301169050919050565b7f4552433732313a207472616e7366657220746f206e6f6e20455243373231526560008201527f63656976657220696d706c656d656e7465720000000000000000000000000000602082015250565b7f4552433732313a20746f6b656e20616c7265616479206d696e74656400000000600082015250565b7f4552433732313a207472616e7366657220746f20746865207a65726f2061646460008201527f7265737300000000000000000000000000000000000000000000000000000000602082015250565b7f4552433732313a20617070726f766520746f2063616c6c657200000000000000600082015250565b7f4552433732313a206f70657261746f7220717565727920666f72206e6f6e657860008201527f697374656e7420746f6b656e0000000000000000000000000000000000000000602082015250565b7f4552433732313a20617070726f76652063616c6c6572206973206e6f74206f7760008201527f6e6572206e6f7220617070726f76656420666f7220616c6c0000000000000000602082015250565b7f4552433732313a2062616c616e636520717565727920666f7220746865207a6560008201527f726f206164647265737300000000000000000000000000000000000000000000602082015250565b7f4552433732313a206f776e657220717565727920666f72206e6f6e657869737460008201527f656e7420746f6b656e0000000000000000000000000000000000000000000000602082015250565b7f4552433732313a206d696e7420746f20746865207a65726f2061646472657373600082015250565b7f4552433732313a20617070726f76656420717565727920666f72206e6f6e657860008201527f697374656e7420746f6b656e0000000000000000000000000000000000000000602082015250565b7f4552433732313a207472616e73666572206f6620746f6b656e2074686174206960008201527f73206e6f74206f776e0000000000000000000000000000000000000000000000602082015250565b7f4552433732314d657461646174613a2055524920717565727920666f72206e6f60008201527f6e6578697374656e7420746f6b656e0000000000000000000000000000000000602082015250565b7f4552433732313a20617070726f76616c20746f2063757272656e74206f776e6560008201527f7200000000000000000000000000000000000000000000000000000000000000602082015250565b7f4552433732313a207472616e736665722063616c6c6572206973206e6f74206f60008201527f776e6572206e6f7220617070726f766564000000000000000000000000000000602082015250565b6126c48161207b565b81146126cf57600080fd5b50565b6126db8161208d565b81146126e657600080fd5b50565b6126f281612099565b81146126fd57600080fd5b50565b612709816120e5565b811461271457600080fd5b5056fea26469706673582212209ad991736b5a046fd07b04827ca9384c1098d50b6894a1d1cca6f747a91c49b764736f6c63430008040033",
  "linkReferences": {},
  "deployedLinkReferences": {}
}