{
  "_format": "hh-sol-artifact-1",
  "contractName": "FaroEnglishAuctionFactory",
  "sourceName": "contracts/EnglishAuctions/FaroEnglishAuctionFactory.sol",
  "abi": [
    {
      "anonymous": false,
      "inputs": [
        {
          "indexed": false,
          "internalType": "address",
          "name": "auctionContract",
          "type": "address"
        },
        {
          "indexed": false,
          "internalType": "address",
          "name": "owner",
          "type": "address"
        }
      ],
      "name": "AuctionCreated",
      "type": "event"
    },
    {
      "anonymous": false,
      "inputs": [
        {
          "indexed": true,
          "internalType": "address",
          "name": "previousOwner",
          "type": "address"
        },
        {
          "indexed": true,
          "internalType": "address",
          "name": "newOwner",
          "type": "address"
        }
      ],
      "name": "OwnershipTransferred",
      "type": "event"
    },
    {
      "anonymous": false,
      "inputs": [
        {
          "indexed": false,
          "internalType": "address",
          "name": "account",
          "type": "address"
        }
      ],
      "name": "Paused",
      "type": "event"
    },
    {
      "anonymous": false,
      "inputs": [
        {
          "indexed": false,
          "internalType": "address",
          "name": "account",
          "type": "address"
        }
      ],
      "name": "Unpaused",
      "type": "event"
    },
    {
      "inputs": [
        {
          "internalType": "uint256",
          "name": "",
          "type": "uint256"
        }
      ],
      "name": "auctions",
      "outputs": [
        {
          "internalType": "address",
          "name": "",
          "type": "address"
        }
      ],
      "stateMutability": "view",
      "type": "function"
    },
    {
      "inputs": [
        {
          "internalType": "uint256",
          "name": "_bidIncrement",
          "type": "uint256"
        },
        {
          "internalType": "uint256",
          "name": "_auctionPeriodInSeconds",
          "type": "uint256"
        },
        {
          "internalType": "address",
          "name": "_token",
          "type": "address"
        },
        {
          "internalType": "uint256",
          "name": "_tokenId",
          "type": "uint256"
        },
        {
          "internalType": "uint256",
          "name": "_floorPrice",
          "type": "uint256"
        }
      ],
      "name": "createAuction",
      "outputs": [],
      "stateMutability": "nonpayable",
      "type": "function"
    },
    {
      "inputs": [
        {
          "internalType": "uint256",
          "name": "auctionIndex",
          "type": "uint256"
        }
      ],
      "name": "getAuction",
      "outputs": [
        {
          "internalType": "address",
          "name": "",
          "type": "address"
        }
      ],
      "stateMutability": "view",
      "type": "function"
    },
    {
      "inputs": [],
      "name": "getAuctionCount",
      "outputs": [
        {
          "internalType": "uint256",
          "name": "",
          "type": "uint256"
        }
      ],
      "stateMutability": "view",
      "type": "function"
    },
    {
      "inputs": [],
      "name": "getLastAuction",
      "outputs": [
        {
          "internalType": "address",
          "name": "",
          "type": "address"
        }
      ],
      "stateMutability": "view",
      "type": "function"
    },
    {
      "inputs": [
        {
          "internalType": "uint32",
          "name": "liveAuctionStartIndex",
          "type": "uint32"
        },
        {
          "internalType": "uint32",
          "name": "liveAuctionEndIndex",
          "type": "uint32"
        }
      ],
      "name": "getLiveAuctions",
      "outputs": [
        {
          "internalType": "address[]",
          "name": "",
          "type": "address[]"
        }
      ],
      "stateMutability": "view",
      "type": "function"
    },
    {
      "inputs": [],
      "name": "owner",
      "outputs": [
        {
          "internalType": "address",
          "name": "",
          "type": "address"
        }
      ],
      "stateMutability": "view",
      "type": "function"
    },
    {
      "inputs": [],
      "name": "pause",
      "outputs": [],
      "stateMutability": "nonpayable",
      "type": "function"
    },
    {
      "inputs": [],
      "name": "paused",
      "outputs": [
        {
          "internalType": "bool",
          "name": "",
          "type": "bool"
        }
      ],
      "stateMutability": "view",
      "type": "function"
    },
    {
      "inputs": [],
      "name": "renounceOwnership",
      "outputs": [],
      "stateMutability": "nonpayable",
      "type": "function"
    },
    {
      "inputs": [
        {
          "internalType": "address",
          "name": "newOwner",
          "type": "address"
        }
      ],
      "name": "transferOwnership",
      "outputs": [],
      "stateMutability": "nonpayable",
      "type": "function"
    },
    {
      "inputs": [],
      "name": "unpause",
      "outputs": [],
      "stateMutability": "nonpayable",
      "type": "function"
    }
  ],
  "bytecode": "0x608060405234801561001057600080fd5b5061002d61002261004c60201b60201c565b61005460201b60201c565b60008060146101000a81548160ff021916908315150217905550610118565b600033905090565b60008060009054906101000a900473ffffffffffffffffffffffffffffffffffffffff169050816000806101000a81548173ffffffffffffffffffffffffffffffffffffffff021916908373ffffffffffffffffffffffffffffffffffffffff1602179055508173ffffffffffffffffffffffffffffffffffffffff168173ffffffffffffffffffffffffffffffffffffffff167f8be0079c531659141344cd1fd0a4f28419497f9722a3daafe3b4186f6b6457e060405160405180910390a35050565b6140a4806101276000396000f3fe60806040523480156200001157600080fd5b5060043610620000c45760003560e01c8063715018a6116200007b578063715018a614620001a557806378bd793514620001b15780638456cb5914620001e75780638da5cb5b14620001f3578063c44e66401462000215578063f2fde38b146200023757620000c4565b80630d62491414620000c95780632120ccc814620000eb5780633f4ba83a1462000121578063571a26a0146200012d5780635c975abb1462000163578063627501b81462000185575b600080fd5b620000d362000257565b604051620000e291906200121b565b60405180910390f35b62000109600480360381019062000103919062001026565b620002d3565b6040516200011891906200130f565b60405180910390f35b6200012b6200075f565b005b6200014b600480360381019062000145919062000f78565b620007ee565b6040516200015a91906200121b565b60405180910390f35b6200016d6200082e565b6040516200017c919062001333565b60405180910390f35b620001a360048036038101906200019d919062000fa4565b62000844565b005b620001af62000a11565b005b620001cf6004803603810190620001c9919062000f78565b62000aa2565b604051620001de91906200121b565b60405180910390f35b620001f162000b11565b005b620001fd62000ba0565b6040516200020c91906200121b565b60405180910390f35b6200021f62000bc9565b6040516200022e9190620013d8565b60405180910390f35b6200025560048036038101906200024f919062000f4c565b62000bd3565b005b60006001806002546200026b919062001455565b81548110620002a3577f4e487b7100000000000000000000000000000000000000000000000000000000600052603260045260246000fd5b9060005260206000200160009054906101000a900473ffffffffffffffffffffffffffffffffffffffff16905090565b606060008383620002e5919062001490565b90508063ffffffff166002541015620002fd57600080fd5b60006040516024016040516020818303038152906040527f7fb45099000000000000000000000000000000000000000000000000000000007bffffffffffffffffffffffffffffffffffffffffffffffffffffffff19166020820180517bffffffffffffffffffffffffffffffffffffffffffffffffffffffff8381831617835250505050905060008263ffffffff1667ffffffffffffffff811115620003cd577f4e487b7100000000000000000000000000000000000000000000000000000000600052604160045260246000fd5b604051908082528060200260200182016040528015620003fc5781602001602082028036833780820191505090505b50905060606000806000808a90505b8963ffffffff168163ffffffff161015620005ff5760018163ffffffff168154811062000461577f4e487b7100000000000000000000000000000000000000000000000000000000600052603260045260246000fd5b9060005260206000200160009054906101000a900473ffffffffffffffffffffffffffffffffffffffff1693508373ffffffffffffffffffffffffffffffffffffffff1687604051620004b5919062001202565b600060405180830381855afa9150503d8060008114620004f2576040519150601f19603f3d011682016040523d82523d6000602084013e620004f7565b606091505b5080965081945050508215620005e957600185601f8151811062000544577f4e487b7100000000000000000000000000000000000000000000000000000000600052603260045260246000fd5b602001015160f81c60f81b60f81c60ff161415620005e85783868263ffffffff16815181106200059d577f4e487b7100000000000000000000000000000000000000000000000000000000600052603260045260246000fd5b602002602001019073ffffffffffffffffffffffffffffffffffffffff16908173ffffffffffffffffffffffffffffffffffffffff16815250508180620005e4906200155b565b9250505b5b8080620005f690620015a9565b9150506200040b565b5060008167ffffffffffffffff81111562000643577f4e487b7100000000000000000000000000000000000000000000000000000000600052604160045260246000fd5b604051908082528060200260200182016040528015620006725781602001602082028036833780820191505090505b50905060005b828110156200074d57868181518110620006bb577f4e487b7100000000000000000000000000000000000000000000000000000000600052603260045260246000fd5b6020026020010151828281518110620006fd577f4e487b7100000000000000000000000000000000000000000000000000000000600052603260045260246000fd5b602002602001019073ffffffffffffffffffffffffffffffffffffffff16908173ffffffffffffffffffffffffffffffffffffffff1681525050808062000744906200155b565b91505062000678565b50809850505050505050505092915050565b6200076962000cd7565b73ffffffffffffffffffffffffffffffffffffffff166200078962000ba0565b73ffffffffffffffffffffffffffffffffffffffff1614620007e2576040517f08c379a0000000000000000000000000000000000000000000000000000000008152600401620007d990620013b6565b60405180910390fd5b620007ec62000cdf565b565b60018181548110620007ff57600080fd5b906000526020600020016000915054906101000a900473ffffffffffffffffffffffffffffffffffffffff1681565b60008060149054906101000a900460ff16905090565b6200084e6200082e565b1562000891576040517f08c379a0000000000000000000000000000000000000000000000000000000008152600401620008889062001394565b60405180910390fd5b6000338686868686604051620008a79062000ef9565b620008b896959493929190620012a2565b604051809103906000f080158015620008d5573d6000803e3d6000fd5b50905060008190508473ffffffffffffffffffffffffffffffffffffffff166323b872dd3383876040518463ffffffff1660e01b81526004016200091c9392919062001265565b600060405180830381600087803b1580156200093757600080fd5b505af11580156200094c573d6000803e3d6000fd5b505050506001819080600181540180825580915050600190039060005260206000200160009091909190916101000a81548173ffffffffffffffffffffffffffffffffffffffff021916908373ffffffffffffffffffffffffffffffffffffffff16021790555060026000815480929190620009c8906200155b565b91905055507f0bdb7849ed0b0249d0f995067a2ca77769f68ab4c654931e262676effeb395f2813360405162000a0092919062001238565b60405180910390a150505050505050565b62000a1b62000cd7565b73ffffffffffffffffffffffffffffffffffffffff1662000a3b62000ba0565b73ffffffffffffffffffffffffffffffffffffffff161462000a94576040517f08c379a000000000000000000000000000000000000000000000000000000000815260040162000a8b90620013b6565b60405180910390fd5b62000aa0600062000d89565b565b60006001828154811062000adf577f4e487b7100000000000000000000000000000000000000000000000000000000600052603260045260246000fd5b9060005260206000200160009054906101000a900473ffffffffffffffffffffffffffffffffffffffff169050919050565b62000b1b62000cd7565b73ffffffffffffffffffffffffffffffffffffffff1662000b3b62000ba0565b73ffffffffffffffffffffffffffffffffffffffff161462000b94576040517f08c379a000000000000000000000000000000000000000000000000000000000815260040162000b8b90620013b6565b60405180910390fd5b62000b9e62000e4d565b565b60008060009054906101000a900473ffffffffffffffffffffffffffffffffffffffff16905090565b6000600254905090565b62000bdd62000cd7565b73ffffffffffffffffffffffffffffffffffffffff1662000bfd62000ba0565b73ffffffffffffffffffffffffffffffffffffffff161462000c56576040517f08c379a000000000000000000000000000000000000000000000000000000000815260040162000c4d90620013b6565b60405180910390fd5b600073ffffffffffffffffffffffffffffffffffffffff168173ffffffffffffffffffffffffffffffffffffffff16141562000cc9576040517f08c379a000000000000000000000000000000000000000000000000000000000815260040162000cc09062001372565b60405180910390fd5b62000cd48162000d89565b50565b600033905090565b62000ce96200082e565b62000d2b576040517f08c379a000000000000000000000000000000000000000000000000000000000815260040162000d229062001350565b60405180910390fd5b60008060146101000a81548160ff0219169083151502179055507f5db9ee0a495bf2e6ff9c91a7834c1ba4fdd244a5e8aa4e537bd38aeae4b073aa62000d7062000cd7565b60405162000d7f91906200121b565b60405180910390a1565b60008060009054906101000a900473ffffffffffffffffffffffffffffffffffffffff169050816000806101000a81548173ffffffffffffffffffffffffffffffffffffffff021916908373ffffffffffffffffffffffffffffffffffffffff1602179055508173ffffffffffffffffffffffffffffffffffffffff168173ffffffffffffffffffffffffffffffffffffffff167f8be0079c531659141344cd1fd0a4f28419497f9722a3daafe3b4186f6b6457e060405160405180910390a35050565b62000e576200082e565b1562000e9a576040517f08c379a000000000000000000000000000000000000000000000000000000000815260040162000e919062001394565b60405180910390fd5b6001600060146101000a81548160ff0219169083151502179055507f62e78cea01bee320cd4e420270b5ea74000d11b0c9f74754ebdbfc544b05a25862000ee062000cd7565b60405162000eef91906200121b565b60405180910390a1565b61294c806200172383390190565b60008135905062000f1881620016d4565b92915050565b60008135905062000f2f81620016ee565b92915050565b60008135905062000f468162001708565b92915050565b60006020828403121562000f5f57600080fd5b600062000f6f8482850162000f07565b91505092915050565b60006020828403121562000f8b57600080fd5b600062000f9b8482850162000f1e565b91505092915050565b600080600080600060a0868803121562000fbd57600080fd5b600062000fcd8882890162000f1e565b955050602062000fe08882890162000f1e565b945050604062000ff38882890162000f07565b9350506060620010068882890162000f1e565b9250506080620010198882890162000f1e565b9150509295509295909350565b600080604083850312156200103a57600080fd5b60006200104a8582860162000f35565b92505060206200105d8582860162000f35565b9150509250929050565b600062001075838362001081565b60208301905092915050565b6200108c81620014cb565b82525050565b6200109d81620014cb565b82525050565b6000620010b08262001405565b620010bc818562001428565b9350620010c983620013f5565b8060005b8381101562001100578151620010e4888262001067565b9750620010f1836200141b565b925050600181019050620010cd565b5085935050505092915050565b6200111881620014df565b82525050565b60006200112b8262001410565b62001137818562001439565b93506200114981856020860162001525565b80840191505092915050565b60006200116460148362001444565b915062001171826200160a565b602082019050919050565b60006200118b60268362001444565b9150620011988262001633565b604082019050919050565b6000620011b260108362001444565b9150620011bf8262001682565b602082019050919050565b6000620011d960208362001444565b9150620011e682620016ab565b602082019050919050565b620011fc816200150b565b82525050565b60006200121082846200111e565b915081905092915050565b600060208201905062001232600083018462001092565b92915050565b60006040820190506200124f600083018562001092565b6200125e602083018462001092565b9392505050565b60006060820190506200127c600083018662001092565b6200128b602083018562001092565b6200129a6040830184620011f1565b949350505050565b600060c082019050620012b9600083018962001092565b620012c86020830188620011f1565b620012d76040830187620011f1565b620012e6606083018662001092565b620012f56080830185620011f1565b6200130460a0830184620011f1565b979650505050505050565b600060208201905081810360008301526200132b8184620010a3565b905092915050565b60006020820190506200134a60008301846200110d565b92915050565b600060208201905081810360008301526200136b8162001155565b9050919050565b600060208201905081810360008301526200138d816200117c565b9050919050565b60006020820190508181036000830152620013af81620011a3565b9050919050565b60006020820190508181036000830152620013d181620011ca565b9050919050565b6000602082019050620013ef6000830184620011f1565b92915050565b6000819050602082019050919050565b600081519050919050565b600081519050919050565b6000602082019050919050565b600082825260208201905092915050565b600081905092915050565b600082825260208201905092915050565b600062001462826200150b565b91506200146f836200150b565b925082821015620014855762001484620015db565b5b828203905092915050565b60006200149d8262001515565b9150620014aa8362001515565b925082821015620014c057620014bf620015db565b5b828203905092915050565b6000620014d882620014eb565b9050919050565b60008115159050919050565b600073ffffffffffffffffffffffffffffffffffffffff82169050919050565b6000819050919050565b600063ffffffff82169050919050565b60005b838110156200154557808201518184015260208101905062001528565b8381111562001555576000848401525b50505050565b600062001568826200150b565b91507fffffffffffffffffffffffffffffffffffffffffffffffffffffffffffffffff8214156200159e576200159d620015db565b5b600182019050919050565b6000620015b68262001515565b915063ffffffff821415620015d057620015cf620015db565b5b600182019050919050565b7f4e487b7100000000000000000000000000000000000000000000000000000000600052601160045260246000fd5b7f5061757361626c653a206e6f7420706175736564000000000000000000000000600082015250565b7f4f776e61626c653a206e6577206f776e657220697320746865207a65726f206160008201527f6464726573730000000000000000000000000000000000000000000000000000602082015250565b7f5061757361626c653a2070617573656400000000000000000000000000000000600082015250565b7f4f776e61626c653a2063616c6c6572206973206e6f7420746865206f776e6572600082015250565b620016df81620014cb565b8114620016eb57600080fd5b50565b620016f9816200150b565b81146200170557600080fd5b50565b620017138162001515565b81146200171f57600080fd5b5056fe60806040523480156200001157600080fd5b506040516200294c3803806200294c8339818101604052810190620000379190620002eb565b8573ffffffffffffffffffffffffffffffffffffffff168373ffffffffffffffffffffffffffffffffffffffff16636352211e846040518263ffffffff1660e01b815260040162000089919062000424565b60206040518083038186803b158015620000a257600080fd5b505afa158015620000b7573d6000803e3d6000fd5b505050506040513d601f19601f82011682018060405250810190620000dd9190620002bf565b73ffffffffffffffffffffffffffffffffffffffff161462000136576040517f08c379a00000000000000000000000000000000000000000000000000000000081526004016200012d9062000402565b60405180910390fd5b6301e133806004541062000181576040517f08c379a00000000000000000000000000000000000000000000000000000000081526004016200017890620003e0565b60405180910390fd5b856000806101000a81548173ffffffffffffffffffffffffffffffffffffffff021916908373ffffffffffffffffffffffffffffffffffffffff160217905550846001819055508360048190555082600660006101000a81548173ffffffffffffffffffffffffffffffffffffffff021916908373ffffffffffffffffffffffffffffffffffffffff160217905550816007819055506000600b60016101000a81548160ff0219169083600381111562000264577f4e487b7100000000000000000000000000000000000000000000000000000000600052602160045260246000fd5b0217905550670de0b6b3a7640000816200027f919062000452565b600581905550505050505050620005f2565b600081519050620002a281620005be565b92915050565b600081519050620002b981620005d8565b92915050565b600060208284031215620002d257600080fd5b6000620002e28482850162000291565b91505092915050565b60008060008060008060c087890312156200030557600080fd5b60006200031589828a0162000291565b96505060206200032889828a01620002a8565b95505060406200033b89828a01620002a8565b94505060606200034e89828a0162000291565b93505060806200036189828a01620002a8565b92505060a06200037489828a01620002a8565b9150509295509295509295565b60006200039060298362000441565b91506200039d8262000520565b604082019050919050565b6000620003b760378362000441565b9150620003c4826200056f565b604082019050919050565b620003da81620004e7565b82525050565b60006020820190508181036000830152620003fb8162000381565b9050919050565b600060208201905081810360008301526200041d81620003a8565b9050919050565b60006020820190506200043b6000830184620003cf565b92915050565b600082825260208201905092915050565b60006200045f82620004e7565b91506200046c83620004e7565b9250817fffffffffffffffffffffffffffffffffffffffffffffffffffffffffffffffff0483118215151615620004a857620004a7620004f1565b5b828202905092915050565b6000620004c082620004c7565b9050919050565b600073ffffffffffffffffffffffffffffffffffffffff82169050919050565b6000819050919050565b7f4e487b7100000000000000000000000000000000000000000000000000000000600052601160045260246000fd5b7f41756374696f6e20706572696f642063616e6e6f74206265206d6f726520746860008201527f616e203120796561720000000000000000000000000000000000000000000000602082015250565b7f41756374696f6e2063616e206f6e6c79206265206465706c6f7965642062792060008201527f746865206f776e6572206f662074686520746f6b656e2e000000000000000000602082015250565b620005c981620004b3565b8114620005d557600080fd5b50565b620005e381620004e7565b8114620005ef57600080fd5b50565b61234a80620006026000396000f3fe60806040526004361061011f5760003560e01c80638da5cb5b116100a0578063be9a655511610064578063be9a655514610372578063bf38f22314610389578063efbe1c1c146103c6578063f5b56c56146103dd578063fc0c546a146104085761011f565b80638da5cb5b1461029b5780638fa8b790146102c657806391f90157146102f15780639363c8121461031c578063b3cc167a146103475761011f565b80634979440a116100e75780634979440a146101c65780635e38c954146101f157806362ea82db1461020857806378e97925146102455780637fb45099146102705761011f565b806317d70f7c146101245780631998aeef1461014f5780632d9f2dfc1461016d5780633197cbb6146101845780633ccfd60b146101af575b600080fd5b34801561013057600080fd5b50610139610433565b6040516101469190611df1565b60405180910390f35b610157610439565b6040516101649190611c00565b60405180910390f35b34801561017957600080fd5b50610182610862565b005b34801561019057600080fd5b50610199610a46565b6040516101a69190611df1565b60405180910390f35b3480156101bb57600080fd5b506101c4610a4c565b005b3480156101d257600080fd5b506101db611018565b6040516101e89190611df1565b60405180910390f35b3480156101fd57600080fd5b50610206611081565b005b34801561021457600080fd5b5061022f600480360381019061022a91906118f7565b611270565b60405161023c9190611df1565b60405180910390f35b34801561025157600080fd5b5061025a611288565b6040516102679190611df1565b60405180910390f35b34801561027c57600080fd5b5061028561128e565b6040516102929190611c36565b60405180910390f35b3480156102a757600080fd5b506102b06112a1565b6040516102bd9190611b32565b60405180910390f35b3480156102d257600080fd5b506102db6112c5565b6040516102e89190611c00565b60405180910390f35b3480156102fd57600080fd5b506103066114a4565b6040516103139190611b32565b60405180910390f35b34801561032857600080fd5b506103316114ca565b60405161033e9190611df1565b60405180910390f35b34801561035357600080fd5b5061035c6114d0565b6040516103699190611df1565b60405180910390f35b34801561037e57600080fd5b506103876114d6565b005b34801561039557600080fd5b506103b060048036038101906103ab91906118f7565b6116a2565b6040516103bd9190611df1565b60405180910390f35b3480156103d257600080fd5b506103db6116eb565b005b3480156103e957600080fd5b506103f26116f5565b6040516103ff9190611df1565b60405180910390f35b34801561041457600080fd5b5061041d6116fb565b60405161042a9190611c1b565b60405180910390f35b60075481565b6000610443611721565b6001600381111561047d577f4e487b7100000000000000000000000000000000000000000000000000000000600052602160045260246000fd5b600b60019054906101000a900460ff1660038111156104c5577f4e487b7100000000000000000000000000000000000000000000000000000000600052602160045260246000fd5b14610505576040517f08c379a00000000000000000000000000000000000000000000000000000000081526004016104fc90611d51565b60405180910390fd5b60008054906101000a900473ffffffffffffffffffffffffffffffffffffffff1673ffffffffffffffffffffffffffffffffffffffff163373ffffffffffffffffffffffffffffffffffffffff161415610594576040517f08c379a000000000000000000000000000000000000000000000000000000000815260040161058b90611d71565b60405180910390fd5b60055434116105d8576040517f08c379a00000000000000000000000000000000000000000000000000000000081526004016105cf90611c91565b60405180910390fd5b600034600a60003373ffffffffffffffffffffffffffffffffffffffff1673ffffffffffffffffffffffffffffffffffffffff168152602001908152602001600020546106259190611e1d565b9050600854811161066b576040517f08c379a000000000000000000000000000000000000000000000000000000000815260040161066290611d31565b60405180910390fd5b6000600a6000600960009054906101000a900473ffffffffffffffffffffffffffffffffffffffff1673ffffffffffffffffffffffffffffffffffffffff1673ffffffffffffffffffffffffffffffffffffffff16815260200190815260200160002054905081600a60003373ffffffffffffffffffffffffffffffffffffffff1673ffffffffffffffffffffffffffffffffffffffff1681526020019081526020016000208190555080821161073e576107336001548361072d9190611e1d565b826118c6565b6008819055506107f6565b600960009054906101000a900473ffffffffffffffffffffffffffffffffffffffff1673ffffffffffffffffffffffffffffffffffffffff163373ffffffffffffffffffffffffffffffffffffffff16146107f25733600960006101000a81548173ffffffffffffffffffffffffffffffffffffffff021916908373ffffffffffffffffffffffffffffffffffffffff1602179055506107eb82600154836107e69190611e1d565b6118c6565b6008819055505b8190505b7f6406a98dccde08d7941b0bdc278fe6de57d2364b9c99a10c4219918516f970343383600960009054906101000a900473ffffffffffffffffffffffffffffffffffffffff1684600854604051610851959493929190611bad565b60405180910390a160019250505090565b60008054906101000a900473ffffffffffffffffffffffffffffffffffffffff1673ffffffffffffffffffffffffffffffffffffffff163373ffffffffffffffffffffffffffffffffffffffff16146108f0576040517f08c379a00000000000000000000000000000000000000000000000000000000081526004016108e790611cb1565b60405180910390fd5b600380811115610929577f4e487b7100000000000000000000000000000000000000000000000000000000600052602160045260246000fd5b600b60019054906101000a900460ff166003811115610971577f4e487b7100000000000000000000000000000000000000000000000000000000600052602160045260246000fd5b146109b1576040517f08c379a00000000000000000000000000000000000000000000000000000000081526004016109a890611d11565b60405180910390fd5b600660009054906101000a900473ffffffffffffffffffffffffffffffffffffffff1673ffffffffffffffffffffffffffffffffffffffff166323b872dd30336007546040518463ffffffff1660e01b8152600401610a1293929190611b4d565b600060405180830381600087803b158015610a2c57600080fd5b505af1158015610a40573d6000803e3d6000fd5b50505050565b60025481565b610a54611721565b600380811115610a8d577f4e487b7100000000000000000000000000000000000000000000000000000000600052602160045260246000fd5b600b60019054906101000a900460ff166003811115610ad5577f4e487b7100000000000000000000000000000000000000000000000000000000600052602160045260246000fd5b1480610b60575060026003811115610b16577f4e487b7100000000000000000000000000000000000000000000000000000000600052602160045260246000fd5b600b60019054906101000a900460ff166003811115610b5e577f4e487b7100000000000000000000000000000000000000000000000000000000600052602160045260246000fd5b145b610b9f576040517f08c379a0000000000000000000000000000000000000000000000000000000008152600401610b9690611dd1565b60405180910390fd5b6000806000600a60003373ffffffffffffffffffffffffffffffffffffffff1673ffffffffffffffffffffffffffffffffffffffff1681526020019081526020016000205411610c24576040517f08c379a0000000000000000000000000000000000000000000000000000000008152600401610c1b90611d91565b60405180910390fd5b600380811115610c5d577f4e487b7100000000000000000000000000000000000000000000000000000000600052602160045260246000fd5b600b60019054906101000a900460ff166003811115610ca5577f4e487b7100000000000000000000000000000000000000000000000000000000600052602160045260246000fd5b1415610cf557339150600a60008373ffffffffffffffffffffffffffffffffffffffff1673ffffffffffffffffffffffffffffffffffffffff168152602001908152602001600020549050610ecc565b60008054906101000a900473ffffffffffffffffffffffffffffffffffffffff1673ffffffffffffffffffffffffffffffffffffffff163373ffffffffffffffffffffffffffffffffffffffff161415610d9357600960009054906101000a900473ffffffffffffffffffffffffffffffffffffffff16915060085490506001600b60006101000a81548160ff021916908315150217905550610ecb565b600960009054906101000a900473ffffffffffffffffffffffffffffffffffffffff1673ffffffffffffffffffffffffffffffffffffffff163373ffffffffffffffffffffffffffffffffffffffff161415610e8457600960009054906101000a900473ffffffffffffffffffffffffffffffffffffffff169150600854600a6000600960009054906101000a900473ffffffffffffffffffffffffffffffffffffffff1673ffffffffffffffffffffffffffffffffffffffff1673ffffffffffffffffffffffffffffffffffffffff16815260200190815260200160002054610e7d9190611ecd565b9050610eca565b339150600a60008373ffffffffffffffffffffffffffffffffffffffff1673ffffffffffffffffffffffffffffffffffffffff1681526020019081526020016000205490505b5b5b60008111610f0f576040517f08c379a0000000000000000000000000000000000000000000000000000000008152600401610f0690611c51565b60405180910390fd5b80600a60008473ffffffffffffffffffffffffffffffffffffffff1673ffffffffffffffffffffffffffffffffffffffff1681526020019081526020016000206000828254610f5e9190611ecd565b925050819055508173ffffffffffffffffffffffffffffffffffffffff166108fc829081150290604051600060405180830381858888f19350505050610fd9576040517f08c379a0000000000000000000000000000000000000000000000000000000008152600401610fd090611cf1565b60405180910390fd5b7f2717ead6b9200dd235aad468c9809ea400fe33ac69b5bfaa6d3e90fc922b639833838360405161100c93929190611b4d565b60405180910390a15050565b6000600a6000600960009054906101000a900473ffffffffffffffffffffffffffffffffffffffff1673ffffffffffffffffffffffffffffffffffffffff1673ffffffffffffffffffffffffffffffffffffffff16815260200190815260200160002054905090565b611089611721565b600260038111156110c3577f4e487b7100000000000000000000000000000000000000000000000000000000600052602160045260246000fd5b600b60019054906101000a900460ff16600381111561110b577f4e487b7100000000000000000000000000000000000000000000000000000000600052602160045260246000fd5b1461114b576040517f08c379a000000000000000000000000000000000000000000000000000000000815260040161114290611db1565b60405180910390fd5b600960009054906101000a900473ffffffffffffffffffffffffffffffffffffffff1673ffffffffffffffffffffffffffffffffffffffff163373ffffffffffffffffffffffffffffffffffffffff16146111db576040517f08c379a00000000000000000000000000000000000000000000000000000000081526004016111d290611cd1565b60405180910390fd5b600660009054906101000a900473ffffffffffffffffffffffffffffffffffffffff1673ffffffffffffffffffffffffffffffffffffffff166323b872dd30336007546040518463ffffffff1660e01b815260040161123c93929190611b4d565b600060405180830381600087803b15801561125657600080fd5b505af115801561126a573d6000803e3d6000fd5b50505050565b600a6020528060005260406000206000915090505481565b60035481565b600b60019054906101000a900460ff1681565b60008054906101000a900473ffffffffffffffffffffffffffffffffffffffff1681565b60008060009054906101000a900473ffffffffffffffffffffffffffffffffffffffff1673ffffffffffffffffffffffffffffffffffffffff163373ffffffffffffffffffffffffffffffffffffffff1614611356576040517f08c379a000000000000000000000000000000000000000000000000000000000815260040161134d90611cb1565b60405180910390fd5b61135e611721565b60016003811115611398577f4e487b7100000000000000000000000000000000000000000000000000000000600052602160045260246000fd5b600b60019054906101000a900460ff1660038111156113e0577f4e487b7100000000000000000000000000000000000000000000000000000000600052602160045260246000fd5b14611420576040517f08c379a000000000000000000000000000000000000000000000000000000000815260040161141790611d51565b60405180910390fd5b6003600b60016101000a81548160ff0219169083600381111561146c577f4e487b7100000000000000000000000000000000000000000000000000000000600052602160045260246000fd5b02179055507f63b958841f79ab97cb5456da181454b9932c0e15a3b17f1cbd27e2a8bc61043760405160405180910390a16001905090565b600960009054906101000a900473ffffffffffffffffffffffffffffffffffffffff1681565b60055481565b60015481565b60008054906101000a900473ffffffffffffffffffffffffffffffffffffffff1673ffffffffffffffffffffffffffffffffffffffff163373ffffffffffffffffffffffffffffffffffffffff1614611564576040517f08c379a000000000000000000000000000000000000000000000000000000000815260040161155b90611cb1565b60405180910390fd5b6000600381111561159e577f4e487b7100000000000000000000000000000000000000000000000000000000600052602160045260246000fd5b600b60019054906101000a900460ff1660038111156115e6577f4e487b7100000000000000000000000000000000000000000000000000000000600052602160045260246000fd5b14611626576040517f08c379a000000000000000000000000000000000000000000000000000000000815260040161161d90611c71565b60405180910390fd5b6001600b60016101000a81548160ff02191690836003811115611672577f4e487b7100000000000000000000000000000000000000000000000000000000600052602160045260246000fd5b021790555042600381905550600160045461168d9190611e73565b60035461169a9190611e1d565b600281905550565b6000600a60008373ffffffffffffffffffffffffffffffffffffffff1673ffffffffffffffffffffffffffffffffffffffff168152602001908152602001600020549050919050565b6116f3611721565b565b60085481565b600660009054906101000a900473ffffffffffffffffffffffffffffffffffffffff1681565b600254421180156117b1575060016003811115611767577f4e487b7100000000000000000000000000000000000000000000000000000000600052602160045260246000fd5b600b60019054906101000a900460ff1660038111156117af577f4e487b7100000000000000000000000000000000000000000000000000000000600052602160045260246000fd5b145b156118c4576002600b60016101000a81548160ff02191690836003811115611802577f4e487b7100000000000000000000000000000000000000000000000000000000600052602160045260246000fd5b02179055507f7d7570b046e5ead3a4f3fbc9fa2445113625a1e79823776146316bafed6b8cc5600960009054906101000a900473ffffffffffffffffffffffffffffffffffffffff16600a6000600960009054906101000a900473ffffffffffffffffffffffffffffffffffffffff1673ffffffffffffffffffffffffffffffffffffffff1673ffffffffffffffffffffffffffffffffffffffff168152602001908152602001600020546040516118bb929190611b84565b60405180910390a15b565b6000818310156118d8578290506118dc565b8190505b92915050565b6000813590506118f1816122fd565b92915050565b60006020828403121561190957600080fd5b6000611917848285016118e2565b91505092915050565b61192981611f01565b82525050565b61193881611f13565b82525050565b61194781611f5c565b82525050565b61195681611f80565b82525050565b6000611969601e83611e0c565b915061197482611ff0565b602082019050919050565b600061198c601a83611e0c565b915061199782612019565b602082019050919050565b60006119af602683611e0c565b91506119ba82612042565b604082019050919050565b60006119d2602683611e0c565b91506119dd82612091565b604082019050919050565b60006119f5603683611e0c565b9150611a00826120e0565b604082019050919050565b6000611a18601e83611e0c565b9150611a238261212f565b602082019050919050565b6000611a3b601583611e0c565b9150611a4682612158565b602082019050919050565b6000611a5e601f83611e0c565b9150611a6982612181565b602082019050919050565b6000611a81601483611e0c565b9150611a8c826121aa565b602082019050919050565b6000611aa4602483611e0c565b9150611aaf826121d3565b604082019050919050565b6000611ac7601f83611e0c565b9150611ad282612222565b602082019050919050565b6000611aea602983611e0c565b9150611af58261224b565b604082019050919050565b6000611b0d602583611e0c565b9150611b188261229a565b604082019050919050565b611b2c81611f52565b82525050565b6000602082019050611b476000830184611920565b92915050565b6000606082019050611b626000830186611920565b611b6f6020830185611920565b611b7c6040830184611b23565b949350505050565b6000604082019050611b996000830185611920565b611ba66020830184611b23565b9392505050565b600060a082019050611bc26000830188611920565b611bcf6020830187611b23565b611bdc6040830186611920565b611be96060830185611b23565b611bf66080830184611b23565b9695505050505050565b6000602082019050611c15600083018461192f565b92915050565b6000602082019050611c30600083018461193e565b92915050565b6000602082019050611c4b600083018461194d565b92915050565b60006020820190508181036000830152611c6a8161195c565b9050919050565b60006020820190508181036000830152611c8a8161197f565b9050919050565b60006020820190508181036000830152611caa816119a2565b9050919050565b60006020820190508181036000830152611cca816119c5565b9050919050565b60006020820190508181036000830152611cea816119e8565b9050919050565b60006020820190508181036000830152611d0a81611a0b565b9050919050565b60006020820190508181036000830152611d2a81611a2e565b9050919050565b60006020820190508181036000830152611d4a81611a51565b9050919050565b60006020820190508181036000830152611d6a81611a74565b9050919050565b60006020820190508181036000830152611d8a81611a97565b9050919050565b60006020820190508181036000830152611daa81611aba565b9050919050565b60006020820190508181036000830152611dca81611add565b9050919050565b60006020820190508181036000830152611dea81611b00565b9050919050565b6000602082019050611e066000830184611b23565b92915050565b600082825260208201905092915050565b6000611e2882611f52565b9150611e3383611f52565b9250827fffffffffffffffffffffffffffffffffffffffffffffffffffffffffffffffff03821115611e6857611e67611f92565b5b828201905092915050565b6000611e7e82611f52565b9150611e8983611f52565b9250817fffffffffffffffffffffffffffffffffffffffffffffffffffffffffffffffff0483118215151615611ec257611ec1611f92565b5b828202905092915050565b6000611ed882611f52565b9150611ee383611f52565b925082821015611ef657611ef5611f92565b5b828203905092915050565b6000611f0c82611f32565b9050919050565b60008115159050919050565b6000819050611f2d826122e9565b919050565b600073ffffffffffffffffffffffffffffffffffffffff82169050919050565b6000819050919050565b6000611f6782611f6e565b9050919050565b6000611f7982611f32565b9050919050565b6000611f8b82611f1f565b9050919050565b7f4e487b7100000000000000000000000000000000000000000000000000000000600052601160045260246000fd5b7f4e487b7100000000000000000000000000000000000000000000000000000000600052602160045260246000fd5b7f5769746864726177616c20616d6f756e742063616e6e6f7420626520302e0000600082015250565b7f41756374696f6e277320616c726561647920737461727465642e000000000000600082015250565b7f43616e6e6f742073656e6420626964206c657373207468616e20666c6f6f722060008201527f70726963652e0000000000000000000000000000000000000000000000000000602082015250565b7f4f6e6c79206f776e65722063616e20706572666f726d2074686973206f70657260008201527f6174696f6e2e0000000000000000000000000000000000000000000000000000602082015250565b7f4f6e6c79207468652068696768657374206269646465722063616e207769746860008201527f64726177207468652061756374696f6e206974656d2e00000000000000000000602082015250565b7f5472616e7366657220616d6f756e74206e6f74207375636365737366756c0000600082015250565b7f41756374696f6e2069732063616e63656c6c65642e0000000000000000000000600082015250565b7f42696420616d6f756e74206973206c657373207468616e206869676865737400600082015250565b7f41756374696f6e206973206e6f74206c6976652e000000000000000000000000600082015250565b7f4f776e65722063616e6e6f7420706572666f726d2074686973206f706572617460008201527f696f6e2e00000000000000000000000000000000000000000000000000000000602082015250565b7f53656e64657220686173206e6f206269647320746f2077697468647261772e00600082015250565b7f41756374696f6e206d75737420626520656e64656420666f722074686973206f60008201527f7065726174696f6e2e0000000000000000000000000000000000000000000000602082015250565b7f41756374696f6e20646964206e6f7420656e64206f72207761732063616e636560008201527f6c6c65642e000000000000000000000000000000000000000000000000000000602082015250565b600481106122fa576122f9611fc1565b5b50565b61230681611f01565b811461231157600080fd5b5056fea26469706673582212204a2d18fcb4b65a9e3a036f89df8d81a4deecc1d42caa9433b18e79543b0f77bb64736f6c63430008040033a26469706673582212205823a1c2d537d66fdea75f7aca7691372a9f5083b5be8581bea740809722023464736f6c63430008040033",
  "linkReferences": {},
  "deployedLinkReferences": {}
}