{
  "_format": "hh-sol-artifact-1",
  "contractName": "Farownership",
  "sourceName": "contracts/Funding/Farownership.sol",
  "abi": [
    {
      "inputs": [
        {
          "internalType": "string",
          "name": "_contentName",
          "type": "string"
        },
        {
          "internalType": "string",
          "name": "_symbol",
          "type": "string"
        },
        {
          "internalType": "string",
          "name": "_agreementUri",
          "type": "string"
        }
      ],
      "stateMutability": "nonpayable",
      "type": "constructor"
    },
    {
      "anonymous": false,
      "inputs": [
        {
          "indexed": true,
          "internalType": "address",
          "name": "owner",
          "type": "address"
        },
        {
          "indexed": true,
          "internalType": "address",
          "name": "approved",
          "type": "address"
        },
        {
          "indexed": true,
          "internalType": "uint256",
          "name": "tokenId",
          "type": "uint256"
        }
      ],
      "name": "Approval",
      "type": "event"
    },
    {
      "anonymous": false,
      "inputs": [
        {
          "indexed": true,
          "internalType": "address",
          "name": "owner",
          "type": "address"
        },
        {
          "indexed": true,
          "internalType": "address",
          "name": "operator",
          "type": "address"
        },
        {
          "indexed": false,
          "internalType": "bool",
          "name": "approved",
          "type": "bool"
        }
      ],
      "name": "ApprovalForAll",
      "type": "event"
    },
    {
      "anonymous": false,
      "inputs": [
        {
          "indexed": true,
          "internalType": "address",
          "name": "from",
          "type": "address"
        },
        {
          "indexed": true,
          "internalType": "address",
          "name": "to",
          "type": "address"
        },
        {
          "indexed": true,
          "internalType": "uint256",
          "name": "tokenId",
          "type": "uint256"
        }
      ],
      "name": "Transfer",
      "type": "event"
    },
    {
      "inputs": [
        {
          "internalType": "address",
          "name": "to",
          "type": "address"
        },
        {
          "internalType": "uint256",
          "name": "tokenId",
          "type": "uint256"
        }
      ],
      "name": "approve",
      "outputs": [],
      "stateMutability": "nonpayable",
      "type": "function"
    },
    {
      "inputs": [
        {
          "internalType": "address",
          "name": "owner",
          "type": "address"
        }
      ],
      "name": "balanceOf",
      "outputs": [
        {
          "internalType": "uint256",
          "name": "",
          "type": "uint256"
        }
      ],
      "stateMutability": "view",
      "type": "function"
    },
    {
      "inputs": [],
      "name": "getAgreementURI",
      "outputs": [
        {
          "internalType": "string",
          "name": "",
          "type": "string"
        }
      ],
      "stateMutability": "view",
      "type": "function"
    },
    {
      "inputs": [
        {
          "internalType": "uint256",
          "name": "tokenId",
          "type": "uint256"
        }
      ],
      "name": "getApproved",
      "outputs": [
        {
          "internalType": "address",
          "name": "",
          "type": "address"
        }
      ],
      "stateMutability": "view",
      "type": "function"
    },
    {
      "inputs": [
        {
          "internalType": "address",
          "name": "owner",
          "type": "address"
        },
        {
          "internalType": "address",
          "name": "operator",
          "type": "address"
        }
      ],
      "name": "isApprovedForAll",
      "outputs": [
        {
          "internalType": "bool",
          "name": "",
          "type": "bool"
        }
      ],
      "stateMutability": "view",
      "type": "function"
    },
    {
      "inputs": [
        {
          "internalType": "address",
          "name": "_to",
          "type": "address"
        }
      ],
      "name": "mint",
      "outputs": [],
      "stateMutability": "nonpayable",
      "type": "function"
    },
    {
      "inputs": [],
      "name": "name",
      "outputs": [
        {
          "internalType": "string",
          "name": "",
          "type": "string"
        }
      ],
      "stateMutability": "view",
      "type": "function"
    },
    {
      "inputs": [
        {
          "internalType": "uint256",
          "name": "tokenId",
          "type": "uint256"
        }
      ],
      "name": "ownerOf",
      "outputs": [
        {
          "internalType": "address",
          "name": "",
          "type": "address"
        }
      ],
      "stateMutability": "view",
      "type": "function"
    },
    {
      "inputs": [
        {
          "internalType": "address",
          "name": "from",
          "type": "address"
        },
        {
          "internalType": "address",
          "name": "to",
          "type": "address"
        },
        {
          "internalType": "uint256",
          "name": "tokenId",
          "type": "uint256"
        }
      ],
      "name": "safeTransferFrom",
      "outputs": [],
      "stateMutability": "nonpayable",
      "type": "function"
    },
    {
      "inputs": [
        {
          "internalType": "address",
          "name": "from",
          "type": "address"
        },
        {
          "internalType": "address",
          "name": "to",
          "type": "address"
        },
        {
          "internalType": "uint256",
          "name": "tokenId",
          "type": "uint256"
        },
        {
          "internalType": "bytes",
          "name": "_data",
          "type": "bytes"
        }
      ],
      "name": "safeTransferFrom",
      "outputs": [],
      "stateMutability": "nonpayable",
      "type": "function"
    },
    {
      "inputs": [
        {
          "internalType": "address",
          "name": "operator",
          "type": "address"
        },
        {
          "internalType": "bool",
          "name": "approved",
          "type": "bool"
        }
      ],
      "name": "setApprovalForAll",
      "outputs": [],
      "stateMutability": "nonpayable",
      "type": "function"
    },
    {
      "inputs": [
        {
          "internalType": "bytes4",
          "name": "interfaceId",
          "type": "bytes4"
        }
      ],
      "name": "supportsInterface",
      "outputs": [
        {
          "internalType": "bool",
          "name": "",
          "type": "bool"
        }
      ],
      "stateMutability": "view",
      "type": "function"
    },
    {
      "inputs": [],
      "name": "symbol",
      "outputs": [
        {
          "internalType": "string",
          "name": "",
          "type": "string"
        }
      ],
      "stateMutability": "view",
      "type": "function"
    },
    {
      "inputs": [
        {
          "internalType": "uint256",
          "name": "tokenId",
          "type": "uint256"
        }
      ],
      "name": "tokenURI",
      "outputs": [
        {
          "internalType": "string",
          "name": "",
          "type": "string"
        }
      ],
      "stateMutability": "view",
      "type": "function"
    },
    {
      "inputs": [
        {
          "internalType": "address",
          "name": "from",
          "type": "address"
        },
        {
          "internalType": "address",
          "name": "to",
          "type": "address"
        },
        {
          "internalType": "uint256",
          "name": "tokenId",
          "type": "uint256"
        }
      ],
      "name": "transferFrom",
      "outputs": [],
      "stateMutability": "nonpayable",
      "type": "function"
    }
  ],
  "bytecode": "0x60806040523480156200001157600080fd5b5060405162002d0c38038062002d0c8339818101604052810190620000379190620001f8565b8282816000908051906020019062000051929190620000d6565b5080600190805190602001906200006a929190620000d6565b5050506000815111620000b4576040517f08c379a0000000000000000000000000000000000000000000000000000000008152600401620000ab90620002c0565b60405180910390fd5b8060069080519060200190620000cc929190620000d6565b50505050620004b2565b828054620000e49062000388565b90600052602060002090601f01602090048101928262000108576000855562000154565b82601f106200012357805160ff191683800117855562000154565b8280016001018555821562000154579182015b828111156200015357825182559160200191906001019062000136565b5b50905062000163919062000167565b5090565b5b808211156200018257600081600090555060010162000168565b5090565b60006200019d62000197846200030b565b620002e2565b905082815260208101848484011115620001b657600080fd5b620001c384828562000352565b509392505050565b600082601f830112620001dd57600080fd5b8151620001ef84826020860162000186565b91505092915050565b6000806000606084860312156200020e57600080fd5b600084015167ffffffffffffffff8111156200022957600080fd5b6200023786828701620001cb565b935050602084015167ffffffffffffffff8111156200025557600080fd5b6200026386828701620001cb565b925050604084015167ffffffffffffffff8111156200028157600080fd5b6200028f86828701620001cb565b9150509250925092565b6000620002a860288362000341565b9150620002b58262000463565b604082019050919050565b60006020820190508181036000830152620002db8162000299565b9050919050565b6000620002ee62000301565b9050620002fc8282620003be565b919050565b6000604051905090565b600067ffffffffffffffff82111562000329576200032862000423565b5b620003348262000452565b9050602081019050919050565b600082825260208201905092915050565b60005b838110156200037257808201518184015260208101905062000355565b8381111562000382576000848401525b50505050565b60006002820490506001821680620003a157607f821691505b60208210811415620003b857620003b7620003f4565b5b50919050565b620003c98262000452565b810181811067ffffffffffffffff82111715620003eb57620003ea62000423565b5b80604052505050565b7f4e487b7100000000000000000000000000000000000000000000000000000000600052602260045260246000fd5b7f4e487b7100000000000000000000000000000000000000000000000000000000600052604160045260246000fd5b6000601f19601f8301169050919050565b7f4e65656420746f2070726f766964652074686520555249206f6620746865206160008201527f677265656d656e74000000000000000000000000000000000000000000000000602082015250565b61284a80620004c26000396000f3fe608060405234801561001057600080fd5b50600436106100f55760003560e01c80636352211e11610097578063a22cb46511610066578063a22cb46514610284578063b88d4fde146102a0578063c87b56dd146102bc578063e985e9c5146102ec576100f5565b80636352211e146101ea5780636a6278421461021a57806370a082311461023657806395d89b4114610266576100f5565b8063095ea7b3116100d3578063095ea7b31461017857806319bf674c1461019457806323b872dd146101b257806342842e0e146101ce576100f5565b806301ffc9a7146100fa57806306fdde031461012a578063081812fc14610148575b600080fd5b610114600480360381019061010f91906119ba565b61031c565b6040516101219190611d9d565b60405180910390f35b6101326103fe565b60405161013f9190611db8565b60405180910390f35b610162600480360381019061015d9190611a0c565b610490565b60405161016f9190611d36565b60405180910390f35b610192600480360381019061018d919061197e565b610515565b005b61019c61062d565b6040516101a99190611db8565b60405180910390f35b6101cc60048036038101906101c79190611878565b6106bf565b005b6101e860048036038101906101e39190611878565b61071f565b005b61020460048036038101906101ff9190611a0c565b61073f565b6040516102119190611d36565b60405180910390f35b610234600480360381019061022f9190611813565b6107f1565b005b610250600480360381019061024b9190611813565b61086a565b60405161025d9190611fba565b60405180910390f35b61026e610922565b60405161027b9190611db8565b60405180910390f35b61029e60048036038101906102999190611942565b6109b4565b005b6102ba60048036038101906102b591906118c7565b6109ca565b005b6102d660048036038101906102d19190611a0c565b610a2c565b6040516102e39190611db8565b60405180910390f35b6103066004803603810190610301919061183c565b610ad3565b6040516103139190611d9d565b60405180910390f35b60007f80ac58cd000000000000000000000000000000000000000000000000000000007bffffffffffffffffffffffffffffffffffffffffffffffffffffffff1916827bffffffffffffffffffffffffffffffffffffffffffffffffffffffff191614806103e757507f5b5e139f000000000000000000000000000000000000000000000000000000007bffffffffffffffffffffffffffffffffffffffffffffffffffffffff1916827bffffffffffffffffffffffffffffffffffffffffffffffffffffffff1916145b806103f757506103f682610b67565b5b9050919050565b60606000805461040d906121df565b80601f0160208091040260200160405190810160405280929190818152602001828054610439906121df565b80156104865780601f1061045b57610100808354040283529160200191610486565b820191906000526020600020905b81548152906001019060200180831161046957829003601f168201915b5050505050905090565b600061049b82610bd1565b6104da576040517f08c379a00000000000000000000000000000000000000000000000000000000081526004016104d190611f1a565b60405180910390fd5b6004600083815260200190815260200160002060009054906101000a900473ffffffffffffffffffffffffffffffffffffffff169050919050565b60006105208261073f565b90508073ffffffffffffffffffffffffffffffffffffffff168373ffffffffffffffffffffffffffffffffffffffff161415610591576040517f08c379a000000000000000000000000000000000000000000000000000000000815260040161058890611f7a565b60405180910390fd5b8073ffffffffffffffffffffffffffffffffffffffff166105b0610c3d565b73ffffffffffffffffffffffffffffffffffffffff1614806105df57506105de816105d9610c3d565b610ad3565b5b61061e576040517f08c379a000000000000000000000000000000000000000000000000000000000815260040161061590611e7a565b60405180910390fd5b6106288383610c45565b505050565b60606006805461063c906121df565b80601f0160208091040260200160405190810160405280929190818152602001828054610668906121df565b80156106b55780601f1061068a576101008083540402835291602001916106b5565b820191906000526020600020905b81548152906001019060200180831161069857829003601f168201915b5050505050905090565b6106d06106ca610c3d565b82610cfe565b61070f576040517f08c379a000000000000000000000000000000000000000000000000000000000815260040161070690611f9a565b60405180910390fd5b61071a838383610ddc565b505050565b61073a838383604051806020016040528060008152506109ca565b505050565b6000806002600084815260200190815260200160002060009054906101000a900473ffffffffffffffffffffffffffffffffffffffff169050600073ffffffffffffffffffffffffffffffffffffffff168173ffffffffffffffffffffffffffffffffffffffff1614156107e8576040517f08c379a00000000000000000000000000000000000000000000000000000000081526004016107df90611eba565b60405180910390fd5b80915050919050565b600760009054906101000a900460ff1615610841576040517f08c379a000000000000000000000000000000000000000000000000000000000815260040161083890611eda565b60405180910390fd5b6001600760006101000a81548160ff021916908315150217905550610867816001611038565b50565b60008073ffffffffffffffffffffffffffffffffffffffff168273ffffffffffffffffffffffffffffffffffffffff1614156108db576040517f08c379a00000000000000000000000000000000000000000000000000000000081526004016108d290611e9a565b60405180910390fd5b600360008373ffffffffffffffffffffffffffffffffffffffff1673ffffffffffffffffffffffffffffffffffffffff168152602001908152602001600020549050919050565b606060018054610931906121df565b80601f016020809104026020016040519081016040528092919081815260200182805461095d906121df565b80156109aa5780601f1061097f576101008083540402835291602001916109aa565b820191906000526020600020905b81548152906001019060200180831161098d57829003601f168201915b5050505050905090565b6109c66109bf610c3d565b8383611206565b5050565b6109db6109d5610c3d565b83610cfe565b610a1a576040517f08c379a0000000000000000000000000000000000000000000000000000000008152600401610a1190611f9a565b60405180910390fd5b610a2684848484611373565b50505050565b6060610a3782610bd1565b610a76576040517f08c379a0000000000000000000000000000000000000000000000000000000008152600401610a6d90611f5a565b60405180910390fd5b6000610a806113cf565b90506000815111610aa05760405180602001604052806000815250610acb565b80610aaa846113e6565b604051602001610abb929190611d12565b6040516020818303038152906040525b915050919050565b6000600560008473ffffffffffffffffffffffffffffffffffffffff1673ffffffffffffffffffffffffffffffffffffffff16815260200190815260200160002060008373ffffffffffffffffffffffffffffffffffffffff1673ffffffffffffffffffffffffffffffffffffffff16815260200190815260200160002060009054906101000a900460ff16905092915050565b60007f01ffc9a7000000000000000000000000000000000000000000000000000000007bffffffffffffffffffffffffffffffffffffffffffffffffffffffff1916827bffffffffffffffffffffffffffffffffffffffffffffffffffffffff1916149050919050565b60008073ffffffffffffffffffffffffffffffffffffffff166002600084815260200190815260200160002060009054906101000a900473ffffffffffffffffffffffffffffffffffffffff1673ffffffffffffffffffffffffffffffffffffffff1614159050919050565b600033905090565b816004600083815260200190815260200160002060006101000a81548173ffffffffffffffffffffffffffffffffffffffff021916908373ffffffffffffffffffffffffffffffffffffffff160217905550808273ffffffffffffffffffffffffffffffffffffffff16610cb88361073f565b73ffffffffffffffffffffffffffffffffffffffff167f8c5be1e5ebec7d5bd14f71427d1e84f3dd0314c0f7b2291e5b200ac8c7c3b92560405160405180910390a45050565b6000610d0982610bd1565b610d48576040517f08c379a0000000000000000000000000000000000000000000000000000000008152600401610d3f90611e5a565b60405180910390fd5b6000610d538361073f565b90508073ffffffffffffffffffffffffffffffffffffffff168473ffffffffffffffffffffffffffffffffffffffff161480610dc257508373ffffffffffffffffffffffffffffffffffffffff16610daa84610490565b73ffffffffffffffffffffffffffffffffffffffff16145b80610dd35750610dd28185610ad3565b5b91505092915050565b8273ffffffffffffffffffffffffffffffffffffffff16610dfc8261073f565b73ffffffffffffffffffffffffffffffffffffffff1614610e52576040517f08c379a0000000000000000000000000000000000000000000000000000000008152600401610e4990611f3a565b60405180910390fd5b600073ffffffffffffffffffffffffffffffffffffffff168273ffffffffffffffffffffffffffffffffffffffff161415610ec2576040517f08c379a0000000000000000000000000000000000000000000000000000000008152600401610eb990611e1a565b60405180910390fd5b610ecd838383611593565b610ed8600082610c45565b6001600360008573ffffffffffffffffffffffffffffffffffffffff1673ffffffffffffffffffffffffffffffffffffffff1681526020019081526020016000206000828254610f2891906120f5565b925050819055506001600360008473ffffffffffffffffffffffffffffffffffffffff1673ffffffffffffffffffffffffffffffffffffffff1681526020019081526020016000206000828254610f7f919061206e565b92505081905550816002600083815260200190815260200160002060006101000a81548173ffffffffffffffffffffffffffffffffffffffff021916908373ffffffffffffffffffffffffffffffffffffffff160217905550808273ffffffffffffffffffffffffffffffffffffffff168473ffffffffffffffffffffffffffffffffffffffff167fddf252ad1be2c89b69c2b068fc378daa952ba7f163c4a11628f55a4df523b3ef60405160405180910390a4505050565b600073ffffffffffffffffffffffffffffffffffffffff168273ffffffffffffffffffffffffffffffffffffffff1614156110a8576040517f08c379a000000000000000000000000000000000000000000000000000000000815260040161109f90611efa565b60405180910390fd5b6110b181610bd1565b156110f1576040517f08c379a00000000000000000000000000000000000000000000000000000000081526004016110e890611dfa565b60405180910390fd5b6110fd60008383611593565b6001600360008473ffffffffffffffffffffffffffffffffffffffff1673ffffffffffffffffffffffffffffffffffffffff168152602001908152602001600020600082825461114d919061206e565b92505081905550816002600083815260200190815260200160002060006101000a81548173ffffffffffffffffffffffffffffffffffffffff021916908373ffffffffffffffffffffffffffffffffffffffff160217905550808273ffffffffffffffffffffffffffffffffffffffff16600073ffffffffffffffffffffffffffffffffffffffff167fddf252ad1be2c89b69c2b068fc378daa952ba7f163c4a11628f55a4df523b3ef60405160405180910390a45050565b8173ffffffffffffffffffffffffffffffffffffffff168373ffffffffffffffffffffffffffffffffffffffff161415611275576040517f08c379a000000000000000000000000000000000000000000000000000000000815260040161126c90611e3a565b60405180910390fd5b80600560008573ffffffffffffffffffffffffffffffffffffffff1673ffffffffffffffffffffffffffffffffffffffff16815260200190815260200160002060008473ffffffffffffffffffffffffffffffffffffffff1673ffffffffffffffffffffffffffffffffffffffff16815260200190815260200160002060006101000a81548160ff0219169083151502179055508173ffffffffffffffffffffffffffffffffffffffff168373ffffffffffffffffffffffffffffffffffffffff167f17307eab39ab6107e8899845ad3d59bd9653f200f220920489ca2b5937696c31836040516113669190611d9d565b60405180910390a3505050565b61137e848484610ddc565b61138a84848484611598565b6113c9576040517f08c379a00000000000000000000000000000000000000000000000000000000081526004016113c090611dda565b60405180910390fd5b50505050565b606060405180602001604052806000815250905090565b6060600082141561142e576040518060400160405280600181526020017f3000000000000000000000000000000000000000000000000000000000000000815250905061158e565b600082905060005b6000821461146057808061144990612242565b915050600a8261145991906120c4565b9150611436565b60008167ffffffffffffffff8111156114a2577f4e487b7100000000000000000000000000000000000000000000000000000000600052604160045260246000fd5b6040519080825280601f01601f1916602001820160405280156114d45781602001600182028036833780820191505090505b5090505b60008514611587576001826114ed91906120f5565b9150600a856114fc919061228b565b6030611508919061206e565b60f81b818381518110611544577f4e487b7100000000000000000000000000000000000000000000000000000000600052603260045260246000fd5b60200101907effffffffffffffffffffffffffffffffffffffffffffffffffffffffffffff1916908160001a905350600a8561158091906120c4565b94506114d8565b8093505050505b919050565b505050565b60006115b98473ffffffffffffffffffffffffffffffffffffffff1661172f565b15611722578373ffffffffffffffffffffffffffffffffffffffff1663150b7a026115e2610c3d565b8786866040518563ffffffff1660e01b81526004016116049493929190611d51565b602060405180830381600087803b15801561161e57600080fd5b505af192505050801561164f57506040513d601f19601f8201168201806040525081019061164c91906119e3565b60015b6116d2573d806000811461167f576040519150601f19603f3d011682016040523d82523d6000602084013e611684565b606091505b506000815114156116ca576040517f08c379a00000000000000000000000000000000000000000000000000000000081526004016116c190611dda565b60405180910390fd5b805181602001fd5b63150b7a0260e01b7bffffffffffffffffffffffffffffffffffffffffffffffffffffffff1916817bffffffffffffffffffffffffffffffffffffffffffffffffffffffff191614915050611727565b600190505b949350505050565b600080823b905060008111915050919050565b600061175561175084611ffa565b611fd5565b90508281526020810184848401111561176d57600080fd5b61177884828561219d565b509392505050565b60008135905061178f816127b8565b92915050565b6000813590506117a4816127cf565b92915050565b6000813590506117b9816127e6565b92915050565b6000815190506117ce816127e6565b92915050565b600082601f8301126117e557600080fd5b81356117f5848260208601611742565b91505092915050565b60008135905061180d816127fd565b92915050565b60006020828403121561182557600080fd5b600061183384828501611780565b91505092915050565b6000806040838503121561184f57600080fd5b600061185d85828601611780565b925050602061186e85828601611780565b9150509250929050565b60008060006060848603121561188d57600080fd5b600061189b86828701611780565b93505060206118ac86828701611780565b92505060406118bd868287016117fe565b9150509250925092565b600080600080608085870312156118dd57600080fd5b60006118eb87828801611780565b94505060206118fc87828801611780565b935050604061190d878288016117fe565b925050606085013567ffffffffffffffff81111561192a57600080fd5b611936878288016117d4565b91505092959194509250565b6000806040838503121561195557600080fd5b600061196385828601611780565b925050602061197485828601611795565b9150509250929050565b6000806040838503121561199157600080fd5b600061199f85828601611780565b92505060206119b0858286016117fe565b9150509250929050565b6000602082840312156119cc57600080fd5b60006119da848285016117aa565b91505092915050565b6000602082840312156119f557600080fd5b6000611a03848285016117bf565b91505092915050565b600060208284031215611a1e57600080fd5b6000611a2c848285016117fe565b91505092915050565b611a3e81612129565b82525050565b611a4d8161213b565b82525050565b6000611a5e8261202b565b611a688185612041565b9350611a788185602086016121ac565b611a8181612378565b840191505092915050565b6000611a9782612036565b611aa18185612052565b9350611ab18185602086016121ac565b611aba81612378565b840191505092915050565b6000611ad082612036565b611ada8185612063565b9350611aea8185602086016121ac565b80840191505092915050565b6000611b03603283612052565b9150611b0e82612389565b604082019050919050565b6000611b26601c83612052565b9150611b31826123d8565b602082019050919050565b6000611b49602483612052565b9150611b5482612401565b604082019050919050565b6000611b6c601983612052565b9150611b7782612450565b602082019050919050565b6000611b8f602c83612052565b9150611b9a82612479565b604082019050919050565b6000611bb2603883612052565b9150611bbd826124c8565b604082019050919050565b6000611bd5602a83612052565b9150611be082612517565b604082019050919050565b6000611bf8602983612052565b9150611c0382612566565b604082019050919050565b6000611c1b603483612052565b9150611c26826125b5565b604082019050919050565b6000611c3e602083612052565b9150611c4982612604565b602082019050919050565b6000611c61602c83612052565b9150611c6c8261262d565b604082019050919050565b6000611c84602983612052565b9150611c8f8261267c565b604082019050919050565b6000611ca7602f83612052565b9150611cb2826126cb565b604082019050919050565b6000611cca602183612052565b9150611cd58261271a565b604082019050919050565b6000611ced603183612052565b9150611cf882612769565b604082019050919050565b611d0c81612193565b82525050565b6000611d1e8285611ac5565b9150611d2a8284611ac5565b91508190509392505050565b6000602082019050611d4b6000830184611a35565b92915050565b6000608082019050611d666000830187611a35565b611d736020830186611a35565b611d806040830185611d03565b8181036060830152611d928184611a53565b905095945050505050565b6000602082019050611db26000830184611a44565b92915050565b60006020820190508181036000830152611dd28184611a8c565b905092915050565b60006020820190508181036000830152611df381611af6565b9050919050565b60006020820190508181036000830152611e1381611b19565b9050919050565b60006020820190508181036000830152611e3381611b3c565b9050919050565b60006020820190508181036000830152611e5381611b5f565b9050919050565b60006020820190508181036000830152611e7381611b82565b9050919050565b60006020820190508181036000830152611e9381611ba5565b9050919050565b60006020820190508181036000830152611eb381611bc8565b9050919050565b60006020820190508181036000830152611ed381611beb565b9050919050565b60006020820190508181036000830152611ef381611c0e565b9050919050565b60006020820190508181036000830152611f1381611c31565b9050919050565b60006020820190508181036000830152611f3381611c54565b9050919050565b60006020820190508181036000830152611f5381611c77565b9050919050565b60006020820190508181036000830152611f7381611c9a565b9050919050565b60006020820190508181036000830152611f9381611cbd565b9050919050565b60006020820190508181036000830152611fb381611ce0565b9050919050565b6000602082019050611fcf6000830184611d03565b92915050565b6000611fdf611ff0565b9050611feb8282612211565b919050565b6000604051905090565b600067ffffffffffffffff82111561201557612014612349565b5b61201e82612378565b9050602081019050919050565b600081519050919050565b600081519050919050565b600082825260208201905092915050565b600082825260208201905092915050565b600081905092915050565b600061207982612193565b915061208483612193565b9250827fffffffffffffffffffffffffffffffffffffffffffffffffffffffffffffffff038211156120b9576120b86122bc565b5b828201905092915050565b60006120cf82612193565b91506120da83612193565b9250826120ea576120e96122eb565b5b828204905092915050565b600061210082612193565b915061210b83612193565b92508282101561211e5761211d6122bc565b5b828203905092915050565b600061213482612173565b9050919050565b60008115159050919050565b60007fffffffff0000000000000000000000000000000000000000000000000000000082169050919050565b600073ffffffffffffffffffffffffffffffffffffffff82169050919050565b6000819050919050565b82818337600083830152505050565b60005b838110156121ca5780820151818401526020810190506121af565b838111156121d9576000848401525b50505050565b600060028204905060018216806121f757607f821691505b6020821081141561220b5761220a61231a565b5b50919050565b61221a82612378565b810181811067ffffffffffffffff8211171561223957612238612349565b5b80604052505050565b600061224d82612193565b91507fffffffffffffffffffffffffffffffffffffffffffffffffffffffffffffffff8214156122805761227f6122bc565b5b600182019050919050565b600061229682612193565b91506122a183612193565b9250826122b1576122b06122eb565b5b828206905092915050565b7f4e487b7100000000000000000000000000000000000000000000000000000000600052601160045260246000fd5b7f4e487b7100000000000000000000000000000000000000000000000000000000600052601260045260246000fd5b7f4e487b7100000000000000000000000000000000000000000000000000000000600052602260045260246000fd5b7f4e487b7100000000000000000000000000000000000000000000000000000000600052604160045260246000fd5b6000601f19601f8301169050919050565b7f4552433732313a207472616e7366657220746f206e6f6e20455243373231526560008201527f63656976657220696d706c656d656e7465720000000000000000000000000000602082015250565b7f4552433732313a20746f6b656e20616c7265616479206d696e74656400000000600082015250565b7f4552433732313a207472616e7366657220746f20746865207a65726f2061646460008201527f7265737300000000000000000000000000000000000000000000000000000000602082015250565b7f4552433732313a20617070726f766520746f2063616c6c657200000000000000600082015250565b7f4552433732313a206f70657261746f7220717565727920666f72206e6f6e657860008201527f697374656e7420746f6b656e0000000000000000000000000000000000000000602082015250565b7f4552433732313a20617070726f76652063616c6c6572206973206e6f74206f7760008201527f6e6572206e6f7220617070726f76656420666f7220616c6c0000000000000000602082015250565b7f4552433732313a2062616c616e636520717565727920666f7220746865207a6560008201527f726f206164647265737300000000000000000000000000000000000000000000602082015250565b7f4552433732313a206f776e657220717565727920666f72206e6f6e657869737460008201527f656e7420746f6b656e0000000000000000000000000000000000000000000000602082015250565b7f4f776e65727368697020616c7265616479206d696e7465642c2063616e6e6f7460008201527f206d696e74206d6f7265207468616e206f6e6365000000000000000000000000602082015250565b7f4552433732313a206d696e7420746f20746865207a65726f2061646472657373600082015250565b7f4552433732313a20617070726f76656420717565727920666f72206e6f6e657860008201527f697374656e7420746f6b656e0000000000000000000000000000000000000000602082015250565b7f4552433732313a207472616e73666572206f6620746f6b656e2074686174206960008201527f73206e6f74206f776e0000000000000000000000000000000000000000000000602082015250565b7f4552433732314d657461646174613a2055524920717565727920666f72206e6f60008201527f6e6578697374656e7420746f6b656e0000000000000000000000000000000000602082015250565b7f4552433732313a20617070726f76616c20746f2063757272656e74206f776e6560008201527f7200000000000000000000000000000000000000000000000000000000000000602082015250565b7f4552433732313a207472616e736665722063616c6c6572206973206e6f74206f60008201527f776e6572206e6f7220617070726f766564000000000000000000000000000000602082015250565b6127c181612129565b81146127cc57600080fd5b50565b6127d88161213b565b81146127e357600080fd5b50565b6127ef81612147565b81146127fa57600080fd5b50565b61280681612193565b811461281157600080fd5b5056fea2646970667358221220b37e02f5a173a2512011a29cdc04ab5f0aac78bc598537030a2c54047f5ebf5f64736f6c63430008040033",
  "linkReferences": {},
  "deployedLinkReferences": {}
}