{
  "_format": "hh-sol-artifact-1",
  "contractName": "FaroNFTFactory",
  "sourceName": "contracts/FaroNFTs/FaroNFTFactory.sol",
  "abi": [
    {
      "anonymous": false,
      "inputs": [
        {
          "indexed": true,
          "internalType": "address",
          "name": "token",
          "type": "address"
        }
      ],
      "name": "NFTCreated",
      "type": "event"
    },
    {
      "anonymous": false,
      "inputs": [
        {
          "indexed": true,
          "internalType": "address",
          "name": "previousOwner",
          "type": "address"
        },
        {
          "indexed": true,
          "internalType": "address",
          "name": "newOwner",
          "type": "address"
        }
      ],
      "name": "OwnershipTransferred",
      "type": "event"
    },
    {
      "anonymous": false,
      "inputs": [
        {
          "indexed": false,
          "internalType": "address",
          "name": "account",
          "type": "address"
        }
      ],
      "name": "Paused",
      "type": "event"
    },
    {
      "anonymous": false,
      "inputs": [
        {
          "indexed": false,
          "internalType": "address",
          "name": "account",
          "type": "address"
        }
      ],
      "name": "Unpaused",
      "type": "event"
    },
    {
      "inputs": [
        {
          "internalType": "string",
          "name": "_contentName",
          "type": "string"
        },
        {
          "internalType": "string",
          "name": "_symbol",
          "type": "string"
        },
        {
          "internalType": "string",
          "name": "_agreementUri",
          "type": "string"
        },
        {
          "internalType": "uint256",
          "name": "_contentID",
          "type": "uint256"
        },
        {
          "internalType": "address[]",
          "name": "ownerAddresses",
          "type": "address[]"
        }
      ],
      "name": "createNFT",
      "outputs": [
        {
          "internalType": "uint256",
          "name": "",
          "type": "uint256"
        }
      ],
      "stateMutability": "nonpayable",
      "type": "function"
    },
    {
      "inputs": [],
      "name": "getLastNFT",
      "outputs": [
        {
          "internalType": "address",
          "name": "",
          "type": "address"
        }
      ],
      "stateMutability": "view",
      "type": "function"
    },
    {
      "inputs": [
        {
          "internalType": "uint256",
          "name": "nftNum",
          "type": "uint256"
        }
      ],
      "name": "getNFT",
      "outputs": [
        {
          "internalType": "address",
          "name": "",
          "type": "address"
        }
      ],
      "stateMutability": "view",
      "type": "function"
    },
    {
      "inputs": [],
      "name": "getNumOfNFTS",
      "outputs": [
        {
          "internalType": "uint256",
          "name": "",
          "type": "uint256"
        }
      ],
      "stateMutability": "view",
      "type": "function"
    },
    {
      "inputs": [
        {
          "internalType": "uint256",
          "name": "",
          "type": "uint256"
        }
      ],
      "name": "nfts",
      "outputs": [
        {
          "internalType": "address",
          "name": "",
          "type": "address"
        }
      ],
      "stateMutability": "view",
      "type": "function"
    },
    {
      "inputs": [],
      "name": "owner",
      "outputs": [
        {
          "internalType": "address",
          "name": "",
          "type": "address"
        }
      ],
      "stateMutability": "view",
      "type": "function"
    },
    {
      "inputs": [],
      "name": "pause",
      "outputs": [],
      "stateMutability": "nonpayable",
      "type": "function"
    },
    {
      "inputs": [],
      "name": "paused",
      "outputs": [
        {
          "internalType": "bool",
          "name": "",
          "type": "bool"
        }
      ],
      "stateMutability": "view",
      "type": "function"
    },
    {
      "inputs": [],
      "name": "renounceOwnership",
      "outputs": [],
      "stateMutability": "nonpayable",
      "type": "function"
    },
    {
      "inputs": [
        {
          "internalType": "address",
          "name": "newOwner",
          "type": "address"
        }
      ],
      "name": "transferOwnership",
      "outputs": [],
      "stateMutability": "nonpayable",
      "type": "function"
    },
    {
      "inputs": [],
      "name": "unpause",
      "outputs": [],
      "stateMutability": "nonpayable",
      "type": "function"
    }
  ],
  "bytecode": "0x608060405234801561001057600080fd5b5061002d61002261004c60201b60201c565b61005460201b60201c565b60008060146101000a81548160ff021916908315150217905550610118565b600033905090565b60008060009054906101000a900473ffffffffffffffffffffffffffffffffffffffff169050816000806101000a81548173ffffffffffffffffffffffffffffffffffffffff021916908373ffffffffffffffffffffffffffffffffffffffff1602179055508173ffffffffffffffffffffffffffffffffffffffff168173ffffffffffffffffffffffffffffffffffffffff167f8be0079c531659141344cd1fd0a4f28419497f9722a3daafe3b4186f6b6457e060405160405180910390a35050565b614043806101276000396000f3fe60806040523480156200001157600080fd5b5060043610620000b85760003560e01c8063715018a6116200007b578063715018a614620001795780638456cb5914620001855780638da5cb5b14620001915780639db3ccfe14620001b3578063a228358f14620001e9578063f2fde38b146200020b57620000b8565b806314cb3f8e14620000bd578063265aa62114620000df5780633f4ba83a1462000115578063576f7ea714620001215780635c975abb1462000157575b600080fd5b620000c76200022b565b604051620000d6919062000ed2565b60405180910390f35b620000fd6004803603810190620000f7919062000d96565b620002a7565b6040516200010c919062000ed2565b60405180910390f35b6200011f620002e7565b005b6200013f600480360381019062000139919062000d96565b62000376565b6040516200014e919062000ed2565b60405180910390f35b62000161620003e5565b60405162000170919062000f1c565b60405180910390f35b62000183620003fb565b005b6200018f6200048c565b005b6200019b6200051b565b604051620001aa919062000ed2565b60405180910390f35b620001d16004803603810190620001cb919062000cb0565b62000544565b604051620001e0919062001023565b60405180910390f35b620001f362000804565b60405162000202919062001023565b60405180910390f35b62000229600480360381019062000223919062000c84565b6200080e565b005b60006002600180546200023f9190620010ea565b8154811062000277577f4e487b7100000000000000000000000000000000000000000000000000000000600052603260045260246000fd5b9060005260206000200160009054906101000a900473ffffffffffffffffffffffffffffffffffffffff16905090565b60028181548110620002b857600080fd5b906000526020600020016000915054906101000a900473ffffffffffffffffffffffffffffffffffffffff1681565b620002f162000912565b73ffffffffffffffffffffffffffffffffffffffff16620003116200051b565b73ffffffffffffffffffffffffffffffffffffffff16146200036a576040517f08c379a0000000000000000000000000000000000000000000000000000000008152600401620003619062001001565b60405180910390fd5b620003746200091a565b565b600060028281548110620003b3577f4e487b7100000000000000000000000000000000000000000000000000000000600052603260045260246000fd5b9060005260206000200160009054906101000a900473ffffffffffffffffffffffffffffffffffffffff169050919050565b60008060149054906101000a900460ff16905090565b6200040562000912565b73ffffffffffffffffffffffffffffffffffffffff16620004256200051b565b73ffffffffffffffffffffffffffffffffffffffff16146200047e576040517f08c379a0000000000000000000000000000000000000000000000000000000008152600401620004759062001001565b60405180910390fd5b6200048a6000620009c4565b565b6200049662000912565b73ffffffffffffffffffffffffffffffffffffffff16620004b66200051b565b73ffffffffffffffffffffffffffffffffffffffff16146200050f576040517f08c379a0000000000000000000000000000000000000000000000000000000008152600401620005069062001001565b60405180910390fd5b6200051962000a88565b565b60008060009054906101000a900473ffffffffffffffffffffffffffffffffffffffff16905090565b60006200055062000912565b73ffffffffffffffffffffffffffffffffffffffff16620005706200051b565b73ffffffffffffffffffffffffffffffffffffffff1614620005c9576040517f08c379a0000000000000000000000000000000000000000000000000000000008152600401620005c09062001001565b60405180910390fd5b620005d3620003e5565b1562000616576040517f08c379a00000000000000000000000000000000000000000000000000000000081526004016200060d9062000fdf565b60405180910390fd5b6000868686866040516200062a9062000b34565b62000639949392919062000f39565b604051809103906000f08015801562000656573d6000803e3d6000fd5b50905060005b83518110156200072e578173ffffffffffffffffffffffffffffffffffffffff166340c10f19858381518110620006bc577f4e487b7100000000000000000000000000000000000000000000000000000000600052603260045260246000fd5b6020026020010151836040518363ffffffff1660e01b8152600401620006e492919062000eef565b600060405180830381600087803b158015620006ff57600080fd5b505af115801562000714573d6000803e3d6000fd5b5050505080806200072590620011ea565b9150506200065c565b5060008190506002819080600181540180825580915050600190039060005260206000200160009091909190916101000a81548173ffffffffffffffffffffffffffffffffffffffff021916908373ffffffffffffffffffffffffffffffffffffffff16021790555060016000815480929190620007ac90620011ea565b91905055508073ffffffffffffffffffffffffffffffffffffffff167f3754da1a98214dd62255f52efe5c8d68ba410e5c19339cc7883a5fba3df0adf260405160405180910390a26001549250505095945050505050565b6000600154905090565b6200081862000912565b73ffffffffffffffffffffffffffffffffffffffff16620008386200051b565b73ffffffffffffffffffffffffffffffffffffffff161462000891576040517f08c379a0000000000000000000000000000000000000000000000000000000008152600401620008889062001001565b60405180910390fd5b600073ffffffffffffffffffffffffffffffffffffffff168173ffffffffffffffffffffffffffffffffffffffff16141562000904576040517f08c379a0000000000000000000000000000000000000000000000000000000008152600401620008fb9062000fbd565b60405180910390fd5b6200090f81620009c4565b50565b600033905090565b62000924620003e5565b62000966576040517f08c379a00000000000000000000000000000000000000000000000000000000081526004016200095d9062000f9b565b60405180910390fd5b60008060146101000a81548160ff0219169083151502179055507f5db9ee0a495bf2e6ff9c91a7834c1ba4fdd244a5e8aa4e537bd38aeae4b073aa620009ab62000912565b604051620009ba919062000ed2565b60405180910390a1565b60008060009054906101000a900473ffffffffffffffffffffffffffffffffffffffff169050816000806101000a81548173ffffffffffffffffffffffffffffffffffffffff021916908373ffffffffffffffffffffffffffffffffffffffff1602179055508173ffffffffffffffffffffffffffffffffffffffff168173ffffffffffffffffffffffffffffffffffffffff167f8be0079c531659141344cd1fd0a4f28419497f9722a3daafe3b4186f6b6457e060405160405180910390a35050565b62000a92620003e5565b1562000ad5576040517f08c379a000000000000000000000000000000000000000000000000000000000815260040162000acc9062000fdf565b60405180910390fd5b6001600060146101000a81548160ff0219169083151502179055507f62e78cea01bee320cd4e420270b5ea74000d11b0c9f74754ebdbfc544b05a25862000b1b62000912565b60405162000b2a919062000ed2565b60405180910390a1565b612c6880620013a683390190565b600062000b5962000b538462001069565b62001040565b9050808382526020820190508285602086028201111562000b7957600080fd5b60005b8581101562000bad578162000b92888262000bfc565b84526020840193506020830192505060018101905062000b7c565b5050509392505050565b600062000bce62000bc88462001098565b62001040565b90508281526020810184848401111562000be757600080fd5b62000bf48482856200116f565b509392505050565b60008135905062000c0d8162001371565b92915050565b600082601f83011262000c2557600080fd5b813562000c3784826020860162000b42565b91505092915050565b600082601f83011262000c5257600080fd5b813562000c6484826020860162000bb7565b91505092915050565b60008135905062000c7e816200138b565b92915050565b60006020828403121562000c9757600080fd5b600062000ca78482850162000bfc565b91505092915050565b600080600080600060a0868803121562000cc957600080fd5b600086013567ffffffffffffffff81111562000ce457600080fd5b62000cf28882890162000c40565b955050602086013567ffffffffffffffff81111562000d1057600080fd5b62000d1e8882890162000c40565b945050604086013567ffffffffffffffff81111562000d3c57600080fd5b62000d4a8882890162000c40565b935050606062000d5d8882890162000c6d565b925050608086013567ffffffffffffffff81111562000d7b57600080fd5b62000d898882890162000c13565b9150509295509295909350565b60006020828403121562000da957600080fd5b600062000db98482850162000c6d565b91505092915050565b62000dcd8162001125565b82525050565b62000dde8162001139565b82525050565b600062000df182620010ce565b62000dfd8185620010d9565b935062000e0f8185602086016200117e565b62000e1a8162001296565b840191505092915050565b600062000e34601483620010d9565b915062000e4182620012a7565b602082019050919050565b600062000e5b602683620010d9565b915062000e6882620012d0565b604082019050919050565b600062000e82601083620010d9565b915062000e8f826200131f565b602082019050919050565b600062000ea9602083620010d9565b915062000eb68262001348565b602082019050919050565b62000ecc8162001165565b82525050565b600060208201905062000ee9600083018462000dc2565b92915050565b600060408201905062000f06600083018562000dc2565b62000f15602083018462000ec1565b9392505050565b600060208201905062000f33600083018462000dd3565b92915050565b6000608082019050818103600083015262000f55818762000de4565b9050818103602083015262000f6b818662000de4565b9050818103604083015262000f81818562000de4565b905062000f92606083018462000ec1565b95945050505050565b6000602082019050818103600083015262000fb68162000e25565b9050919050565b6000602082019050818103600083015262000fd88162000e4c565b9050919050565b6000602082019050818103600083015262000ffa8162000e73565b9050919050565b600060208201905081810360008301526200101c8162000e9a565b9050919050565b60006020820190506200103a600083018462000ec1565b92915050565b60006200104c6200105f565b90506200105a8282620011b4565b919050565b6000604051905090565b600067ffffffffffffffff82111562001087576200108662001267565b5b602082029050602081019050919050565b600067ffffffffffffffff821115620010b657620010b562001267565b5b620010c18262001296565b9050602081019050919050565b600081519050919050565b600082825260208201905092915050565b6000620010f78262001165565b9150620011048362001165565b9250828210156200111a576200111962001238565b5b828203905092915050565b6000620011328262001145565b9050919050565b60008115159050919050565b600073ffffffffffffffffffffffffffffffffffffffff82169050919050565b6000819050919050565b82818337600083830152505050565b60005b838110156200119e57808201518184015260208101905062001181565b83811115620011ae576000848401525b50505050565b620011bf8262001296565b810181811067ffffffffffffffff82111715620011e157620011e062001267565b5b80604052505050565b6000620011f78262001165565b91507fffffffffffffffffffffffffffffffffffffffffffffffffffffffffffffffff8214156200122d576200122c62001238565b5b600182019050919050565b7f4e487b7100000000000000000000000000000000000000000000000000000000600052601160045260246000fd5b7f4e487b7100000000000000000000000000000000000000000000000000000000600052604160045260246000fd5b6000601f19601f8301169050919050565b7f5061757361626c653a206e6f7420706175736564000000000000000000000000600082015250565b7f4f776e61626c653a206e6577206f776e657220697320746865207a65726f206160008201527f6464726573730000000000000000000000000000000000000000000000000000602082015250565b7f5061757361626c653a2070617573656400000000000000000000000000000000600082015250565b7f4f776e61626c653a2063616c6c6572206973206e6f7420746865206f776e6572600082015250565b6200137c8162001125565b81146200138857600080fd5b50565b620013968162001165565b8114620013a257600080fd5b5056fe60806040523480156200001157600080fd5b5060405162002c6838038062002c68833981810160405281019062000037919062000217565b8383816000908051906020019062000051929190620000de565b5080600190805190602001906200006a929190620000de565b5050506000825111620000b4576040517f08c379a0000000000000000000000000000000000000000000000000000000008152600401620000ab90620002f5565b60405180910390fd5b8160069080519060200190620000cc929190620000de565b5080600781905550505050506200050b565b828054620000ec90620003c7565b90600052602060002090601f0160209004810192826200011057600085556200015c565b82601f106200012b57805160ff19168380011785556200015c565b828001600101855582156200015c579182015b828111156200015b5782518255916020019190600101906200013e565b5b5090506200016b91906200016f565b5090565b5b808211156200018a57600081600090555060010162000170565b5090565b6000620001a56200019f8462000340565b62000317565b905082815260208101848484011115620001be57600080fd5b620001cb84828562000391565b509392505050565b600082601f830112620001e557600080fd5b8151620001f78482602086016200018e565b91505092915050565b6000815190506200021181620004f1565b92915050565b600080600080608085870312156200022e57600080fd5b600085015167ffffffffffffffff8111156200024957600080fd5b6200025787828801620001d3565b945050602085015167ffffffffffffffff8111156200027557600080fd5b6200028387828801620001d3565b935050604085015167ffffffffffffffff811115620002a157600080fd5b620002af87828801620001d3565b9250506060620002c28782880162000200565b91505092959194509250565b6000620002dd60288362000376565b9150620002ea82620004a2565b604082019050919050565b600060208201905081810360008301526200031081620002ce565b9050919050565b60006200032362000336565b9050620003318282620003fd565b919050565b6000604051905090565b600067ffffffffffffffff8211156200035e576200035d62000462565b5b620003698262000491565b9050602081019050919050565b600082825260208201905092915050565b6000819050919050565b60005b83811015620003b157808201518184015260208101905062000394565b83811115620003c1576000848401525b50505050565b60006002820490506001821680620003e057607f821691505b60208210811415620003f757620003f662000433565b5b50919050565b620004088262000491565b810181811067ffffffffffffffff821117156200042a576200042962000462565b5b80604052505050565b7f4e487b7100000000000000000000000000000000000000000000000000000000600052602260045260246000fd5b7f4e487b7100000000000000000000000000000000000000000000000000000000600052604160045260246000fd5b6000601f19601f8301169050919050565b7f4e65656420746f2070726f766964652074686520555249206f6620746865206160008201527f677265656d656e74000000000000000000000000000000000000000000000000602082015250565b620004fc8162000387565b81146200050857600080fd5b50565b61274d806200051b6000396000f3fe608060405234801561001057600080fd5b50600436106100f55760003560e01c806342842e0e11610097578063a22cb46511610066578063a22cb46514610284578063b88d4fde146102a0578063c87b56dd146102bc578063e985e9c5146102ec576100f5565b806342842e0e146101ea5780636352211e1461020657806370a082311461023657806395d89b4114610266576100f5565b8063095ea7b3116100d3578063095ea7b31461017857806319bf674c1461019457806323b872dd146101b257806340c10f19146101ce576100f5565b806301ffc9a7146100fa57806306fdde031461012a578063081812fc14610148575b600080fd5b610114600480360381019061010f919061194f565b61031c565b6040516101219190611d0f565b60405180910390f35b6101326103fe565b60405161013f9190611d2a565b60405180910390f35b610162600480360381019061015d91906119a1565b610490565b60405161016f9190611ca8565b60405180910390f35b610192600480360381019061018d9190611913565b610515565b005b61019c61062d565b6040516101a99190611d2a565b60405180910390f35b6101cc60048036038101906101c7919061180d565b6106bf565b005b6101e860048036038101906101e39190611913565b61071f565b005b61020460048036038101906101ff919061180d565b61072d565b005b610220600480360381019061021b91906119a1565b61074d565b60405161022d9190611ca8565b60405180910390f35b610250600480360381019061024b91906117a8565b6107ff565b60405161025d9190611f0c565b60405180910390f35b61026e6108b7565b60405161027b9190611d2a565b60405180910390f35b61029e600480360381019061029991906118d7565b610949565b005b6102ba60048036038101906102b5919061185c565b61095f565b005b6102d660048036038101906102d191906119a1565b6109c1565b6040516102e39190611d2a565b60405180910390f35b610306600480360381019061030191906117d1565b610a68565b6040516103139190611d0f565b60405180910390f35b60007f80ac58cd000000000000000000000000000000000000000000000000000000007bffffffffffffffffffffffffffffffffffffffffffffffffffffffff1916827bffffffffffffffffffffffffffffffffffffffffffffffffffffffff191614806103e757507f5b5e139f000000000000000000000000000000000000000000000000000000007bffffffffffffffffffffffffffffffffffffffffffffffffffffffff1916827bffffffffffffffffffffffffffffffffffffffffffffffffffffffff1916145b806103f757506103f682610afc565b5b9050919050565b60606000805461040d90612131565b80601f016020809104026020016040519081016040528092919081815260200182805461043990612131565b80156104865780601f1061045b57610100808354040283529160200191610486565b820191906000526020600020905b81548152906001019060200180831161046957829003601f168201915b5050505050905090565b600061049b82610b66565b6104da576040517f08c379a00000000000000000000000000000000000000000000000000000000081526004016104d190611e6c565b60405180910390fd5b6004600083815260200190815260200160002060009054906101000a900473ffffffffffffffffffffffffffffffffffffffff169050919050565b60006105208261074d565b90508073ffffffffffffffffffffffffffffffffffffffff168373ffffffffffffffffffffffffffffffffffffffff161415610591576040517f08c379a000000000000000000000000000000000000000000000000000000000815260040161058890611ecc565b60405180910390fd5b8073ffffffffffffffffffffffffffffffffffffffff166105b0610bd2565b73ffffffffffffffffffffffffffffffffffffffff1614806105df57506105de816105d9610bd2565b610a68565b5b61061e576040517f08c379a000000000000000000000000000000000000000000000000000000000815260040161061590611dec565b60405180910390fd5b6106288383610bda565b505050565b60606006805461063c90612131565b80601f016020809104026020016040519081016040528092919081815260200182805461066890612131565b80156106b55780601f1061068a576101008083540402835291602001916106b5565b820191906000526020600020905b81548152906001019060200180831161069857829003601f168201915b5050505050905090565b6106d06106ca610bd2565b82610c93565b61070f576040517f08c379a000000000000000000000000000000000000000000000000000000000815260040161070690611eec565b60405180910390fd5b61071a838383610d71565b505050565b6107298282610fcd565b5050565b6107488383836040518060200160405280600081525061095f565b505050565b6000806002600084815260200190815260200160002060009054906101000a900473ffffffffffffffffffffffffffffffffffffffff169050600073ffffffffffffffffffffffffffffffffffffffff168173ffffffffffffffffffffffffffffffffffffffff1614156107f6576040517f08c379a00000000000000000000000000000000000000000000000000000000081526004016107ed90611e2c565b60405180910390fd5b80915050919050565b60008073ffffffffffffffffffffffffffffffffffffffff168273ffffffffffffffffffffffffffffffffffffffff161415610870576040517f08c379a000000000000000000000000000000000000000000000000000000000815260040161086790611e0c565b60405180910390fd5b600360008373ffffffffffffffffffffffffffffffffffffffff1673ffffffffffffffffffffffffffffffffffffffff168152602001908152602001600020549050919050565b6060600180546108c690612131565b80601f01602080910402602001604051908101604052809291908181526020018280546108f290612131565b801561093f5780601f106109145761010080835404028352916020019161093f565b820191906000526020600020905b81548152906001019060200180831161092257829003601f168201915b5050505050905090565b61095b610954610bd2565b838361119b565b5050565b61097061096a610bd2565b83610c93565b6109af576040517f08c379a00000000000000000000000000000000000000000000000000000000081526004016109a690611eec565b60405180910390fd5b6109bb84848484611308565b50505050565b60606109cc82610b66565b610a0b576040517f08c379a0000000000000000000000000000000000000000000000000000000008152600401610a0290611eac565b60405180910390fd5b6000610a15611364565b90506000815111610a355760405180602001604052806000815250610a60565b80610a3f8461137b565b604051602001610a50929190611c84565b6040516020818303038152906040525b915050919050565b6000600560008473ffffffffffffffffffffffffffffffffffffffff1673ffffffffffffffffffffffffffffffffffffffff16815260200190815260200160002060008373ffffffffffffffffffffffffffffffffffffffff1673ffffffffffffffffffffffffffffffffffffffff16815260200190815260200160002060009054906101000a900460ff16905092915050565b60007f01ffc9a7000000000000000000000000000000000000000000000000000000007bffffffffffffffffffffffffffffffffffffffffffffffffffffffff1916827bffffffffffffffffffffffffffffffffffffffffffffffffffffffff1916149050919050565b60008073ffffffffffffffffffffffffffffffffffffffff166002600084815260200190815260200160002060009054906101000a900473ffffffffffffffffffffffffffffffffffffffff1673ffffffffffffffffffffffffffffffffffffffff1614159050919050565b600033905090565b816004600083815260200190815260200160002060006101000a81548173ffffffffffffffffffffffffffffffffffffffff021916908373ffffffffffffffffffffffffffffffffffffffff160217905550808273ffffffffffffffffffffffffffffffffffffffff16610c4d8361074d565b73ffffffffffffffffffffffffffffffffffffffff167f8c5be1e5ebec7d5bd14f71427d1e84f3dd0314c0f7b2291e5b200ac8c7c3b92560405160405180910390a45050565b6000610c9e82610b66565b610cdd576040517f08c379a0000000000000000000000000000000000000000000000000000000008152600401610cd490611dcc565b60405180910390fd5b6000610ce88361074d565b90508073ffffffffffffffffffffffffffffffffffffffff168473ffffffffffffffffffffffffffffffffffffffff161480610d5757508373ffffffffffffffffffffffffffffffffffffffff16610d3f84610490565b73ffffffffffffffffffffffffffffffffffffffff16145b80610d685750610d678185610a68565b5b91505092915050565b8273ffffffffffffffffffffffffffffffffffffffff16610d918261074d565b73ffffffffffffffffffffffffffffffffffffffff1614610de7576040517f08c379a0000000000000000000000000000000000000000000000000000000008152600401610dde90611e8c565b60405180910390fd5b600073ffffffffffffffffffffffffffffffffffffffff168273ffffffffffffffffffffffffffffffffffffffff161415610e57576040517f08c379a0000000000000000000000000000000000000000000000000000000008152600401610e4e90611d8c565b60405180910390fd5b610e62838383611528565b610e6d600082610bda565b6001600360008573ffffffffffffffffffffffffffffffffffffffff1673ffffffffffffffffffffffffffffffffffffffff1681526020019081526020016000206000828254610ebd9190612047565b925050819055506001600360008473ffffffffffffffffffffffffffffffffffffffff1673ffffffffffffffffffffffffffffffffffffffff1681526020019081526020016000206000828254610f149190611fc0565b92505081905550816002600083815260200190815260200160002060006101000a81548173ffffffffffffffffffffffffffffffffffffffff021916908373ffffffffffffffffffffffffffffffffffffffff160217905550808273ffffffffffffffffffffffffffffffffffffffff168473ffffffffffffffffffffffffffffffffffffffff167fddf252ad1be2c89b69c2b068fc378daa952ba7f163c4a11628f55a4df523b3ef60405160405180910390a4505050565b600073ffffffffffffffffffffffffffffffffffffffff168273ffffffffffffffffffffffffffffffffffffffff16141561103d576040517f08c379a000000000000000000000000000000000000000000000000000000000815260040161103490611e4c565b60405180910390fd5b61104681610b66565b15611086576040517f08c379a000000000000000000000000000000000000000000000000000000000815260040161107d90611d6c565b60405180910390fd5b61109260008383611528565b6001600360008473ffffffffffffffffffffffffffffffffffffffff1673ffffffffffffffffffffffffffffffffffffffff16815260200190815260200160002060008282546110e29190611fc0565b92505081905550816002600083815260200190815260200160002060006101000a81548173ffffffffffffffffffffffffffffffffffffffff021916908373ffffffffffffffffffffffffffffffffffffffff160217905550808273ffffffffffffffffffffffffffffffffffffffff16600073ffffffffffffffffffffffffffffffffffffffff167fddf252ad1be2c89b69c2b068fc378daa952ba7f163c4a11628f55a4df523b3ef60405160405180910390a45050565b8173ffffffffffffffffffffffffffffffffffffffff168373ffffffffffffffffffffffffffffffffffffffff16141561120a576040517f08c379a000000000000000000000000000000000000000000000000000000000815260040161120190611dac565b60405180910390fd5b80600560008573ffffffffffffffffffffffffffffffffffffffff1673ffffffffffffffffffffffffffffffffffffffff16815260200190815260200160002060008473ffffffffffffffffffffffffffffffffffffffff1673ffffffffffffffffffffffffffffffffffffffff16815260200190815260200160002060006101000a81548160ff0219169083151502179055508173ffffffffffffffffffffffffffffffffffffffff168373ffffffffffffffffffffffffffffffffffffffff167f17307eab39ab6107e8899845ad3d59bd9653f200f220920489ca2b5937696c31836040516112fb9190611d0f565b60405180910390a3505050565b611313848484610d71565b61131f8484848461152d565b61135e576040517f08c379a000000000000000000000000000000000000000000000000000000000815260040161135590611d4c565b60405180910390fd5b50505050565b606060405180602001604052806000815250905090565b606060008214156113c3576040518060400160405280600181526020017f30000000000000000000000000000000000000000000000000000000000000008152509050611523565b600082905060005b600082146113f55780806113de90612194565b915050600a826113ee9190612016565b91506113cb565b60008167ffffffffffffffff811115611437577f4e487b7100000000000000000000000000000000000000000000000000000000600052604160045260246000fd5b6040519080825280601f01601f1916602001820160405280156114695781602001600182028036833780820191505090505b5090505b6000851461151c576001826114829190612047565b9150600a8561149191906121dd565b603061149d9190611fc0565b60f81b8183815181106114d9577f4e487b7100000000000000000000000000000000000000000000000000000000600052603260045260246000fd5b60200101907effffffffffffffffffffffffffffffffffffffffffffffffffffffffffffff1916908160001a905350600a856115159190612016565b945061146d565b8093505050505b919050565b505050565b600061154e8473ffffffffffffffffffffffffffffffffffffffff166116c4565b156116b7578373ffffffffffffffffffffffffffffffffffffffff1663150b7a02611577610bd2565b8786866040518563ffffffff1660e01b81526004016115999493929190611cc3565b602060405180830381600087803b1580156115b357600080fd5b505af19250505080156115e457506040513d601f19601f820116820180604052508101906115e19190611978565b60015b611667573d8060008114611614576040519150601f19603f3d011682016040523d82523d6000602084013e611619565b606091505b5060008151141561165f576040517f08c379a000000000000000000000000000000000000000000000000000000000815260040161165690611d4c565b60405180910390fd5b805181602001fd5b63150b7a0260e01b7bffffffffffffffffffffffffffffffffffffffffffffffffffffffff1916817bffffffffffffffffffffffffffffffffffffffffffffffffffffffff1916149150506116bc565b600190505b949350505050565b600080823b905060008111915050919050565b60006116ea6116e584611f4c565b611f27565b90508281526020810184848401111561170257600080fd5b61170d8482856120ef565b509392505050565b600081359050611724816126bb565b92915050565b600081359050611739816126d2565b92915050565b60008135905061174e816126e9565b92915050565b600081519050611763816126e9565b92915050565b600082601f83011261177a57600080fd5b813561178a8482602086016116d7565b91505092915050565b6000813590506117a281612700565b92915050565b6000602082840312156117ba57600080fd5b60006117c884828501611715565b91505092915050565b600080604083850312156117e457600080fd5b60006117f285828601611715565b925050602061180385828601611715565b9150509250929050565b60008060006060848603121561182257600080fd5b600061183086828701611715565b935050602061184186828701611715565b925050604061185286828701611793565b9150509250925092565b6000806000806080858703121561187257600080fd5b600061188087828801611715565b945050602061189187828801611715565b93505060406118a287828801611793565b925050606085013567ffffffffffffffff8111156118bf57600080fd5b6118cb87828801611769565b91505092959194509250565b600080604083850312156118ea57600080fd5b60006118f885828601611715565b92505060206119098582860161172a565b9150509250929050565b6000806040838503121561192657600080fd5b600061193485828601611715565b925050602061194585828601611793565b9150509250929050565b60006020828403121561196157600080fd5b600061196f8482850161173f565b91505092915050565b60006020828403121561198a57600080fd5b600061199884828501611754565b91505092915050565b6000602082840312156119b357600080fd5b60006119c184828501611793565b91505092915050565b6119d38161207b565b82525050565b6119e28161208d565b82525050565b60006119f382611f7d565b6119fd8185611f93565b9350611a0d8185602086016120fe565b611a16816122ca565b840191505092915050565b6000611a2c82611f88565b611a368185611fa4565b9350611a468185602086016120fe565b611a4f816122ca565b840191505092915050565b6000611a6582611f88565b611a6f8185611fb5565b9350611a7f8185602086016120fe565b80840191505092915050565b6000611a98603283611fa4565b9150611aa3826122db565b604082019050919050565b6000611abb601c83611fa4565b9150611ac68261232a565b602082019050919050565b6000611ade602483611fa4565b9150611ae982612353565b604082019050919050565b6000611b01601983611fa4565b9150611b0c826123a2565b602082019050919050565b6000611b24602c83611fa4565b9150611b2f826123cb565b604082019050919050565b6000611b47603883611fa4565b9150611b528261241a565b604082019050919050565b6000611b6a602a83611fa4565b9150611b7582612469565b604082019050919050565b6000611b8d602983611fa4565b9150611b98826124b8565b604082019050919050565b6000611bb0602083611fa4565b9150611bbb82612507565b602082019050919050565b6000611bd3602c83611fa4565b9150611bde82612530565b604082019050919050565b6000611bf6602983611fa4565b9150611c018261257f565b604082019050919050565b6000611c19602f83611fa4565b9150611c24826125ce565b604082019050919050565b6000611c3c602183611fa4565b9150611c478261261d565b604082019050919050565b6000611c5f603183611fa4565b9150611c6a8261266c565b604082019050919050565b611c7e816120e5565b82525050565b6000611c908285611a5a565b9150611c9c8284611a5a565b91508190509392505050565b6000602082019050611cbd60008301846119ca565b92915050565b6000608082019050611cd860008301876119ca565b611ce560208301866119ca565b611cf26040830185611c75565b8181036060830152611d0481846119e8565b905095945050505050565b6000602082019050611d2460008301846119d9565b92915050565b60006020820190508181036000830152611d448184611a21565b905092915050565b60006020820190508181036000830152611d6581611a8b565b9050919050565b60006020820190508181036000830152611d8581611aae565b9050919050565b60006020820190508181036000830152611da581611ad1565b9050919050565b60006020820190508181036000830152611dc581611af4565b9050919050565b60006020820190508181036000830152611de581611b17565b9050919050565b60006020820190508181036000830152611e0581611b3a565b9050919050565b60006020820190508181036000830152611e2581611b5d565b9050919050565b60006020820190508181036000830152611e4581611b80565b9050919050565b60006020820190508181036000830152611e6581611ba3565b9050919050565b60006020820190508181036000830152611e8581611bc6565b9050919050565b60006020820190508181036000830152611ea581611be9565b9050919050565b60006020820190508181036000830152611ec581611c0c565b9050919050565b60006020820190508181036000830152611ee581611c2f565b9050919050565b60006020820190508181036000830152611f0581611c52565b9050919050565b6000602082019050611f216000830184611c75565b92915050565b6000611f31611f42565b9050611f3d8282612163565b919050565b6000604051905090565b600067ffffffffffffffff821115611f6757611f6661229b565b5b611f70826122ca565b9050602081019050919050565b600081519050919050565b600081519050919050565b600082825260208201905092915050565b600082825260208201905092915050565b600081905092915050565b6000611fcb826120e5565b9150611fd6836120e5565b9250827fffffffffffffffffffffffffffffffffffffffffffffffffffffffffffffffff0382111561200b5761200a61220e565b5b828201905092915050565b6000612021826120e5565b915061202c836120e5565b92508261203c5761203b61223d565b5b828204905092915050565b6000612052826120e5565b915061205d836120e5565b9250828210156120705761206f61220e565b5b828203905092915050565b6000612086826120c5565b9050919050565b60008115159050919050565b60007fffffffff0000000000000000000000000000000000000000000000000000000082169050919050565b600073ffffffffffffffffffffffffffffffffffffffff82169050919050565b6000819050919050565b82818337600083830152505050565b60005b8381101561211c578082015181840152602081019050612101565b8381111561212b576000848401525b50505050565b6000600282049050600182168061214957607f821691505b6020821081141561215d5761215c61226c565b5b50919050565b61216c826122ca565b810181811067ffffffffffffffff8211171561218b5761218a61229b565b5b80604052505050565b600061219f826120e5565b91507fffffffffffffffffffffffffffffffffffffffffffffffffffffffffffffffff8214156121d2576121d161220e565b5b600182019050919050565b60006121e8826120e5565b91506121f3836120e5565b9250826122035761220261223d565b5b828206905092915050565b7f4e487b7100000000000000000000000000000000000000000000000000000000600052601160045260246000fd5b7f4e487b7100000000000000000000000000000000000000000000000000000000600052601260045260246000fd5b7f4e487b7100000000000000000000000000000000000000000000000000000000600052602260045260246000fd5b7f4e487b7100000000000000000000000000000000000000000000000000000000600052604160045260246000fd5b6000601f19601f8301169050919050565b7f4552433732313a207472616e7366657220746f206e6f6e20455243373231526560008201527f63656976657220696d706c656d656e7465720000000000000000000000000000602082015250565b7f4552433732313a20746f6b656e20616c7265616479206d696e74656400000000600082015250565b7f4552433732313a207472616e7366657220746f20746865207a65726f2061646460008201527f7265737300000000000000000000000000000000000000000000000000000000602082015250565b7f4552433732313a20617070726f766520746f2063616c6c657200000000000000600082015250565b7f4552433732313a206f70657261746f7220717565727920666f72206e6f6e657860008201527f697374656e7420746f6b656e0000000000000000000000000000000000000000602082015250565b7f4552433732313a20617070726f76652063616c6c6572206973206e6f74206f7760008201527f6e6572206e6f7220617070726f76656420666f7220616c6c0000000000000000602082015250565b7f4552433732313a2062616c616e636520717565727920666f7220746865207a6560008201527f726f206164647265737300000000000000000000000000000000000000000000602082015250565b7f4552433732313a206f776e657220717565727920666f72206e6f6e657869737460008201527f656e7420746f6b656e0000000000000000000000000000000000000000000000602082015250565b7f4552433732313a206d696e7420746f20746865207a65726f2061646472657373600082015250565b7f4552433732313a20617070726f76656420717565727920666f72206e6f6e657860008201527f697374656e7420746f6b656e0000000000000000000000000000000000000000602082015250565b7f4552433732313a207472616e73666572206f6620746f6b656e2074686174206960008201527f73206e6f74206f776e0000000000000000000000000000000000000000000000602082015250565b7f4552433732314d657461646174613a2055524920717565727920666f72206e6f60008201527f6e6578697374656e7420746f6b656e0000000000000000000000000000000000602082015250565b7f4552433732313a20617070726f76616c20746f2063757272656e74206f776e6560008201527f7200000000000000000000000000000000000000000000000000000000000000602082015250565b7f4552433732313a207472616e736665722063616c6c6572206973206e6f74206f60008201527f776e6572206e6f7220617070726f766564000000000000000000000000000000602082015250565b6126c48161207b565b81146126cf57600080fd5b50565b6126db8161208d565b81146126e657600080fd5b50565b6126f281612099565b81146126fd57600080fd5b50565b612709816120e5565b811461271457600080fd5b5056fea2646970667358221220f92550bfed3bd1576f7e1c476d410727a53d7df200a449f5d9060feb7a08199d64736f6c63430008040033a2646970667358221220b8dde95d67ec7e90572147be342db2d2bedd1a59311d9a4c9eb8dcd5b56e7d1464736f6c63430008040033",
  "linkReferences": {},
  "deployedLinkReferences": {}
}