{
  "_format": "hh-sol-artifact-1",
  "contractName": "FaroDutchAuction",
  "sourceName": "contracts/DutchAuction/FaroDutchAuction.sol",
  "abi": [
    {
      "inputs": [
        {
          "internalType": "address",
          "name": "_offeringAddress",
          "type": "address"
        },
        {
          "internalType": "address",
          "name": "_owner",
          "type": "address"
        },
        {
          "internalType": "uint256[]",
          "name": "_priceUpdateArray",
          "type": "uint256[]"
        },
        {
          "internalType": "uint32",
          "name": "_supply",
          "type": "uint32"
        },
        {
          "internalType": "address[]",
          "name": "_eligibleBidders",
          "type": "address[]"
        }
      ],
      "stateMutability": "nonpayable",
      "type": "constructor"
    },
    {
      "anonymous": false,
      "inputs": [
        {
          "indexed": true,
          "internalType": "address",
          "name": "bidder",
          "type": "address"
        },
        {
          "indexed": false,
          "internalType": "uint256",
          "name": "amount",
          "type": "uint256"
        }
      ],
      "name": "Bid",
      "type": "event"
    },
    {
      "inputs": [],
      "name": "auctionCurrentPrice",
      "outputs": [
        {
          "internalType": "uint256",
          "name": "",
          "type": "uint256"
        }
      ],
      "stateMutability": "view",
      "type": "function"
    },
    {
      "inputs": [],
      "name": "auctionState",
      "outputs": [
        {
          "internalType": "enum FaroDutchAuction.AuctionState",
          "name": "",
          "type": "uint8"
        }
      ],
      "stateMutability": "view",
      "type": "function"
    },
    {
      "inputs": [],
      "name": "auctionStopPrice",
      "outputs": [
        {
          "internalType": "uint256",
          "name": "",
          "type": "uint256"
        }
      ],
      "stateMutability": "view",
      "type": "function"
    },
    {
      "inputs": [
        {
          "internalType": "uint32",
          "name": "_amount",
          "type": "uint32"
        }
      ],
      "name": "bid",
      "outputs": [],
      "stateMutability": "payable",
      "type": "function"
    },
    {
      "inputs": [
        {
          "internalType": "address",
          "name": "",
          "type": "address"
        }
      ],
      "name": "eligibleBidders",
      "outputs": [
        {
          "internalType": "bool",
          "name": "",
          "type": "bool"
        }
      ],
      "stateMutability": "view",
      "type": "function"
    },
    {
      "inputs": [],
      "name": "end",
      "outputs": [],
      "stateMutability": "nonpayable",
      "type": "function"
    },
    {
      "inputs": [],
      "name": "endTime",
      "outputs": [
        {
          "internalType": "uint256",
          "name": "",
          "type": "uint256"
        }
      ],
      "stateMutability": "view",
      "type": "function"
    },
    {
      "inputs": [],
      "name": "fractional",
      "outputs": [
        {
          "internalType": "contract FaroFractional",
          "name": "",
          "type": "address"
        }
      ],
      "stateMutability": "view",
      "type": "function"
    },
    {
      "inputs": [
        {
          "internalType": "address",
          "name": "funder",
          "type": "address"
        }
      ],
      "name": "getFractionalBalance",
      "outputs": [
        {
          "internalType": "uint256",
          "name": "",
          "type": "uint256"
        }
      ],
      "stateMutability": "view",
      "type": "function"
    },
    {
      "inputs": [],
      "name": "offerableOwnership",
      "outputs": [
        {
          "internalType": "contract FaroOffering",
          "name": "",
          "type": "address"
        }
      ],
      "stateMutability": "view",
      "type": "function"
    },
    {
      "inputs": [],
      "name": "owner",
      "outputs": [
        {
          "internalType": "address",
          "name": "",
          "type": "address"
        }
      ],
      "stateMutability": "view",
      "type": "function"
    },
    {
      "inputs": [],
      "name": "projectFundingAddress",
      "outputs": [
        {
          "internalType": "address payable",
          "name": "",
          "type": "address"
        }
      ],
      "stateMutability": "view",
      "type": "function"
    },
    {
      "inputs": [],
      "name": "remaining",
      "outputs": [
        {
          "internalType": "uint32",
          "name": "",
          "type": "uint32"
        }
      ],
      "stateMutability": "view",
      "type": "function"
    },
    {
      "inputs": [],
      "name": "setCurrentPrice",
      "outputs": [
        {
          "internalType": "uint256",
          "name": "",
          "type": "uint256"
        }
      ],
      "stateMutability": "nonpayable",
      "type": "function"
    },
    {
      "inputs": [],
      "name": "start",
      "outputs": [],
      "stateMutability": "nonpayable",
      "type": "function"
    },
    {
      "inputs": [],
      "name": "startTime",
      "outputs": [
        {
          "internalType": "uint256",
          "name": "",
          "type": "uint256"
        }
      ],
      "stateMutability": "view",
      "type": "function"
    },
    {
      "inputs": [],
      "name": "timeTick",
      "outputs": [
        {
          "internalType": "uint16",
          "name": "",
          "type": "uint16"
        }
      ],
      "stateMutability": "view",
      "type": "function"
    }
  ],
  "bytecode": "0x60a06040523480156200001157600080fd5b5060405162002a5038038062002a508339818101604052810190620000379190620009d2565b6105a063ffffffff168351111562000086576040517f08c379a00000000000000000000000000000000000000000000000000000000081526004016200007d9062000b49565b60405180910390fd5b846000806101000a81548173ffffffffffffffffffffffffffffffffffffffff021916908373ffffffffffffffffffffffffffffffffffffffff16021790555060008054906101000a900473ffffffffffffffffffffffffffffffffffffffff1673ffffffffffffffffffffffffffffffffffffffff16638da5cb5b6040518163ffffffff1660e01b815260040160206040518083038186803b1580156200012d57600080fd5b505afa15801562000142573d6000803e3d6000fd5b505050506040513d601f19601f820116820180604052508101906200016891906200097a565b73ffffffffffffffffffffffffffffffffffffffff168473ffffffffffffffffffffffffffffffffffffffff1614620001d8576040517f08c379a0000000000000000000000000000000000000000000000000000000008152600401620001cf9062000b6b565b60405180910390fd5b60005b8151811015620002ae578473ffffffffffffffffffffffffffffffffffffffff1682828151811062000236577f4e487b7100000000000000000000000000000000000000000000000000000000600052603260045260246000fd5b602002602001015173ffffffffffffffffffffffffffffffffffffffff16141562000298576040517f08c379a00000000000000000000000000000000000000000000000000000000081526004016200028f9062000b27565b60405180910390fd5b8080620002a59062000cf8565b915050620001db565b508260059080519060200190620002c792919062000769565b506001600580549050620002dc919062000c25565b600660006101000a81548161ffff021916908361ffff16021790555083600260086101000a81548173ffffffffffffffffffffffffffffffffffffffff021916908373ffffffffffffffffffffffffffffffffffffffff16021790555060008054906101000a900473ffffffffffffffffffffffffffffffffffffffff1673ffffffffffffffffffffffffffffffffffffffff1663e2afaf406040518163ffffffff1660e01b815260040160206040518083038186803b158015620003a057600080fd5b505afa158015620003b5573d6000803e3d6000fd5b505050506040513d601f19601f82011682018060405250810190620003db91906200097a565b73ffffffffffffffffffffffffffffffffffffffff1660808173ffffffffffffffffffffffffffffffffffffffff1660601b8152505060008054906101000a900473ffffffffffffffffffffffffffffffffffffffff1673ffffffffffffffffffffffffffffffffffffffff1663c78f19f96040518163ffffffff1660e01b815260040160206040518083038186803b1580156200047857600080fd5b505afa1580156200048d573d6000803e3d6000fd5b505050506040513d601f19601f82011682018060405250810190620004b3919062000a86565b60038190555060008054906101000a900473ffffffffffffffffffffffffffffffffffffffff1673ffffffffffffffffffffffffffffffffffffffff166325da499a6040518163ffffffff1660e01b815260040160206040518083038186803b1580156200052057600080fd5b505afa15801562000535573d6000803e3d6000fd5b505050506040513d601f19601f820116820180604052508101906200055b9190620009a6565b600660046101000a81548173ffffffffffffffffffffffffffffffffffffffff021916908373ffffffffffffffffffffffffffffffffffffffff1602179055506005600081548110620005d7577f4e487b7100000000000000000000000000000000000000000000000000000000600052603260045260246000fd5b90600052602060002001546004819055506000600a60006101000a81548160ff0219169083600281111562000635577f4e487b7100000000000000000000000000000000000000000000000000000000600052602160045260246000fd5b021790555081600260046101000a81548163ffffffff021916908363ffffffff160217905550600260049054906101000a900463ffffffff16600260006101000a81548163ffffffff021916908363ffffffff1602179055506200069f81620006aa60201b60201c565b505050505062000ee4565b60005b815181101562000765576001806000848481518110620006f6577f4e487b7100000000000000000000000000000000000000000000000000000000600052603260045260246000fd5b602002602001015173ffffffffffffffffffffffffffffffffffffffff1673ffffffffffffffffffffffffffffffffffffffff16815260200190815260200160002060006101000a81548160ff02191690831515021790555080806200075c9062000cf8565b915050620006ad565b5050565b828054828255906000526020600020908101928215620007a8579160200282015b82811115620007a75782518255916020019190600101906200078a565b5b509050620007b79190620007bb565b5090565b5b80821115620007d6576000816000905550600101620007bc565b5090565b6000620007f1620007eb8462000bb6565b62000b8d565b905080838252602082019050828560208602820111156200081157600080fd5b60005b858110156200084557816200082a8882620008c4565b84526020840193506020830192505060018101905062000814565b5050509392505050565b600062000866620008608462000be5565b62000b8d565b905080838252602082019050828560208602820111156200088657600080fd5b60005b85811015620008ba57816200089f88826200094c565b84526020840193506020830192505060018101905062000889565b5050509392505050565b600081519050620008d58162000e7c565b92915050565b600081519050620008ec8162000e96565b92915050565b600082601f8301126200090457600080fd5b815162000916848260208601620007da565b91505092915050565b600082601f8301126200093157600080fd5b8151620009438482602086016200084f565b91505092915050565b6000815190506200095d8162000eb0565b92915050565b600081519050620009748162000eca565b92915050565b6000602082840312156200098d57600080fd5b60006200099d84828501620008c4565b91505092915050565b600060208284031215620009b957600080fd5b6000620009c984828501620008db565b91505092915050565b600080600080600060a08688031215620009eb57600080fd5b6000620009fb88828901620008c4565b955050602062000a0e88828901620008c4565b945050604086015167ffffffffffffffff81111562000a2c57600080fd5b62000a3a888289016200091f565b935050606062000a4d8882890162000963565b925050608086015167ffffffffffffffff81111562000a6b57600080fd5b62000a7988828901620008f2565b9150509295509295909350565b60006020828403121562000a9957600080fd5b600062000aa9848285016200094c565b91505092915050565b600062000ac160268362000c14565b915062000ace8262000db5565b604082019050919050565b600062000ae8601c8362000c14565b915062000af58262000e04565b602082019050919050565b600062000b0f602d8362000c14565b915062000b1c8262000e2d565b604082019050919050565b6000602082019050818103600083015262000b428162000ab2565b9050919050565b6000602082019050818103600083015262000b648162000ad9565b9050919050565b6000602082019050818103600083015262000b868162000b00565b9050919050565b600062000b9962000bac565b905062000ba7828262000cc2565b919050565b6000604051905090565b600067ffffffffffffffff82111562000bd45762000bd362000d75565b5b602082029050602081019050919050565b600067ffffffffffffffff82111562000c035762000c0262000d75565b5b602082029050602081019050919050565b600082825260208201905092915050565b600062000c328262000ca8565b915062000c3f8362000ca8565b92508282101562000c555762000c5462000d46565b5b828203905092915050565b600062000c6d8262000c88565b9050919050565b600062000c818262000c88565b9050919050565b600073ffffffffffffffffffffffffffffffffffffffff82169050919050565b6000819050919050565b600063ffffffff82169050919050565b62000ccd8262000da4565b810181811067ffffffffffffffff8211171562000cef5762000cee62000d75565b5b80604052505050565b600062000d058262000ca8565b91507fffffffffffffffffffffffffffffffffffffffffffffffffffffffffffffffff82141562000d3b5762000d3a62000d46565b5b600182019050919050565b7f4e487b7100000000000000000000000000000000000000000000000000000000600052601160045260246000fd5b7f4e487b7100000000000000000000000000000000000000000000000000000000600052604160045260246000fd5b6000601f19601f8301169050919050565b7f4f776e65722063616e6e6f7420626520616d6f6e6720656c696769626c65206260008201527f6964646572730000000000000000000000000000000000000000000000000000602082015250565b7f546f6f206c617267652070726963652075706461746520617272617900000000600082015250565b7f41756374696f6e2063616e206f6e6c792062652063726561746564206279206f60008201527f66666572696e67206f776e657200000000000000000000000000000000000000602082015250565b62000e878162000c60565b811462000e9357600080fd5b50565b62000ea18162000c74565b811462000ead57600080fd5b50565b62000ebb8162000ca8565b811462000ec757600080fd5b50565b62000ed58162000cb2565b811462000ee157600080fd5b50565b60805160601c611b3f62000f1160003960008181610a2301528181610b6b0152610ff70152611b3f6000f3fe6080604052600436106100fe5760003560e01c806378e9792511610095578063a9c9a9ee11610064578063a9c9a9ee1461030a578063be9a655514610335578063ebaf23451461034c578063efbe1c1c14610389578063f34283ed146103a0576100fe565b806378e979251461024c5780637f302317146102775780637fb45099146102b45780638da5cb5b146102df576100fe565b80633197cbb6116100d15780633197cbb6146101af57806339046ce5146101da57806351ffcab31461020557806355234ec014610221576100fe565b80630e851c04146101035780631d3ece071461012e5780632213cb7e1461015957806325da499a14610184575b600080fd5b34801561010f57600080fd5b506101186103cb565b60405161012591906113ca565b60405180910390f35b34801561013a57600080fd5b506101436103ef565b604051610150919061153b565b60405180910390f35b34801561016557600080fd5b5061016e6103f5565b60405161017b919061153b565b60405180910390f35b34801561019057600080fd5b5061019961053f565b6040516101a69190611350565b60405180910390f35b3480156101bb57600080fd5b506101c4610565565b6040516101d1919061153b565b60405180910390f35b3480156101e657600080fd5b506101ef61056b565b6040516101fc919061153b565b60405180910390f35b61021f600480360381019061021a919061113b565b610571565b005b34801561022d57600080fd5b50610236610b4b565b6040516102439190611571565b60405180910390f35b34801561025857600080fd5b50610261610b61565b60405161026e919061153b565b60405180910390f35b34801561028357600080fd5b5061029e600480360381019061029991906110c0565b610b67565b6040516102ab919061153b565b60405180910390f35b3480156102c057600080fd5b506102c9610c19565b6040516102d691906113e5565b60405180910390f35b3480156102eb57600080fd5b506102f4610c2c565b6040516103019190611335565b60405180910390f35b34801561031657600080fd5b5061031f610c52565b60405161032c9190611520565b60405180910390f35b34801561034157600080fd5b5061034a610c66565b005b34801561035857600080fd5b50610373600480360381019061036e91906110c0565b610f3b565b6040516103809190611394565b60405180910390f35b34801561039557600080fd5b5061039e610f5b565b005b3480156103ac57600080fd5b506103b5610ff5565b6040516103c291906113af565b60405180910390f35b60008054906101000a900473ffffffffffffffffffffffffffffffffffffffff1681565b60045481565b60006201518063ffffffff166007544261040f919061167e565b61041991906115f3565b600660026101000a81548161ffff021916908361ffff160217905550600660009054906101000a900461ffff1661ffff16600660029054906101000a900461ffff1661ffff16111561049357600660009054906101000a900461ffff16600660026101000a81548161ffff021916908361ffff1602179055505b6005600660029054906101000a900461ffff1661ffff16815481106104e1577f4e487b7100000000000000000000000000000000000000000000000000000000600052603260045260246000fd5b90600052602060002001546004819055506008544211806105295750600660009054906101000a900461ffff1661ffff16600660029054906101000a900461ffff1661ffff16145b1561053757610536611019565b5b600454905090565b600660049054906101000a900473ffffffffffffffffffffffffffffffffffffffff1681565b60085481565b60035481565b600260089054906101000a900473ffffffffffffffffffffffffffffffffffffffff1673ffffffffffffffffffffffffffffffffffffffff163373ffffffffffffffffffffffffffffffffffffffff161415610602576040517f08c379a00000000000000000000000000000000000000000000000000000000081526004016105f9906114a0565b60405180910390fd5b6001600281111561063c577f4e487b7100000000000000000000000000000000000000000000000000000000600052602160045260246000fd5b600a60009054906101000a900460ff166002811115610684577f4e487b7100000000000000000000000000000000000000000000000000000000600052602160045260246000fd5b146106c4576040517f08c379a00000000000000000000000000000000000000000000000000000000081526004016106bb90611480565b60405180910390fd5b6201518063ffffffff16600754426106dc919061167e565b6106e691906115f3565b600660026101000a81548161ffff021916908361ffff160217905550600660009054906101000a900461ffff1661ffff16600660029054906101000a900461ffff1661ffff16111561076057600660009054906101000a900461ffff16600660026101000a81548161ffff021916908361ffff1602179055505b6005600660029054906101000a900461ffff1661ffff16815481106107ae577f4e487b7100000000000000000000000000000000000000000000000000000000600052603260045260246000fd5b90600052602060002001546004819055506008544211806107f65750600660009054906101000a900461ffff1661ffff16600660029054906101000a900461ffff1661ffff16145b1561080457610803611019565b5b60006004548263ffffffff1661081a9190611624565b9050600160003373ffffffffffffffffffffffffffffffffffffffff1673ffffffffffffffffffffffffffffffffffffffff16815260200190815260200160002060009054906101000a900460ff166108a8576040517f08c379a000000000000000000000000000000000000000000000000000000000815260040161089f90611440565b60405180910390fd5b803410156108eb576040517f08c379a00000000000000000000000000000000000000000000000000000000081526004016108e290611500565b60405180910390fd5b600260009054906101000a900463ffffffff1663ffffffff168263ffffffff16111561094c576040517f08c379a000000000000000000000000000000000000000000000000000000000815260040161094390611400565b60405180910390fd5b81600260008282829054906101000a900463ffffffff1661096d91906116b2565b92506101000a81548163ffffffff021916908363ffffffff160217905550600660049054906101000a900473ffffffffffffffffffffffffffffffffffffffff1673ffffffffffffffffffffffffffffffffffffffff166108fc829081150290604051600060405180830381858888f19350505050610a21576040517f08c379a0000000000000000000000000000000000000000000000000000000008152600401610a1890611420565b60405180910390fd5b7f000000000000000000000000000000000000000000000000000000000000000073ffffffffffffffffffffffffffffffffffffffff1663a9059cbb33846040518363ffffffff1660e01b8152600401610a7c92919061136b565b602060405180830381600087803b158015610a9657600080fd5b505af1158015610aaa573d6000803e3d6000fd5b505050506040513d601f19601f82011682018060405250810190610ace91906110e9565b503373ffffffffffffffffffffffffffffffffffffffff167fe684a55f31b79eca403df938249029212a5925ec6be8012e099b45bc1019e5d283604051610b159190611556565b60405180910390a26000600260009054906101000a900463ffffffff1663ffffffff161415610b4757610b46611019565b5b5050565b600260009054906101000a900463ffffffff1681565b60075481565b60007f000000000000000000000000000000000000000000000000000000000000000073ffffffffffffffffffffffffffffffffffffffff166370a08231836040518263ffffffff1660e01b8152600401610bc29190611335565b60206040518083038186803b158015610bda57600080fd5b505afa158015610bee573d6000803e3d6000fd5b505050506040513d601f19601f82011682018060405250810190610c129190611112565b9050919050565b600a60009054906101000a900460ff1681565b600260089054906101000a900473ffffffffffffffffffffffffffffffffffffffff1681565b600660029054906101000a900461ffff1681565b600260089054906101000a900473ffffffffffffffffffffffffffffffffffffffff1673ffffffffffffffffffffffffffffffffffffffff163373ffffffffffffffffffffffffffffffffffffffff1614610cf6576040517f08c379a0000000000000000000000000000000000000000000000000000000008152600401610ced906114e0565b60405180910390fd5b60006002811115610d30577f4e487b7100000000000000000000000000000000000000000000000000000000600052602160045260246000fd5b600a60009054906101000a900460ff166002811115610d78577f4e487b7100000000000000000000000000000000000000000000000000000000600052602160045260246000fd5b14610db8576040517f08c379a0000000000000000000000000000000000000000000000000000000008152600401610daf906114c0565b60405180910390fd5b600260049054906101000a900463ffffffff1663ffffffff1660008054906101000a900473ffffffffffffffffffffffffffffffffffffffff1673ffffffffffffffffffffffffffffffffffffffff16637f302317306040518263ffffffff1660e01b8152600401610e2a9190611335565b60206040518083038186803b158015610e4257600080fd5b505afa158015610e56573d6000803e3d6000fd5b505050506040513d601f19601f82011682018060405250810190610e7a9190611112565b14610eba576040517f08c379a0000000000000000000000000000000000000000000000000000000008152600401610eb190611460565b60405180910390fd5b4260078190555062015180600580549050610ed59190611624565b600754610ee2919061159d565b6008819055506001600a60006101000a81548160ff02191690836002811115610f34577f4e487b7100000000000000000000000000000000000000000000000000000000600052602160045260246000fd5b0217905550565b60016020528060005260406000206000915054906101000a900460ff1681565b600260089054906101000a900473ffffffffffffffffffffffffffffffffffffffff1673ffffffffffffffffffffffffffffffffffffffff163373ffffffffffffffffffffffffffffffffffffffff1614610feb576040517f08c379a0000000000000000000000000000000000000000000000000000000008152600401610fe2906114e0565b60405180910390fd5b610ff3611019565b565b7f000000000000000000000000000000000000000000000000000000000000000081565b6002600a60006101000a81548160ff02191690836002811115611065577f4e487b7100000000000000000000000000000000000000000000000000000000600052602160045260246000fd5b0217905550565b60008135905061107b81611aad565b92915050565b60008151905061109081611ac4565b92915050565b6000815190506110a581611adb565b92915050565b6000813590506110ba81611af2565b92915050565b6000602082840312156110d257600080fd5b60006110e08482850161106c565b91505092915050565b6000602082840312156110fb57600080fd5b600061110984828501611081565b91505092915050565b60006020828403121561112457600080fd5b600061113284828501611096565b91505092915050565b60006020828403121561114d57600080fd5b600061115b848285016110ab565b91505092915050565b61116d816116f8565b82525050565b61117c816116e6565b82525050565b61118b8161170a565b82525050565b61119a81611771565b82525050565b6111a981611795565b82525050565b6111b8816117b9565b82525050565b60006111cb602b8361158c565b91506111d68261186a565b604082019050919050565b60006111ee603a8361158c565b91506111f9826118b9565b604082019050919050565b600061121160178361158c565b915061121c82611908565b602082019050919050565b6000611234603a8361158c565b915061123f82611931565b604082019050919050565b600061125760148361158c565b915061126282611980565b602082019050919050565b600061127a601b8361158c565b9150611285826119a9565b602082019050919050565b600061129d601b8361158c565b91506112a8826119d2565b602082019050919050565b60006112c060278361158c565b91506112cb826119fb565b604082019050919050565b60006112e360258361158c565b91506112ee82611a4a565b604082019050919050565b61130281611729565b82525050565b61131181611757565b82525050565b611320816117cb565b82525050565b61132f81611761565b82525050565b600060208201905061134a6000830184611173565b92915050565b60006020820190506113656000830184611164565b92915050565b60006040820190506113806000830185611173565b61138d6020830184611317565b9392505050565b60006020820190506113a96000830184611182565b92915050565b60006020820190506113c46000830184611191565b92915050565b60006020820190506113df60008301846111a0565b92915050565b60006020820190506113fa60008301846111af565b92915050565b60006020820190508181036000830152611419816111be565b9050919050565b60006020820190508181036000830152611439816111e1565b9050919050565b6000602082019050818103600083015261145981611204565b9050919050565b6000602082019050818103600083015261147981611227565b9050919050565b600060208201905081810360008301526114998161124a565b9050919050565b600060208201905081810360008301526114b98161126d565b9050919050565b600060208201905081810360008301526114d981611290565b9050919050565b600060208201905081810360008301526114f9816112b3565b9050919050565b60006020820190508181036000830152611519816112d6565b9050919050565b600060208201905061153560008301846112f9565b92915050565b60006020820190506115506000830184611308565b92915050565b600060208201905061156b6000830184611317565b92915050565b60006020820190506115866000830184611326565b92915050565b600082825260208201905092915050565b60006115a882611757565b91506115b383611757565b9250827fffffffffffffffffffffffffffffffffffffffffffffffffffffffffffffffff038211156115e8576115e76117dd565b5b828201905092915050565b60006115fe82611757565b915061160983611757565b9250826116195761161861180c565b5b828204905092915050565b600061162f82611757565b915061163a83611757565b9250817fffffffffffffffffffffffffffffffffffffffffffffffffffffffffffffffff0483118215151615611673576116726117dd565b5b828202905092915050565b600061168982611757565b915061169483611757565b9250828210156116a7576116a66117dd565b5b828203905092915050565b60006116bd82611761565b91506116c883611761565b9250828210156116db576116da6117dd565b5b828203905092915050565b60006116f182611737565b9050919050565b600061170382611737565b9050919050565b60008115159050919050565b600081905061172482611a99565b919050565b600061ffff82169050919050565b600073ffffffffffffffffffffffffffffffffffffffff82169050919050565b6000819050919050565b600063ffffffff82169050919050565b600061177c82611783565b9050919050565b600061178e82611737565b9050919050565b60006117a0826117a7565b9050919050565b60006117b282611737565b9050919050565b60006117c482611716565b9050919050565b60006117d682611761565b9050919050565b7f4e487b7100000000000000000000000000000000000000000000000000000000600052601160045260246000fd5b7f4e487b7100000000000000000000000000000000000000000000000000000000600052601260045260246000fd5b7f4e487b7100000000000000000000000000000000000000000000000000000000600052602160045260246000fd5b7f42696420616d6f756e7420697320686967686572207468616e2072656d61696e60008201527f696e6720616d6f756e742e000000000000000000000000000000000000000000602082015250565b7f436f756c64206e6f742073656e64207468652066756e647320746f207468652060008201527f70726f6a656374206f66666572696e677320616464726573732e000000000000602082015250565b7f426964646572206973206e6f7420656c696769626c652e000000000000000000600082015250565b7f4672616374696f6e616c20746f6b656e7320617265206e6f74206d696e74656460008201527f20746f2044757463682061756374696f6e206163636f756e742e000000000000602082015250565b7f41756374696f6e206973206e6f74206c6976652e000000000000000000000000600082015250565b7f4f776e6572206973206e6f7420616c6c6f77656420746f206269640000000000600082015250565b7f41756374696f6e20697320616c726561647920737461727465642e0000000000600082015250565b7f54686973206d6574686f642063616e206f6e6c792062652063616c6c6564206260008201527f79206f776e657200000000000000000000000000000000000000000000000000602082015250565b7f4269642076616c7565206973206c657373207468616e2063757272656e74207060008201527f726963652e000000000000000000000000000000000000000000000000000000602082015250565b60038110611aaa57611aa961183b565b5b50565b611ab6816116e6565b8114611ac157600080fd5b50565b611acd8161170a565b8114611ad857600080fd5b50565b611ae481611757565b8114611aef57600080fd5b50565b611afb81611761565b8114611b0657600080fd5b5056fea2646970667358221220a423319b15a2a69b846e5fae6309e405ebddc719fb0c88fe746a117a036586e564736f6c63430008040033",
  "linkReferences": {},
  "deployedLinkReferences": {}
}