{
  "_format": "hh-sol-artifact-1",
  "contractName": "FaroMarketplace",
  "sourceName": "contracts/FaroNFTs/FaroMarketplace.sol",
  "abi": [
    {
      "inputs": [
        {
          "internalType": "address",
          "name": "_faroNFTFactory",
          "type": "address"
        },
        {
          "internalType": "address",
          "name": "_faroEnglishAuction",
          "type": "address"
        }
      ],
      "stateMutability": "nonpayable",
      "type": "constructor"
    },
    {
      "inputs": [
        {
          "internalType": "address",
          "name": "_token",
          "type": "address"
        },
        {
          "internalType": "uint256",
          "name": "_tokenId",
          "type": "uint256"
        },
        {
          "internalType": "address",
          "name": "_owner",
          "type": "address"
        }
      ],
      "name": "offer",
      "outputs": [
        {
          "internalType": "bool",
          "name": "",
          "type": "bool"
        }
      ],
      "stateMutability": "payable",
      "type": "function"
    },
    {
      "inputs": [
        {
          "internalType": "address",
          "name": "_token",
          "type": "address"
        },
        {
          "internalType": "uint256",
          "name": "_floorPrice",
          "type": "uint256"
        },
        {
          "internalType": "uint256",
          "name": "_tokenId",
          "type": "uint256"
        }
      ],
      "name": "registerNFTItem",
      "outputs": [],
      "stateMutability": "nonpayable",
      "type": "function"
    },
    {
      "inputs": [
        {
          "internalType": "address",
          "name": "_token",
          "type": "address"
        },
        {
          "internalType": "uint256",
          "name": "_tokenId",
          "type": "uint256"
        },
        {
          "internalType": "address",
          "name": "_owner",
          "type": "address"
        }
      ],
      "name": "withdrawItem",
      "outputs": [],
      "stateMutability": "nonpayable",
      "type": "function"
    },
    {
      "inputs": [
        {
          "internalType": "address",
          "name": "_token",
          "type": "address"
        },
        {
          "internalType": "uint256",
          "name": "_tokenId",
          "type": "uint256"
        },
        {
          "internalType": "address",
          "name": "_owner",
          "type": "address"
        }
      ],
      "name": "withdrawPaidAmount",
      "outputs": [],
      "stateMutability": "nonpayable",
      "type": "function"
    }
  ],
  "bytecode": "0x60806040523480156200001157600080fd5b50604051620021af380380620021af83398181016040528101906200003791906200032c565b81600160006101000a81548173ffffffffffffffffffffffffffffffffffffffff021916908373ffffffffffffffffffffffffffffffffffffffff16021790555080600260006101000a81548173ffffffffffffffffffffffffffffffffffffffff021916908373ffffffffffffffffffffffffffffffffffffffff160217905550600260009054906101000a900473ffffffffffffffffffffffffffffffffffffffff1673ffffffffffffffffffffffffffffffffffffffff16638da5cb5b6040518163ffffffff1660e01b815260040160206040518083038186803b1580156200012257600080fd5b505afa15801562000137573d6000803e3d6000fd5b505050506040513d601f19601f820116820180604052508101906200015d919062000300565b73ffffffffffffffffffffffffffffffffffffffff163373ffffffffffffffffffffffffffffffffffffffff1614620001cd576040517f08c379a0000000000000000000000000000000000000000000000000000000008152600401620001c490620003bb565b60405180910390fd5b600160009054906101000a900473ffffffffffffffffffffffffffffffffffffffff1673ffffffffffffffffffffffffffffffffffffffff16638da5cb5b6040518163ffffffff1660e01b815260040160206040518083038186803b1580156200023657600080fd5b505afa1580156200024b573d6000803e3d6000fd5b505050506040513d601f19601f8201168201806040525081019062000271919062000300565b73ffffffffffffffffffffffffffffffffffffffff163373ffffffffffffffffffffffffffffffffffffffff1614620002e1576040517f08c379a0000000000000000000000000000000000000000000000000000000008152600401620002d890620003dd565b60405180910390fd5b5050620004fc565b600081519050620002fa81620004e2565b92915050565b6000602082840312156200031357600080fd5b60006200032384828501620002e9565b91505092915050565b600080604083850312156200034057600080fd5b60006200035085828601620002e9565b92505060206200036385828601620002e9565b9150509250929050565b60006200037c604083620003ff565b9150620003898262000444565b604082019050919050565b6000620003a3603983620003ff565b9150620003b08262000493565b604082019050919050565b60006020820190508181036000830152620003d6816200036d565b9050919050565b60006020820190508181036000830152620003f88162000394565b9050919050565b600082825260208201905092915050565b60006200041d8262000424565b9050919050565b600073ffffffffffffffffffffffffffffffffffffffff82169050919050565b7f4d61726b6574706c6163652063726561746f72206d757374206265207468652060008201527f6f776e6572206f6620456e676c6973682061756374696f6e20666163746f7279602082015250565b7f4d61726b6574706c6163652063726561746f72206d757374206265207468652060008201527f6f776e6572206f66204661726f204e465420666163746f727900000000000000602082015250565b620004ed8162000410565b8114620004f957600080fd5b50565b611ca3806200050c6000396000f3fe60806040526004361061003f5760003560e01c80633d755508146100445780634dc6acc81461006d578063b004a16c14610096578063dce9c861146100bf575b600080fd5b34801561005057600080fd5b5061006b6004803603810190610066919061162c565b6100ef565b005b34801561007957600080fd5b50610094600480360381019061008f919061167b565b61072b565b005b3480156100a257600080fd5b506100bd60048036038101906100b8919061162c565b610c22565b005b6100d960048036038101906100d4919061162c565b610ef3565b6040516100e691906118ad565b60405180910390f35b60008060008373ffffffffffffffffffffffffffffffffffffffff1673ffffffffffffffffffffffffffffffffffffffff16815260200190815260200160002060008573ffffffffffffffffffffffffffffffffffffffff1673ffffffffffffffffffffffffffffffffffffffff16815260200190815260200160002060008481526020019081526020016000206040518060e00160405290816000820160009054906101000a900473ffffffffffffffffffffffffffffffffffffffff1673ffffffffffffffffffffffffffffffffffffffff1673ffffffffffffffffffffffffffffffffffffffff1681526020016001820160009054906101000a900473ffffffffffffffffffffffffffffffffffffffff1673ffffffffffffffffffffffffffffffffffffffff1673ffffffffffffffffffffffffffffffffffffffff1681526020016002820160009054906101000a900473ffffffffffffffffffffffffffffffffffffffff1673ffffffffffffffffffffffffffffffffffffffff1673ffffffffffffffffffffffffffffffffffffffff16815260200160038201548152602001600482015481526020016005820160009054906101000a900460ff1660038111156102e9577f4e487b7100000000000000000000000000000000000000000000000000000000600052602160045260246000fd5b6003811115610321577f4e487b7100000000000000000000000000000000000000000000000000000000600052602160045260246000fd5b81526020016005820160019054906101000a900460ff16151515158152505090506002600381111561037c577f4e487b7100000000000000000000000000000000000000000000000000000000600052602160045260246000fd5b8160a0015160038111156103b9577f4e487b7100000000000000000000000000000000000000000000000000000000600052602160045260246000fd5b146103f9576040517f08c379a00000000000000000000000000000000000000000000000000000000081526004016103f090611928565b60405180910390fd5b3373ffffffffffffffffffffffffffffffffffffffff16816040015173ffffffffffffffffffffffffffffffffffffffff161461046b576040517f08c379a0000000000000000000000000000000000000000000000000000000008152600401610462906118c8565b60405180910390fd5b600015158160c001511515146104b6576040517f08c379a00000000000000000000000000000000000000000000000000000000081526004016104ad90611968565b60405180910390fd5b60018160c0019015159081151581525050806000808473ffffffffffffffffffffffffffffffffffffffff1673ffffffffffffffffffffffffffffffffffffffff16815260200190815260200160002060008673ffffffffffffffffffffffffffffffffffffffff1673ffffffffffffffffffffffffffffffffffffffff168152602001908152602001600020600085815260200190815260200160002060008201518160000160006101000a81548173ffffffffffffffffffffffffffffffffffffffff021916908373ffffffffffffffffffffffffffffffffffffffff16021790555060208201518160010160006101000a81548173ffffffffffffffffffffffffffffffffffffffff021916908373ffffffffffffffffffffffffffffffffffffffff16021790555060408201518160020160006101000a81548173ffffffffffffffffffffffffffffffffffffffff021916908373ffffffffffffffffffffffffffffffffffffffff160217905550606082015181600301556080820151816004015560a08201518160050160006101000a81548160ff0219169083600381111561068e577f4e487b7100000000000000000000000000000000000000000000000000000000600052602160045260246000fd5b021790555060c08201518160050160016101000a81548160ff0219169083151502179055509050508373ffffffffffffffffffffffffffffffffffffffff166323b872dd3033866040518463ffffffff1660e01b81526004016106f393929190611876565b600060405180830381600087803b15801561070d57600080fd5b505af1158015610721573d6000803e3d6000fd5b5050505050505050565b6000600160009054906101000a900473ffffffffffffffffffffffffffffffffffffffff1673ffffffffffffffffffffffffffffffffffffffff1663781834ee856040518263ffffffff1660e01b8152600401610788919061185b565b60206040518083038186803b1580156107a057600080fd5b505afa1580156107b4573d6000803e3d6000fd5b505050506040513d601f19601f820116820180604052508101906107d891906116ca565b11610818576040517f08c379a000000000000000000000000000000000000000000000000000000000815260040161080f90611988565b60405180910390fd5b3373ffffffffffffffffffffffffffffffffffffffff168373ffffffffffffffffffffffffffffffffffffffff16636352211e836040518263ffffffff1660e01b815260040161086891906119e8565b60206040518083038186803b15801561088057600080fd5b505afa158015610894573d6000803e3d6000fd5b505050506040513d601f19601f820116820180604052508101906108b89190611603565b73ffffffffffffffffffffffffffffffffffffffff161461090e576040517f08c379a000000000000000000000000000000000000000000000000000000000815260040161090590611948565b60405180910390fd5b6040518060e001604052808473ffffffffffffffffffffffffffffffffffffffff1681526020013373ffffffffffffffffffffffffffffffffffffffff168152602001600073ffffffffffffffffffffffffffffffffffffffff168152602001838152602001828152602001600060038111156109b4577f4e487b7100000000000000000000000000000000000000000000000000000000600052602160045260246000fd5b8152602001600015158152506000803373ffffffffffffffffffffffffffffffffffffffff1673ffffffffffffffffffffffffffffffffffffffff16815260200190815260200160002060008573ffffffffffffffffffffffffffffffffffffffff1673ffffffffffffffffffffffffffffffffffffffff168152602001908152602001600020600083815260200190815260200160002060008201518160000160006101000a81548173ffffffffffffffffffffffffffffffffffffffff021916908373ffffffffffffffffffffffffffffffffffffffff16021790555060208201518160010160006101000a81548173ffffffffffffffffffffffffffffffffffffffff021916908373ffffffffffffffffffffffffffffffffffffffff16021790555060408201518160020160006101000a81548173ffffffffffffffffffffffffffffffffffffffff021916908373ffffffffffffffffffffffffffffffffffffffff160217905550606082015181600301556080820151816004015560a08201518160050160006101000a81548160ff02191690836003811115610b86577f4e487b7100000000000000000000000000000000000000000000000000000000600052602160045260246000fd5b021790555060c08201518160050160016101000a81548160ff0219169083151502179055509050508273ffffffffffffffffffffffffffffffffffffffff166323b872dd3330846040518463ffffffff1660e01b8152600401610beb93929190611876565b600060405180830381600087803b158015610c0557600080fd5b505af1158015610c19573d6000803e3d6000fd5b50505050505050565b60008060008373ffffffffffffffffffffffffffffffffffffffff1673ffffffffffffffffffffffffffffffffffffffff16815260200190815260200160002060008573ffffffffffffffffffffffffffffffffffffffff1673ffffffffffffffffffffffffffffffffffffffff16815260200190815260200160002060008481526020019081526020016000206040518060e00160405290816000820160009054906101000a900473ffffffffffffffffffffffffffffffffffffffff1673ffffffffffffffffffffffffffffffffffffffff1673ffffffffffffffffffffffffffffffffffffffff1681526020016001820160009054906101000a900473ffffffffffffffffffffffffffffffffffffffff1673ffffffffffffffffffffffffffffffffffffffff1673ffffffffffffffffffffffffffffffffffffffff1681526020016002820160009054906101000a900473ffffffffffffffffffffffffffffffffffffffff1673ffffffffffffffffffffffffffffffffffffffff1673ffffffffffffffffffffffffffffffffffffffff16815260200160038201548152602001600482015481526020016005820160009054906101000a900460ff166003811115610e1c577f4e487b7100000000000000000000000000000000000000000000000000000000600052602160045260246000fd5b6003811115610e54577f4e487b7100000000000000000000000000000000000000000000000000000000600052602160045260246000fd5b81526020016005820160019054906101000a900460ff16151515158152505090508173ffffffffffffffffffffffffffffffffffffffff166108fc82606001519081150290604051600060405180830381858888f19350505050610eed576040517f08c379a0000000000000000000000000000000000000000000000000000000008152600401610ee490611908565b60405180910390fd5b50505050565b6000806000808473ffffffffffffffffffffffffffffffffffffffff1673ffffffffffffffffffffffffffffffffffffffff16815260200190815260200160002060008673ffffffffffffffffffffffffffffffffffffffff1673ffffffffffffffffffffffffffffffffffffffff16815260200190815260200160002060008581526020019081526020016000206040518060e00160405290816000820160009054906101000a900473ffffffffffffffffffffffffffffffffffffffff1673ffffffffffffffffffffffffffffffffffffffff1673ffffffffffffffffffffffffffffffffffffffff1681526020016001820160009054906101000a900473ffffffffffffffffffffffffffffffffffffffff1673ffffffffffffffffffffffffffffffffffffffff1673ffffffffffffffffffffffffffffffffffffffff1681526020016002820160009054906101000a900473ffffffffffffffffffffffffffffffffffffffff1673ffffffffffffffffffffffffffffffffffffffff1673ffffffffffffffffffffffffffffffffffffffff16815260200160038201548152602001600482015481526020016005820160009054906101000a900460ff1660038111156110ee577f4e487b7100000000000000000000000000000000000000000000000000000000600052602160045260246000fd5b6003811115611126577f4e487b7100000000000000000000000000000000000000000000000000000000600052602160045260246000fd5b81526020016005820160019054906101000a900460ff161515151581525050905060006003811115611181577f4e487b7100000000000000000000000000000000000000000000000000000000600052602160045260246000fd5b8160a0015160038111156111be577f4e487b7100000000000000000000000000000000000000000000000000000000600052602160045260246000fd5b146111fe576040517f08c379a00000000000000000000000000000000000000000000000000000000081526004016111f5906119a8565b60405180910390fd5b806020015173ffffffffffffffffffffffffffffffffffffffff163373ffffffffffffffffffffffffffffffffffffffff161415611271576040517f08c379a0000000000000000000000000000000000000000000000000000000008152600401611268906119c8565b60405180910390fd5b806060015134106115a25760028160a0019060038111156112bb577f4e487b7100000000000000000000000000000000000000000000000000000000600052602160045260246000fd5b908160038111156112f5577f4e487b7100000000000000000000000000000000000000000000000000000000600052602160045260246000fd5b8152505033816040019073ffffffffffffffffffffffffffffffffffffffff16908173ffffffffffffffffffffffffffffffffffffffff1681525050806000808573ffffffffffffffffffffffffffffffffffffffff1673ffffffffffffffffffffffffffffffffffffffff16815260200190815260200160002060008773ffffffffffffffffffffffffffffffffffffffff1673ffffffffffffffffffffffffffffffffffffffff168152602001908152602001600020600086815260200190815260200160002060008201518160000160006101000a81548173ffffffffffffffffffffffffffffffffffffffff021916908373ffffffffffffffffffffffffffffffffffffffff16021790555060208201518160010160006101000a81548173ffffffffffffffffffffffffffffffffffffffff021916908373ffffffffffffffffffffffffffffffffffffffff16021790555060408201518160020160006101000a81548173ffffffffffffffffffffffffffffffffffffffff021916908373ffffffffffffffffffffffffffffffffffffffff160217905550606082015181600301556080820151816004015560a08201518160050160006101000a81548160ff021916908360038111156114f8577f4e487b7100000000000000000000000000000000000000000000000000000000600052602160045260246000fd5b021790555060c08201518160050160016101000a81548160ff0219169083151502179055509050503073ffffffffffffffffffffffffffffffffffffffff166108fc82606001519081150290604051600060405180830381858888f19350505050611598576040517f08c379a000000000000000000000000000000000000000000000000000000000815260040161158f906118e8565b60405180910390fd5b60019150506115a8565b60009150505b9392505050565b6000813590506115be81611c3f565b92915050565b6000815190506115d381611c3f565b92915050565b6000813590506115e881611c56565b92915050565b6000815190506115fd81611c56565b92915050565b60006020828403121561161557600080fd5b6000611623848285016115c4565b91505092915050565b60008060006060848603121561164157600080fd5b600061164f868287016115af565b9350506020611660868287016115d9565b9250506040611671868287016115af565b9150509250925092565b60008060006060848603121561169057600080fd5b600061169e868287016115af565b93505060206116af868287016115d9565b92505060406116c0868287016115d9565b9150509250925092565b6000602082840312156116dc57600080fd5b60006116ea848285016115ee565b91505092915050565b6116fc81611a14565b82525050565b61170b81611a26565b82525050565b600061171e603983611a03565b915061172982611a5c565b604082019050919050565b6000611741601e83611a03565b915061174c82611aab565b602082019050919050565b6000611764603283611a03565b915061176f82611ad4565b604082019050919050565b6000611787601283611a03565b915061179282611b23565b602082019050919050565b60006117aa603783611a03565b91506117b582611b4c565b604082019050919050565b60006117cd601a83611a03565b91506117d882611b9b565b602082019050919050565b60006117f0601183611a03565b91506117fb82611bc4565b602082019050919050565b6000611813601583611a03565b915061181e82611bed565b602082019050919050565b6000611836601183611a03565b915061184182611c16565b602082019050919050565b61185581611a52565b82525050565b600060208201905061187060008301846116f3565b92915050565b600060608201905061188b60008301866116f3565b61189860208301856116f3565b6118a5604083018461184c565b949350505050565b60006020820190506118c26000830184611702565b92915050565b600060208201905081810360008301526118e181611711565b9050919050565b6000602082019050818103600083015261190181611734565b9050919050565b6000602082019050818103600083015261192181611757565b9050919050565b600060208201905081810360008301526119418161177a565b9050919050565b600060208201905081810360008301526119618161179d565b9050919050565b60006020820190508181036000830152611981816117c0565b9050919050565b600060208201905081810360008301526119a1816117e3565b9050919050565b600060208201905081810360008301526119c181611806565b9050919050565b600060208201905081810360008301526119e181611829565b9050919050565b60006020820190506119fd600083018461184c565b92915050565b600082825260208201905092915050565b6000611a1f82611a32565b9050919050565b60008115159050919050565b600073ffffffffffffffffffffffffffffffffffffffff82169050919050565b6000819050919050565b7f556e617574686f72697a6564207769746864726177616c20617474656d70742c60008201527f206d73672e73656e646572206973206e6f742077696e6e657200000000000000602082015250565b7f5472616e7366657220616d6f756e74206e6f74207375636365737366756c0000600082015250565b7f5472616e736665722066726f6d2074686520636f6e747261637420746f206f7760008201527f6e6572206e6f74207375636365737366756c0000000000000000000000000000602082015250565b7f53616c65206973207374696c6c206c6976650000000000000000000000000000600082015250565b7f41756374696f6e2063616e206f6e6c79206265206465706c6f7965642062792060008201527f746865206f776e6572206f662074686520746f6b656e2e000000000000000000602082015250565b7f4974656d2077617320616c72656164792077697468647261776e000000000000600082015250565b7f4973206e6f742061204641524f204e4654000000000000000000000000000000600082015250565b7f4974656d206973206e6f7420666f722073616c652e0000000000000000000000600082015250565b7f4f776e65722063616e6e6f74206269642e000000000000000000000000000000600082015250565b611c4881611a14565b8114611c5357600080fd5b50565b611c5f81611a52565b8114611c6a57600080fd5b5056fea26469706673582212204924dd9b8742041eb44495d35804173e8495b318c689b5c5d9cc88e16ebaf38864736f6c63430008040033",
  "linkReferences": {},
  "deployedLinkReferences": {}
}