{
  "_format": "hh-sol-artifact-1",
  "contractName": "FaroOwnershipFactory",
  "sourceName": "contracts/Funding/FaroOwnershipFactory.sol",
  "abi": [
    {
      "anonymous": false,
      "inputs": [
        {
          "indexed": true,
          "internalType": "address",
          "name": "token",
          "type": "address"
        }
      ],
      "name": "OwnershipCreated",
      "type": "event"
    },
    {
      "anonymous": false,
      "inputs": [
        {
          "indexed": true,
          "internalType": "address",
          "name": "previousOwner",
          "type": "address"
        },
        {
          "indexed": true,
          "internalType": "address",
          "name": "newOwner",
          "type": "address"
        }
      ],
      "name": "OwnershipTransferred",
      "type": "event"
    },
    {
      "anonymous": false,
      "inputs": [
        {
          "indexed": false,
          "internalType": "address",
          "name": "account",
          "type": "address"
        }
      ],
      "name": "Paused",
      "type": "event"
    },
    {
      "anonymous": false,
      "inputs": [
        {
          "indexed": false,
          "internalType": "address",
          "name": "account",
          "type": "address"
        }
      ],
      "name": "Unpaused",
      "type": "event"
    },
    {
      "inputs": [
        {
          "internalType": "bytes32",
          "name": "",
          "type": "bytes32"
        }
      ],
      "name": "agreementUriChecks",
      "outputs": [
        {
          "internalType": "bool",
          "name": "",
          "type": "bool"
        }
      ],
      "stateMutability": "view",
      "type": "function"
    },
    {
      "inputs": [
        {
          "internalType": "string",
          "name": "_contentName",
          "type": "string"
        },
        {
          "internalType": "string",
          "name": "_symbol",
          "type": "string"
        },
        {
          "internalType": "string",
          "name": "_agreementUri",
          "type": "string"
        },
        {
          "internalType": "address",
          "name": "ownerAddress",
          "type": "address"
        }
      ],
      "name": "createOwnership",
      "outputs": [
        {
          "internalType": "uint256",
          "name": "",
          "type": "uint256"
        }
      ],
      "stateMutability": "nonpayable",
      "type": "function"
    },
    {
      "inputs": [],
      "name": "getLastOwnership",
      "outputs": [
        {
          "internalType": "address",
          "name": "",
          "type": "address"
        }
      ],
      "stateMutability": "view",
      "type": "function"
    },
    {
      "inputs": [],
      "name": "getNumOfTokens",
      "outputs": [
        {
          "internalType": "uint256",
          "name": "",
          "type": "uint256"
        }
      ],
      "stateMutability": "view",
      "type": "function"
    },
    {
      "inputs": [
        {
          "internalType": "uint256",
          "name": "ownershipNum",
          "type": "uint256"
        }
      ],
      "name": "getOwnership",
      "outputs": [
        {
          "internalType": "address",
          "name": "",
          "type": "address"
        }
      ],
      "stateMutability": "view",
      "type": "function"
    },
    {
      "inputs": [],
      "name": "owner",
      "outputs": [
        {
          "internalType": "address",
          "name": "",
          "type": "address"
        }
      ],
      "stateMutability": "view",
      "type": "function"
    },
    {
      "inputs": [
        {
          "internalType": "uint256",
          "name": "",
          "type": "uint256"
        }
      ],
      "name": "ownerships",
      "outputs": [
        {
          "internalType": "address",
          "name": "",
          "type": "address"
        }
      ],
      "stateMutability": "view",
      "type": "function"
    },
    {
      "inputs": [],
      "name": "pause",
      "outputs": [],
      "stateMutability": "nonpayable",
      "type": "function"
    },
    {
      "inputs": [],
      "name": "paused",
      "outputs": [
        {
          "internalType": "bool",
          "name": "",
          "type": "bool"
        }
      ],
      "stateMutability": "view",
      "type": "function"
    },
    {
      "inputs": [],
      "name": "renounceOwnership",
      "outputs": [],
      "stateMutability": "nonpayable",
      "type": "function"
    },
    {
      "inputs": [
        {
          "internalType": "address",
          "name": "newOwner",
          "type": "address"
        }
      ],
      "name": "transferOwnership",
      "outputs": [],
      "stateMutability": "nonpayable",
      "type": "function"
    },
    {
      "inputs": [],
      "name": "unpause",
      "outputs": [],
      "stateMutability": "nonpayable",
      "type": "function"
    }
  ],
  "bytecode": "0x608060405234801561001057600080fd5b5061002d61002261004c60201b60201c565b61005460201b60201c565b60008060146101000a81548160ff021916908315150217905550610118565b600033905090565b60008060009054906101000a900473ffffffffffffffffffffffffffffffffffffffff169050816000806101000a81548173ffffffffffffffffffffffffffffffffffffffff021916908373ffffffffffffffffffffffffffffffffffffffff1602179055508173ffffffffffffffffffffffffffffffffffffffff168173ffffffffffffffffffffffffffffffffffffffff167f8be0079c531659141344cd1fd0a4f28419497f9722a3daafe3b4186f6b6457e060405160405180910390a35050565b61429c806101276000396000f3fe60806040523480156200001157600080fd5b5060043610620000c45760003560e01c80638456cb59116200007b5780638456cb5914620001915780638da5cb5b146200019d578063a3c1615414620001bf578063cfe4060e14620001e1578063f2fde38b1462000217578063f9df688c146200023757620000c4565b80633acefa2014620000c95780633f4ba83a14620000ff57806351240971146200010b5780635c975abb146200012d578063704044dc146200014f578063715018a61462000185575b600080fd5b620000e76004803603810190620000e1919062000e08565b6200026d565b604051620000f6919062000fe2565b60405180910390f35b62000109620002ad565b005b620001156200033c565b6040516200012491906200113a565b60405180910390f35b6200013762000346565b60405162000146919062000fff565b60405180910390f35b6200016d600480360381019062000167919062000e08565b6200035c565b6040516200017c919062000fe2565b60405180910390f35b6200018f620003cb565b005b6200019b6200045c565b005b620001a7620004eb565b604051620001b6919062000fe2565b60405180910390f35b620001c962000514565b604051620001d8919062000fe2565b60405180910390f35b620001ff6004803603810190620001f9919062000d51565b620005da565b6040516200020e91906200113a565b60405180910390f35b6200023560048036038101906200022f919062000cf9565b620008ee565b005b6200025560048036038101906200024f919062000d25565b620009f2565b60405162000264919062000fff565b60405180910390f35b600281815481106200027e57600080fd5b906000526020600020016000915054906101000a900473ffffffffffffffffffffffffffffffffffffffff1681565b620002b762000a12565b73ffffffffffffffffffffffffffffffffffffffff16620002d7620004eb565b73ffffffffffffffffffffffffffffffffffffffff161462000330576040517f08c379a0000000000000000000000000000000000000000000000000000000008152600401620003279062001118565b60405180910390fd5b6200033a62000a1a565b565b6000600154905090565b60008060149054906101000a900460ff16905090565b60006002828154811062000399577f4e487b7100000000000000000000000000000000000000000000000000000000600052603260045260246000fd5b9060005260206000200160009054906101000a900473ffffffffffffffffffffffffffffffffffffffff169050919050565b620003d562000a12565b73ffffffffffffffffffffffffffffffffffffffff16620003f5620004eb565b73ffffffffffffffffffffffffffffffffffffffff16146200044e576040517f08c379a0000000000000000000000000000000000000000000000000000000008152600401620004459062001118565b60405180910390fd5b6200045a600062000ac4565b565b6200046662000a12565b73ffffffffffffffffffffffffffffffffffffffff1662000486620004eb565b73ffffffffffffffffffffffffffffffffffffffff1614620004df576040517f08c379a0000000000000000000000000000000000000000000000000000000008152600401620004d69062001118565b60405180910390fd5b620004e962000b88565b565b60008060009054906101000a900473ffffffffffffffffffffffffffffffffffffffff16905090565b6000806002805490501162000560576040517f08c379a000000000000000000000000000000000000000000000000000000000815260040162000557906200106e565b60405180910390fd5b600260018054620005729190620011dd565b81548110620005aa577f4e487b7100000000000000000000000000000000000000000000000000000000600052603260045260246000fd5b9060005260206000200160009054906101000a900473ffffffffffffffffffffffffffffffffffffffff16905090565b6000620005e662000a12565b73ffffffffffffffffffffffffffffffffffffffff1662000606620004eb565b73ffffffffffffffffffffffffffffffffffffffff16146200065f576040517f08c379a0000000000000000000000000000000000000000000000000000000008152600401620006569062001118565b60405180910390fd5b6200066962000346565b15620006ac576040517f08c379a0000000000000000000000000000000000000000000000000000000008152600401620006a390620010f6565b60405180910390fd5b600083604051602001620006c1919062000fc9565b6040516020818303038152906040528051906020012090506003600082815260200190815260200160002060009054906101000a900460ff16156200073d576040517f08c379a00000000000000000000000000000000000000000000000000000000081526004016200073490620010d4565b60405180910390fd5b60016003600083815260200190815260200160002060006101000a81548160ff02191690831515021790555060008686866040516200077c9062000c34565b6200078a939291906200101c565b604051809103906000f080158015620007a7573d6000803e3d6000fd5b5090508073ffffffffffffffffffffffffffffffffffffffff16636a627842856040518263ffffffff1660e01b8152600401620007e5919062000fe2565b600060405180830381600087803b1580156200080057600080fd5b505af115801562000815573d6000803e3d6000fd5b5050505060008190506002819080600181540180825580915050600190039060005260206000200160009091909190916101000a81548173ffffffffffffffffffffffffffffffffffffffff021916908373ffffffffffffffffffffffffffffffffffffffff160217905550600160008154809291906200089690620012e7565b91905055508073ffffffffffffffffffffffffffffffffffffffff167f66f4a3a231591d90af521381592abc06fd4543a9e471cb11bce3ab0f5cf245b360405160405180910390a26001549350505050949350505050565b620008f862000a12565b73ffffffffffffffffffffffffffffffffffffffff1662000918620004eb565b73ffffffffffffffffffffffffffffffffffffffff161462000971576040517f08c379a0000000000000000000000000000000000000000000000000000000008152600401620009689062001118565b60405180910390fd5b600073ffffffffffffffffffffffffffffffffffffffff168173ffffffffffffffffffffffffffffffffffffffff161415620009e4576040517f08c379a0000000000000000000000000000000000000000000000000000000008152600401620009db90620010b2565b60405180910390fd5b620009ef8162000ac4565b50565b60036020528060005260406000206000915054906101000a900460ff1681565b600033905090565b62000a2462000346565b62000a66576040517f08c379a000000000000000000000000000000000000000000000000000000000815260040162000a5d9062001090565b60405180910390fd5b60008060146101000a81548160ff0219169083151502179055507f5db9ee0a495bf2e6ff9c91a7834c1ba4fdd244a5e8aa4e537bd38aeae4b073aa62000aab62000a12565b60405162000aba919062000fe2565b60405180910390a1565b60008060009054906101000a900473ffffffffffffffffffffffffffffffffffffffff169050816000806101000a81548173ffffffffffffffffffffffffffffffffffffffff021916908373ffffffffffffffffffffffffffffffffffffffff1602179055508173ffffffffffffffffffffffffffffffffffffffff168173ffffffffffffffffffffffffffffffffffffffff167f8be0079c531659141344cd1fd0a4f28419497f9722a3daafe3b4186f6b6457e060405160405180910390a35050565b62000b9262000346565b1562000bd5576040517f08c379a000000000000000000000000000000000000000000000000000000000815260040162000bcc90620010f6565b60405180910390fd5b6001600060146101000a81548160ff0219169083151502179055507f62e78cea01bee320cd4e420270b5ea74000d11b0c9f74754ebdbfc544b05a25862000c1b62000a12565b60405162000c2a919062000fe2565b60405180910390a1565b612d0c806200155b83390190565b600062000c5962000c538462001180565b62001157565b90508281526020810184848401111562000c7257600080fd5b62000c7f8482856200126c565b509392505050565b60008135905062000c98816200150c565b92915050565b60008135905062000caf8162001526565b92915050565b600082601f83011262000cc757600080fd5b813562000cd984826020860162000c42565b91505092915050565b60008135905062000cf38162001540565b92915050565b60006020828403121562000d0c57600080fd5b600062000d1c8482850162000c87565b91505092915050565b60006020828403121562000d3857600080fd5b600062000d488482850162000c9e565b91505092915050565b6000806000806080858703121562000d6857600080fd5b600085013567ffffffffffffffff81111562000d8357600080fd5b62000d918782880162000cb5565b945050602085013567ffffffffffffffff81111562000daf57600080fd5b62000dbd8782880162000cb5565b935050604085013567ffffffffffffffff81111562000ddb57600080fd5b62000de98782880162000cb5565b925050606062000dfc8782880162000c87565b91505092959194509250565b60006020828403121562000e1b57600080fd5b600062000e2b8482850162000ce2565b91505092915050565b62000e3f8162001218565b82525050565b62000e50816200122c565b82525050565b600062000e6382620011b6565b62000e6f8185620011c1565b935062000e818185602086016200127b565b62000e8c8162001393565b840191505092915050565b600062000ea482620011b6565b62000eb08185620011d2565b935062000ec28185602086016200127b565b80840191505092915050565b600062000edd602383620011c1565b915062000eea82620013a4565b604082019050919050565b600062000f04601483620011c1565b915062000f1182620013f3565b602082019050919050565b600062000f2b602683620011c1565b915062000f38826200141c565b604082019050919050565b600062000f52603483620011c1565b915062000f5f826200146b565b604082019050919050565b600062000f79601083620011c1565b915062000f8682620014ba565b602082019050919050565b600062000fa0602083620011c1565b915062000fad82620014e3565b602082019050919050565b62000fc38162001262565b82525050565b600062000fd7828462000e97565b915081905092915050565b600060208201905062000ff9600083018462000e34565b92915050565b600060208201905062001016600083018462000e45565b92915050565b6000606082019050818103600083015262001038818662000e56565b905081810360208301526200104e818562000e56565b9050818103604083015262001064818462000e56565b9050949350505050565b60006020820190508181036000830152620010898162000ece565b9050919050565b60006020820190508181036000830152620010ab8162000ef5565b9050919050565b60006020820190508181036000830152620010cd8162000f1c565b9050919050565b60006020820190508181036000830152620010ef8162000f43565b9050919050565b60006020820190508181036000830152620011118162000f6a565b9050919050565b60006020820190508181036000830152620011338162000f91565b9050919050565b600060208201905062001151600083018462000fb8565b92915050565b60006200116362001176565b9050620011718282620012b1565b919050565b6000604051905090565b600067ffffffffffffffff8211156200119e576200119d62001364565b5b620011a98262001393565b9050602081019050919050565b600081519050919050565b600082825260208201905092915050565b600081905092915050565b6000620011ea8262001262565b9150620011f78362001262565b9250828210156200120d576200120c62001335565b5b828203905092915050565b6000620012258262001242565b9050919050565b60008115159050919050565b6000819050919050565b600073ffffffffffffffffffffffffffffffffffffffff82169050919050565b6000819050919050565b82818337600083830152505050565b60005b838110156200129b5780820151818401526020810190506200127e565b83811115620012ab576000848401525b50505050565b620012bc8262001393565b810181811067ffffffffffffffff82111715620012de57620012dd62001364565b5b80604052505050565b6000620012f48262001262565b91507fffffffffffffffffffffffffffffffffffffffffffffffffffffffffffffffff8214156200132a576200132962001335565b5b600182019050919050565b7f4e487b7100000000000000000000000000000000000000000000000000000000600052601160045260246000fd5b7f4e487b7100000000000000000000000000000000000000000000000000000000600052604160045260246000fd5b6000601f19601f8301169050919050565b7f5468657265206172656e277420616e79206f776e65727368697073206372656160008201527f7465640000000000000000000000000000000000000000000000000000000000602082015250565b7f5061757361626c653a206e6f7420706175736564000000000000000000000000600082015250565b7f4f776e61626c653a206e6577206f776e657220697320746865207a65726f206160008201527f6464726573730000000000000000000000000000000000000000000000000000602082015250565b7f5468657265277320616c726561647920616e206f776e6572736869702077697460008201527f6820746869732061677265656d656e7420555249000000000000000000000000602082015250565b7f5061757361626c653a2070617573656400000000000000000000000000000000600082015250565b7f4f776e61626c653a2063616c6c6572206973206e6f7420746865206f776e6572600082015250565b620015178162001218565b81146200152357600080fd5b50565b620015318162001238565b81146200153d57600080fd5b50565b6200154b8162001262565b81146200155757600080fd5b5056fe60806040523480156200001157600080fd5b5060405162002d0c38038062002d0c8339818101604052810190620000379190620001f8565b8282816000908051906020019062000051929190620000d6565b5080600190805190602001906200006a929190620000d6565b5050506000815111620000b4576040517f08c379a0000000000000000000000000000000000000000000000000000000008152600401620000ab90620002c0565b60405180910390fd5b8060069080519060200190620000cc929190620000d6565b50505050620004b2565b828054620000e49062000388565b90600052602060002090601f01602090048101928262000108576000855562000154565b82601f106200012357805160ff191683800117855562000154565b8280016001018555821562000154579182015b828111156200015357825182559160200191906001019062000136565b5b50905062000163919062000167565b5090565b5b808211156200018257600081600090555060010162000168565b5090565b60006200019d62000197846200030b565b620002e2565b905082815260208101848484011115620001b657600080fd5b620001c384828562000352565b509392505050565b600082601f830112620001dd57600080fd5b8151620001ef84826020860162000186565b91505092915050565b6000806000606084860312156200020e57600080fd5b600084015167ffffffffffffffff8111156200022957600080fd5b6200023786828701620001cb565b935050602084015167ffffffffffffffff8111156200025557600080fd5b6200026386828701620001cb565b925050604084015167ffffffffffffffff8111156200028157600080fd5b6200028f86828701620001cb565b9150509250925092565b6000620002a860288362000341565b9150620002b58262000463565b604082019050919050565b60006020820190508181036000830152620002db8162000299565b9050919050565b6000620002ee62000301565b9050620002fc8282620003be565b919050565b6000604051905090565b600067ffffffffffffffff82111562000329576200032862000423565b5b620003348262000452565b9050602081019050919050565b600082825260208201905092915050565b60005b838110156200037257808201518184015260208101905062000355565b8381111562000382576000848401525b50505050565b60006002820490506001821680620003a157607f821691505b60208210811415620003b857620003b7620003f4565b5b50919050565b620003c98262000452565b810181811067ffffffffffffffff82111715620003eb57620003ea62000423565b5b80604052505050565b7f4e487b7100000000000000000000000000000000000000000000000000000000600052602260045260246000fd5b7f4e487b7100000000000000000000000000000000000000000000000000000000600052604160045260246000fd5b6000601f19601f8301169050919050565b7f4e65656420746f2070726f766964652074686520555249206f6620746865206160008201527f677265656d656e74000000000000000000000000000000000000000000000000602082015250565b61284a80620004c26000396000f3fe608060405234801561001057600080fd5b50600436106100f55760003560e01c80636352211e11610097578063a22cb46511610066578063a22cb46514610284578063b88d4fde146102a0578063c87b56dd146102bc578063e985e9c5146102ec576100f5565b80636352211e146101ea5780636a6278421461021a57806370a082311461023657806395d89b4114610266576100f5565b8063095ea7b3116100d3578063095ea7b31461017857806319bf674c1461019457806323b872dd146101b257806342842e0e146101ce576100f5565b806301ffc9a7146100fa57806306fdde031461012a578063081812fc14610148575b600080fd5b610114600480360381019061010f91906119ba565b61031c565b6040516101219190611d9d565b60405180910390f35b6101326103fe565b60405161013f9190611db8565b60405180910390f35b610162600480360381019061015d9190611a0c565b610490565b60405161016f9190611d36565b60405180910390f35b610192600480360381019061018d919061197e565b610515565b005b61019c61062d565b6040516101a99190611db8565b60405180910390f35b6101cc60048036038101906101c79190611878565b6106bf565b005b6101e860048036038101906101e39190611878565b61071f565b005b61020460048036038101906101ff9190611a0c565b61073f565b6040516102119190611d36565b60405180910390f35b610234600480360381019061022f9190611813565b6107f1565b005b610250600480360381019061024b9190611813565b61086a565b60405161025d9190611fba565b60405180910390f35b61026e610922565b60405161027b9190611db8565b60405180910390f35b61029e60048036038101906102999190611942565b6109b4565b005b6102ba60048036038101906102b591906118c7565b6109ca565b005b6102d660048036038101906102d19190611a0c565b610a2c565b6040516102e39190611db8565b60405180910390f35b6103066004803603810190610301919061183c565b610ad3565b6040516103139190611d9d565b60405180910390f35b60007f80ac58cd000000000000000000000000000000000000000000000000000000007bffffffffffffffffffffffffffffffffffffffffffffffffffffffff1916827bffffffffffffffffffffffffffffffffffffffffffffffffffffffff191614806103e757507f5b5e139f000000000000000000000000000000000000000000000000000000007bffffffffffffffffffffffffffffffffffffffffffffffffffffffff1916827bffffffffffffffffffffffffffffffffffffffffffffffffffffffff1916145b806103f757506103f682610b67565b5b9050919050565b60606000805461040d906121df565b80601f0160208091040260200160405190810160405280929190818152602001828054610439906121df565b80156104865780601f1061045b57610100808354040283529160200191610486565b820191906000526020600020905b81548152906001019060200180831161046957829003601f168201915b5050505050905090565b600061049b82610bd1565b6104da576040517f08c379a00000000000000000000000000000000000000000000000000000000081526004016104d190611f1a565b60405180910390fd5b6004600083815260200190815260200160002060009054906101000a900473ffffffffffffffffffffffffffffffffffffffff169050919050565b60006105208261073f565b90508073ffffffffffffffffffffffffffffffffffffffff168373ffffffffffffffffffffffffffffffffffffffff161415610591576040517f08c379a000000000000000000000000000000000000000000000000000000000815260040161058890611f7a565b60405180910390fd5b8073ffffffffffffffffffffffffffffffffffffffff166105b0610c3d565b73ffffffffffffffffffffffffffffffffffffffff1614806105df57506105de816105d9610c3d565b610ad3565b5b61061e576040517f08c379a000000000000000000000000000000000000000000000000000000000815260040161061590611e7a565b60405180910390fd5b6106288383610c45565b505050565b60606006805461063c906121df565b80601f0160208091040260200160405190810160405280929190818152602001828054610668906121df565b80156106b55780601f1061068a576101008083540402835291602001916106b5565b820191906000526020600020905b81548152906001019060200180831161069857829003601f168201915b5050505050905090565b6106d06106ca610c3d565b82610cfe565b61070f576040517f08c379a000000000000000000000000000000000000000000000000000000000815260040161070690611f9a565b60405180910390fd5b61071a838383610ddc565b505050565b61073a838383604051806020016040528060008152506109ca565b505050565b6000806002600084815260200190815260200160002060009054906101000a900473ffffffffffffffffffffffffffffffffffffffff169050600073ffffffffffffffffffffffffffffffffffffffff168173ffffffffffffffffffffffffffffffffffffffff1614156107e8576040517f08c379a00000000000000000000000000000000000000000000000000000000081526004016107df90611eba565b60405180910390fd5b80915050919050565b600760009054906101000a900460ff1615610841576040517f08c379a000000000000000000000000000000000000000000000000000000000815260040161083890611eda565b60405180910390fd5b6001600760006101000a81548160ff021916908315150217905550610867816001611038565b50565b60008073ffffffffffffffffffffffffffffffffffffffff168273ffffffffffffffffffffffffffffffffffffffff1614156108db576040517f08c379a00000000000000000000000000000000000000000000000000000000081526004016108d290611e9a565b60405180910390fd5b600360008373ffffffffffffffffffffffffffffffffffffffff1673ffffffffffffffffffffffffffffffffffffffff168152602001908152602001600020549050919050565b606060018054610931906121df565b80601f016020809104026020016040519081016040528092919081815260200182805461095d906121df565b80156109aa5780601f1061097f576101008083540402835291602001916109aa565b820191906000526020600020905b81548152906001019060200180831161098d57829003601f168201915b5050505050905090565b6109c66109bf610c3d565b8383611206565b5050565b6109db6109d5610c3d565b83610cfe565b610a1a576040517f08c379a0000000000000000000000000000000000000000000000000000000008152600401610a1190611f9a565b60405180910390fd5b610a2684848484611373565b50505050565b6060610a3782610bd1565b610a76576040517f08c379a0000000000000000000000000000000000000000000000000000000008152600401610a6d90611f5a565b60405180910390fd5b6000610a806113cf565b90506000815111610aa05760405180602001604052806000815250610acb565b80610aaa846113e6565b604051602001610abb929190611d12565b6040516020818303038152906040525b915050919050565b6000600560008473ffffffffffffffffffffffffffffffffffffffff1673ffffffffffffffffffffffffffffffffffffffff16815260200190815260200160002060008373ffffffffffffffffffffffffffffffffffffffff1673ffffffffffffffffffffffffffffffffffffffff16815260200190815260200160002060009054906101000a900460ff16905092915050565b60007f01ffc9a7000000000000000000000000000000000000000000000000000000007bffffffffffffffffffffffffffffffffffffffffffffffffffffffff1916827bffffffffffffffffffffffffffffffffffffffffffffffffffffffff1916149050919050565b60008073ffffffffffffffffffffffffffffffffffffffff166002600084815260200190815260200160002060009054906101000a900473ffffffffffffffffffffffffffffffffffffffff1673ffffffffffffffffffffffffffffffffffffffff1614159050919050565b600033905090565b816004600083815260200190815260200160002060006101000a81548173ffffffffffffffffffffffffffffffffffffffff021916908373ffffffffffffffffffffffffffffffffffffffff160217905550808273ffffffffffffffffffffffffffffffffffffffff16610cb88361073f565b73ffffffffffffffffffffffffffffffffffffffff167f8c5be1e5ebec7d5bd14f71427d1e84f3dd0314c0f7b2291e5b200ac8c7c3b92560405160405180910390a45050565b6000610d0982610bd1565b610d48576040517f08c379a0000000000000000000000000000000000000000000000000000000008152600401610d3f90611e5a565b60405180910390fd5b6000610d538361073f565b90508073ffffffffffffffffffffffffffffffffffffffff168473ffffffffffffffffffffffffffffffffffffffff161480610dc257508373ffffffffffffffffffffffffffffffffffffffff16610daa84610490565b73ffffffffffffffffffffffffffffffffffffffff16145b80610dd35750610dd28185610ad3565b5b91505092915050565b8273ffffffffffffffffffffffffffffffffffffffff16610dfc8261073f565b73ffffffffffffffffffffffffffffffffffffffff1614610e52576040517f08c379a0000000000000000000000000000000000000000000000000000000008152600401610e4990611f3a565b60405180910390fd5b600073ffffffffffffffffffffffffffffffffffffffff168273ffffffffffffffffffffffffffffffffffffffff161415610ec2576040517f08c379a0000000000000000000000000000000000000000000000000000000008152600401610eb990611e1a565b60405180910390fd5b610ecd838383611593565b610ed8600082610c45565b6001600360008573ffffffffffffffffffffffffffffffffffffffff1673ffffffffffffffffffffffffffffffffffffffff1681526020019081526020016000206000828254610f2891906120f5565b925050819055506001600360008473ffffffffffffffffffffffffffffffffffffffff1673ffffffffffffffffffffffffffffffffffffffff1681526020019081526020016000206000828254610f7f919061206e565b92505081905550816002600083815260200190815260200160002060006101000a81548173ffffffffffffffffffffffffffffffffffffffff021916908373ffffffffffffffffffffffffffffffffffffffff160217905550808273ffffffffffffffffffffffffffffffffffffffff168473ffffffffffffffffffffffffffffffffffffffff167fddf252ad1be2c89b69c2b068fc378daa952ba7f163c4a11628f55a4df523b3ef60405160405180910390a4505050565b600073ffffffffffffffffffffffffffffffffffffffff168273ffffffffffffffffffffffffffffffffffffffff1614156110a8576040517f08c379a000000000000000000000000000000000000000000000000000000000815260040161109f90611efa565b60405180910390fd5b6110b181610bd1565b156110f1576040517f08c379a00000000000000000000000000000000000000000000000000000000081526004016110e890611dfa565b60405180910390fd5b6110fd60008383611593565b6001600360008473ffffffffffffffffffffffffffffffffffffffff1673ffffffffffffffffffffffffffffffffffffffff168152602001908152602001600020600082825461114d919061206e565b92505081905550816002600083815260200190815260200160002060006101000a81548173ffffffffffffffffffffffffffffffffffffffff021916908373ffffffffffffffffffffffffffffffffffffffff160217905550808273ffffffffffffffffffffffffffffffffffffffff16600073ffffffffffffffffffffffffffffffffffffffff167fddf252ad1be2c89b69c2b068fc378daa952ba7f163c4a11628f55a4df523b3ef60405160405180910390a45050565b8173ffffffffffffffffffffffffffffffffffffffff168373ffffffffffffffffffffffffffffffffffffffff161415611275576040517f08c379a000000000000000000000000000000000000000000000000000000000815260040161126c90611e3a565b60405180910390fd5b80600560008573ffffffffffffffffffffffffffffffffffffffff1673ffffffffffffffffffffffffffffffffffffffff16815260200190815260200160002060008473ffffffffffffffffffffffffffffffffffffffff1673ffffffffffffffffffffffffffffffffffffffff16815260200190815260200160002060006101000a81548160ff0219169083151502179055508173ffffffffffffffffffffffffffffffffffffffff168373ffffffffffffffffffffffffffffffffffffffff167f17307eab39ab6107e8899845ad3d59bd9653f200f220920489ca2b5937696c31836040516113669190611d9d565b60405180910390a3505050565b61137e848484610ddc565b61138a84848484611598565b6113c9576040517f08c379a00000000000000000000000000000000000000000000000000000000081526004016113c090611dda565b60405180910390fd5b50505050565b606060405180602001604052806000815250905090565b6060600082141561142e576040518060400160405280600181526020017f3000000000000000000000000000000000000000000000000000000000000000815250905061158e565b600082905060005b6000821461146057808061144990612242565b915050600a8261145991906120c4565b9150611436565b60008167ffffffffffffffff8111156114a2577f4e487b7100000000000000000000000000000000000000000000000000000000600052604160045260246000fd5b6040519080825280601f01601f1916602001820160405280156114d45781602001600182028036833780820191505090505b5090505b60008514611587576001826114ed91906120f5565b9150600a856114fc919061228b565b6030611508919061206e565b60f81b818381518110611544577f4e487b7100000000000000000000000000000000000000000000000000000000600052603260045260246000fd5b60200101907effffffffffffffffffffffffffffffffffffffffffffffffffffffffffffff1916908160001a905350600a8561158091906120c4565b94506114d8565b8093505050505b919050565b505050565b60006115b98473ffffffffffffffffffffffffffffffffffffffff1661172f565b15611722578373ffffffffffffffffffffffffffffffffffffffff1663150b7a026115e2610c3d565b8786866040518563ffffffff1660e01b81526004016116049493929190611d51565b602060405180830381600087803b15801561161e57600080fd5b505af192505050801561164f57506040513d601f19601f8201168201806040525081019061164c91906119e3565b60015b6116d2573d806000811461167f576040519150601f19603f3d011682016040523d82523d6000602084013e611684565b606091505b506000815114156116ca576040517f08c379a00000000000000000000000000000000000000000000000000000000081526004016116c190611dda565b60405180910390fd5b805181602001fd5b63150b7a0260e01b7bffffffffffffffffffffffffffffffffffffffffffffffffffffffff1916817bffffffffffffffffffffffffffffffffffffffffffffffffffffffff191614915050611727565b600190505b949350505050565b600080823b905060008111915050919050565b600061175561175084611ffa565b611fd5565b90508281526020810184848401111561176d57600080fd5b61177884828561219d565b509392505050565b60008135905061178f816127b8565b92915050565b6000813590506117a4816127cf565b92915050565b6000813590506117b9816127e6565b92915050565b6000815190506117ce816127e6565b92915050565b600082601f8301126117e557600080fd5b81356117f5848260208601611742565b91505092915050565b60008135905061180d816127fd565b92915050565b60006020828403121561182557600080fd5b600061183384828501611780565b91505092915050565b6000806040838503121561184f57600080fd5b600061185d85828601611780565b925050602061186e85828601611780565b9150509250929050565b60008060006060848603121561188d57600080fd5b600061189b86828701611780565b93505060206118ac86828701611780565b92505060406118bd868287016117fe565b9150509250925092565b600080600080608085870312156118dd57600080fd5b60006118eb87828801611780565b94505060206118fc87828801611780565b935050604061190d878288016117fe565b925050606085013567ffffffffffffffff81111561192a57600080fd5b611936878288016117d4565b91505092959194509250565b6000806040838503121561195557600080fd5b600061196385828601611780565b925050602061197485828601611795565b9150509250929050565b6000806040838503121561199157600080fd5b600061199f85828601611780565b92505060206119b0858286016117fe565b9150509250929050565b6000602082840312156119cc57600080fd5b60006119da848285016117aa565b91505092915050565b6000602082840312156119f557600080fd5b6000611a03848285016117bf565b91505092915050565b600060208284031215611a1e57600080fd5b6000611a2c848285016117fe565b91505092915050565b611a3e81612129565b82525050565b611a4d8161213b565b82525050565b6000611a5e8261202b565b611a688185612041565b9350611a788185602086016121ac565b611a8181612378565b840191505092915050565b6000611a9782612036565b611aa18185612052565b9350611ab18185602086016121ac565b611aba81612378565b840191505092915050565b6000611ad082612036565b611ada8185612063565b9350611aea8185602086016121ac565b80840191505092915050565b6000611b03603283612052565b9150611b0e82612389565b604082019050919050565b6000611b26601c83612052565b9150611b31826123d8565b602082019050919050565b6000611b49602483612052565b9150611b5482612401565b604082019050919050565b6000611b6c601983612052565b9150611b7782612450565b602082019050919050565b6000611b8f602c83612052565b9150611b9a82612479565b604082019050919050565b6000611bb2603883612052565b9150611bbd826124c8565b604082019050919050565b6000611bd5602a83612052565b9150611be082612517565b604082019050919050565b6000611bf8602983612052565b9150611c0382612566565b604082019050919050565b6000611c1b603483612052565b9150611c26826125b5565b604082019050919050565b6000611c3e602083612052565b9150611c4982612604565b602082019050919050565b6000611c61602c83612052565b9150611c6c8261262d565b604082019050919050565b6000611c84602983612052565b9150611c8f8261267c565b604082019050919050565b6000611ca7602f83612052565b9150611cb2826126cb565b604082019050919050565b6000611cca602183612052565b9150611cd58261271a565b604082019050919050565b6000611ced603183612052565b9150611cf882612769565b604082019050919050565b611d0c81612193565b82525050565b6000611d1e8285611ac5565b9150611d2a8284611ac5565b91508190509392505050565b6000602082019050611d4b6000830184611a35565b92915050565b6000608082019050611d666000830187611a35565b611d736020830186611a35565b611d806040830185611d03565b8181036060830152611d928184611a53565b905095945050505050565b6000602082019050611db26000830184611a44565b92915050565b60006020820190508181036000830152611dd28184611a8c565b905092915050565b60006020820190508181036000830152611df381611af6565b9050919050565b60006020820190508181036000830152611e1381611b19565b9050919050565b60006020820190508181036000830152611e3381611b3c565b9050919050565b60006020820190508181036000830152611e5381611b5f565b9050919050565b60006020820190508181036000830152611e7381611b82565b9050919050565b60006020820190508181036000830152611e9381611ba5565b9050919050565b60006020820190508181036000830152611eb381611bc8565b9050919050565b60006020820190508181036000830152611ed381611beb565b9050919050565b60006020820190508181036000830152611ef381611c0e565b9050919050565b60006020820190508181036000830152611f1381611c31565b9050919050565b60006020820190508181036000830152611f3381611c54565b9050919050565b60006020820190508181036000830152611f5381611c77565b9050919050565b60006020820190508181036000830152611f7381611c9a565b9050919050565b60006020820190508181036000830152611f9381611cbd565b9050919050565b60006020820190508181036000830152611fb381611ce0565b9050919050565b6000602082019050611fcf6000830184611d03565b92915050565b6000611fdf611ff0565b9050611feb8282612211565b919050565b6000604051905090565b600067ffffffffffffffff82111561201557612014612349565b5b61201e82612378565b9050602081019050919050565b600081519050919050565b600081519050919050565b600082825260208201905092915050565b600082825260208201905092915050565b600081905092915050565b600061207982612193565b915061208483612193565b9250827fffffffffffffffffffffffffffffffffffffffffffffffffffffffffffffffff038211156120b9576120b86122bc565b5b828201905092915050565b60006120cf82612193565b91506120da83612193565b9250826120ea576120e96122eb565b5b828204905092915050565b600061210082612193565b915061210b83612193565b92508282101561211e5761211d6122bc565b5b828203905092915050565b600061213482612173565b9050919050565b60008115159050919050565b60007fffffffff0000000000000000000000000000000000000000000000000000000082169050919050565b600073ffffffffffffffffffffffffffffffffffffffff82169050919050565b6000819050919050565b82818337600083830152505050565b60005b838110156121ca5780820151818401526020810190506121af565b838111156121d9576000848401525b50505050565b600060028204905060018216806121f757607f821691505b6020821081141561220b5761220a61231a565b5b50919050565b61221a82612378565b810181811067ffffffffffffffff8211171561223957612238612349565b5b80604052505050565b600061224d82612193565b91507fffffffffffffffffffffffffffffffffffffffffffffffffffffffffffffffff8214156122805761227f6122bc565b5b600182019050919050565b600061229682612193565b91506122a183612193565b9250826122b1576122b06122eb565b5b828206905092915050565b7f4e487b7100000000000000000000000000000000000000000000000000000000600052601160045260246000fd5b7f4e487b7100000000000000000000000000000000000000000000000000000000600052601260045260246000fd5b7f4e487b7100000000000000000000000000000000000000000000000000000000600052602260045260246000fd5b7f4e487b7100000000000000000000000000000000000000000000000000000000600052604160045260246000fd5b6000601f19601f8301169050919050565b7f4552433732313a207472616e7366657220746f206e6f6e20455243373231526560008201527f63656976657220696d706c656d656e7465720000000000000000000000000000602082015250565b7f4552433732313a20746f6b656e20616c7265616479206d696e74656400000000600082015250565b7f4552433732313a207472616e7366657220746f20746865207a65726f2061646460008201527f7265737300000000000000000000000000000000000000000000000000000000602082015250565b7f4552433732313a20617070726f766520746f2063616c6c657200000000000000600082015250565b7f4552433732313a206f70657261746f7220717565727920666f72206e6f6e657860008201527f697374656e7420746f6b656e0000000000000000000000000000000000000000602082015250565b7f4552433732313a20617070726f76652063616c6c6572206973206e6f74206f7760008201527f6e6572206e6f7220617070726f76656420666f7220616c6c0000000000000000602082015250565b7f4552433732313a2062616c616e636520717565727920666f7220746865207a6560008201527f726f206164647265737300000000000000000000000000000000000000000000602082015250565b7f4552433732313a206f776e657220717565727920666f72206e6f6e657869737460008201527f656e7420746f6b656e0000000000000000000000000000000000000000000000602082015250565b7f4f776e65727368697020616c7265616479206d696e7465642c2063616e6e6f7460008201527f206d696e74206d6f7265207468616e206f6e6365000000000000000000000000602082015250565b7f4552433732313a206d696e7420746f20746865207a65726f2061646472657373600082015250565b7f4552433732313a20617070726f76656420717565727920666f72206e6f6e657860008201527f697374656e7420746f6b656e0000000000000000000000000000000000000000602082015250565b7f4552433732313a207472616e73666572206f6620746f6b656e2074686174206960008201527f73206e6f74206f776e0000000000000000000000000000000000000000000000602082015250565b7f4552433732314d657461646174613a2055524920717565727920666f72206e6f60008201527f6e6578697374656e7420746f6b656e0000000000000000000000000000000000602082015250565b7f4552433732313a20617070726f76616c20746f2063757272656e74206f776e6560008201527f7200000000000000000000000000000000000000000000000000000000000000602082015250565b7f4552433732313a207472616e736665722063616c6c6572206973206e6f74206f60008201527f776e6572206e6f7220617070726f766564000000000000000000000000000000602082015250565b6127c181612129565b81146127cc57600080fd5b50565b6127d88161213b565b81146127e357600080fd5b50565b6127ef81612147565b81146127fa57600080fd5b50565b61280681612193565b811461281157600080fd5b5056fea2646970667358221220b37e02f5a173a2512011a29cdc04ab5f0aac78bc598537030a2c54047f5ebf5f64736f6c63430008040033a2646970667358221220f4f3a7db7f6b7b3bf650773b39a43563955b1a4692c0418e5e04db7563adf4f864736f6c63430008040033",
  "linkReferences": {},
  "deployedLinkReferences": {}
}