{
  "_format": "hh-sol-artifact-1",
  "contractName": "FaroOfferingFactory",
  "sourceName": "contracts/Funding/FaroOfferingFactory.sol",
  "abi": [
    {
      "anonymous": false,
      "inputs": [
        {
          "indexed": true,
          "internalType": "address",
          "name": "token",
          "type": "address"
        },
        {
          "indexed": false,
          "internalType": "uint256",
          "name": "price",
          "type": "uint256"
        },
        {
          "indexed": false,
          "internalType": "address",
          "name": "vault",
          "type": "address"
        },
        {
          "indexed": false,
          "internalType": "uint256",
          "name": "vaultId",
          "type": "uint256"
        }
      ],
      "name": "Mint",
      "type": "event"
    },
    {
      "anonymous": false,
      "inputs": [
        {
          "indexed": true,
          "internalType": "address",
          "name": "previousOwner",
          "type": "address"
        },
        {
          "indexed": true,
          "internalType": "address",
          "name": "newOwner",
          "type": "address"
        }
      ],
      "name": "OwnershipTransferred",
      "type": "event"
    },
    {
      "anonymous": false,
      "inputs": [
        {
          "indexed": false,
          "internalType": "address",
          "name": "account",
          "type": "address"
        }
      ],
      "name": "Paused",
      "type": "event"
    },
    {
      "anonymous": false,
      "inputs": [
        {
          "indexed": false,
          "internalType": "address",
          "name": "account",
          "type": "address"
        }
      ],
      "name": "Unpaused",
      "type": "event"
    },
    {
      "inputs": [],
      "name": "getLastOffering",
      "outputs": [
        {
          "internalType": "address",
          "name": "",
          "type": "address"
        }
      ],
      "stateMutability": "view",
      "type": "function"
    },
    {
      "inputs": [
        {
          "internalType": "uint32",
          "name": "liveOfferingStartIndex",
          "type": "uint32"
        },
        {
          "internalType": "uint32",
          "name": "liveOfferingEndIndex",
          "type": "uint32"
        }
      ],
      "name": "getLiveOfferings",
      "outputs": [
        {
          "internalType": "address[]",
          "name": "",
          "type": "address[]"
        }
      ],
      "stateMutability": "view",
      "type": "function"
    },
    {
      "inputs": [],
      "name": "getNumOfTokens",
      "outputs": [
        {
          "internalType": "uint256",
          "name": "",
          "type": "uint256"
        }
      ],
      "stateMutability": "view",
      "type": "function"
    },
    {
      "inputs": [
        {
          "internalType": "uint256",
          "name": "offeringNum",
          "type": "uint256"
        }
      ],
      "name": "getOffering",
      "outputs": [
        {
          "internalType": "address",
          "name": "",
          "type": "address"
        }
      ],
      "stateMutability": "view",
      "type": "function"
    },
    {
      "inputs": [
        {
          "internalType": "address",
          "name": "_token",
          "type": "address"
        },
        {
          "internalType": "address payable",
          "name": "_projectFundingAddress",
          "type": "address"
        },
        {
          "internalType": "address",
          "name": "_owner",
          "type": "address"
        },
        {
          "internalType": "uint32",
          "name": "_supply",
          "type": "uint32"
        },
        {
          "internalType": "uint256",
          "name": "_listPrice",
          "type": "uint256"
        },
        {
          "internalType": "uint256",
          "name": "_listingPeriod",
          "type": "uint256"
        },
        {
          "internalType": "string",
          "name": "_name",
          "type": "string"
        },
        {
          "internalType": "string",
          "name": "_symbol",
          "type": "string"
        },
        {
          "internalType": "address[]",
          "name": "_funderAddresses",
          "type": "address[]"
        },
        {
          "internalType": "uint32[]",
          "name": "_allocations",
          "type": "uint32[]"
        }
      ],
      "name": "mint",
      "outputs": [
        {
          "internalType": "uint256",
          "name": "",
          "type": "uint256"
        }
      ],
      "stateMutability": "nonpayable",
      "type": "function"
    },
    {
      "inputs": [
        {
          "internalType": "uint256",
          "name": "",
          "type": "uint256"
        }
      ],
      "name": "offerings",
      "outputs": [
        {
          "internalType": "address",
          "name": "",
          "type": "address"
        }
      ],
      "stateMutability": "view",
      "type": "function"
    },
    {
      "inputs": [],
      "name": "owner",
      "outputs": [
        {
          "internalType": "address",
          "name": "",
          "type": "address"
        }
      ],
      "stateMutability": "view",
      "type": "function"
    },
    {
      "inputs": [],
      "name": "pause",
      "outputs": [],
      "stateMutability": "nonpayable",
      "type": "function"
    },
    {
      "inputs": [],
      "name": "paused",
      "outputs": [
        {
          "internalType": "bool",
          "name": "",
          "type": "bool"
        }
      ],
      "stateMutability": "view",
      "type": "function"
    },
    {
      "inputs": [],
      "name": "renounceOwnership",
      "outputs": [],
      "stateMutability": "nonpayable",
      "type": "function"
    },
    {
      "inputs": [
        {
          "internalType": "address",
          "name": "_newLogic",
          "type": "address"
        }
      ],
      "name": "setLogic",
      "outputs": [],
      "stateMutability": "nonpayable",
      "type": "function"
    },
    {
      "inputs": [
        {
          "internalType": "address",
          "name": "newOwner",
          "type": "address"
        }
      ],
      "name": "transferOwnership",
      "outputs": [],
      "stateMutability": "nonpayable",
      "type": "function"
    },
    {
      "inputs": [],
      "name": "unpause",
      "outputs": [],
      "stateMutability": "nonpayable",
      "type": "function"
    }
  ],
  "bytecode": "0x608060405260405162000012906200018a565b604051809103906000f0801580156200002f573d6000803e3d6000fd5b50600360006101000a81548173ffffffffffffffffffffffffffffffffffffffff021916908373ffffffffffffffffffffffffffffffffffffffff1602179055503480156200007d57600080fd5b506200009e62000092620000be60201b60201c565b620000c660201b60201c565b60008060146101000a81548160ff02191690831515021790555062000198565b600033905090565b60008060009054906101000a900473ffffffffffffffffffffffffffffffffffffffff169050816000806101000a81548173ffffffffffffffffffffffffffffffffffffffff021916908373ffffffffffffffffffffffffffffffffffffffff1602179055508173ffffffffffffffffffffffffffffffffffffffff168173ffffffffffffffffffffffffffffffffffffffff167f8be0079c531659141344cd1fd0a4f28419497f9722a3daafe3b4186f6b6457e060405160405180910390a35050565b6155cd8062002e1b83390190565b612c7380620001a86000396000f3fe60806040523480156200001157600080fd5b5060043610620000e25760003560e01c80638456cb591162000099578063b85dc694116200006f578063b85dc69414620001fd578063da5e57dc1462000233578063e34fec1d1462000255578063f2fde38b146200028b57620000e2565b80638456cb5914620001995780638da5cb5b14620001a557806391e4c3e114620001c757620000e2565b80632b13203014620000e75780633f4ba83a146200011d5780635124097114620001295780635c975abb146200014b578063715018a6146200016d578063718570001462000179575b600080fd5b620001056004803603810190620000ff919062001932565b620002ab565b60405162000114919062001d4f565b60405180910390f35b6200012762000361565b005b62000133620003f0565b60405162000142919062001fdf565b60405180910390f35b62000155620003fa565b60405162000164919062001e90565b60405180910390f35b6200017762000410565b005b620001976004803603810190620001919190620017b2565b620004a1565b005b620001a362000568565b005b620001af620005f7565b604051620001be919062001d4f565b60405180910390f35b620001e56004803603810190620001df9190620017de565b62000620565b604051620001f4919062001fdf565b60405180910390f35b6200021b60048036038101906200021591906200195e565b620009c5565b6040516200022a919062001e6c565b60405180910390f35b6200023d62001168565b6040516200024c919062001d4f565b60405180910390f35b6200027360048036038101906200026d919062001932565b6200122c565b60405162000282919062001d4f565b60405180910390f35b620002a96004803603810190620002a39190620017b2565b6200126c565b005b60006001548210620002f4576040517f08c379a0000000000000000000000000000000000000000000000000000000008152600401620002eb9062001f13565b60405180910390fd5b600282815481106200032f577f4e487b7100000000000000000000000000000000000000000000000000000000600052603260045260246000fd5b9060005260206000200160009054906101000a900473ffffffffffffffffffffffffffffffffffffffff169050919050565b6200036b62001370565b73ffffffffffffffffffffffffffffffffffffffff166200038b620005f7565b73ffffffffffffffffffffffffffffffffffffffff1614620003e4576040517f08c379a0000000000000000000000000000000000000000000000000000000008152600401620003db9062001fbd565b60405180910390fd5b620003ee62001378565b565b6000600154905090565b60008060149054906101000a900460ff16905090565b6200041a62001370565b73ffffffffffffffffffffffffffffffffffffffff166200043a620005f7565b73ffffffffffffffffffffffffffffffffffffffff161462000493576040517f08c379a00000000000000000000000000000000000000000000000000000000081526004016200048a9062001fbd565b60405180910390fd5b6200049f600062001422565b565b620004ab62001370565b73ffffffffffffffffffffffffffffffffffffffff16620004cb620005f7565b73ffffffffffffffffffffffffffffffffffffffff161462000524576040517f08c379a00000000000000000000000000000000000000000000000000000000081526004016200051b9062001fbd565b60405180910390fd5b80600360006101000a81548173ffffffffffffffffffffffffffffffffffffffff021916908373ffffffffffffffffffffffffffffffffffffffff16021790555050565b6200057262001370565b73ffffffffffffffffffffffffffffffffffffffff1662000592620005f7565b73ffffffffffffffffffffffffffffffffffffffff1614620005eb576040517f08c379a0000000000000000000000000000000000000000000000000000000008152600401620005e29062001fbd565b60405180910390fd5b620005f5620014e6565b565b60008060009054906101000a900473ffffffffffffffffffffffffffffffffffffffff16905090565b60006200062c62001370565b73ffffffffffffffffffffffffffffffffffffffff166200064c620005f7565b73ffffffffffffffffffffffffffffffffffffffff1614620006a5576040517f08c379a00000000000000000000000000000000000000000000000000000000081526004016200069c9062001fbd565b60405180910390fd5b620006af620003fa565b15620006f2576040517f08c379a0000000000000000000000000000000000000000000000000000000008152600401620006e99062001f57565b60405180910390fd5b60005b8351811015620007c8578973ffffffffffffffffffffffffffffffffffffffff1684828151811062000750577f4e487b7100000000000000000000000000000000000000000000000000000000600052603260045260246000fd5b602002602001015173ffffffffffffffffffffffffffffffffffffffff161415620007b2576040517f08c379a0000000000000000000000000000000000000000000000000000000008152600401620007a99062001f9b565b60405180910390fd5b8080620007bf906200230a565b915050620006f5565b5060008b8b8b8b8b8b8b8b8b8b604051602401620007f09a9998979695949392919062001d6c565b6040516020818303038152906040527f7a22e553000000000000000000000000000000000000000000000000000000007bffffffffffffffffffffffffffffffffffffffffffffffffffffffff19166020820180517bffffffffffffffffffffffffffffffffffffffffffffffffffffffff838183161783525050505090506000600360009054906101000a900473ffffffffffffffffffffffffffffffffffffffff1682604051620008a39062001592565b620008b092919062001e38565b604051809103906000f080158015620008cd573d6000803e3d6000fd5b5090506002819080600181540180825580915050600190039060005260206000200160009091909190916101000a81548173ffffffffffffffffffffffffffffffffffffffff021916908373ffffffffffffffffffffffffffffffffffffffff1602179055506001600081548092919062000948906200230a565b91905055508c73ffffffffffffffffffffffffffffffffffffffff167ff3f9b81b1aa7af42b83e33d01a22621ecf67d5ebeb4587a4d63e3737276076818a836001546040516200099b9392919062001ffc565b60405180910390a260018054620009b39190620021ab565b925050509a9950505050505050505050565b60608263ffffffff168263ffffffff161162000a18576040517f08c379a000000000000000000000000000000000000000000000000000000000815260040162000a0f9062001f79565b60405180910390fd5b6000838362000a289190620021e6565b905060008163ffffffff16600280549050101562000a7d576040517f08c379a000000000000000000000000000000000000000000000000000000000815260040162000a749062001ead565b60405180910390fd5b60006040516024016040516020818303038152906040527f2135b2b9000000000000000000000000000000000000000000000000000000007bffffffffffffffffffffffffffffffffffffffffffffffffffffffff19166020820180517bffffffffffffffffffffffffffffffffffffffffffffffffffffffff8381831617835250505050905060006040516024016040516020818303038152906040527f5c975abb000000000000000000000000000000000000000000000000000000007bffffffffffffffffffffffffffffffffffffffffffffffffffffffff19166020820180517bffffffffffffffffffffffffffffffffffffffffffffffffffffffff8381831617835250505050905060008463ffffffff1667ffffffffffffffff81111562000bd4577f4e487b7100000000000000000000000000000000000000000000000000000000600052604160045260246000fd5b60405190808252806020026020018201604052801562000c035781602001602082028036833780820191505090505b50905060008563ffffffff1667ffffffffffffffff81111562000c4f577f4e487b7100000000000000000000000000000000000000000000000000000000600052604160045260246000fd5b60405190808252806020026020018201604052801562000c7e5781602001602082028036833780820191505090505b509050600060608060008060008e63ffffffff1690505b8d63ffffffff1681101562000fb7576002818154811062000cdf577f4e487b7100000000000000000000000000000000000000000000000000000000600052603260045260246000fd5b9060005260206000200160009054906101000a900473ffffffffffffffffffffffffffffffffffffffff1695508573ffffffffffffffffffffffffffffffffffffffff168a60405162000d33919062001d36565b600060405180830381855afa9150503d806000811462000d70576040519150601f19603f3d011682016040523d82523d6000602084013e62000d75565b606091505b5080965081945050508573ffffffffffffffffffffffffffffffffffffffff168960405162000da5919062001d36565b600060405180830381855afa9150503d806000811462000de2576040519150601f19603f3d011682016040523d82523d6000602084013e62000de7565b606091505b50809550819350505082801562000dfb5750815b1562000fa157600185601f8151811062000e3e577f4e487b7100000000000000000000000000000000000000000000000000000000600052603260045260246000fd5b602001015160f81c60f81b60f81c60ff1614801562000ec75750600060f81b84601f8151811062000e98577f4e487b7100000000000000000000000000000000000000000000000000000000600052603260045260246000fd5b602001015160f81c60f81b7effffffffffffffffffffffffffffffffffffffffffffffffffffffffffffff1916145b1562000fa0578588828151811062000f08577f4e487b7100000000000000000000000000000000000000000000000000000000600052603260045260246000fd5b602002602001019073ffffffffffffffffffffffffffffffffffffffff16908173ffffffffffffffffffffffffffffffffffffffff168152505080878c63ffffffff168151811062000f83577f4e487b7100000000000000000000000000000000000000000000000000000000600052603260045260246000fd5b6020026020010181815250508a8062000f9c9062002358565b9b50505b5b808062000fae906200230a565b91505062000c95565b5060008a63ffffffff1667ffffffffffffffff81111562001001577f4e487b7100000000000000000000000000000000000000000000000000000000600052604160045260246000fd5b604051908082528060200260200182016040528015620010305781602001602082028036833780820191505090505b50905060005b8b63ffffffff1681101562001152578888828151811062001080577f4e487b7100000000000000000000000000000000000000000000000000000000600052603260045260246000fd5b602002602001015181518110620010c0577f4e487b7100000000000000000000000000000000000000000000000000000000600052603260045260246000fd5b602002602001015182828151811062001102577f4e487b7100000000000000000000000000000000000000000000000000000000600052603260045260246000fd5b602002602001019073ffffffffffffffffffffffffffffffffffffffff16908173ffffffffffffffffffffffffffffffffffffffff1681525050808062001149906200230a565b91505062001036565b50809c5050505050505050505050505092915050565b6000600180541015620011b2576040517f08c379a0000000000000000000000000000000000000000000000000000000008152600401620011a99062001f35565b60405180910390fd5b600260018054620011c49190620021ab565b81548110620011fc577f4e487b7100000000000000000000000000000000000000000000000000000000600052603260045260246000fd5b9060005260206000200160009054906101000a900473ffffffffffffffffffffffffffffffffffffffff16905090565b600281815481106200123d57600080fd5b906000526020600020016000915054906101000a900473ffffffffffffffffffffffffffffffffffffffff1681565b6200127662001370565b73ffffffffffffffffffffffffffffffffffffffff1662001296620005f7565b73ffffffffffffffffffffffffffffffffffffffff1614620012ef576040517f08c379a0000000000000000000000000000000000000000000000000000000008152600401620012e69062001fbd565b60405180910390fd5b600073ffffffffffffffffffffffffffffffffffffffff168173ffffffffffffffffffffffffffffffffffffffff16141562001362576040517f08c379a0000000000000000000000000000000000000000000000000000000008152600401620013599062001ef1565b60405180910390fd5b6200136d8162001422565b50565b600033905090565b62001382620003fa565b620013c4576040517f08c379a0000000000000000000000000000000000000000000000000000000008152600401620013bb9062001ecf565b60405180910390fd5b60008060146101000a81548160ff0219169083151502179055507f5db9ee0a495bf2e6ff9c91a7834c1ba4fdd244a5e8aa4e537bd38aeae4b073aa6200140962001370565b60405162001418919062001d4f565b60405180910390a1565b60008060009054906101000a900473ffffffffffffffffffffffffffffffffffffffff169050816000806101000a81548173ffffffffffffffffffffffffffffffffffffffff021916908373ffffffffffffffffffffffffffffffffffffffff1602179055508173ffffffffffffffffffffffffffffffffffffffff168173ffffffffffffffffffffffffffffffffffffffff167f8be0079c531659141344cd1fd0a4f28419497f9722a3daafe3b4186f6b6457e060405160405180910390a35050565b620014f0620003fa565b1562001533576040517f08c379a00000000000000000000000000000000000000000000000000000000081526004016200152a9062001f57565b60405180910390fd5b6001600060146101000a81548160ff0219169083151502179055507f62e78cea01bee320cd4e420270b5ea74000d11b0c9f74754ebdbfc544b05a2586200157962001370565b60405162001588919062001d4f565b60405180910390a1565b61058780620026b783390190565b6000620015b7620015b18462002062565b62002039565b90508083825260208201905082856020860282011115620015d757600080fd5b60005b858110156200160b5781620015f08882620016cf565b845260208401935060208301925050600181019050620015da565b5050509392505050565b60006200162c620016268462002091565b62002039565b905080838252602082019050828560208602820111156200164c57600080fd5b60005b858110156200168057816200166588826200179b565b8452602084019350602083019250506001810190506200164f565b5050509392505050565b6000620016a16200169b84620020c0565b62002039565b905082815260208101848484011115620016ba57600080fd5b620016c78482856200228f565b509392505050565b600081359050620016e0816200264e565b92915050565b600081359050620016f78162002668565b92915050565b600082601f8301126200170f57600080fd5b813562001721848260208601620015a0565b91505092915050565b600082601f8301126200173c57600080fd5b81356200174e84826020860162001615565b91505092915050565b600082601f8301126200176957600080fd5b81356200177b8482602086016200168a565b91505092915050565b600081359050620017958162002682565b92915050565b600081359050620017ac816200269c565b92915050565b600060208284031215620017c557600080fd5b6000620017d584828501620016cf565b91505092915050565b6000806000806000806000806000806101408b8d031215620017ff57600080fd5b60006200180f8d828e01620016cf565b9a50506020620018228d828e01620016e6565b9950506040620018358d828e01620016cf565b9850506060620018488d828e016200179b565b97505060806200185b8d828e0162001784565b96505060a06200186e8d828e0162001784565b95505060c08b013567ffffffffffffffff8111156200188c57600080fd5b6200189a8d828e0162001757565b94505060e08b013567ffffffffffffffff811115620018b857600080fd5b620018c68d828e0162001757565b9350506101008b013567ffffffffffffffff811115620018e557600080fd5b620018f38d828e01620016fd565b9250506101208b013567ffffffffffffffff8111156200191257600080fd5b620019208d828e016200172a565b9150509295989b9194979a5092959850565b6000602082840312156200194557600080fd5b6000620019558482850162001784565b91505092915050565b600080604083850312156200197257600080fd5b600062001982858286016200179b565b925050602062001995858286016200179b565b9150509250929050565b6000620019ad8383620019e4565b60208301905092915050565b6000620019c7838362001d14565b60208301905092915050565b620019de8162002235565b82525050565b620019ef8162002221565b82525050565b62001a008162002221565b82525050565b600062001a138262002116565b62001a1f81856200215c565b935062001a2c83620020f6565b8060005b8381101562001a6357815162001a4788826200199f565b975062001a548362002142565b92505060018101905062001a30565b5085935050505092915050565b600062001a7d8262002121565b62001a8981856200216d565b935062001a968362002106565b8060005b8381101562001acd57815162001ab18882620019b9565b975062001abe836200214f565b92505060018101905062001a9a565b5085935050505092915050565b62001ae58162002249565b82525050565b600062001af8826200212c565b62001b0481856200217e565b935062001b168185602086016200229e565b62001b2181620023e8565b840191505092915050565b600062001b39826200212c565b62001b4581856200218f565b935062001b578185602086016200229e565b80840191505092915050565b600062001b708262002137565b62001b7c81856200219a565b935062001b8e8185602086016200229e565b62001b9981620023e8565b840191505092915050565b600062001bb3603c836200219a565b915062001bc082620023f9565b604082019050919050565b600062001bda6014836200219a565b915062001be78262002448565b602082019050919050565b600062001c016026836200219a565b915062001c0e8262002471565b604082019050919050565b600062001c286036836200219a565b915062001c3582620024c0565b604082019050919050565b600062001c4f6032836200219a565b915062001c5c826200250f565b604082019050919050565b600062001c766010836200219a565b915062001c83826200255e565b602082019050919050565b600062001c9d602a836200219a565b915062001caa8262002587565b604082019050919050565b600062001cc46025836200219a565b915062001cd182620025d6565b604082019050919050565b600062001ceb6020836200219a565b915062001cf88262002625565b602082019050919050565b62001d0e8162002275565b82525050565b62001d1f816200227f565b82525050565b62001d30816200227f565b82525050565b600062001d44828462001b2c565b915081905092915050565b600060208201905062001d666000830184620019f5565b92915050565b60006101408201905062001d84600083018d620019f5565b62001d93602083018c620019d3565b62001da2604083018b620019f5565b62001db1606083018a62001d25565b62001dc0608083018962001d03565b62001dcf60a083018862001d03565b81810360c083015262001de3818762001b63565b905081810360e083015262001df9818662001b63565b905081810361010083015262001e10818562001a06565b905081810361012083015262001e27818462001a70565b90509b9a5050505050505050505050565b600060408201905062001e4f6000830185620019f5565b818103602083015262001e63818462001aeb565b90509392505050565b6000602082019050818103600083015262001e88818462001a06565b905092915050565b600060208201905062001ea7600083018462001ada565b92915050565b6000602082019050818103600083015262001ec88162001ba4565b9050919050565b6000602082019050818103600083015262001eea8162001bcb565b9050919050565b6000602082019050818103600083015262001f0c8162001bf2565b9050919050565b6000602082019050818103600083015262001f2e8162001c19565b9050919050565b6000602082019050818103600083015262001f508162001c40565b9050919050565b6000602082019050818103600083015262001f728162001c67565b9050919050565b6000602082019050818103600083015262001f948162001c8e565b9050919050565b6000602082019050818103600083015262001fb68162001cb5565b9050919050565b6000602082019050818103600083015262001fd88162001cdc565b9050919050565b600060208201905062001ff6600083018462001d03565b92915050565b600060608201905062002013600083018662001d03565b620020226020830185620019f5565b62002031604083018462001d03565b949350505050565b60006200204562002058565b9050620020538282620022d4565b919050565b6000604051905090565b600067ffffffffffffffff82111562002080576200207f620023b9565b5b602082029050602081019050919050565b600067ffffffffffffffff821115620020af57620020ae620023b9565b5b602082029050602081019050919050565b600067ffffffffffffffff821115620020de57620020dd620023b9565b5b620020e982620023e8565b9050602081019050919050565b6000819050602082019050919050565b6000819050602082019050919050565b600081519050919050565b600081519050919050565b600081519050919050565b600081519050919050565b6000602082019050919050565b6000602082019050919050565b600082825260208201905092915050565b600082825260208201905092915050565b600082825260208201905092915050565b600081905092915050565b600082825260208201905092915050565b6000620021b88262002275565b9150620021c58362002275565b925082821015620021db57620021da6200238a565b5b828203905092915050565b6000620021f3826200227f565b915062002200836200227f565b9250828210156200221657620022156200238a565b5b828203905092915050565b60006200222e8262002255565b9050919050565b6000620022428262002255565b9050919050565b60008115159050919050565b600073ffffffffffffffffffffffffffffffffffffffff82169050919050565b6000819050919050565b600063ffffffff82169050919050565b82818337600083830152505050565b60005b83811015620022be578082015181840152602081019050620022a1565b83811115620022ce576000848401525b50505050565b620022df82620023e8565b810181811067ffffffffffffffff82111715620023015762002300620023b9565b5b80604052505050565b6000620023178262002275565b91507fffffffffffffffffffffffffffffffffffffffffffffffffffffffffffffffff8214156200234d576200234c6200238a565b5b600182019050919050565b600062002365826200227f565b915063ffffffff8214156200237f576200237e6200238a565b5b600182019050919050565b7f4e487b7100000000000000000000000000000000000000000000000000000000600052601160045260246000fd5b7f4e487b7100000000000000000000000000000000000000000000000000000000600052604160045260246000fd5b6000601f19601f8301169050919050565b7f4e756d626572206f66206f66666572696e67732063616e6e6f74206265206c6560008201527f7373207468616e20746865206e756d6265722072657472696576656400000000602082015250565b7f5061757361626c653a206e6f7420706175736564000000000000000000000000600082015250565b7f4f776e61626c653a206e6577206f776e657220697320746865207a65726f206160008201527f6464726573730000000000000000000000000000000000000000000000000000602082015250565b7f204f66666572696e6720696e646578206973206c6172676572207468616e207460008201527f6865206e756d626572206f66206f66666572696e677300000000000000000000602082015250565b7f546865726520617265206e6f206f66666572696e67732063726561746564206260008201527f792074686520666163746f72792c207965740000000000000000000000000000602082015250565b7f5061757361626c653a2070617573656400000000000000000000000000000000600082015250565b7f456e6420696e646578206d7573742062652067726561746572207468616e207360008201527f7461727420696e64657800000000000000000000000000000000000000000000602082015250565b7f4f776e657220616464726573732063616e6e6f7420626520616d6f6e6720667560008201527f6e64657273000000000000000000000000000000000000000000000000000000602082015250565b7f4f776e61626c653a2063616c6c6572206973206e6f7420746865206f776e6572600082015250565b620026598162002221565b81146200266557600080fd5b50565b620026738162002235565b81146200267f57600080fd5b50565b6200268d8162002275565b81146200269957600080fd5b50565b620026a7816200227f565b8114620026b357600080fd5b5056fe60a060405234801561001057600080fd5b506040516105873803806105878339818101604052810190610032919061019c565b8173ffffffffffffffffffffffffffffffffffffffff1660808173ffffffffffffffffffffffffffffffffffffffff1660601b815250506000808373ffffffffffffffffffffffffffffffffffffffff16836040516100919190610244565b600060405180830381855af49150503d80600081146100cc576040519150601f19603f3d011682016040523d82523d6000602084013e6100d1565b606091505b509150915081610116576040517f08c379a000000000000000000000000000000000000000000000000000000000815260040161010d9061025b565b60405180910390fd5b5050505061040e565b600061013261012d846102a0565b61027b565b90508281526020810184848401111561014a57600080fd5b61015584828561032a565b509392505050565b60008151905061016c816103f7565b92915050565b600082601f83011261018357600080fd5b815161019384826020860161011f565b91505092915050565b600080604083850312156101af57600080fd5b60006101bd8582860161015d565b925050602083015167ffffffffffffffff8111156101da57600080fd5b6101e685828601610172565b9150509250929050565b60006101fb826102d1565b61020581856102dc565b935061021581856020860161032a565b80840191505092915050565b600061022e6013836102e7565b9150610239826103ce565b602082019050919050565b600061025082846101f0565b915081905092915050565b6000602082019050818103600083015261027481610221565b9050919050565b6000610285610296565b9050610291828261035d565b919050565b6000604051905090565b600067ffffffffffffffff8211156102bb576102ba61038e565b5b6102c4826103bd565b9050602081019050919050565b600081519050919050565b600081905092915050565b600082825260208201905092915050565b60006103038261030a565b9050919050565b600073ffffffffffffffffffffffffffffffffffffffff82169050919050565b60005b8381101561034857808201518184015260208101905061032d565b83811115610357576000848401525b50505050565b610366826103bd565b810181811067ffffffffffffffff821117156103855761038461038e565b5b80604052505050565b7f4e487b7100000000000000000000000000000000000000000000000000000000600052604160045260246000fd5b6000601f19601f8301169050919050565b7f44656c65676174652063616c6c206572726f7200000000000000000000000000600082015250565b610400816102f8565b811461040b57600080fd5b50565b60805160601c61015661043160003960008181602d015260a201526101566000f3fe6080604052600436106100225760003560e01c8063d7dfa0dd1461007557610029565b3661002957005b60007f0000000000000000000000000000000000000000000000000000000000000000905060405136600082376000803683855af43d806000843e8160008114610071578184f35b8184fd5b34801561008157600080fd5b5061008a6100a0565b60405161009791906100d3565b60405180910390f35b7f000000000000000000000000000000000000000000000000000000000000000081565b6100cd816100ee565b82525050565b60006020820190506100e860008301846100c4565b92915050565b60006100f982610100565b9050919050565b600073ffffffffffffffffffffffffffffffffffffffff8216905091905056fea26469706673582212203f098a9bad2b97d6d1fce7327d65018071daacdce4ec80363552e0cd6ead7ee464736f6c63430008040033a26469706673582212200f17fc75a8fd46dc76f18d70196f64b089924985aaec849ad509b6a89b01077c64736f6c63430008040033608060405234801561001057600080fd5b506155ad806100206000396000f3fe6080604052600436106200013a5760003560e01c80637a22e55311620000af578063be9a6555116200006d578063be9a6555146200040b578063c78f19f91462000425578063d6a022b81462000455578063e2afaf401462000485578063efbe1c1c14620004b5576200013a565b80637a22e553146200030b5780637f30231714620003395780638456cb59146200037d5780638da5cb5b1462000397578063b236312814620003c7576200013a565b80633145862911620000fd5780633145862914620002415780633f4ba83a146200027157806351ffcab3146200028b57806355234ec014620002ab5780635c975abb14620002db576200013a565b8063150b7a02146200013f5780631909d45e14620001835780632135b2b914620001b157806325da499a14620001e15780632f6965b61462000211575b600080fd5b3480156200014c57600080fd5b506200016b6004803603810190620001659190620020c2565b620004cf565b6040516200017a919062002655565b60405180910390f35b3480156200019057600080fd5b50620001af6004803603810190620001a9919062002147565b620004e3565b005b348015620001be57600080fd5b50620001c9620006d3565b604051620001d8919062002672565b60405180910390f35b348015620001ee57600080fd5b50620001f9620006e6565b604051620002089190620025ee565b60405180910390f35b3480156200021e57600080fd5b50620002296200070c565b6040516200023891906200294e565b60405180910390f35b3480156200024e57600080fd5b506200025962000712565b6040516200026891906200294e565b60405180910390f35b3480156200027e57600080fd5b506200028962000718565b005b620002a96004803603810190620002a39190620021e0565b620007b7565b005b348015620002b857600080fd5b50620002c362000e4e565b604051620002d291906200296b565b60405180910390f35b348015620002e857600080fd5b50620002f362000e64565b60405162000302919062002638565b60405180910390f35b3480156200031857600080fd5b5062000337600480360381019062000331919062001f6e565b62000e7b565b005b3480156200034657600080fd5b506200036560048036038101906200035f919062001f42565b6200119d565b6040516200037491906200294e565b60405180910390f35b3480156200038a57600080fd5b506200039562001257565b005b348015620003a457600080fd5b50620003af620012f6565b604051620003be9190620025d1565b60405180910390f35b348015620003d457600080fd5b50620003f36004803603810190620003ed919062001f42565b6200131c565b6040516200040291906200294e565b60405180910390f35b3480156200041857600080fd5b50620004236200137b565b005b3480156200043257600080fd5b506200043d62001578565b6040516200044c91906200294e565b60405180910390f35b3480156200046257600080fd5b506200046d6200157e565b6040516200047c91906200294e565b60405180910390f35b3480156200049257600080fd5b506200049d6200159e565b604051620004ac9190620025d1565b60405180910390f35b348015620004c257600080fd5b50620004cd620015c8565b005b600063150b7a0260e01b9050949350505050565b609a60009054906101000a900473ffffffffffffffffffffffffffffffffffffffff1673ffffffffffffffffffffffffffffffffffffffff163373ffffffffffffffffffffffffffffffffffffffff161462000576576040517f08c379a00000000000000000000000000000000000000000000000000000000081526004016200056d90620028e8565b60405180910390fd5b600280811115620005b0577f4e487b7100000000000000000000000000000000000000000000000000000000600052602160045260246000fd5b609e60009054906101000a900460ff166002811115620005f9577f4e487b7100000000000000000000000000000000000000000000000000000000600052602160045260246000fd5b146200063c576040517f08c379a00000000000000000000000000000000000000000000000000000000081526004016200063390620027fa565b60405180910390fd5b609860009054906101000a900473ffffffffffffffffffffffffffffffffffffffff1673ffffffffffffffffffffffffffffffffffffffff166394bf804d82846040518363ffffffff1660e01b81526004016200069b92919062002988565b600060405180830381600087803b158015620006b657600080fd5b505af1158015620006cb573d6000803e3d6000fd5b505050505050565b609e60009054906101000a900460ff1681565b609960009054906101000a900473ffffffffffffffffffffffffffffffffffffffff1681565b609d5481565b609c5481565b609a60009054906101000a900473ffffffffffffffffffffffffffffffffffffffff1673ffffffffffffffffffffffffffffffffffffffff163373ffffffffffffffffffffffffffffffffffffffff1614620007ab576040517f08c379a0000000000000000000000000000000000000000000000000000000008152600401620007a290620028e8565b60405180910390fd5b620007b562001667565b565b60016002811115620007f2577f4e487b7100000000000000000000000000000000000000000000000000000000600052602160045260246000fd5b609e60009054906101000a900460ff1660028111156200083b577f4e487b7100000000000000000000000000000000000000000000000000000000600052602160045260246000fd5b146200087e576040517f08c379a00000000000000000000000000000000000000000000000000000000081526004016200087590620028c6565b60405180910390fd5b609d54421180620008a75750600060a060009054906101000a900463ffffffff1663ffffffff16145b15620008b857620008b762001712565b5b620008c262000e64565b1562000905576040517f08c379a0000000000000000000000000000000000000000000000000000000008152600401620008fc906200292c565b60405180910390fd5b6000609f60003373ffffffffffffffffffffffffffffffffffffffff1673ffffffffffffffffffffffffffffffffffffffff16815260200190815260200160002060009054906101000a900463ffffffff1663ffffffff1611620009a0576040517f08c379a0000000000000000000000000000000000000000000000000000000008152600401620009979062002750565b60405180910390fd5b60003411620009e6576040517f08c379a0000000000000000000000000000000000000000000000000000000008152600401620009dd9062002772565b60405180910390fd5b60008163ffffffff161162000a32576040517f08c379a000000000000000000000000000000000000000000000000000000000815260040162000a2990620027b6565b60405180910390fd5b8063ffffffff16609f60003373ffffffffffffffffffffffffffffffffffffffff1673ffffffffffffffffffffffffffffffffffffffff16815260200190815260200160002060009054906101000a900463ffffffff1663ffffffff16101562000ad3576040517f08c379a000000000000000000000000000000000000000000000000000000000815260040162000aca9062002794565b60405180910390fd5b6000609b548263ffffffff1662000aeb919062002b6d565b90503481111562000b33576040517f08c379a000000000000000000000000000000000000000000000000000000000815260040162000b2a9062002882565b60405180910390fd5b8163ffffffff1660a060009054906101000a900463ffffffff1663ffffffff16101562000b97576040517f08c379a000000000000000000000000000000000000000000000000000000000815260040162000b8e9062002860565b60405180910390fd5b8160a060008282829054906101000a900463ffffffff1662000bba919062002bce565b92506101000a81548163ffffffff021916908363ffffffff16021790555081609f60003373ffffffffffffffffffffffffffffffffffffffff1673ffffffffffffffffffffffffffffffffffffffff16815260200190815260200160002060008282829054906101000a900463ffffffff1662000c38919062002bce565b92506101000a81548163ffffffff021916908363ffffffff1602179055506000609960009054906101000a900473ffffffffffffffffffffffffffffffffffffffff1673ffffffffffffffffffffffffffffffffffffffff168260405162000ca090620025ba565b60006040518083038185875af1925050503d806000811462000cdf576040519150601f19603f3d011682016040523d82523d6000602084013e62000ce4565b606091505b505090508062000d2b576040517f08c379a000000000000000000000000000000000000000000000000000000000815260040162000d2290620027d8565b60405180910390fd5b609860009054906101000a900473ffffffffffffffffffffffffffffffffffffffff1673ffffffffffffffffffffffffffffffffffffffff1663a9059cbb33856040518363ffffffff1660e01b815260040162000d8a9291906200260b565b602060405180830381600087803b15801562000da557600080fd5b505af115801562000dba573d6000803e3d6000fd5b505050506040513d601f19601f8201168201806040525081019062000de0919062002188565b507fe684a55f31b79eca403df938249029212a5925ec6be8012e099b45bc1019e5d2338460405162000e149291906200260b565b60405180910390a1600060a060009054906101000a900463ffffffff1663ffffffff16141562000e495762000e4862001712565b5b505050565b60a060009054906101000a900463ffffffff1681565b6000606560009054906101000a900460ff16905090565b600060019054906101000a900460ff168062000ea2575060008054906101000a900460ff16155b62000ee4576040517f08c379a000000000000000000000000000000000000000000000000000000000815260040162000edb906200283e565b60405180910390fd5b60008060019054906101000a900460ff16159050801562000f35576001600060016101000a81548160ff02191690831515021790555060016000806101000a81548160ff0219169083151502179055505b62000f3f62001859565b8484893060405162000f519062001c82565b62000f6094939291906200268f565b604051809103906000f08015801562000f7d573d6000803e3d6000fd5b50609860006101000a81548173ffffffffffffffffffffffffffffffffffffffff021916908373ffffffffffffffffffffffffffffffffffffffff1602179055508a609760006101000a81548173ffffffffffffffffffffffffffffffffffffffff021916908373ffffffffffffffffffffffffffffffffffffffff16021790555089609960006101000a81548173ffffffffffffffffffffffffffffffffffffffff021916908373ffffffffffffffffffffffffffffffffffffffff16021790555088609a60006101000a81548173ffffffffffffffffffffffffffffffffffffffff021916908373ffffffffffffffffffffffffffffffffffffffff160217905550620151808662001092919062002b6d565b609c819055506000609e60006101000a81548160ff02191690836002811115620010e5577f4e487b7100000000000000000000000000000000000000000000000000000000600052602160045260246000fd5b021790555086609b819055508763ffffffff1662001104848462001942565b63ffffffff16146200114d576040517f08c379a00000000000000000000000000000000000000000000000000000000081526004016200114490620028a4565b60405180910390fd5b8760a060006101000a81548163ffffffff021916908363ffffffff1602179055508015620011905760008060016101000a81548160ff0219169083151502179055505b5050505050505050505050565b6000609860009054906101000a900473ffffffffffffffffffffffffffffffffffffffff1673ffffffffffffffffffffffffffffffffffffffff166370a08231836040518263ffffffff1660e01b8152600401620011fc9190620025d1565b60206040518083038186803b1580156200121557600080fd5b505afa1580156200122a573d6000803e3d6000fd5b505050506040513d601f19601f82011682018060405250810190620012509190620021b4565b9050919050565b609a60009054906101000a900473ffffffffffffffffffffffffffffffffffffffff1673ffffffffffffffffffffffffffffffffffffffff163373ffffffffffffffffffffffffffffffffffffffff1614620012ea576040517f08c379a0000000000000000000000000000000000000000000000000000000008152600401620012e190620028e8565b60405180910390fd5b620012f462001aef565b565b609a60009054906101000a900473ffffffffffffffffffffffffffffffffffffffff1681565b6000609f60008373ffffffffffffffffffffffffffffffffffffffff1673ffffffffffffffffffffffffffffffffffffffff16815260200190815260200160002060009054906101000a900463ffffffff1663ffffffff169050919050565b609a60009054906101000a900473ffffffffffffffffffffffffffffffffffffffff1673ffffffffffffffffffffffffffffffffffffffff163373ffffffffffffffffffffffffffffffffffffffff16146200140e576040517f08c379a00000000000000000000000000000000000000000000000000000000081526004016200140590620028e8565b60405180910390fd5b6000600281111562001449577f4e487b7100000000000000000000000000000000000000000000000000000000600052602160045260246000fd5b609e60009054906101000a900460ff16600281111562001492577f4e487b7100000000000000000000000000000000000000000000000000000000600052602160045260246000fd5b14620014d5576040517f08c379a0000000000000000000000000000000000000000000000000000000008152600401620014cc90620026ea565b60405180910390fd5b609c5442620014e5919062002acf565b609d819055506001609e60006101000a81548160ff0219169083600281111562001538577f4e487b7100000000000000000000000000000000000000000000000000000000600052602160045260246000fd5b02179055507f84d0447ca38875fa61115673259a210915bc1dd53a3c112d6f0790f15956a965336040516200156e9190620025d1565b60405180910390a1565b609b5481565b600060a060009054906101000a900463ffffffff1663ffffffff16905090565b6000609860009054906101000a900473ffffffffffffffffffffffffffffffffffffffff16905090565b609a60009054906101000a900473ffffffffffffffffffffffffffffffffffffffff1673ffffffffffffffffffffffffffffffffffffffff163373ffffffffffffffffffffffffffffffffffffffff16146200165b576040517f08c379a00000000000000000000000000000000000000000000000000000000081526004016200165290620028e8565b60405180910390fd5b6200166562001712565b565b6200167162000e64565b620016b3576040517f08c379a0000000000000000000000000000000000000000000000000000000008152600401620016aa906200272e565b60405180910390fd5b6000606560006101000a81548160ff0219169083151502179055507f5db9ee0a495bf2e6ff9c91a7834c1ba4fdd244a5e8aa4e537bd38aeae4b073aa620016f962001b9b565b604051620017089190620025d1565b60405180910390a1565b600160028111156200174d577f4e487b7100000000000000000000000000000000000000000000000000000000600052602160045260246000fd5b609e60009054906101000a900460ff16600281111562001796577f4e487b7100000000000000000000000000000000000000000000000000000000600052602160045260246000fd5b14620017d9576040517f08c379a0000000000000000000000000000000000000000000000000000000008152600401620017d0906200290a565b60405180910390fd5b6002609e60006101000a81548160ff0219169083600281111562001826577f4e487b7100000000000000000000000000000000000000000000000000000000600052602160045260246000fd5b02179055507f06e649079f276fcfc97b1e5cbfbb65937dac6a51ee164e3190e707e27ff345fa60405160405180910390a1565b600060019054906101000a900460ff168062001880575060008054906101000a900460ff16155b620018c2576040517f08c379a0000000000000000000000000000000000000000000000000000000008152600401620018b9906200283e565b60405180910390fd5b60008060019054906101000a900460ff16159050801562001913576001600060016101000a81548160ff02191690831515021790555060016000806101000a81548160ff0219169083151502179055505b6200191d62001ba3565b80156200193f5760008060016101000a81548160ff0219169083151502179055505b50565b600081518351146200198b576040517f08c379a000000000000000000000000000000000000000000000000000000000815260040162001982906200270c565b60405180910390fd5b600080600090505b845181101562001ae457838181518110620019d7577f4e487b7100000000000000000000000000000000000000000000000000000000600052603260045260246000fd5b6020026020010151609f600087848151811062001a1d577f4e487b7100000000000000000000000000000000000000000000000000000000600052603260045260246000fd5b602002602001015173ffffffffffffffffffffffffffffffffffffffff1673ffffffffffffffffffffffffffffffffffffffff16815260200190815260200160002060006101000a81548163ffffffff021916908363ffffffff16021790555083818151811062001ab7577f4e487b7100000000000000000000000000000000000000000000000000000000600052603260045260246000fd5b60200260200101518262001acc919062002b2c565b9150808062001adb9062002d5b565b91505062001993565b508091505092915050565b62001af962000e64565b1562001b3c576040517f08c379a000000000000000000000000000000000000000000000000000000000815260040162001b33906200281c565b60405180910390fd5b6001606560006101000a81548160ff0219169083151502179055507f62e78cea01bee320cd4e420270b5ea74000d11b0c9f74754ebdbfc544b05a25862001b8262001b9b565b60405162001b919190620025d1565b60405180910390a1565b600033905090565b600060019054906101000a900460ff168062001bca575060008054906101000a900460ff16155b62001c0c576040517f08c379a000000000000000000000000000000000000000000000000000000000815260040162001c03906200283e565b60405180910390fd5b60008060019054906101000a900460ff16159050801562001c5d576001600060016101000a81548160ff02191690831515021790555060016000806101000a81548160ff0219169083151502179055505b801562001c7f5760008060016101000a81548160ff0219169083151502179055505b50565b61228280620032f683390190565b600062001ca762001ca184620029de565b620029b5565b9050808382526020820190508285602086028201111562001cc757600080fd5b60005b8581101562001cfb578162001ce0888262001e04565b84526020840193506020830192505060018101905062001cca565b5050509392505050565b600062001d1c62001d168462002a0d565b620029b5565b9050808382526020820190508285602086028201111562001d3c57600080fd5b60005b8581101562001d70578162001d55888262001f2b565b84526020840193506020830192505060018101905062001d3f565b5050509392505050565b600062001d9162001d8b8462002a3c565b620029b5565b90508281526020810184848401111562001daa57600080fd5b62001db784828562002ce0565b509392505050565b600062001dd662001dd08462002a72565b620029b5565b90508281526020810184848401111562001def57600080fd5b62001dfc84828562002ce0565b509392505050565b60008135905062001e158162003273565b92915050565b60008135905062001e2c816200328d565b92915050565b600082601f83011262001e4457600080fd5b813562001e5684826020860162001c90565b91505092915050565b600082601f83011262001e7157600080fd5b813562001e8384826020860162001d05565b91505092915050565b60008151905062001e9d81620032a7565b92915050565b600082601f83011262001eb557600080fd5b813562001ec784826020860162001d7a565b91505092915050565b600082601f83011262001ee257600080fd5b813562001ef484826020860162001dbf565b91505092915050565b60008135905062001f0e81620032c1565b92915050565b60008151905062001f2581620032c1565b92915050565b60008135905062001f3c81620032db565b92915050565b60006020828403121562001f5557600080fd5b600062001f658482850162001e04565b91505092915050565b6000806000806000806000806000806101408b8d03121562001f8f57600080fd5b600062001f9f8d828e0162001e04565b9a5050602062001fb28d828e0162001e1b565b995050604062001fc58d828e0162001e04565b985050606062001fd88d828e0162001f2b565b975050608062001feb8d828e0162001efd565b96505060a062001ffe8d828e0162001efd565b95505060c08b013567ffffffffffffffff8111156200201c57600080fd5b6200202a8d828e0162001ed0565b94505060e08b013567ffffffffffffffff8111156200204857600080fd5b620020568d828e0162001ed0565b9350506101008b013567ffffffffffffffff8111156200207557600080fd5b620020838d828e0162001e32565b9250506101208b013567ffffffffffffffff811115620020a257600080fd5b620020b08d828e0162001e5f565b9150509295989b9194979a5092959850565b60008060008060808587031215620020d957600080fd5b6000620020e98782880162001e04565b9450506020620020fc8782880162001e04565b93505060406200210f8782880162001efd565b925050606085013567ffffffffffffffff8111156200212d57600080fd5b6200213b8782880162001ea3565b91505092959194509250565b600080604083850312156200215b57600080fd5b60006200216b8582860162001e04565b92505060206200217e8582860162001f2b565b9150509250929050565b6000602082840312156200219b57600080fd5b6000620021ab8482850162001e8c565b91505092915050565b600060208284031215620021c757600080fd5b6000620021d78482850162001f14565b91505092915050565b600060208284031215620021f357600080fd5b6000620022038482850162001f2b565b91505092915050565b620022178162002c1d565b82525050565b620022288162002c09565b82525050565b620022398162002c31565b82525050565b6200224a8162002c3d565b82525050565b6200225b8162002cb8565b82525050565b60006200226e8262002aa8565b6200227a818562002abe565b93506200228c81856020860162002cef565b620022978162002e36565b840191505092915050565b6000620022b1601b8362002abe565b9150620022be8262002e47565b602082019050919050565b6000620022d860368362002abe565b9150620022e58262002e70565b604082019050919050565b6000620022ff60148362002abe565b91506200230c8262002ebf565b602082019050919050565b60006200232660368362002abe565b9150620023338262002ee8565b604082019050919050565b60006200234d601a8362002abe565b91506200235a8262002f37565b602082019050919050565b600062002374602c8362002abe565b9150620023818262002f60565b604082019050919050565b60006200239b601a8362002abe565b9150620023a88262002faf565b602082019050919050565b6000620023c2601e8362002abe565b9150620023cf8262002fd8565b602082019050919050565b6000620023e960158362002abe565b9150620023f68262003001565b602082019050919050565b60006200241060108362002abe565b91506200241d826200302a565b602082019050919050565b600062002437602e8362002abe565b9150620024448262003053565b604082019050919050565b60006200245e602e8362002abe565b91506200246b82620030a2565b604082019050919050565b600062002485604d8362002abe565b91506200249282620030f1565b606082019050919050565b6000620024ac60338362002abe565b9150620024b98262003166565b604082019050919050565b6000620024d360158362002abe565b9150620024e082620031b5565b602082019050919050565b6000620024fa60208362002abe565b91506200250782620031de565b602082019050919050565b600062002521601b8362002abe565b91506200252e8262003207565b602082019050919050565b60006200254860008362002ab3565b9150620025558262003230565b600082019050919050565b60006200256f60128362002abe565b91506200257c8262003233565b602082019050919050565b620025928162002c9e565b82525050565b620025a38162002ccc565b82525050565b620025b48162002ca8565b82525050565b6000620025c78262002539565b9150819050919050565b6000602082019050620025e860008301846200221d565b92915050565b60006020820190506200260560008301846200220c565b92915050565b60006040820190506200262260008301856200221d565b62002631602083018462002598565b9392505050565b60006020820190506200264f60008301846200222e565b92915050565b60006020820190506200266c60008301846200223f565b92915050565b600060208201905062002689600083018462002250565b92915050565b60006080820190508181036000830152620026ab818762002261565b90508181036020830152620026c1818662002261565b9050620026d2604083018562002598565b620026e160608301846200221d565b95945050505050565b600060208201905081810360008301526200270581620022a2565b9050919050565b600060208201905081810360008301526200272781620022c9565b9050919050565b600060208201905081810360008301526200274981620022f0565b9050919050565b600060208201905081810360008301526200276b8162002317565b9050919050565b600060208201905081810360008301526200278d816200233e565b9050919050565b60006020820190508181036000830152620027af8162002365565b9050919050565b60006020820190508181036000830152620027d1816200238c565b9050919050565b60006020820190508181036000830152620027f381620023b3565b9050919050565b600060208201905081810360008301526200281581620023da565b9050919050565b60006020820190508181036000830152620028378162002401565b9050919050565b60006020820190508181036000830152620028598162002428565b9050919050565b600060208201905081810360008301526200287b816200244f565b9050919050565b600060208201905081810360008301526200289d8162002476565b9050919050565b60006020820190508181036000830152620028bf816200249d565b9050919050565b60006020820190508181036000830152620028e181620024c4565b9050919050565b600060208201905081810360008301526200290381620024eb565b9050919050565b60006020820190508181036000830152620029258162002512565b9050919050565b60006020820190508181036000830152620029478162002560565b9050919050565b600060208201905062002965600083018462002587565b92915050565b6000602082019050620029826000830184620025a9565b92915050565b60006040820190506200299f600083018562002598565b620029ae60208301846200221d565b9392505050565b6000620029c1620029d4565b9050620029cf828262002d25565b919050565b6000604051905090565b600067ffffffffffffffff821115620029fc57620029fb62002e07565b5b602082029050602081019050919050565b600067ffffffffffffffff82111562002a2b5762002a2a62002e07565b5b602082029050602081019050919050565b600067ffffffffffffffff82111562002a5a5762002a5962002e07565b5b62002a658262002e36565b9050602081019050919050565b600067ffffffffffffffff82111562002a905762002a8f62002e07565b5b62002a9b8262002e36565b9050602081019050919050565b600081519050919050565b600081905092915050565b600082825260208201905092915050565b600062002adc8262002c9e565b915062002ae98362002c9e565b9250827fffffffffffffffffffffffffffffffffffffffffffffffffffffffffffffffff0382111562002b215762002b2062002da9565b5b828201905092915050565b600062002b398262002ca8565b915062002b468362002ca8565b92508263ffffffff0382111562002b625762002b6162002da9565b5b828201905092915050565b600062002b7a8262002c9e565b915062002b878362002c9e565b9250817fffffffffffffffffffffffffffffffffffffffffffffffffffffffffffffffff048311821515161562002bc35762002bc262002da9565b5b828202905092915050565b600062002bdb8262002ca8565b915062002be88362002ca8565b92508282101562002bfe5762002bfd62002da9565b5b828203905092915050565b600062002c168262002c7e565b9050919050565b600062002c2a8262002c7e565b9050919050565b60008115159050919050565b60007fffffffff0000000000000000000000000000000000000000000000000000000082169050919050565b600081905062002c79826200325c565b919050565b600073ffffffffffffffffffffffffffffffffffffffff82169050919050565b6000819050919050565b600063ffffffff82169050919050565b600062002cc58262002c69565b9050919050565b600062002cd98262002ca8565b9050919050565b82818337600083830152505050565b60005b8381101562002d0f57808201518184015260208101905062002cf2565b8381111562002d1f576000848401525b50505050565b62002d308262002e36565b810181811067ffffffffffffffff8211171562002d525762002d5162002e07565b5b80604052505050565b600062002d688262002c9e565b91507fffffffffffffffffffffffffffffffffffffffffffffffffffffffffffffffff82141562002d9e5762002d9d62002da9565b5b600182019050919050565b7f4e487b7100000000000000000000000000000000000000000000000000000000600052601160045260246000fd5b7f4e487b7100000000000000000000000000000000000000000000000000000000600052602160045260246000fd5b7f4e487b7100000000000000000000000000000000000000000000000000000000600052604160045260246000fd5b6000601f19601f8301169050919050565b7f4f66666572696e6720697320616c726561647920737461727465640000000000600082015250565b7f46756e6465727320616e6420616c6c6f636174696f6e2061727261792073697a60008201527f65732063616e6e6f7420626520646966666572656e7400000000000000000000602082015250565b7f5061757361626c653a206e6f7420706175736564000000000000000000000000600082015250565b7f41646472657373206973206e6f7420616c6c6f77656420746f2070617274696360008201527f697061746520696e20746865206f66666572696e672e00000000000000000000602082015250565b7f46756e64732073656e742063616e6e6f74206265207a65726f2e000000000000600082015250565b7f426964206973206d6f7265207468616e20616c6c6f636174656420666f72207460008201527f68697320616464726573732e0000000000000000000000000000000000000000602082015250565b7f42696420616d6f756e742063616e6e6f74206265207a65726f2e000000000000600082015250565b7f5472616e7366657220616d6f756e74206e6f74207375636365737366756c0000600082015250565b7f4f66666572696e67206973206e6f7420656e6465640000000000000000000000600082015250565b7f5061757361626c653a2070617573656400000000000000000000000000000000600082015250565b7f496e697469616c697a61626c653a20636f6e747261637420697320616c72656160008201527f647920696e697469616c697a6564000000000000000000000000000000000000602082015250565b7f52656d61696e696e67206973206c657373207468616e2074686520616d6f756e60008201527f742074686174206973206269642e000000000000000000000000000000000000602082015250565b7f46756e64732073656e7420666f7220626964206973206c657373207468616e2060008201527f74686520746f74616c206361706974616c20726571756972656420746f20627560208201527f792074686520616d6f756e742e00000000000000000000000000000000000000604082015250565b7f476976656e20737570706c79206973206e6f7420657175616c20746f2074686560008201527f2073756d206f6620616c6c6f636174696f6e7300000000000000000000000000602082015250565b7f4f66666572696e67206973206e6f74206c6976652e0000000000000000000000600082015250565b7f53656e646572206973206e6f74207468652070726f6a656374206f776e65722e600082015250565b7f4f66666572696e6720697320616c726561647920636c6f7365642e0000000000600082015250565b50565b7f54686520626964206973207061757365642e0000000000000000000000000000600082015250565b6003811062003270576200326f62002dd8565b5b50565b6200327e8162002c09565b81146200328a57600080fd5b50565b620032988162002c1d565b8114620032a457600080fd5b50565b620032b28162002c31565b8114620032be57600080fd5b50565b620032cc8162002c9e565b8114620032d857600080fd5b50565b620032e68162002ca8565b8114620032f257600080fd5b5056fe60806040523480156200001157600080fd5b50604051620022823803806200228283398181016040528101906200003791906200044a565b8383816003908051906020019062000051929190620002fa565b5080600490805190602001906200006a929190620002fa565b5050506200008d62000081620000a960201b60201c565b620000b160201b60201c565b6200009f81836200017760201b60201c565b5050505062000807565b600033905090565b6000600560009054906101000a900473ffffffffffffffffffffffffffffffffffffffff16905081600560006101000a81548173ffffffffffffffffffffffffffffffffffffffff021916908373ffffffffffffffffffffffffffffffffffffffff1602179055508173ffffffffffffffffffffffffffffffffffffffff168173ffffffffffffffffffffffffffffffffffffffff167f8be0079c531659141344cd1fd0a4f28419497f9722a3daafe3b4186f6b6457e060405160405180910390a35050565b600073ffffffffffffffffffffffffffffffffffffffff168273ffffffffffffffffffffffffffffffffffffffff161415620001ea576040517f08c379a0000000000000000000000000000000000000000000000000000000008152600401620001e19062000520565b60405180910390fd5b620001fe60008383620002f060201b60201c565b8060026000828254620002129190620005cf565b92505081905550806000808473ffffffffffffffffffffffffffffffffffffffff1673ffffffffffffffffffffffffffffffffffffffff1681526020019081526020016000206000828254620002699190620005cf565b925050819055508173ffffffffffffffffffffffffffffffffffffffff16600073ffffffffffffffffffffffffffffffffffffffff167fddf252ad1be2c89b69c2b068fc378daa952ba7f163c4a11628f55a4df523b3ef83604051620002d0919062000542565b60405180910390a3620002ec60008383620002f560201b60201c565b5050565b505050565b505050565b8280546200030890620006a0565b90600052602060002090601f0160209004810192826200032c576000855562000378565b82601f106200034757805160ff191683800117855562000378565b8280016001018555821562000378579182015b82811115620003775782518255916020019190600101906200035a565b5b5090506200038791906200038b565b5090565b5b80821115620003a65760008160009055506001016200038c565b5090565b6000620003c1620003bb8462000588565b6200055f565b905082815260208101848484011115620003da57600080fd5b620003e78482856200066a565b509392505050565b6000815190506200040081620007d3565b92915050565b600082601f8301126200041857600080fd5b81516200042a848260208601620003aa565b91505092915050565b6000815190506200044481620007ed565b92915050565b600080600080608085870312156200046157600080fd5b600085015167ffffffffffffffff8111156200047c57600080fd5b6200048a8782880162000406565b945050602085015167ffffffffffffffff811115620004a857600080fd5b620004b68782880162000406565b9350506040620004c98782880162000433565b9250506060620004dc87828801620003ef565b91505092959194509250565b6000620004f7601f83620005be565b91506200050482620007aa565b602082019050919050565b6200051a8162000660565b82525050565b600060208201905081810360008301526200053b81620004e8565b9050919050565b60006020820190506200055960008301846200050f565b92915050565b60006200056b6200057e565b9050620005798282620006d6565b919050565b6000604051905090565b600067ffffffffffffffff821115620005a657620005a56200076a565b5b620005b18262000799565b9050602081019050919050565b600082825260208201905092915050565b6000620005dc8262000660565b9150620005e98362000660565b9250827fffffffffffffffffffffffffffffffffffffffffffffffffffffffffffffffff038211156200062157620006206200070c565b5b828201905092915050565b6000620006398262000640565b9050919050565b600073ffffffffffffffffffffffffffffffffffffffff82169050919050565b6000819050919050565b60005b838110156200068a5780820151818401526020810190506200066d565b838111156200069a576000848401525b50505050565b60006002820490506001821680620006b957607f821691505b60208210811415620006d057620006cf6200073b565b5b50919050565b620006e18262000799565b810181811067ffffffffffffffff821117156200070357620007026200076a565b5b80604052505050565b7f4e487b7100000000000000000000000000000000000000000000000000000000600052601160045260246000fd5b7f4e487b7100000000000000000000000000000000000000000000000000000000600052602260045260246000fd5b7f4e487b7100000000000000000000000000000000000000000000000000000000600052604160045260246000fd5b6000601f19601f8301169050919050565b7f45524332303a206d696e7420746f20746865207a65726f206164647265737300600082015250565b620007de816200062c565b8114620007ea57600080fd5b50565b620007f88162000660565b81146200080457600080fd5b50565b611a6b80620008176000396000f3fe608060405234801561001057600080fd5b50600436106100f55760003560e01c8063715018a611610097578063a457c2d711610066578063a457c2d714610276578063a9059cbb146102a6578063dd62ed3e146102d6578063f2fde38b14610306576100f5565b8063715018a6146102145780638da5cb5b1461021e57806394bf804d1461023c57806395d89b4114610258576100f5565b806323b872dd116100d357806323b872dd14610166578063313ce5671461019657806339509351146101b457806370a08231146101e4576100f5565b806306fdde03146100fa578063095ea7b31461011857806318160ddd14610148575b600080fd5b610102610322565b60405161010f919061140a565b60405180910390f35b610132600480360381019061012d9190611189565b6103b4565b60405161013f91906113ef565b60405180910390f35b6101506103d2565b60405161015d919061156c565b60405180910390f35b610180600480360381019061017b919061113a565b6103dc565b60405161018d91906113ef565b60405180910390f35b61019e6104d4565b6040516101ab9190611587565b60405180910390f35b6101ce60048036038101906101c99190611189565b6104dd565b6040516101db91906113ef565b60405180910390f35b6101fe60048036038101906101f991906110d5565b610589565b60405161020b919061156c565b60405180910390f35b61021c6105d1565b005b610226610659565b60405161023391906113d4565b60405180910390f35b610256600480360381019061025191906111c5565b610683565b005b61026061070d565b60405161026d919061140a565b60405180910390f35b610290600480360381019061028b9190611189565b61079f565b60405161029d91906113ef565b60405180910390f35b6102c060048036038101906102bb9190611189565b61088a565b6040516102cd91906113ef565b60405180910390f35b6102f060048036038101906102eb91906110fe565b6108a8565b6040516102fd919061156c565b60405180910390f35b610320600480360381019061031b91906110d5565b61092f565b005b6060600380546103319061169c565b80601f016020809104026020016040519081016040528092919081815260200182805461035d9061169c565b80156103aa5780601f1061037f576101008083540402835291602001916103aa565b820191906000526020600020905b81548152906001019060200180831161038d57829003601f168201915b5050505050905090565b60006103c86103c1610a27565b8484610a2f565b6001905092915050565b6000600254905090565b60006103e9848484610bfa565b6000600160008673ffffffffffffffffffffffffffffffffffffffff1673ffffffffffffffffffffffffffffffffffffffff1681526020019081526020016000206000610434610a27565b73ffffffffffffffffffffffffffffffffffffffff1673ffffffffffffffffffffffffffffffffffffffff168152602001908152602001600020549050828110156104b4576040517f08c379a00000000000000000000000000000000000000000000000000000000081526004016104ab906114ac565b60405180910390fd5b6104c8856104c0610a27565b858403610a2f565b60019150509392505050565b60006012905090565b600061057f6104ea610a27565b8484600160006104f8610a27565b73ffffffffffffffffffffffffffffffffffffffff1673ffffffffffffffffffffffffffffffffffffffff16815260200190815260200160002060008873ffffffffffffffffffffffffffffffffffffffff1673ffffffffffffffffffffffffffffffffffffffff1681526020019081526020016000205461057a91906115be565b610a2f565b6001905092915050565b60008060008373ffffffffffffffffffffffffffffffffffffffff1673ffffffffffffffffffffffffffffffffffffffff168152602001908152602001600020549050919050565b6105d9610a27565b73ffffffffffffffffffffffffffffffffffffffff166105f7610659565b73ffffffffffffffffffffffffffffffffffffffff161461064d576040517f08c379a0000000000000000000000000000000000000000000000000000000008152600401610644906114cc565b60405180910390fd5b6106576000610e7b565b565b6000600560009054906101000a900473ffffffffffffffffffffffffffffffffffffffff16905090565b61068b610a27565b73ffffffffffffffffffffffffffffffffffffffff166106a9610659565b73ffffffffffffffffffffffffffffffffffffffff16146106ff576040517f08c379a00000000000000000000000000000000000000000000000000000000081526004016106f6906114cc565b60405180910390fd5b6107098183610f41565b5050565b60606004805461071c9061169c565b80601f01602080910402602001604051908101604052809291908181526020018280546107489061169c565b80156107955780601f1061076a57610100808354040283529160200191610795565b820191906000526020600020905b81548152906001019060200180831161077857829003601f168201915b5050505050905090565b600080600160006107ae610a27565b73ffffffffffffffffffffffffffffffffffffffff1673ffffffffffffffffffffffffffffffffffffffff16815260200190815260200160002060008573ffffffffffffffffffffffffffffffffffffffff1673ffffffffffffffffffffffffffffffffffffffff1681526020019081526020016000205490508281101561086b576040517f08c379a00000000000000000000000000000000000000000000000000000000081526004016108629061152c565b60405180910390fd5b61087f610876610a27565b85858403610a2f565b600191505092915050565b600061089e610897610a27565b8484610bfa565b6001905092915050565b6000600160008473ffffffffffffffffffffffffffffffffffffffff1673ffffffffffffffffffffffffffffffffffffffff16815260200190815260200160002060008373ffffffffffffffffffffffffffffffffffffffff1673ffffffffffffffffffffffffffffffffffffffff16815260200190815260200160002054905092915050565b610937610a27565b73ffffffffffffffffffffffffffffffffffffffff16610955610659565b73ffffffffffffffffffffffffffffffffffffffff16146109ab576040517f08c379a00000000000000000000000000000000000000000000000000000000081526004016109a2906114cc565b60405180910390fd5b600073ffffffffffffffffffffffffffffffffffffffff168173ffffffffffffffffffffffffffffffffffffffff161415610a1b576040517f08c379a0000000000000000000000000000000000000000000000000000000008152600401610a129061144c565b60405180910390fd5b610a2481610e7b565b50565b600033905090565b600073ffffffffffffffffffffffffffffffffffffffff168373ffffffffffffffffffffffffffffffffffffffff161415610a9f576040517f08c379a0000000000000000000000000000000000000000000000000000000008152600401610a969061150c565b60405180910390fd5b600073ffffffffffffffffffffffffffffffffffffffff168273ffffffffffffffffffffffffffffffffffffffff161415610b0f576040517f08c379a0000000000000000000000000000000000000000000000000000000008152600401610b069061146c565b60405180910390fd5b80600160008573ffffffffffffffffffffffffffffffffffffffff1673ffffffffffffffffffffffffffffffffffffffff16815260200190815260200160002060008473ffffffffffffffffffffffffffffffffffffffff1673ffffffffffffffffffffffffffffffffffffffff168152602001908152602001600020819055508173ffffffffffffffffffffffffffffffffffffffff168373ffffffffffffffffffffffffffffffffffffffff167f8c5be1e5ebec7d5bd14f71427d1e84f3dd0314c0f7b2291e5b200ac8c7c3b92583604051610bed919061156c565b60405180910390a3505050565b600073ffffffffffffffffffffffffffffffffffffffff168373ffffffffffffffffffffffffffffffffffffffff161415610c6a576040517f08c379a0000000000000000000000000000000000000000000000000000000008152600401610c61906114ec565b60405180910390fd5b600073ffffffffffffffffffffffffffffffffffffffff168273ffffffffffffffffffffffffffffffffffffffff161415610cda576040517f08c379a0000000000000000000000000000000000000000000000000000000008152600401610cd19061142c565b60405180910390fd5b610ce58383836110a1565b60008060008573ffffffffffffffffffffffffffffffffffffffff1673ffffffffffffffffffffffffffffffffffffffff16815260200190815260200160002054905081811015610d6b576040517f08c379a0000000000000000000000000000000000000000000000000000000008152600401610d629061148c565b60405180910390fd5b8181036000808673ffffffffffffffffffffffffffffffffffffffff1673ffffffffffffffffffffffffffffffffffffffff16815260200190815260200160002081905550816000808573ffffffffffffffffffffffffffffffffffffffff1673ffffffffffffffffffffffffffffffffffffffff1681526020019081526020016000206000828254610dfe91906115be565b925050819055508273ffffffffffffffffffffffffffffffffffffffff168473ffffffffffffffffffffffffffffffffffffffff167fddf252ad1be2c89b69c2b068fc378daa952ba7f163c4a11628f55a4df523b3ef84604051610e62919061156c565b60405180910390a3610e758484846110a6565b50505050565b6000600560009054906101000a900473ffffffffffffffffffffffffffffffffffffffff16905081600560006101000a81548173ffffffffffffffffffffffffffffffffffffffff021916908373ffffffffffffffffffffffffffffffffffffffff1602179055508173ffffffffffffffffffffffffffffffffffffffff168173ffffffffffffffffffffffffffffffffffffffff167f8be0079c531659141344cd1fd0a4f28419497f9722a3daafe3b4186f6b6457e060405160405180910390a35050565b600073ffffffffffffffffffffffffffffffffffffffff168273ffffffffffffffffffffffffffffffffffffffff161415610fb1576040517f08c379a0000000000000000000000000000000000000000000000000000000008152600401610fa89061154c565b60405180910390fd5b610fbd600083836110a1565b8060026000828254610fcf91906115be565b92505081905550806000808473ffffffffffffffffffffffffffffffffffffffff1673ffffffffffffffffffffffffffffffffffffffff168152602001908152602001600020600082825461102491906115be565b925050819055508173ffffffffffffffffffffffffffffffffffffffff16600073ffffffffffffffffffffffffffffffffffffffff167fddf252ad1be2c89b69c2b068fc378daa952ba7f163c4a11628f55a4df523b3ef83604051611089919061156c565b60405180910390a361109d600083836110a6565b5050565b505050565b505050565b6000813590506110ba81611a07565b92915050565b6000813590506110cf81611a1e565b92915050565b6000602082840312156110e757600080fd5b60006110f5848285016110ab565b91505092915050565b6000806040838503121561111157600080fd5b600061111f858286016110ab565b9250506020611130858286016110ab565b9150509250929050565b60008060006060848603121561114f57600080fd5b600061115d868287016110ab565b935050602061116e868287016110ab565b925050604061117f868287016110c0565b9150509250925092565b6000806040838503121561119c57600080fd5b60006111aa858286016110ab565b92505060206111bb858286016110c0565b9150509250929050565b600080604083850312156111d857600080fd5b60006111e6858286016110c0565b92505060206111f7858286016110ab565b9150509250929050565b61120a81611614565b82525050565b61121981611626565b82525050565b600061122a826115a2565b61123481856115ad565b9350611244818560208601611669565b61124d8161172c565b840191505092915050565b60006112656023836115ad565b91506112708261173d565b604082019050919050565b60006112886026836115ad565b91506112938261178c565b604082019050919050565b60006112ab6022836115ad565b91506112b6826117db565b604082019050919050565b60006112ce6026836115ad565b91506112d98261182a565b604082019050919050565b60006112f16028836115ad565b91506112fc82611879565b604082019050919050565b60006113146020836115ad565b915061131f826118c8565b602082019050919050565b60006113376025836115ad565b9150611342826118f1565b604082019050919050565b600061135a6024836115ad565b915061136582611940565b604082019050919050565b600061137d6025836115ad565b91506113888261198f565b604082019050919050565b60006113a0601f836115ad565b91506113ab826119de565b602082019050919050565b6113bf81611652565b82525050565b6113ce8161165c565b82525050565b60006020820190506113e96000830184611201565b92915050565b60006020820190506114046000830184611210565b92915050565b60006020820190508181036000830152611424818461121f565b905092915050565b6000602082019050818103600083015261144581611258565b9050919050565b600060208201905081810360008301526114658161127b565b9050919050565b600060208201905081810360008301526114858161129e565b9050919050565b600060208201905081810360008301526114a5816112c1565b9050919050565b600060208201905081810360008301526114c5816112e4565b9050919050565b600060208201905081810360008301526114e581611307565b9050919050565b600060208201905081810360008301526115058161132a565b9050919050565b600060208201905081810360008301526115258161134d565b9050919050565b6000602082019050818103600083015261154581611370565b9050919050565b6000602082019050818103600083015261156581611393565b9050919050565b600060208201905061158160008301846113b6565b92915050565b600060208201905061159c60008301846113c5565b92915050565b600081519050919050565b600082825260208201905092915050565b60006115c982611652565b91506115d483611652565b9250827fffffffffffffffffffffffffffffffffffffffffffffffffffffffffffffffff03821115611609576116086116ce565b5b828201905092915050565b600061161f82611632565b9050919050565b60008115159050919050565b600073ffffffffffffffffffffffffffffffffffffffff82169050919050565b6000819050919050565b600060ff82169050919050565b60005b8381101561168757808201518184015260208101905061166c565b83811115611696576000848401525b50505050565b600060028204905060018216806116b457607f821691505b602082108114156116c8576116c76116fd565b5b50919050565b7f4e487b7100000000000000000000000000000000000000000000000000000000600052601160045260246000fd5b7f4e487b7100000000000000000000000000000000000000000000000000000000600052602260045260246000fd5b6000601f19601f8301169050919050565b7f45524332303a207472616e7366657220746f20746865207a65726f206164647260008201527f6573730000000000000000000000000000000000000000000000000000000000602082015250565b7f4f776e61626c653a206e6577206f776e657220697320746865207a65726f206160008201527f6464726573730000000000000000000000000000000000000000000000000000602082015250565b7f45524332303a20617070726f766520746f20746865207a65726f20616464726560008201527f7373000000000000000000000000000000000000000000000000000000000000602082015250565b7f45524332303a207472616e7366657220616d6f756e742065786365656473206260008201527f616c616e63650000000000000000000000000000000000000000000000000000602082015250565b7f45524332303a207472616e7366657220616d6f756e742065786365656473206160008201527f6c6c6f77616e6365000000000000000000000000000000000000000000000000602082015250565b7f4f776e61626c653a2063616c6c6572206973206e6f7420746865206f776e6572600082015250565b7f45524332303a207472616e736665722066726f6d20746865207a65726f20616460008201527f6472657373000000000000000000000000000000000000000000000000000000602082015250565b7f45524332303a20617070726f76652066726f6d20746865207a65726f2061646460008201527f7265737300000000000000000000000000000000000000000000000000000000602082015250565b7f45524332303a2064656372656173656420616c6c6f77616e63652062656c6f7760008201527f207a65726f000000000000000000000000000000000000000000000000000000602082015250565b7f45524332303a206d696e7420746f20746865207a65726f206164647265737300600082015250565b611a1081611614565b8114611a1b57600080fd5b50565b611a2781611652565b8114611a3257600080fd5b5056fea264697066735822122048eb828e6f55b1efaa94eba7c569b459941c96d7b3bc959012a98a23f88aae3964736f6c63430008040033a2646970667358221220455301b1b1b11323af46902e82e73d69f6447841cb59d0113fb12dece2d162e864736f6c63430008040033",
  "linkReferences": {},
  "deployedLinkReferences": {}
}