{
  "_format": "hh-sol-artifact-1",
  "contractName": "FaroOfferingFactory",
  "sourceName": "contracts/Funding/FaroOfferingFactory.sol",
  "abi": [
    {
      "anonymous": false,
      "inputs": [
        {
          "indexed": true,
          "internalType": "address",
          "name": "token",
          "type": "address"
        },
        {
          "indexed": false,
          "internalType": "uint256",
          "name": "price",
          "type": "uint256"
        },
        {
          "indexed": false,
          "internalType": "address",
          "name": "vault",
          "type": "address"
        },
        {
          "indexed": false,
          "internalType": "uint256",
          "name": "vaultId",
          "type": "uint256"
        }
      ],
      "name": "Mint",
      "type": "event"
    },
    {
      "anonymous": false,
      "inputs": [
        {
          "indexed": true,
          "internalType": "address",
          "name": "previousOwner",
          "type": "address"
        },
        {
          "indexed": true,
          "internalType": "address",
          "name": "newOwner",
          "type": "address"
        }
      ],
      "name": "OwnershipTransferred",
      "type": "event"
    },
    {
      "anonymous": false,
      "inputs": [
        {
          "indexed": false,
          "internalType": "address",
          "name": "account",
          "type": "address"
        }
      ],
      "name": "Paused",
      "type": "event"
    },
    {
      "anonymous": false,
      "inputs": [
        {
          "indexed": false,
          "internalType": "address",
          "name": "account",
          "type": "address"
        }
      ],
      "name": "Unpaused",
      "type": "event"
    },
    {
      "inputs": [],
      "name": "getLastOffering",
      "outputs": [
        {
          "internalType": "address",
          "name": "",
          "type": "address"
        }
      ],
      "stateMutability": "view",
      "type": "function"
    },
    {
      "inputs": [
        {
          "internalType": "uint32",
          "name": "liveOfferingStartIndex",
          "type": "uint32"
        },
        {
          "internalType": "uint32",
          "name": "liveOfferingEndIndex",
          "type": "uint32"
        }
      ],
      "name": "getLiveOfferings",
      "outputs": [
        {
          "internalType": "address[]",
          "name": "",
          "type": "address[]"
        }
      ],
      "stateMutability": "view",
      "type": "function"
    },
    {
      "inputs": [],
      "name": "getNumOfTokens",
      "outputs": [
        {
          "internalType": "uint256",
          "name": "",
          "type": "uint256"
        }
      ],
      "stateMutability": "view",
      "type": "function"
    },
    {
      "inputs": [
        {
          "internalType": "uint256",
          "name": "offeringNum",
          "type": "uint256"
        }
      ],
      "name": "getOffering",
      "outputs": [
        {
          "internalType": "address",
          "name": "",
          "type": "address"
        }
      ],
      "stateMutability": "view",
      "type": "function"
    },
    {
      "inputs": [
        {
          "internalType": "address",
          "name": "_token",
          "type": "address"
        },
        {
          "internalType": "address payable",
          "name": "_projectFundingAddress",
          "type": "address"
        },
        {
          "internalType": "address",
          "name": "_owner",
          "type": "address"
        },
        {
          "internalType": "uint32",
          "name": "_supply",
          "type": "uint32"
        },
        {
          "internalType": "uint256",
          "name": "_listPrice",
          "type": "uint256"
        },
        {
          "internalType": "uint256",
          "name": "_listingPeriod",
          "type": "uint256"
        },
        {
          "internalType": "string",
          "name": "_name",
          "type": "string"
        },
        {
          "internalType": "string",
          "name": "_symbol",
          "type": "string"
        },
        {
          "internalType": "address[]",
          "name": "_funderAddresses",
          "type": "address[]"
        },
        {
          "internalType": "uint32[]",
          "name": "_allocations",
          "type": "uint32[]"
        }
      ],
      "name": "mint",
      "outputs": [
        {
          "internalType": "uint256",
          "name": "",
          "type": "uint256"
        }
      ],
      "stateMutability": "nonpayable",
      "type": "function"
    },
    {
      "inputs": [
        {
          "internalType": "uint256",
          "name": "",
          "type": "uint256"
        }
      ],
      "name": "offerings",
      "outputs": [
        {
          "internalType": "address",
          "name": "",
          "type": "address"
        }
      ],
      "stateMutability": "view",
      "type": "function"
    },
    {
      "inputs": [],
      "name": "owner",
      "outputs": [
        {
          "internalType": "address",
          "name": "",
          "type": "address"
        }
      ],
      "stateMutability": "view",
      "type": "function"
    },
    {
      "inputs": [],
      "name": "pause",
      "outputs": [],
      "stateMutability": "nonpayable",
      "type": "function"
    },
    {
      "inputs": [],
      "name": "paused",
      "outputs": [
        {
          "internalType": "bool",
          "name": "",
          "type": "bool"
        }
      ],
      "stateMutability": "view",
      "type": "function"
    },
    {
      "inputs": [],
      "name": "renounceOwnership",
      "outputs": [],
      "stateMutability": "nonpayable",
      "type": "function"
    },
    {
      "inputs": [
        {
          "internalType": "address",
          "name": "newOwner",
          "type": "address"
        }
      ],
      "name": "transferOwnership",
      "outputs": [],
      "stateMutability": "nonpayable",
      "type": "function"
    },
    {
      "inputs": [],
      "name": "unpause",
      "outputs": [],
      "stateMutability": "nonpayable",
      "type": "function"
    }
  ],
  "bytecode": "0x608060405260405162000012906200018a565b604051809103906000f0801580156200002f573d6000803e3d6000fd5b50600360006101000a81548173ffffffffffffffffffffffffffffffffffffffff021916908373ffffffffffffffffffffffffffffffffffffffff1602179055503480156200007d57600080fd5b506200009e62000092620000be60201b60201c565b620000c660201b60201c565b60008060146101000a81548160ff02191690831515021790555062000198565b600033905090565b60008060009054906101000a900473ffffffffffffffffffffffffffffffffffffffff169050816000806101000a81548173ffffffffffffffffffffffffffffffffffffffff021916908373ffffffffffffffffffffffffffffffffffffffff1602179055508173ffffffffffffffffffffffffffffffffffffffff168173ffffffffffffffffffffffffffffffffffffffff167f8be0079c531659141344cd1fd0a4f28419497f9722a3daafe3b4186f6b6457e060405160405180910390a35050565b615571806200289483390190565b6126ec80620001a86000396000f3fe60806040523480156200001157600080fd5b5060043610620000c45760003560e01c80638da5cb5b116200007b5780638da5cb5b146200016757806391e4c3e11462000189578063b85dc69414620001bf578063da5e57dc14620001f5578063e34fec1d1462000217578063f2fde38b146200024d57620000c4565b80632b13203014620000c95780633f4ba83a14620000ff57806351240971146200010b5780635c975abb146200012d578063715018a6146200014f5780638456cb59146200015b575b600080fd5b620000e76004803603810190620000e191906200160b565b6200026d565b604051620000f691906200198c565b60405180910390f35b62000109620002dc565b005b620001156200036b565b60405162000124919062001b94565b60405180910390f35b6200013762000375565b60405162000146919062001acd565b60405180910390f35b620001596200038b565b005b620001656200041c565b005b62000171620004ab565b6040516200018091906200198c565b60405180910390f35b620001a76004803603810190620001a19190620014b7565b620004d4565b604051620001b6919062001b94565b60405180910390f35b620001dd6004803603810190620001d7919062001637565b62000879565b604051620001ec919062001aa9565b60405180910390f35b620001ff62000e89565b6040516200020e91906200198c565b60405180910390f35b6200023560048036038101906200022f91906200160b565b62000f05565b6040516200024491906200198c565b60405180910390f35b6200026b60048036038101906200026591906200148b565b62000f45565b005b600060028281548110620002aa577f4e487b7100000000000000000000000000000000000000000000000000000000600052603260045260246000fd5b9060005260206000200160009054906101000a900473ffffffffffffffffffffffffffffffffffffffff169050919050565b620002e662001049565b73ffffffffffffffffffffffffffffffffffffffff1662000306620004ab565b73ffffffffffffffffffffffffffffffffffffffff16146200035f576040517f08c379a0000000000000000000000000000000000000000000000000000000008152600401620003569062001b72565b60405180910390fd5b6200036962001051565b565b6000600154905090565b60008060149054906101000a900460ff16905090565b6200039562001049565b73ffffffffffffffffffffffffffffffffffffffff16620003b5620004ab565b73ffffffffffffffffffffffffffffffffffffffff16146200040e576040517f08c379a0000000000000000000000000000000000000000000000000000000008152600401620004059062001b72565b60405180910390fd5b6200041a6000620010fb565b565b6200042662001049565b73ffffffffffffffffffffffffffffffffffffffff1662000446620004ab565b73ffffffffffffffffffffffffffffffffffffffff16146200049f576040517f08c379a0000000000000000000000000000000000000000000000000000000008152600401620004969062001b72565b60405180910390fd5b620004a9620011bf565b565b60008060009054906101000a900473ffffffffffffffffffffffffffffffffffffffff16905090565b6000620004e062001049565b73ffffffffffffffffffffffffffffffffffffffff1662000500620004ab565b73ffffffffffffffffffffffffffffffffffffffff161462000559576040517f08c379a0000000000000000000000000000000000000000000000000000000008152600401620005509062001b72565b60405180910390fd5b6200056362000375565b15620005a6576040517f08c379a00000000000000000000000000000000000000000000000000000000081526004016200059d9062001b2e565b60405180910390fd5b60005b83518110156200067c578973ffffffffffffffffffffffffffffffffffffffff1684828151811062000604577f4e487b7100000000000000000000000000000000000000000000000000000000600052603260045260246000fd5b602002602001015173ffffffffffffffffffffffffffffffffffffffff16141562000666576040517f08c379a00000000000000000000000000000000000000000000000000000000081526004016200065d9062001b50565b60405180910390fd5b8080620006739062001ebf565b915050620005a9565b5060008b8b8b8b8b8b8b8b8b8b604051602401620006a49a99989796959493929190620019a9565b6040516020818303038152906040527f7a22e553000000000000000000000000000000000000000000000000000000007bffffffffffffffffffffffffffffffffffffffffffffffffffffffff19166020820180517bffffffffffffffffffffffffffffffffffffffffffffffffffffffff838183161783525050505090506000600360009054906101000a900473ffffffffffffffffffffffffffffffffffffffff168260405162000757906200126b565b6200076492919062001a75565b604051809103906000f08015801562000781573d6000803e3d6000fd5b5090506002819080600181540180825580915050600190039060005260206000200160009091909190916101000a81548173ffffffffffffffffffffffffffffffffffffffff021916908373ffffffffffffffffffffffffffffffffffffffff16021790555060016000815480929190620007fc9062001ebf565b91905055508c73ffffffffffffffffffffffffffffffffffffffff167ff3f9b81b1aa7af42b83e33d01a22621ecf67d5ebeb4587a4d63e3737276076818a836001546040516200084f9392919062001bb1565b60405180910390a26001805462000867919062001d60565b925050509a9950505050505050505050565b6060600083836200088b919062001d9b565b905060008163ffffffff166002805490501015620008a857600080fd5b60006040516024016040516020818303038152906040527f2135b2b9000000000000000000000000000000000000000000000000000000007bffffffffffffffffffffffffffffffffffffffffffffffffffffffff19166020820180517bffffffffffffffffffffffffffffffffffffffffffffffffffffffff8381831617835250505050905060006040516024016040516020818303038152906040527f5c975abb000000000000000000000000000000000000000000000000000000007bffffffffffffffffffffffffffffffffffffffffffffffffffffffff19166020820180517bffffffffffffffffffffffffffffffffffffffffffffffffffffffff8381831617835250505050905060008463ffffffff1667ffffffffffffffff811115620009ff577f4e487b7100000000000000000000000000000000000000000000000000000000600052604160045260246000fd5b60405190808252806020026020018201604052801562000a2e5781602001602082028036833780820191505090505b509050600060608060008060008d63ffffffff1690505b8c63ffffffff1681101562000d1a576002818154811062000a8f577f4e487b7100000000000000000000000000000000000000000000000000000000600052603260045260246000fd5b9060005260206000200160009054906101000a900473ffffffffffffffffffffffffffffffffffffffff1695508573ffffffffffffffffffffffffffffffffffffffff168960405162000ae3919062001973565b600060405180830381855afa9150503d806000811462000b20576040519150601f19603f3d011682016040523d82523d6000602084013e62000b25565b606091505b5080965081945050508573ffffffffffffffffffffffffffffffffffffffff168860405162000b55919062001973565b600060405180830381855afa9150503d806000811462000b92576040519150601f19603f3d011682016040523d82523d6000602084013e62000b97565b606091505b50809550819350505082801562000bab5750815b1562000d0457600185601f8151811062000bee577f4e487b7100000000000000000000000000000000000000000000000000000000600052603260045260246000fd5b602001015160f81c60f81b60f81c60ff1614801562000c775750600060f81b84601f8151811062000c48577f4e487b7100000000000000000000000000000000000000000000000000000000600052603260045260246000fd5b602001015160f81c60f81b7effffffffffffffffffffffffffffffffffffffffffffffffffffffffffffff1916145b1562000d03578587828151811062000cb8577f4e487b7100000000000000000000000000000000000000000000000000000000600052603260045260246000fd5b602002602001019073ffffffffffffffffffffffffffffffffffffffff16908173ffffffffffffffffffffffffffffffffffffffff1681525050898062000cff9062001f0d565b9a50505b5b808062000d119062001ebf565b91505062000a45565b5060008963ffffffff1667ffffffffffffffff81111562000d64577f4e487b7100000000000000000000000000000000000000000000000000000000600052604160045260246000fd5b60405190808252806020026020018201604052801562000d935781602001602082028036833780820191505090505b50905060005b8a63ffffffff1681101562000e745787818151811062000de2577f4e487b7100000000000000000000000000000000000000000000000000000000600052603260045260246000fd5b602002602001015182828151811062000e24577f4e487b7100000000000000000000000000000000000000000000000000000000600052603260045260246000fd5b602002602001019073ffffffffffffffffffffffffffffffffffffffff16908173ffffffffffffffffffffffffffffffffffffffff1681525050808062000e6b9062001ebf565b91505062000d99565b50809b50505050505050505050505092915050565b600060026001805462000e9d919062001d60565b8154811062000ed5577f4e487b7100000000000000000000000000000000000000000000000000000000600052603260045260246000fd5b9060005260206000200160009054906101000a900473ffffffffffffffffffffffffffffffffffffffff16905090565b6002818154811062000f1657600080fd5b906000526020600020016000915054906101000a900473ffffffffffffffffffffffffffffffffffffffff1681565b62000f4f62001049565b73ffffffffffffffffffffffffffffffffffffffff1662000f6f620004ab565b73ffffffffffffffffffffffffffffffffffffffff161462000fc8576040517f08c379a000000000000000000000000000000000000000000000000000000000815260040162000fbf9062001b72565b60405180910390fd5b600073ffffffffffffffffffffffffffffffffffffffff168173ffffffffffffffffffffffffffffffffffffffff1614156200103b576040517f08c379a0000000000000000000000000000000000000000000000000000000008152600401620010329062001b0c565b60405180910390fd5b6200104681620010fb565b50565b600033905090565b6200105b62000375565b6200109d576040517f08c379a0000000000000000000000000000000000000000000000000000000008152600401620010949062001aea565b60405180910390fd5b60008060146101000a81548160ff0219169083151502179055507f5db9ee0a495bf2e6ff9c91a7834c1ba4fdd244a5e8aa4e537bd38aeae4b073aa620010e262001049565b604051620010f191906200198c565b60405180910390a1565b60008060009054906101000a900473ffffffffffffffffffffffffffffffffffffffff169050816000806101000a81548173ffffffffffffffffffffffffffffffffffffffff021916908373ffffffffffffffffffffffffffffffffffffffff1602179055508173ffffffffffffffffffffffffffffffffffffffff168173ffffffffffffffffffffffffffffffffffffffff167f8be0079c531659141344cd1fd0a4f28419497f9722a3daafe3b4186f6b6457e060405160405180910390a35050565b620011c962000375565b156200120c576040517f08c379a0000000000000000000000000000000000000000000000000000000008152600401620012039062001b2e565b60405180910390fd5b6001600060146101000a81548160ff0219169083151502179055507f62e78cea01bee320cd4e420270b5ea74000d11b0c9f74754ebdbfc544b05a2586200125262001049565b6040516200126191906200198c565b60405180910390a1565b610587806200213083390190565b6000620012906200128a8462001c17565b62001bee565b90508083825260208201905082856020860282011115620012b057600080fd5b60005b85811015620012e45781620012c98882620013a8565b845260208401935060208301925050600181019050620012b3565b5050509392505050565b600062001305620012ff8462001c46565b62001bee565b905080838252602082019050828560208602820111156200132557600080fd5b60005b858110156200135957816200133e888262001474565b84526020840193506020830192505060018101905062001328565b5050509392505050565b60006200137a620013748462001c75565b62001bee565b9050828152602081018484840111156200139357600080fd5b620013a084828562001e44565b509392505050565b600081359050620013b981620020c7565b92915050565b600081359050620013d081620020e1565b92915050565b600082601f830112620013e857600080fd5b8135620013fa84826020860162001279565b91505092915050565b600082601f8301126200141557600080fd5b813562001427848260208601620012ee565b91505092915050565b600082601f8301126200144257600080fd5b81356200145484826020860162001363565b91505092915050565b6000813590506200146e81620020fb565b92915050565b600081359050620014858162002115565b92915050565b6000602082840312156200149e57600080fd5b6000620014ae84828501620013a8565b91505092915050565b6000806000806000806000806000806101408b8d031215620014d857600080fd5b6000620014e88d828e01620013a8565b9a50506020620014fb8d828e01620013bf565b99505060406200150e8d828e01620013a8565b9850506060620015218d828e0162001474565b9750506080620015348d828e016200145d565b96505060a0620015478d828e016200145d565b95505060c08b013567ffffffffffffffff8111156200156557600080fd5b620015738d828e0162001430565b94505060e08b013567ffffffffffffffff8111156200159157600080fd5b6200159f8d828e0162001430565b9350506101008b013567ffffffffffffffff811115620015be57600080fd5b620015cc8d828e01620013d6565b9250506101208b013567ffffffffffffffff811115620015eb57600080fd5b620015f98d828e0162001403565b9150509295989b9194979a5092959850565b6000602082840312156200161e57600080fd5b60006200162e848285016200145d565b91505092915050565b600080604083850312156200164b57600080fd5b60006200165b8582860162001474565b92505060206200166e8582860162001474565b9150509250929050565b6000620016868383620016bd565b60208301905092915050565b6000620016a0838362001951565b60208301905092915050565b620016b78162001dea565b82525050565b620016c88162001dd6565b82525050565b620016d98162001dd6565b82525050565b6000620016ec8262001ccb565b620016f8818562001d11565b9350620017058362001cab565b8060005b838110156200173c57815162001720888262001678565b97506200172d8362001cf7565b92505060018101905062001709565b5085935050505092915050565b6000620017568262001cd6565b62001762818562001d22565b93506200176f8362001cbb565b8060005b83811015620017a65781516200178a888262001692565b9750620017978362001d04565b92505060018101905062001773565b5085935050505092915050565b620017be8162001dfe565b82525050565b6000620017d18262001ce1565b620017dd818562001d33565b9350620017ef81856020860162001e53565b620017fa8162001f9d565b840191505092915050565b6000620018128262001ce1565b6200181e818562001d44565b93506200183081856020860162001e53565b80840191505092915050565b6000620018498262001cec565b62001855818562001d4f565b93506200186781856020860162001e53565b620018728162001f9d565b840191505092915050565b60006200188c60148362001d4f565b9150620018998262001fae565b602082019050919050565b6000620018b360268362001d4f565b9150620018c08262001fd7565b604082019050919050565b6000620018da60108362001d4f565b9150620018e78262002026565b602082019050919050565b60006200190160258362001d4f565b91506200190e826200204f565b604082019050919050565b60006200192860208362001d4f565b915062001935826200209e565b602082019050919050565b6200194b8162001e2a565b82525050565b6200195c8162001e34565b82525050565b6200196d8162001e34565b82525050565b600062001981828462001805565b915081905092915050565b6000602082019050620019a36000830184620016ce565b92915050565b600061014082019050620019c1600083018d620016ce565b620019d0602083018c620016ac565b620019df604083018b620016ce565b620019ee606083018a62001962565b620019fd608083018962001940565b62001a0c60a083018862001940565b81810360c083015262001a2081876200183c565b905081810360e083015262001a3681866200183c565b905081810361010083015262001a4d8185620016df565b905081810361012083015262001a64818462001749565b90509b9a5050505050505050505050565b600060408201905062001a8c6000830185620016ce565b818103602083015262001aa08184620017c4565b90509392505050565b6000602082019050818103600083015262001ac58184620016df565b905092915050565b600060208201905062001ae46000830184620017b3565b92915050565b6000602082019050818103600083015262001b05816200187d565b9050919050565b6000602082019050818103600083015262001b2781620018a4565b9050919050565b6000602082019050818103600083015262001b4981620018cb565b9050919050565b6000602082019050818103600083015262001b6b81620018f2565b9050919050565b6000602082019050818103600083015262001b8d8162001919565b9050919050565b600060208201905062001bab600083018462001940565b92915050565b600060608201905062001bc8600083018662001940565b62001bd76020830185620016ce565b62001be6604083018462001940565b949350505050565b600062001bfa62001c0d565b905062001c08828262001e89565b919050565b6000604051905090565b600067ffffffffffffffff82111562001c355762001c3462001f6e565b5b602082029050602081019050919050565b600067ffffffffffffffff82111562001c645762001c6362001f6e565b5b602082029050602081019050919050565b600067ffffffffffffffff82111562001c935762001c9262001f6e565b5b62001c9e8262001f9d565b9050602081019050919050565b6000819050602082019050919050565b6000819050602082019050919050565b600081519050919050565b600081519050919050565b600081519050919050565b600081519050919050565b6000602082019050919050565b6000602082019050919050565b600082825260208201905092915050565b600082825260208201905092915050565b600082825260208201905092915050565b600081905092915050565b600082825260208201905092915050565b600062001d6d8262001e2a565b915062001d7a8362001e2a565b92508282101562001d905762001d8f62001f3f565b5b828203905092915050565b600062001da88262001e34565b915062001db58362001e34565b92508282101562001dcb5762001dca62001f3f565b5b828203905092915050565b600062001de38262001e0a565b9050919050565b600062001df78262001e0a565b9050919050565b60008115159050919050565b600073ffffffffffffffffffffffffffffffffffffffff82169050919050565b6000819050919050565b600063ffffffff82169050919050565b82818337600083830152505050565b60005b8381101562001e7357808201518184015260208101905062001e56565b8381111562001e83576000848401525b50505050565b62001e948262001f9d565b810181811067ffffffffffffffff8211171562001eb65762001eb562001f6e565b5b80604052505050565b600062001ecc8262001e2a565b91507fffffffffffffffffffffffffffffffffffffffffffffffffffffffffffffffff82141562001f025762001f0162001f3f565b5b600182019050919050565b600062001f1a8262001e34565b915063ffffffff82141562001f345762001f3362001f3f565b5b600182019050919050565b7f4e487b7100000000000000000000000000000000000000000000000000000000600052601160045260246000fd5b7f4e487b7100000000000000000000000000000000000000000000000000000000600052604160045260246000fd5b6000601f19601f8301169050919050565b7f5061757361626c653a206e6f7420706175736564000000000000000000000000600082015250565b7f4f776e61626c653a206e6577206f776e657220697320746865207a65726f206160008201527f6464726573730000000000000000000000000000000000000000000000000000602082015250565b7f5061757361626c653a2070617573656400000000000000000000000000000000600082015250565b7f4f776e657220616464726573732063616e6e6f7420626520616d6f6e6720667560008201527f6e64657273000000000000000000000000000000000000000000000000000000602082015250565b7f4f776e61626c653a2063616c6c6572206973206e6f7420746865206f776e6572600082015250565b620020d28162001dd6565b8114620020de57600080fd5b50565b620020ec8162001dea565b8114620020f857600080fd5b50565b620021068162001e2a565b81146200211257600080fd5b50565b620021208162001e34565b81146200212c57600080fd5b5056fe60a060405234801561001057600080fd5b506040516105873803806105878339818101604052810190610032919061019c565b8173ffffffffffffffffffffffffffffffffffffffff1660808173ffffffffffffffffffffffffffffffffffffffff1660601b815250506000808373ffffffffffffffffffffffffffffffffffffffff16836040516100919190610244565b600060405180830381855af49150503d80600081146100cc576040519150601f19603f3d011682016040523d82523d6000602084013e6100d1565b606091505b509150915081610116576040517f08c379a000000000000000000000000000000000000000000000000000000000815260040161010d9061025b565b60405180910390fd5b5050505061040e565b600061013261012d846102a0565b61027b565b90508281526020810184848401111561014a57600080fd5b61015584828561032a565b509392505050565b60008151905061016c816103f7565b92915050565b600082601f83011261018357600080fd5b815161019384826020860161011f565b91505092915050565b600080604083850312156101af57600080fd5b60006101bd8582860161015d565b925050602083015167ffffffffffffffff8111156101da57600080fd5b6101e685828601610172565b9150509250929050565b60006101fb826102d1565b61020581856102dc565b935061021581856020860161032a565b80840191505092915050565b600061022e6013836102e7565b9150610239826103ce565b602082019050919050565b600061025082846101f0565b915081905092915050565b6000602082019050818103600083015261027481610221565b9050919050565b6000610285610296565b9050610291828261035d565b919050565b6000604051905090565b600067ffffffffffffffff8211156102bb576102ba61038e565b5b6102c4826103bd565b9050602081019050919050565b600081519050919050565b600081905092915050565b600082825260208201905092915050565b60006103038261030a565b9050919050565b600073ffffffffffffffffffffffffffffffffffffffff82169050919050565b60005b8381101561034857808201518184015260208101905061032d565b83811115610357576000848401525b50505050565b610366826103bd565b810181811067ffffffffffffffff821117156103855761038461038e565b5b80604052505050565b7f4e487b7100000000000000000000000000000000000000000000000000000000600052604160045260246000fd5b6000601f19601f8301169050919050565b7f44656c65676174652063616c6c206572726f7200000000000000000000000000600082015250565b610400816102f8565b811461040b57600080fd5b50565b60805160601c61015661043160003960008181602d015260a201526101566000f3fe6080604052600436106100225760003560e01c8063d7dfa0dd1461007557610029565b3661002957005b60007f0000000000000000000000000000000000000000000000000000000000000000905060405136600082376000803683855af43d806000843e8160008114610071578184f35b8184fd5b34801561008157600080fd5b5061008a6100a0565b60405161009791906100d3565b60405180910390f35b7f000000000000000000000000000000000000000000000000000000000000000081565b6100cd816100ee565b82525050565b60006020820190506100e860008301846100c4565b92915050565b60006100f982610100565b9050919050565b600073ffffffffffffffffffffffffffffffffffffffff8216905091905056fea26469706673582212201e3538ccb2aef0b7d6a757c5f8dda152f829e4f1514e990b0f40463260eadee864736f6c63430008040033a26469706673582212208210b144c5b01bce3f696e71c86a9b2a38ecc0cbeacb935d0fd55cfe3ef2fdbb64736f6c63430008040033608060405234801561001057600080fd5b50615551806100206000396000f3fe6080604052600436106200012e5760003560e01c80635c975abb11620000af578063b2363128116200006d578063b236312814620003bb578063be9a655514620003ff578063c78f19f91462000419578063e2afaf401462000449578063efbe1c1c1462000479576200012e565b80635c975abb14620002cf5780637a22e55314620002ff5780637f302317146200032d5780638456cb5914620003715780638da5cb5b146200038b576200012e565b80632f6965b611620000fd5780632f6965b614620002055780633145862914620002355780633f4ba83a146200026557806351ffcab3146200027f57806355234ec0146200029f576200012e565b8063150b7a0214620001335780631909d45e14620001775780632135b2b914620001a557806325da499a14620001d5575b600080fd5b3480156200014057600080fd5b506200015f600480360381019062000159919062002066565b62000493565b6040516200016e9190620025f9565b60405180910390f35b3480156200018457600080fd5b50620001a360048036038101906200019d9190620020eb565b620004a7565b005b348015620001b257600080fd5b50620001bd62000697565b604051620001cc919062002616565b60405180910390f35b348015620001e257600080fd5b50620001ed620006aa565b604051620001fc919062002592565b60405180910390f35b3480156200021257600080fd5b506200021d620006d0565b6040516200022c9190620028f2565b60405180910390f35b3480156200024257600080fd5b506200024d620006d6565b6040516200025c9190620028f2565b60405180910390f35b3480156200027257600080fd5b506200027d620006dc565b005b6200029d600480360381019062000297919062002184565b6200077b565b005b348015620002ac57600080fd5b50620002b762000e12565b604051620002c691906200290f565b60405180910390f35b348015620002dc57600080fd5b50620002e762000e28565b604051620002f69190620025dc565b60405180910390f35b3480156200030c57600080fd5b506200032b600480360381019062000325919062001f12565b62000e3f565b005b3480156200033a57600080fd5b5062000359600480360381019062000353919062001ee6565b62001161565b604051620003689190620028f2565b60405180910390f35b3480156200037e57600080fd5b50620003896200121b565b005b3480156200039857600080fd5b50620003a3620012ba565b604051620003b2919062002575565b60405180910390f35b348015620003c857600080fd5b50620003e76004803603810190620003e1919062001ee6565b620012e0565b604051620003f69190620028f2565b60405180910390f35b3480156200040c57600080fd5b50620004176200133f565b005b3480156200042657600080fd5b50620004316200153c565b604051620004409190620028f2565b60405180910390f35b3480156200045657600080fd5b506200046162001542565b60405162000470919062002575565b60405180910390f35b3480156200048657600080fd5b50620004916200156c565b005b600063150b7a0260e01b9050949350505050565b609a60009054906101000a900473ffffffffffffffffffffffffffffffffffffffff1673ffffffffffffffffffffffffffffffffffffffff163373ffffffffffffffffffffffffffffffffffffffff16146200053a576040517f08c379a000000000000000000000000000000000000000000000000000000000815260040162000531906200288c565b60405180910390fd5b60028081111562000574577f4e487b7100000000000000000000000000000000000000000000000000000000600052602160045260246000fd5b609e60009054906101000a900460ff166002811115620005bd577f4e487b7100000000000000000000000000000000000000000000000000000000600052602160045260246000fd5b1462000600576040517f08c379a0000000000000000000000000000000000000000000000000000000008152600401620005f7906200279e565b60405180910390fd5b609860009054906101000a900473ffffffffffffffffffffffffffffffffffffffff1673ffffffffffffffffffffffffffffffffffffffff166394bf804d82846040518363ffffffff1660e01b81526004016200065f9291906200292c565b600060405180830381600087803b1580156200067a57600080fd5b505af11580156200068f573d6000803e3d6000fd5b505050505050565b609e60009054906101000a900460ff1681565b609960009054906101000a900473ffffffffffffffffffffffffffffffffffffffff1681565b609d5481565b609c5481565b609a60009054906101000a900473ffffffffffffffffffffffffffffffffffffffff1673ffffffffffffffffffffffffffffffffffffffff163373ffffffffffffffffffffffffffffffffffffffff16146200076f576040517f08c379a000000000000000000000000000000000000000000000000000000000815260040162000766906200288c565b60405180910390fd5b620007796200160b565b565b60016002811115620007b6577f4e487b7100000000000000000000000000000000000000000000000000000000600052602160045260246000fd5b609e60009054906101000a900460ff166002811115620007ff577f4e487b7100000000000000000000000000000000000000000000000000000000600052602160045260246000fd5b1462000842576040517f08c379a000000000000000000000000000000000000000000000000000000000815260040162000839906200286a565b60405180910390fd5b609d544211806200086b5750600060a060009054906101000a900463ffffffff1663ffffffff16145b156200087c576200087b620016b6565b5b6200088662000e28565b15620008c9576040517f08c379a0000000000000000000000000000000000000000000000000000000008152600401620008c090620028d0565b60405180910390fd5b6000609f60003373ffffffffffffffffffffffffffffffffffffffff1673ffffffffffffffffffffffffffffffffffffffff16815260200190815260200160002060009054906101000a900463ffffffff1663ffffffff161162000964576040517f08c379a00000000000000000000000000000000000000000000000000000000081526004016200095b90620026f4565b60405180910390fd5b60003411620009aa576040517f08c379a0000000000000000000000000000000000000000000000000000000008152600401620009a19062002716565b60405180910390fd5b60008163ffffffff1611620009f6576040517f08c379a0000000000000000000000000000000000000000000000000000000008152600401620009ed906200275a565b60405180910390fd5b8063ffffffff16609f60003373ffffffffffffffffffffffffffffffffffffffff1673ffffffffffffffffffffffffffffffffffffffff16815260200190815260200160002060009054906101000a900463ffffffff1663ffffffff16101562000a97576040517f08c379a000000000000000000000000000000000000000000000000000000000815260040162000a8e9062002738565b60405180910390fd5b6000609b548263ffffffff1662000aaf919062002b11565b90503481111562000af7576040517f08c379a000000000000000000000000000000000000000000000000000000000815260040162000aee9062002826565b60405180910390fd5b8163ffffffff1660a060009054906101000a900463ffffffff1663ffffffff16101562000b5b576040517f08c379a000000000000000000000000000000000000000000000000000000000815260040162000b529062002804565b60405180910390fd5b8160a060008282829054906101000a900463ffffffff1662000b7e919062002b72565b92506101000a81548163ffffffff021916908363ffffffff16021790555081609f60003373ffffffffffffffffffffffffffffffffffffffff1673ffffffffffffffffffffffffffffffffffffffff16815260200190815260200160002060008282829054906101000a900463ffffffff1662000bfc919062002b72565b92506101000a81548163ffffffff021916908363ffffffff1602179055506000609960009054906101000a900473ffffffffffffffffffffffffffffffffffffffff1673ffffffffffffffffffffffffffffffffffffffff168260405162000c64906200255e565b60006040518083038185875af1925050503d806000811462000ca3576040519150601f19603f3d011682016040523d82523d6000602084013e62000ca8565b606091505b505090508062000cef576040517f08c379a000000000000000000000000000000000000000000000000000000000815260040162000ce6906200277c565b60405180910390fd5b609860009054906101000a900473ffffffffffffffffffffffffffffffffffffffff1673ffffffffffffffffffffffffffffffffffffffff1663a9059cbb33856040518363ffffffff1660e01b815260040162000d4e929190620025af565b602060405180830381600087803b15801562000d6957600080fd5b505af115801562000d7e573d6000803e3d6000fd5b505050506040513d601f19601f8201168201806040525081019062000da491906200212c565b507fe684a55f31b79eca403df938249029212a5925ec6be8012e099b45bc1019e5d2338460405162000dd8929190620025af565b60405180910390a1600060a060009054906101000a900463ffffffff1663ffffffff16141562000e0d5762000e0c620016b6565b5b505050565b60a060009054906101000a900463ffffffff1681565b6000606560009054906101000a900460ff16905090565b600060019054906101000a900460ff168062000e66575060008054906101000a900460ff16155b62000ea8576040517f08c379a000000000000000000000000000000000000000000000000000000000815260040162000e9f90620027e2565b60405180910390fd5b60008060019054906101000a900460ff16159050801562000ef9576001600060016101000a81548160ff02191690831515021790555060016000806101000a81548160ff0219169083151502179055505b62000f03620017fd565b8484893060405162000f159062001c26565b62000f24949392919062002633565b604051809103906000f08015801562000f41573d6000803e3d6000fd5b50609860006101000a81548173ffffffffffffffffffffffffffffffffffffffff021916908373ffffffffffffffffffffffffffffffffffffffff1602179055508a609760006101000a81548173ffffffffffffffffffffffffffffffffffffffff021916908373ffffffffffffffffffffffffffffffffffffffff16021790555089609960006101000a81548173ffffffffffffffffffffffffffffffffffffffff021916908373ffffffffffffffffffffffffffffffffffffffff16021790555088609a60006101000a81548173ffffffffffffffffffffffffffffffffffffffff021916908373ffffffffffffffffffffffffffffffffffffffff160217905550620151808662001056919062002b11565b609c819055506000609e60006101000a81548160ff02191690836002811115620010a9577f4e487b7100000000000000000000000000000000000000000000000000000000600052602160045260246000fd5b021790555086609b819055508763ffffffff16620010c88484620018e6565b63ffffffff161462001111576040517f08c379a0000000000000000000000000000000000000000000000000000000008152600401620011089062002848565b60405180910390fd5b8760a060006101000a81548163ffffffff021916908363ffffffff1602179055508015620011545760008060016101000a81548160ff0219169083151502179055505b5050505050505050505050565b6000609860009054906101000a900473ffffffffffffffffffffffffffffffffffffffff1673ffffffffffffffffffffffffffffffffffffffff166370a08231836040518263ffffffff1660e01b8152600401620011c0919062002575565b60206040518083038186803b158015620011d957600080fd5b505afa158015620011ee573d6000803e3d6000fd5b505050506040513d601f19601f8201168201806040525081019062001214919062002158565b9050919050565b609a60009054906101000a900473ffffffffffffffffffffffffffffffffffffffff1673ffffffffffffffffffffffffffffffffffffffff163373ffffffffffffffffffffffffffffffffffffffff1614620012ae576040517f08c379a0000000000000000000000000000000000000000000000000000000008152600401620012a5906200288c565b60405180910390fd5b620012b862001a93565b565b609a60009054906101000a900473ffffffffffffffffffffffffffffffffffffffff1681565b6000609f60008373ffffffffffffffffffffffffffffffffffffffff1673ffffffffffffffffffffffffffffffffffffffff16815260200190815260200160002060009054906101000a900463ffffffff1663ffffffff169050919050565b609a60009054906101000a900473ffffffffffffffffffffffffffffffffffffffff1673ffffffffffffffffffffffffffffffffffffffff163373ffffffffffffffffffffffffffffffffffffffff1614620013d2576040517f08c379a0000000000000000000000000000000000000000000000000000000008152600401620013c9906200288c565b60405180910390fd5b600060028111156200140d577f4e487b7100000000000000000000000000000000000000000000000000000000600052602160045260246000fd5b609e60009054906101000a900460ff16600281111562001456577f4e487b7100000000000000000000000000000000000000000000000000000000600052602160045260246000fd5b1462001499576040517f08c379a000000000000000000000000000000000000000000000000000000000815260040162001490906200268e565b60405180910390fd5b609c5442620014a9919062002a73565b609d819055506001609e60006101000a81548160ff02191690836002811115620014fc577f4e487b7100000000000000000000000000000000000000000000000000000000600052602160045260246000fd5b02179055507f84d0447ca38875fa61115673259a210915bc1dd53a3c112d6f0790f15956a9653360405162001532919062002575565b60405180910390a1565b609b5481565b6000609860009054906101000a900473ffffffffffffffffffffffffffffffffffffffff16905090565b609a60009054906101000a900473ffffffffffffffffffffffffffffffffffffffff1673ffffffffffffffffffffffffffffffffffffffff163373ffffffffffffffffffffffffffffffffffffffff1614620015ff576040517f08c379a0000000000000000000000000000000000000000000000000000000008152600401620015f6906200288c565b60405180910390fd5b62001609620016b6565b565b6200161562000e28565b62001657576040517f08c379a00000000000000000000000000000000000000000000000000000000081526004016200164e90620026d2565b60405180910390fd5b6000606560006101000a81548160ff0219169083151502179055507f5db9ee0a495bf2e6ff9c91a7834c1ba4fdd244a5e8aa4e537bd38aeae4b073aa6200169d62001b3f565b604051620016ac919062002575565b60405180910390a1565b60016002811115620016f1577f4e487b7100000000000000000000000000000000000000000000000000000000600052602160045260246000fd5b609e60009054906101000a900460ff1660028111156200173a577f4e487b7100000000000000000000000000000000000000000000000000000000600052602160045260246000fd5b146200177d576040517f08c379a00000000000000000000000000000000000000000000000000000000081526004016200177490620028ae565b60405180910390fd5b6002609e60006101000a81548160ff02191690836002811115620017ca577f4e487b7100000000000000000000000000000000000000000000000000000000600052602160045260246000fd5b02179055507f06e649079f276fcfc97b1e5cbfbb65937dac6a51ee164e3190e707e27ff345fa60405160405180910390a1565b600060019054906101000a900460ff168062001824575060008054906101000a900460ff16155b62001866576040517f08c379a00000000000000000000000000000000000000000000000000000000081526004016200185d90620027e2565b60405180910390fd5b60008060019054906101000a900460ff161590508015620018b7576001600060016101000a81548160ff02191690831515021790555060016000806101000a81548160ff0219169083151502179055505b620018c162001b47565b8015620018e35760008060016101000a81548160ff0219169083151502179055505b50565b600081518351146200192f576040517f08c379a00000000000000000000000000000000000000000000000000000000081526004016200192690620026b0565b60405180910390fd5b600080600090505b845181101562001a88578381815181106200197b577f4e487b7100000000000000000000000000000000000000000000000000000000600052603260045260246000fd5b6020026020010151609f6000878481518110620019c1577f4e487b7100000000000000000000000000000000000000000000000000000000600052603260045260246000fd5b602002602001015173ffffffffffffffffffffffffffffffffffffffff1673ffffffffffffffffffffffffffffffffffffffff16815260200190815260200160002060006101000a81548163ffffffff021916908363ffffffff16021790555083818151811062001a5b577f4e487b7100000000000000000000000000000000000000000000000000000000600052603260045260246000fd5b60200260200101518262001a70919062002ad0565b9150808062001a7f9062002cff565b91505062001937565b508091505092915050565b62001a9d62000e28565b1562001ae0576040517f08c379a000000000000000000000000000000000000000000000000000000000815260040162001ad790620027c0565b60405180910390fd5b6001606560006101000a81548160ff0219169083151502179055507f62e78cea01bee320cd4e420270b5ea74000d11b0c9f74754ebdbfc544b05a25862001b2662001b3f565b60405162001b35919062002575565b60405180910390a1565b600033905090565b600060019054906101000a900460ff168062001b6e575060008054906101000a900460ff16155b62001bb0576040517f08c379a000000000000000000000000000000000000000000000000000000000815260040162001ba790620027e2565b60405180910390fd5b60008060019054906101000a900460ff16159050801562001c01576001600060016101000a81548160ff02191690831515021790555060016000806101000a81548160ff0219169083151502179055505b801562001c235760008060016101000a81548160ff0219169083151502179055505b50565b612282806200329a83390190565b600062001c4b62001c458462002982565b62002959565b9050808382526020820190508285602086028201111562001c6b57600080fd5b60005b8581101562001c9f578162001c84888262001da8565b84526020840193506020830192505060018101905062001c6e565b5050509392505050565b600062001cc062001cba84620029b1565b62002959565b9050808382526020820190508285602086028201111562001ce057600080fd5b60005b8581101562001d14578162001cf9888262001ecf565b84526020840193506020830192505060018101905062001ce3565b5050509392505050565b600062001d3562001d2f84620029e0565b62002959565b90508281526020810184848401111562001d4e57600080fd5b62001d5b84828562002c84565b509392505050565b600062001d7a62001d748462002a16565b62002959565b90508281526020810184848401111562001d9357600080fd5b62001da084828562002c84565b509392505050565b60008135905062001db98162003217565b92915050565b60008135905062001dd08162003231565b92915050565b600082601f83011262001de857600080fd5b813562001dfa84826020860162001c34565b91505092915050565b600082601f83011262001e1557600080fd5b813562001e2784826020860162001ca9565b91505092915050565b60008151905062001e41816200324b565b92915050565b600082601f83011262001e5957600080fd5b813562001e6b84826020860162001d1e565b91505092915050565b600082601f83011262001e8657600080fd5b813562001e9884826020860162001d63565b91505092915050565b60008135905062001eb28162003265565b92915050565b60008151905062001ec98162003265565b92915050565b60008135905062001ee0816200327f565b92915050565b60006020828403121562001ef957600080fd5b600062001f098482850162001da8565b91505092915050565b6000806000806000806000806000806101408b8d03121562001f3357600080fd5b600062001f438d828e0162001da8565b9a5050602062001f568d828e0162001dbf565b995050604062001f698d828e0162001da8565b985050606062001f7c8d828e0162001ecf565b975050608062001f8f8d828e0162001ea1565b96505060a062001fa28d828e0162001ea1565b95505060c08b013567ffffffffffffffff81111562001fc057600080fd5b62001fce8d828e0162001e74565b94505060e08b013567ffffffffffffffff81111562001fec57600080fd5b62001ffa8d828e0162001e74565b9350506101008b013567ffffffffffffffff8111156200201957600080fd5b620020278d828e0162001dd6565b9250506101208b013567ffffffffffffffff8111156200204657600080fd5b620020548d828e0162001e03565b9150509295989b9194979a5092959850565b600080600080608085870312156200207d57600080fd5b60006200208d8782880162001da8565b9450506020620020a08782880162001da8565b9350506040620020b38782880162001ea1565b925050606085013567ffffffffffffffff811115620020d157600080fd5b620020df8782880162001e47565b91505092959194509250565b60008060408385031215620020ff57600080fd5b60006200210f8582860162001da8565b9250506020620021228582860162001ecf565b9150509250929050565b6000602082840312156200213f57600080fd5b60006200214f8482850162001e30565b91505092915050565b6000602082840312156200216b57600080fd5b60006200217b8482850162001eb8565b91505092915050565b6000602082840312156200219757600080fd5b6000620021a78482850162001ecf565b91505092915050565b620021bb8162002bc1565b82525050565b620021cc8162002bad565b82525050565b620021dd8162002bd5565b82525050565b620021ee8162002be1565b82525050565b620021ff8162002c5c565b82525050565b6000620022128262002a4c565b6200221e818562002a62565b93506200223081856020860162002c93565b6200223b8162002dda565b840191505092915050565b600062002255601b8362002a62565b9150620022628262002deb565b602082019050919050565b60006200227c60368362002a62565b9150620022898262002e14565b604082019050919050565b6000620022a360148362002a62565b9150620022b08262002e63565b602082019050919050565b6000620022ca60368362002a62565b9150620022d78262002e8c565b604082019050919050565b6000620022f1601a8362002a62565b9150620022fe8262002edb565b602082019050919050565b600062002318602c8362002a62565b9150620023258262002f04565b604082019050919050565b60006200233f601a8362002a62565b91506200234c8262002f53565b602082019050919050565b600062002366601e8362002a62565b9150620023738262002f7c565b602082019050919050565b60006200238d60158362002a62565b91506200239a8262002fa5565b602082019050919050565b6000620023b460108362002a62565b9150620023c18262002fce565b602082019050919050565b6000620023db602e8362002a62565b9150620023e88262002ff7565b604082019050919050565b600062002402602e8362002a62565b91506200240f8262003046565b604082019050919050565b600062002429604d8362002a62565b9150620024368262003095565b606082019050919050565b60006200245060338362002a62565b91506200245d826200310a565b604082019050919050565b60006200247760158362002a62565b9150620024848262003159565b602082019050919050565b60006200249e60208362002a62565b9150620024ab8262003182565b602082019050919050565b6000620024c5601b8362002a62565b9150620024d282620031ab565b602082019050919050565b6000620024ec60008362002a57565b9150620024f982620031d4565b600082019050919050565b60006200251360128362002a62565b91506200252082620031d7565b602082019050919050565b620025368162002c42565b82525050565b620025478162002c70565b82525050565b620025588162002c4c565b82525050565b60006200256b82620024dd565b9150819050919050565b60006020820190506200258c6000830184620021c1565b92915050565b6000602082019050620025a96000830184620021b0565b92915050565b6000604082019050620025c66000830185620021c1565b620025d560208301846200253c565b9392505050565b6000602082019050620025f36000830184620021d2565b92915050565b6000602082019050620026106000830184620021e3565b92915050565b60006020820190506200262d6000830184620021f4565b92915050565b600060808201905081810360008301526200264f818762002205565b9050818103602083015262002665818662002205565b90506200267660408301856200253c565b620026856060830184620021c1565b95945050505050565b60006020820190508181036000830152620026a98162002246565b9050919050565b60006020820190508181036000830152620026cb816200226d565b9050919050565b60006020820190508181036000830152620026ed8162002294565b9050919050565b600060208201905081810360008301526200270f81620022bb565b9050919050565b600060208201905081810360008301526200273181620022e2565b9050919050565b60006020820190508181036000830152620027538162002309565b9050919050565b60006020820190508181036000830152620027758162002330565b9050919050565b60006020820190508181036000830152620027978162002357565b9050919050565b60006020820190508181036000830152620027b9816200237e565b9050919050565b60006020820190508181036000830152620027db81620023a5565b9050919050565b60006020820190508181036000830152620027fd81620023cc565b9050919050565b600060208201905081810360008301526200281f81620023f3565b9050919050565b6000602082019050818103600083015262002841816200241a565b9050919050565b60006020820190508181036000830152620028638162002441565b9050919050565b60006020820190508181036000830152620028858162002468565b9050919050565b60006020820190508181036000830152620028a7816200248f565b9050919050565b60006020820190508181036000830152620028c981620024b6565b9050919050565b60006020820190508181036000830152620028eb8162002504565b9050919050565b60006020820190506200290960008301846200252b565b92915050565b60006020820190506200292660008301846200254d565b92915050565b60006040820190506200294360008301856200253c565b620029526020830184620021c1565b9392505050565b60006200296562002978565b905062002973828262002cc9565b919050565b6000604051905090565b600067ffffffffffffffff821115620029a0576200299f62002dab565b5b602082029050602081019050919050565b600067ffffffffffffffff821115620029cf57620029ce62002dab565b5b602082029050602081019050919050565b600067ffffffffffffffff821115620029fe57620029fd62002dab565b5b62002a098262002dda565b9050602081019050919050565b600067ffffffffffffffff82111562002a345762002a3362002dab565b5b62002a3f8262002dda565b9050602081019050919050565b600081519050919050565b600081905092915050565b600082825260208201905092915050565b600062002a808262002c42565b915062002a8d8362002c42565b9250827fffffffffffffffffffffffffffffffffffffffffffffffffffffffffffffffff0382111562002ac55762002ac462002d4d565b5b828201905092915050565b600062002add8262002c4c565b915062002aea8362002c4c565b92508263ffffffff0382111562002b065762002b0562002d4d565b5b828201905092915050565b600062002b1e8262002c42565b915062002b2b8362002c42565b9250817fffffffffffffffffffffffffffffffffffffffffffffffffffffffffffffffff048311821515161562002b675762002b6662002d4d565b5b828202905092915050565b600062002b7f8262002c4c565b915062002b8c8362002c4c565b92508282101562002ba25762002ba162002d4d565b5b828203905092915050565b600062002bba8262002c22565b9050919050565b600062002bce8262002c22565b9050919050565b60008115159050919050565b60007fffffffff0000000000000000000000000000000000000000000000000000000082169050919050565b600081905062002c1d8262003200565b919050565b600073ffffffffffffffffffffffffffffffffffffffff82169050919050565b6000819050919050565b600063ffffffff82169050919050565b600062002c698262002c0d565b9050919050565b600062002c7d8262002c4c565b9050919050565b82818337600083830152505050565b60005b8381101562002cb357808201518184015260208101905062002c96565b8381111562002cc3576000848401525b50505050565b62002cd48262002dda565b810181811067ffffffffffffffff8211171562002cf65762002cf562002dab565b5b80604052505050565b600062002d0c8262002c42565b91507fffffffffffffffffffffffffffffffffffffffffffffffffffffffffffffffff82141562002d425762002d4162002d4d565b5b600182019050919050565b7f4e487b7100000000000000000000000000000000000000000000000000000000600052601160045260246000fd5b7f4e487b7100000000000000000000000000000000000000000000000000000000600052602160045260246000fd5b7f4e487b7100000000000000000000000000000000000000000000000000000000600052604160045260246000fd5b6000601f19601f8301169050919050565b7f4f66666572696e6720697320616c726561647920737461727465640000000000600082015250565b7f46756e6465727320616e6420616c6c6f636174696f6e2061727261792073697a60008201527f65732063616e6e6f7420626520646966666572656e7400000000000000000000602082015250565b7f5061757361626c653a206e6f7420706175736564000000000000000000000000600082015250565b7f41646472657373206973206e6f7420616c6c6f77656420746f2070617274696360008201527f697061746520696e20746865206f66666572696e672e00000000000000000000602082015250565b7f46756e64732073656e742063616e6e6f74206265207a65726f2e000000000000600082015250565b7f426964206973206d6f7265207468616e20616c6c6f636174656420666f72207460008201527f68697320616464726573732e0000000000000000000000000000000000000000602082015250565b7f42696420616d6f756e742063616e6e6f74206265207a65726f2e000000000000600082015250565b7f5472616e7366657220616d6f756e74206e6f74207375636365737366756c0000600082015250565b7f4f66666572696e67206973206e6f7420656e6465640000000000000000000000600082015250565b7f5061757361626c653a2070617573656400000000000000000000000000000000600082015250565b7f496e697469616c697a61626c653a20636f6e747261637420697320616c72656160008201527f647920696e697469616c697a6564000000000000000000000000000000000000602082015250565b7f52656d61696e696e67206973206c657373207468616e2074686520616d6f756e60008201527f742074686174206973206269642e000000000000000000000000000000000000602082015250565b7f46756e64732073656e7420666f7220626964206973206c657373207468616e2060008201527f74686520746f74616c206361706974616c20726571756972656420746f20627560208201527f792074686520616d6f756e742e00000000000000000000000000000000000000604082015250565b7f476976656e20737570706c79206973206e6f7420657175616c20746f2074686560008201527f2073756d206f6620616c6c6f636174696f6e7300000000000000000000000000602082015250565b7f4f66666572696e67206973206e6f74206c6976652e0000000000000000000000600082015250565b7f53656e646572206973206e6f74207468652070726f6a656374206f776e65722e600082015250565b7f4f66666572696e6720697320616c726561647920636c6f7365642e0000000000600082015250565b50565b7f54686520626964206973207061757365642e0000000000000000000000000000600082015250565b6003811062003214576200321362002d7c565b5b50565b620032228162002bad565b81146200322e57600080fd5b50565b6200323c8162002bc1565b81146200324857600080fd5b50565b620032568162002bd5565b81146200326257600080fd5b50565b620032708162002c42565b81146200327c57600080fd5b50565b6200328a8162002c4c565b81146200329657600080fd5b5056fe60806040523480156200001157600080fd5b50604051620022823803806200228283398181016040528101906200003791906200044a565b8383816003908051906020019062000051929190620002fa565b5080600490805190602001906200006a929190620002fa565b5050506200008d62000081620000a960201b60201c565b620000b160201b60201c565b6200009f81836200017760201b60201c565b5050505062000807565b600033905090565b6000600560009054906101000a900473ffffffffffffffffffffffffffffffffffffffff16905081600560006101000a81548173ffffffffffffffffffffffffffffffffffffffff021916908373ffffffffffffffffffffffffffffffffffffffff1602179055508173ffffffffffffffffffffffffffffffffffffffff168173ffffffffffffffffffffffffffffffffffffffff167f8be0079c531659141344cd1fd0a4f28419497f9722a3daafe3b4186f6b6457e060405160405180910390a35050565b600073ffffffffffffffffffffffffffffffffffffffff168273ffffffffffffffffffffffffffffffffffffffff161415620001ea576040517f08c379a0000000000000000000000000000000000000000000000000000000008152600401620001e19062000520565b60405180910390fd5b620001fe60008383620002f060201b60201c565b8060026000828254620002129190620005cf565b92505081905550806000808473ffffffffffffffffffffffffffffffffffffffff1673ffffffffffffffffffffffffffffffffffffffff1681526020019081526020016000206000828254620002699190620005cf565b925050819055508173ffffffffffffffffffffffffffffffffffffffff16600073ffffffffffffffffffffffffffffffffffffffff167fddf252ad1be2c89b69c2b068fc378daa952ba7f163c4a11628f55a4df523b3ef83604051620002d0919062000542565b60405180910390a3620002ec60008383620002f560201b60201c565b5050565b505050565b505050565b8280546200030890620006a0565b90600052602060002090601f0160209004810192826200032c576000855562000378565b82601f106200034757805160ff191683800117855562000378565b8280016001018555821562000378579182015b82811115620003775782518255916020019190600101906200035a565b5b5090506200038791906200038b565b5090565b5b80821115620003a65760008160009055506001016200038c565b5090565b6000620003c1620003bb8462000588565b6200055f565b905082815260208101848484011115620003da57600080fd5b620003e78482856200066a565b509392505050565b6000815190506200040081620007d3565b92915050565b600082601f8301126200041857600080fd5b81516200042a848260208601620003aa565b91505092915050565b6000815190506200044481620007ed565b92915050565b600080600080608085870312156200046157600080fd5b600085015167ffffffffffffffff8111156200047c57600080fd5b6200048a8782880162000406565b945050602085015167ffffffffffffffff811115620004a857600080fd5b620004b68782880162000406565b9350506040620004c98782880162000433565b9250506060620004dc87828801620003ef565b91505092959194509250565b6000620004f7601f83620005be565b91506200050482620007aa565b602082019050919050565b6200051a8162000660565b82525050565b600060208201905081810360008301526200053b81620004e8565b9050919050565b60006020820190506200055960008301846200050f565b92915050565b60006200056b6200057e565b9050620005798282620006d6565b919050565b6000604051905090565b600067ffffffffffffffff821115620005a657620005a56200076a565b5b620005b18262000799565b9050602081019050919050565b600082825260208201905092915050565b6000620005dc8262000660565b9150620005e98362000660565b9250827fffffffffffffffffffffffffffffffffffffffffffffffffffffffffffffffff038211156200062157620006206200070c565b5b828201905092915050565b6000620006398262000640565b9050919050565b600073ffffffffffffffffffffffffffffffffffffffff82169050919050565b6000819050919050565b60005b838110156200068a5780820151818401526020810190506200066d565b838111156200069a576000848401525b50505050565b60006002820490506001821680620006b957607f821691505b60208210811415620006d057620006cf6200073b565b5b50919050565b620006e18262000799565b810181811067ffffffffffffffff821117156200070357620007026200076a565b5b80604052505050565b7f4e487b7100000000000000000000000000000000000000000000000000000000600052601160045260246000fd5b7f4e487b7100000000000000000000000000000000000000000000000000000000600052602260045260246000fd5b7f4e487b7100000000000000000000000000000000000000000000000000000000600052604160045260246000fd5b6000601f19601f8301169050919050565b7f45524332303a206d696e7420746f20746865207a65726f206164647265737300600082015250565b620007de816200062c565b8114620007ea57600080fd5b50565b620007f88162000660565b81146200080457600080fd5b50565b611a6b80620008176000396000f3fe608060405234801561001057600080fd5b50600436106100f55760003560e01c8063715018a611610097578063a457c2d711610066578063a457c2d714610276578063a9059cbb146102a6578063dd62ed3e146102d6578063f2fde38b14610306576100f5565b8063715018a6146102145780638da5cb5b1461021e57806394bf804d1461023c57806395d89b4114610258576100f5565b806323b872dd116100d357806323b872dd14610166578063313ce5671461019657806339509351146101b457806370a08231146101e4576100f5565b806306fdde03146100fa578063095ea7b31461011857806318160ddd14610148575b600080fd5b610102610322565b60405161010f919061140a565b60405180910390f35b610132600480360381019061012d9190611189565b6103b4565b60405161013f91906113ef565b60405180910390f35b6101506103d2565b60405161015d919061156c565b60405180910390f35b610180600480360381019061017b919061113a565b6103dc565b60405161018d91906113ef565b60405180910390f35b61019e6104d4565b6040516101ab9190611587565b60405180910390f35b6101ce60048036038101906101c99190611189565b6104dd565b6040516101db91906113ef565b60405180910390f35b6101fe60048036038101906101f991906110d5565b610589565b60405161020b919061156c565b60405180910390f35b61021c6105d1565b005b610226610659565b60405161023391906113d4565b60405180910390f35b610256600480360381019061025191906111c5565b610683565b005b61026061070d565b60405161026d919061140a565b60405180910390f35b610290600480360381019061028b9190611189565b61079f565b60405161029d91906113ef565b60405180910390f35b6102c060048036038101906102bb9190611189565b61088a565b6040516102cd91906113ef565b60405180910390f35b6102f060048036038101906102eb91906110fe565b6108a8565b6040516102fd919061156c565b60405180910390f35b610320600480360381019061031b91906110d5565b61092f565b005b6060600380546103319061169c565b80601f016020809104026020016040519081016040528092919081815260200182805461035d9061169c565b80156103aa5780601f1061037f576101008083540402835291602001916103aa565b820191906000526020600020905b81548152906001019060200180831161038d57829003601f168201915b5050505050905090565b60006103c86103c1610a27565b8484610a2f565b6001905092915050565b6000600254905090565b60006103e9848484610bfa565b6000600160008673ffffffffffffffffffffffffffffffffffffffff1673ffffffffffffffffffffffffffffffffffffffff1681526020019081526020016000206000610434610a27565b73ffffffffffffffffffffffffffffffffffffffff1673ffffffffffffffffffffffffffffffffffffffff168152602001908152602001600020549050828110156104b4576040517f08c379a00000000000000000000000000000000000000000000000000000000081526004016104ab906114ac565b60405180910390fd5b6104c8856104c0610a27565b858403610a2f565b60019150509392505050565b60006012905090565b600061057f6104ea610a27565b8484600160006104f8610a27565b73ffffffffffffffffffffffffffffffffffffffff1673ffffffffffffffffffffffffffffffffffffffff16815260200190815260200160002060008873ffffffffffffffffffffffffffffffffffffffff1673ffffffffffffffffffffffffffffffffffffffff1681526020019081526020016000205461057a91906115be565b610a2f565b6001905092915050565b60008060008373ffffffffffffffffffffffffffffffffffffffff1673ffffffffffffffffffffffffffffffffffffffff168152602001908152602001600020549050919050565b6105d9610a27565b73ffffffffffffffffffffffffffffffffffffffff166105f7610659565b73ffffffffffffffffffffffffffffffffffffffff161461064d576040517f08c379a0000000000000000000000000000000000000000000000000000000008152600401610644906114cc565b60405180910390fd5b6106576000610e7b565b565b6000600560009054906101000a900473ffffffffffffffffffffffffffffffffffffffff16905090565b61068b610a27565b73ffffffffffffffffffffffffffffffffffffffff166106a9610659565b73ffffffffffffffffffffffffffffffffffffffff16146106ff576040517f08c379a00000000000000000000000000000000000000000000000000000000081526004016106f6906114cc565b60405180910390fd5b6107098183610f41565b5050565b60606004805461071c9061169c565b80601f01602080910402602001604051908101604052809291908181526020018280546107489061169c565b80156107955780601f1061076a57610100808354040283529160200191610795565b820191906000526020600020905b81548152906001019060200180831161077857829003601f168201915b5050505050905090565b600080600160006107ae610a27565b73ffffffffffffffffffffffffffffffffffffffff1673ffffffffffffffffffffffffffffffffffffffff16815260200190815260200160002060008573ffffffffffffffffffffffffffffffffffffffff1673ffffffffffffffffffffffffffffffffffffffff1681526020019081526020016000205490508281101561086b576040517f08c379a00000000000000000000000000000000000000000000000000000000081526004016108629061152c565b60405180910390fd5b61087f610876610a27565b85858403610a2f565b600191505092915050565b600061089e610897610a27565b8484610bfa565b6001905092915050565b6000600160008473ffffffffffffffffffffffffffffffffffffffff1673ffffffffffffffffffffffffffffffffffffffff16815260200190815260200160002060008373ffffffffffffffffffffffffffffffffffffffff1673ffffffffffffffffffffffffffffffffffffffff16815260200190815260200160002054905092915050565b610937610a27565b73ffffffffffffffffffffffffffffffffffffffff16610955610659565b73ffffffffffffffffffffffffffffffffffffffff16146109ab576040517f08c379a00000000000000000000000000000000000000000000000000000000081526004016109a2906114cc565b60405180910390fd5b600073ffffffffffffffffffffffffffffffffffffffff168173ffffffffffffffffffffffffffffffffffffffff161415610a1b576040517f08c379a0000000000000000000000000000000000000000000000000000000008152600401610a129061144c565b60405180910390fd5b610a2481610e7b565b50565b600033905090565b600073ffffffffffffffffffffffffffffffffffffffff168373ffffffffffffffffffffffffffffffffffffffff161415610a9f576040517f08c379a0000000000000000000000000000000000000000000000000000000008152600401610a969061150c565b60405180910390fd5b600073ffffffffffffffffffffffffffffffffffffffff168273ffffffffffffffffffffffffffffffffffffffff161415610b0f576040517f08c379a0000000000000000000000000000000000000000000000000000000008152600401610b069061146c565b60405180910390fd5b80600160008573ffffffffffffffffffffffffffffffffffffffff1673ffffffffffffffffffffffffffffffffffffffff16815260200190815260200160002060008473ffffffffffffffffffffffffffffffffffffffff1673ffffffffffffffffffffffffffffffffffffffff168152602001908152602001600020819055508173ffffffffffffffffffffffffffffffffffffffff168373ffffffffffffffffffffffffffffffffffffffff167f8c5be1e5ebec7d5bd14f71427d1e84f3dd0314c0f7b2291e5b200ac8c7c3b92583604051610bed919061156c565b60405180910390a3505050565b600073ffffffffffffffffffffffffffffffffffffffff168373ffffffffffffffffffffffffffffffffffffffff161415610c6a576040517f08c379a0000000000000000000000000000000000000000000000000000000008152600401610c61906114ec565b60405180910390fd5b600073ffffffffffffffffffffffffffffffffffffffff168273ffffffffffffffffffffffffffffffffffffffff161415610cda576040517f08c379a0000000000000000000000000000000000000000000000000000000008152600401610cd19061142c565b60405180910390fd5b610ce58383836110a1565b60008060008573ffffffffffffffffffffffffffffffffffffffff1673ffffffffffffffffffffffffffffffffffffffff16815260200190815260200160002054905081811015610d6b576040517f08c379a0000000000000000000000000000000000000000000000000000000008152600401610d629061148c565b60405180910390fd5b8181036000808673ffffffffffffffffffffffffffffffffffffffff1673ffffffffffffffffffffffffffffffffffffffff16815260200190815260200160002081905550816000808573ffffffffffffffffffffffffffffffffffffffff1673ffffffffffffffffffffffffffffffffffffffff1681526020019081526020016000206000828254610dfe91906115be565b925050819055508273ffffffffffffffffffffffffffffffffffffffff168473ffffffffffffffffffffffffffffffffffffffff167fddf252ad1be2c89b69c2b068fc378daa952ba7f163c4a11628f55a4df523b3ef84604051610e62919061156c565b60405180910390a3610e758484846110a6565b50505050565b6000600560009054906101000a900473ffffffffffffffffffffffffffffffffffffffff16905081600560006101000a81548173ffffffffffffffffffffffffffffffffffffffff021916908373ffffffffffffffffffffffffffffffffffffffff1602179055508173ffffffffffffffffffffffffffffffffffffffff168173ffffffffffffffffffffffffffffffffffffffff167f8be0079c531659141344cd1fd0a4f28419497f9722a3daafe3b4186f6b6457e060405160405180910390a35050565b600073ffffffffffffffffffffffffffffffffffffffff168273ffffffffffffffffffffffffffffffffffffffff161415610fb1576040517f08c379a0000000000000000000000000000000000000000000000000000000008152600401610fa89061154c565b60405180910390fd5b610fbd600083836110a1565b8060026000828254610fcf91906115be565b92505081905550806000808473ffffffffffffffffffffffffffffffffffffffff1673ffffffffffffffffffffffffffffffffffffffff168152602001908152602001600020600082825461102491906115be565b925050819055508173ffffffffffffffffffffffffffffffffffffffff16600073ffffffffffffffffffffffffffffffffffffffff167fddf252ad1be2c89b69c2b068fc378daa952ba7f163c4a11628f55a4df523b3ef83604051611089919061156c565b60405180910390a361109d600083836110a6565b5050565b505050565b505050565b6000813590506110ba81611a07565b92915050565b6000813590506110cf81611a1e565b92915050565b6000602082840312156110e757600080fd5b60006110f5848285016110ab565b91505092915050565b6000806040838503121561111157600080fd5b600061111f858286016110ab565b9250506020611130858286016110ab565b9150509250929050565b60008060006060848603121561114f57600080fd5b600061115d868287016110ab565b935050602061116e868287016110ab565b925050604061117f868287016110c0565b9150509250925092565b6000806040838503121561119c57600080fd5b60006111aa858286016110ab565b92505060206111bb858286016110c0565b9150509250929050565b600080604083850312156111d857600080fd5b60006111e6858286016110c0565b92505060206111f7858286016110ab565b9150509250929050565b61120a81611614565b82525050565b61121981611626565b82525050565b600061122a826115a2565b61123481856115ad565b9350611244818560208601611669565b61124d8161172c565b840191505092915050565b60006112656023836115ad565b91506112708261173d565b604082019050919050565b60006112886026836115ad565b91506112938261178c565b604082019050919050565b60006112ab6022836115ad565b91506112b6826117db565b604082019050919050565b60006112ce6026836115ad565b91506112d98261182a565b604082019050919050565b60006112f16028836115ad565b91506112fc82611879565b604082019050919050565b60006113146020836115ad565b915061131f826118c8565b602082019050919050565b60006113376025836115ad565b9150611342826118f1565b604082019050919050565b600061135a6024836115ad565b915061136582611940565b604082019050919050565b600061137d6025836115ad565b91506113888261198f565b604082019050919050565b60006113a0601f836115ad565b91506113ab826119de565b602082019050919050565b6113bf81611652565b82525050565b6113ce8161165c565b82525050565b60006020820190506113e96000830184611201565b92915050565b60006020820190506114046000830184611210565b92915050565b60006020820190508181036000830152611424818461121f565b905092915050565b6000602082019050818103600083015261144581611258565b9050919050565b600060208201905081810360008301526114658161127b565b9050919050565b600060208201905081810360008301526114858161129e565b9050919050565b600060208201905081810360008301526114a5816112c1565b9050919050565b600060208201905081810360008301526114c5816112e4565b9050919050565b600060208201905081810360008301526114e581611307565b9050919050565b600060208201905081810360008301526115058161132a565b9050919050565b600060208201905081810360008301526115258161134d565b9050919050565b6000602082019050818103600083015261154581611370565b9050919050565b6000602082019050818103600083015261156581611393565b9050919050565b600060208201905061158160008301846113b6565b92915050565b600060208201905061159c60008301846113c5565b92915050565b600081519050919050565b600082825260208201905092915050565b60006115c982611652565b91506115d483611652565b9250827fffffffffffffffffffffffffffffffffffffffffffffffffffffffffffffffff03821115611609576116086116ce565b5b828201905092915050565b600061161f82611632565b9050919050565b60008115159050919050565b600073ffffffffffffffffffffffffffffffffffffffff82169050919050565b6000819050919050565b600060ff82169050919050565b60005b8381101561168757808201518184015260208101905061166c565b83811115611696576000848401525b50505050565b600060028204905060018216806116b457607f821691505b602082108114156116c8576116c76116fd565b5b50919050565b7f4e487b7100000000000000000000000000000000000000000000000000000000600052601160045260246000fd5b7f4e487b7100000000000000000000000000000000000000000000000000000000600052602260045260246000fd5b6000601f19601f8301169050919050565b7f45524332303a207472616e7366657220746f20746865207a65726f206164647260008201527f6573730000000000000000000000000000000000000000000000000000000000602082015250565b7f4f776e61626c653a206e6577206f776e657220697320746865207a65726f206160008201527f6464726573730000000000000000000000000000000000000000000000000000602082015250565b7f45524332303a20617070726f766520746f20746865207a65726f20616464726560008201527f7373000000000000000000000000000000000000000000000000000000000000602082015250565b7f45524332303a207472616e7366657220616d6f756e742065786365656473206260008201527f616c616e63650000000000000000000000000000000000000000000000000000602082015250565b7f45524332303a207472616e7366657220616d6f756e742065786365656473206160008201527f6c6c6f77616e6365000000000000000000000000000000000000000000000000602082015250565b7f4f776e61626c653a2063616c6c6572206973206e6f7420746865206f776e6572600082015250565b7f45524332303a207472616e736665722066726f6d20746865207a65726f20616460008201527f6472657373000000000000000000000000000000000000000000000000000000602082015250565b7f45524332303a20617070726f76652066726f6d20746865207a65726f2061646460008201527f7265737300000000000000000000000000000000000000000000000000000000602082015250565b7f45524332303a2064656372656173656420616c6c6f77616e63652062656c6f7760008201527f207a65726f000000000000000000000000000000000000000000000000000000602082015250565b7f45524332303a206d696e7420746f20746865207a65726f206164647265737300600082015250565b611a1081611614565b8114611a1b57600080fd5b50565b611a2781611652565b8114611a3257600080fd5b5056fea2646970667358221220da83a4a0710d4814a72376a5890f9dabcb31cf3467207868b5a59e32f5dd354464736f6c63430008040033a264697066735822122069b1f09e2463ec9dc8a281b85b5371ac392b05f759471e17450d60c8f864755c64736f6c63430008040033",
  "linkReferences": {},
  "deployedLinkReferences": {}
}