{
  "_format": "hh-sol-artifact-1",
  "contractName": "Utils",
  "sourceName": "contracts/utils.sol",
  "abi": [
    {
      "inputs": [],
      "name": "USDC",
      "outputs": [
        {
          "internalType": "contract IERC20",
          "name": "",
          "type": "address"
        }
      ],
      "stateMutability": "view",
      "type": "function"
    },
    {
      "inputs": [
        {
          "internalType": "address",
          "name": "source",
          "type": "address"
        }
      ],
      "name": "getUSDBalance",
      "outputs": [
        {
          "internalType": "uint256",
          "name": "",
          "type": "uint256"
        }
      ],
      "stateMutability": "view",
      "type": "function"
    },
    {
      "inputs": [
        {
          "internalType": "address",
          "name": "from",
          "type": "address"
        },
        {
          "internalType": "address",
          "name": "to",
          "type": "address"
        },
        {
          "internalType": "uint256",
          "name": "value",
          "type": "uint256"
        }
      ],
      "name": "sendStableCoin",
      "outputs": [
        {
          "internalType": "bool",
          "name": "",
          "type": "bool"
        }
      ],
      "stateMutability": "nonpayable",
      "type": "function"
    }
  ],
  "bytecode": "0x608060405234801561001057600080fd5b5061053a806100206000396000f3fe608060405234801561001057600080fd5b50600436106100415760003560e01c80630a42d207146100465780632322e3b91461007657806389a30271146100a6575b600080fd5b610060600480360381019061005b91906102d3565b6100c4565b60405161006d9190610402565b60405180910390f35b610090600480360381019061008b91906102aa565b6100ea565b60405161009d9190610438565b60405180910390f35b6100ae610190565b6040516100bb919061041d565b60405180910390f35b60006100d18484846101a8565b6100de57600090506100e3565b600190505b9392505050565b600073b7f8bc63bbcad18155201308c8f3540b07f84f5e73ffffffffffffffffffffffffffffffffffffffff166370a08231836040518263ffffffff1660e01b815260040161013991906103b0565b60206040518083038186803b15801561015157600080fd5b505afa158015610165573d6000803e3d6000fd5b505050506040513d601f19601f82011682018060405250810190610189919061034b565b9050919050565b73b7f8bc63bbcad18155201308c8f3540b07f84f5e81565b600073b7f8bc63bbcad18155201308c8f3540b07f84f5e73ffffffffffffffffffffffffffffffffffffffff166323b872dd8585856040518463ffffffff1660e01b81526004016101fb939291906103cb565b602060405180830381600087803b15801561021557600080fd5b505af1158015610229573d6000803e3d6000fd5b505050506040513d601f19601f8201168201806040525081019061024d9190610322565b90509392505050565b600081359050610265816104bf565b92915050565b60008151905061027a816104d6565b92915050565b60008135905061028f816104ed565b92915050565b6000815190506102a4816104ed565b92915050565b6000602082840312156102bc57600080fd5b60006102ca84828501610256565b91505092915050565b6000806000606084860312156102e857600080fd5b60006102f686828701610256565b935050602061030786828701610256565b925050604061031886828701610280565b9150509250925092565b60006020828403121561033457600080fd5b60006103428482850161026b565b91505092915050565b60006020828403121561035d57600080fd5b600061036b84828501610295565b91505092915050565b61037d81610453565b82525050565b61038c81610465565b82525050565b61039b8161049b565b82525050565b6103aa81610491565b82525050565b60006020820190506103c56000830184610374565b92915050565b60006060820190506103e06000830186610374565b6103ed6020830185610374565b6103fa60408301846103a1565b949350505050565b60006020820190506104176000830184610383565b92915050565b60006020820190506104326000830184610392565b92915050565b600060208201905061044d60008301846103a1565b92915050565b600061045e82610471565b9050919050565b60008115159050919050565b600073ffffffffffffffffffffffffffffffffffffffff82169050919050565b6000819050919050565b60006104a6826104ad565b9050919050565b60006104b882610471565b9050919050565b6104c881610453565b81146104d357600080fd5b50565b6104df81610465565b81146104ea57600080fd5b50565b6104f681610491565b811461050157600080fd5b5056fea2646970667358221220d8ff00a2227acf331f445f24271d2b5ea5630fc6dc2ec4166968f340dbb496bc64736f6c63430008040033",
  "linkReferences": {},
  "deployedLinkReferences": {}
}