{
  "_format": "hh-sol-artifact-1",
  "contractName": "InitializedProxy",
  "sourceName": "contracts/Funding/Proxy.sol",
  "abi": [
    {
      "inputs": [
        {
          "internalType": "address",
          "name": "_logic",
          "type": "address"
        },
        {
          "internalType": "bytes",
          "name": "_initializationCalldata",
          "type": "bytes"
        }
      ],
      "stateMutability": "nonpayable",
      "type": "constructor"
    },
    {
      "stateMutability": "payable",
      "type": "fallback"
    },
    {
      "inputs": [],
      "name": "logic",
      "outputs": [
        {
          "internalType": "address",
          "name": "",
          "type": "address"
        }
      ],
      "stateMutability": "view",
      "type": "function"
    },
    {
      "stateMutability": "payable",
      "type": "receive"
    }
  ],
  "bytecode": "0x60a060405234801561001057600080fd5b506040516105873803806105878339818101604052810190610032919061019c565b8173ffffffffffffffffffffffffffffffffffffffff1660808173ffffffffffffffffffffffffffffffffffffffff1660601b815250506000808373ffffffffffffffffffffffffffffffffffffffff16836040516100919190610244565b600060405180830381855af49150503d80600081146100cc576040519150601f19603f3d011682016040523d82523d6000602084013e6100d1565b606091505b509150915081610116576040517f08c379a000000000000000000000000000000000000000000000000000000000815260040161010d9061025b565b60405180910390fd5b5050505061040e565b600061013261012d846102a0565b61027b565b90508281526020810184848401111561014a57600080fd5b61015584828561032a565b509392505050565b60008151905061016c816103f7565b92915050565b600082601f83011261018357600080fd5b815161019384826020860161011f565b91505092915050565b600080604083850312156101af57600080fd5b60006101bd8582860161015d565b925050602083015167ffffffffffffffff8111156101da57600080fd5b6101e685828601610172565b9150509250929050565b60006101fb826102d1565b61020581856102dc565b935061021581856020860161032a565b80840191505092915050565b600061022e6013836102e7565b9150610239826103ce565b602082019050919050565b600061025082846101f0565b915081905092915050565b6000602082019050818103600083015261027481610221565b9050919050565b6000610285610296565b9050610291828261035d565b919050565b6000604051905090565b600067ffffffffffffffff8211156102bb576102ba61038e565b5b6102c4826103bd565b9050602081019050919050565b600081519050919050565b600081905092915050565b600082825260208201905092915050565b60006103038261030a565b9050919050565b600073ffffffffffffffffffffffffffffffffffffffff82169050919050565b60005b8381101561034857808201518184015260208101905061032d565b83811115610357576000848401525b50505050565b610366826103bd565b810181811067ffffffffffffffff821117156103855761038461038e565b5b80604052505050565b7f4e487b7100000000000000000000000000000000000000000000000000000000600052604160045260246000fd5b6000601f19601f8301169050919050565b7f44656c65676174652063616c6c206572726f7200000000000000000000000000600082015250565b610400816102f8565b811461040b57600080fd5b50565b60805160601c61015661043160003960008181602d015260a201526101566000f3fe6080604052600436106100225760003560e01c8063d7dfa0dd1461007557610029565b3661002957005b60007f0000000000000000000000000000000000000000000000000000000000000000905060405136600082376000803683855af43d806000843e8160008114610071578184f35b8184fd5b34801561008157600080fd5b5061008a6100a0565b60405161009791906100d3565b60405180910390f35b7f000000000000000000000000000000000000000000000000000000000000000081565b6100cd816100ee565b82525050565b60006020820190506100e860008301846100c4565b92915050565b60006100f982610100565b9050919050565b600073ffffffffffffffffffffffffffffffffffffffff8216905091905056fea26469706673582212201e3538ccb2aef0b7d6a757c5f8dda152f829e4f1514e990b0f40463260eadee864736f6c63430008040033",
  "linkReferences": {},
  "deployedLinkReferences": {}
}